{
  "_format": "hh-sol-artifact-1",
  "contractName": "MineHandlerLibState",
  "sourceName": "contracts/V3/handler/MineHandlerLibState.sol",
  "abi": [
    {
      "inputs": [
        {
          "components": [
            {
              "internalType": "address",
              "name": "engine",
              "type": "address"
            },
            {
              "internalType": "address",
              "name": "clusterArea",
              "type": "address"
            },
            {
              "internalType": "uint32",
              "name": "clusterId",
              "type": "uint32"
            },
            {
              "internalType": "uint16",
              "name": "ruleSlotIndexInput",
              "type": "uint16"
            },
            {
              "internalType": "uint16",
              "name": "ruleSlotIndexOutput",
              "type": "uint16"
            },
            {
              "internalType": "uint8",
              "name": "branch",
              "type": "uint8"
            },
            {
              "internalType": "address",
              "name": "stateCounter",
              "type": "address"
            },
            {
              "internalType": "uint32",
              "name": "taskId",
              "type": "uint32"
            },
            {
              "internalType": "address",
              "name": "caller",
              "type": "address"
            },
            {
              "internalType": "uint8",
              "name": "cmd",
              "type": "uint8"
            },
            {
              "internalType": "bytes",
              "name": "args",
              "type": "bytes"
            }
          ],
          "internalType": "struct Handler.StateParams",
          "name": "params",
          "type": "tuple"
        }
      ],
      "name": "getMineState",
      "outputs": [
        {
          "internalType": "bytes[]",
          "name": "",
          "type": "bytes[]"
        }
      ],
      "stateMutability": "view",
      "type": "function"
    }
  ],
  "bytecode": "0x612a3661003a600b82828239805160001a60731461002d57634e487b7160e01b600052600060045260246000fd5b30600052607381538281f3fe73000000000000000000000000000000000000000030146080604052600436106100355760003560e01c806362b7009c1461003a575b600080fd5b61004d6100483660046122e6565b610063565b60405161005a9190612450565b60405180910390f35b60606101156040518060400160405280601a81526020017916969696969033b2ba26b4b732a9ba30ba32903430b7323632b960311b81525083602001516001600160a01b031663fe8c4aa36040518163ffffffff1660e01b815260040160206040518083038186803b1580156100d857600080fd5b505afa1580156100ec573d6000803e3d6000fd5b505050506040513d601f19601f8201168201806040525081019061011091906124b2565b6112ed565b600082602001516001600160a01b031663fe8c4aa36040518163ffffffff1660e01b815260040160206040518083038186803b15801561015457600080fd5b505afa158015610168573d6000803e3d6000fd5b505050506040513d601f19601f8201168201806040525081019061018c91906124b2565b6040808501516060860151608087015192516101da9493906020016001600160a01b0394909416845263ffffffff92909216602084015261ffff908116604084015216606082015260800190565b60408051808303601f1901815290829052805160209091012063203fb5d160e21b825260048201819052915060009030906380fed7449060240160206040518083038186803b15801561022c57600080fd5b505afa158015610240573d6000803e3d6000fd5b505050506040513d601f19601f8201168201806040525081019061026491906124cf565b604080516013808252610280820190925291925060009190816020015b60608152602001906001900390816102815790505090506102da6040518060400160405280600881526020016772756c655479706560c01b8152506102d2846001600160801b031660086000611336565b60ff16611355565b81600060ff16815181106102f0576102f06124f8565b60200260200101819052506103456040518060400160405280600c81526020016b6475726174696f6e5479706560a01b8152506102d2846001600160801b03166008600060086103409190612524565b611336565b81600160ff168151811061035b5761035b6124f8565b60200260200101819052506103c16040518060400160405280600c81526020016b696e74657276616c54696d6560a01b8152506103b6846001600160801b03166020600060086103ab9190612524565b610340906008612524565b63ffffffff16611355565b81600260ff16815181106103d7576103d76124f8565b6020026020010181905250610449604051806040016040528060188152602001771cdd19105d1d195b9d585d1a5bdb949bdd5b9910dbdd5b9d60421b8152506103b6846001600160801b03166020600060086104339190612524565b61043e906008612524565b610340906020612524565b81600360ff168151811061045f5761045f6124f8565b60200260200101819052506104d460405180604001604052806012815260200171737464417474656e756174696f6e5261746560701b8152506104cb846001600160801b03166010600060086104b59190612524565b6104c0906008612524565b61043e906020612524565b61ffff16611355565b81600460ff16815181106104ea576104ea6124f8565b60200260200101819052506105776040518060400160405280601d81526020017f737464417474656e756174696f6e5261746544656e6f6d696e61746f720000008152506104cb846001600160801b031660106000600861054b9190612524565b610556906008612524565b610561906020612524565b61056c906020612524565b610340906010612524565b81600560ff168151811061058d5761058d6124f8565b602002602001018190525061060d6040518060400160405280601081526020016f0caf0cac6eae8ca626060a6eed2e8c6d60831b8152506102d2846001600160801b03166008600060086105e19190612524565b6105ec906008612524565b6105f7906020612524565b610602906020612524565b61056c906010612524565b81600960ff1681518110610623576106236124f8565b6020026020010181905250600080600261065984600060ff168151811061064c5761064c6124f8565b6020026020010151611477565b14156106fc5786600001518760200151886040015189606001518a608001518b60c001518c60e001516040516020016106df97969594939291906001600160a01b039788168152958716602087015263ffffffff948516604087015261ffff9384166060870152919092166080850152931660a08301529190911660c082015260e00190565b604051602081830303815290604052805190602001209050610777565b86516020808901516040808b015160608c015160808d0151925161075e969592939192016001600160a01b03958616815293909416602084015263ffffffff91909116604083015261ffff908116606083015291909116608082015260a00190565b6040516020818303038152906040528051906020012090505b60405163f8970ff360e01b815260048101829052309063f8970ff39060240160206040518083038186803b1580156107ae57600080fd5b505afa1580156107c2573d6000803e3d6000fd5b505050506040513d601f19601f820116820180604052508101906107e6919061253c565b915061082e6040518060400160405280600f81526020016e617474656e756174696f6e5261746560881b8152506108208460c06000611336565b6001600160c01b0316611355565b83600660ff1681518110610844576108446124f8565b602002602001018190525061088f6040518060400160405280601081526020016f185d1d195b9d585d1a5bdb90dbdd5b9d60821b8152506103b6846020600060c06103409190612524565b83600760ff16815181106108a5576108a56124f8565b60200260200101819052506108fd6040518060400160405280601c81526020017f686973746f72794d6f64496e74657276616c526f756e64436f756e74000000008152506103b6846020600060c061043e9190612524565b83600860ff1681518110610913576109136124f8565b60200260200101819052506000306001600160a01b0316632311c08f89600001518a602001518b604001518c60c001518d60e001518e610100015160405160200161096396959493929190612555565b604051602081830303815290604052805190602001206040518263ffffffff1660e01b815260040161099791815260200190565b60206040518083038186803b1580156109af57600080fd5b505afa1580156109c3573d6000803e3d6000fd5b505050506040513d601f19601f820116820180604052508101906109e79190612595565b9050610a2f6040518060400160405280600d81526020016c726f756e64576974686472617760981b8152506102d2836001600160601b031660086000602061043e9190612524565b84600f60ff1681518110610a4557610a456124f8565b6020026020010181905250610a8f6040518060400160405280600d81526020016c7461736b426567696e54696d6560981b8152506103b6836001600160601b031660206000611336565b84600c60ff1681518110610aa557610aa56124f8565b6020026020010181905250610aff60405180604001604052806016815260200175696e74657276616c526f756e64436c61696d61626c6560501b8152506102d2836001600160601b03166020600060206103409190612524565b84600d60ff1681518110610b1557610b156124f8565b6020026020010181905250610b566040518060400160405280600e81526020016d0626c6f636b54696d657374616d760941b8152504263ffffffff16611355565b84600a60ff1681518110610b6c57610b6c6124f8565b6020026020010181905250610ba66040518060400160405280600b81526020016a313637b1b5a73ab6b132b960a91b8152506103b66114df565b84600b60ff1681518110610bbc57610bbc6124f8565b6020026020010181905250610c17604051806040016040528060168152602001752d2d2d2d6d696e6553746174652e72756c655479706560501b815250610c0f876001600160801b031660086000611336565b60ff1661156b565b610c6f6040518060400160405280601b81526020017a2d2d2d2d6d696e6553746174652e7461736b426567696e54696d6560281b815250610c64836001600160601b031660206000611336565b63ffffffff1661156b565b610cc26040518060400160405280601a8152602001792d2d2d2d6d696e6553746174652e696e74657276616c54696d6560301b815250610c64876001600160801b03166020600060086103ab9190612524565b60006001610cdf86600060ff168151811061064c5761064c6124f8565b1415610dd357600060ff16610d0386600160ff168151811061064c5761064c6124f8565b148015610d4b575042610d2586600260ff168151811061064c5761064c6124f8565b610d3e87600c60ff168151811061064c5761064c6124f8565b610d489190612524565b11155b15610d5857506001610ebd565b600160ff16610d7686600160ff168151811061064c5761064c6124f8565b148015610dc55750610d866114df565b610d9f86600260ff168151811061064c5761064c6124f8565b610db887600c60ff168151811061064c5761064c6124f8565b610dc29190612524565b11155b15610dce575060015b610ebd565b60008060ff16610df287600160ff168151811061064c5761064c6124f8565b1415610e4557610e1186600260ff168151811061064c5761064c6124f8565b610e2a87600c60ff168151811061064c5761064c6124f8565b610e3490426125be565b610e3e91906125eb565b9050610e96565b610e5e86600260ff168151811061064c5761064c6124f8565b610e7787600c60ff168151811061064c5761064c6124f8565b610e7f6114df565b610e8991906125be565b610e9391906125eb565b90505b610eaf86600d60ff168151811061064c5761064c6124f8565b610eb990826125be565b9150505b610efa60405180604001604052806015815260200174696e74657276616c526f756e64436c61696d696e6760581b8152508263ffffffff16611355565b85600e60ff1681518110610f1057610f106124f8565b60200260200101819052506000610f448a600001518b602001518c604001518d60c001518e60e001518f61010001516115b0565b6040516340477c5d60e01b81526004810182905290915060009030906340477c5d9060240160006040518083038186803b158015610f8157600080fd5b505afa158015610f95573d6000803e3d6000fd5b505050506040513d6000823e601f3d908101601f19168201604052610fbd9190810190612622565b9050610ff26040518060400160405280600a8152602001691c9bdd5b9910dbdd5b9d60b21b815250825163ffffffff16611355565b87601060ff1681518110611008576110086124f8565b602002602001018190525060006040518060c001604052806110398a600060ff168151811061064c5761064c6124f8565b60ff16815260200161105a8a600160ff168151811061064c5761064c6124f8565b60ff16815260200161107b8a600260ff168151811061064c5761064c6124f8565b63ffffffff16815260200161109f8a600360ff168151811061064c5761064c6124f8565b63ffffffff1681526020016110c38a600460ff168151811061064c5761064c6124f8565b61ffff1681526020016110e58a600560ff168151811061064c5761064c6124f8565b61ffff168152509050600080600261110c8b600060ff168151811061064c5761064c6124f8565b14156111a857604051630107995960e31b815273__$10c7622a794a4c36e0cba83f19e55bd777$__9063083ccac89061114d9089908d908890600401612764565b60606040518083038186803b15801561116557600080fd5b505af4158015611179573d6000803e3d6000fd5b505050506040513d601f19601f8201168201806040525081019061119d91906127d3565b50909250905061123a565b604051631640515160e01b815273__$10c7622a794a4c36e0cba83f19e55bd777$__906316405151906111e39089908d908890600401612764565b60606040518083038186803b1580156111fb57600080fd5b505af415801561120f573d6000803e3d6000fd5b505050506040513d601f19601f8201168201806040525081019061123391906127d3565b5090925090505b61126460405180604001604052806008815260200167617474526174696f60c01b81525083611355565b8a601160ff168151811061127a5761127a6124f8565b60200260200101819052506112ba6040518060400160405280601381526020017230ba3a2930ba34b7a232b737b6b4b730ba37b960691b81525082611355565b8a601260ff16815181106112d0576112d06124f8565b602090810291909101015250979c9b505050505050505050505050565b6113328282604051602401611303929190612801565b60408051601f198184030181529190526020810180516001600160e01b031663319af33360e01b1790526115f2565b5050565b91821c9160008061134a600180861b6125be565b909416949350505050565b6060600061136284611613565b9050600061136f8461161e565b90506113b26040518060400160405280600e81526020016d0b4b4b4b4b4b4b481d1bd55a5b9d60921b8152506113ad836113a89061282b565b611631565b61167d565b60408051600380825260808201909252600091816020015b60608152602001906001900390816113ca57905050905082816000815181106113f5576113f56124f8565b6020026020010181905250611425604051806040016040528060048152602001631d5a5b9d60e21b815250611613565b81600181518110611438576114386124f8565b60200260200101819052508181600281518110611457576114576124f8565b602002602001018190525061146b816116c2565b93505050505b92915050565b6000806114b36114ae8460408051808201825260008082526020918201528151808301909252825182529182019181019190915290565b6116e6565b90506114d8816002815181106114cb576114cb6124f8565b60200260200101516117fb565b9392505050565b60004661a4b18114156115645760646001600160a01b031663a3b1b31d6040518163ffffffff1660e01b815260040160206040518083038186803b15801561152657600080fd5b505afa15801561153a573d6000803e3d6000fd5b505050506040513d601f19601f8201168201806040525081019061155e919061253c565b91505090565b4391505090565b611332828260405160240161158192919061284f565b60408051601f198184030181529190526020810180516001600160e01b0316632d839cb360e21b1790526115f2565b6000808787878787876040516020016115ce96959493929190612555565b60408051808303601f19018152919052805160209091012098975050505050505050565b80516a636f6e736f6c652e6c6f67602083016000808483855afa5050505050565b606061147182611849565b606061147161162c83611899565b611849565b606061163c826119d6565b611649608084901b6119d6565b60405161060f60f31b6020820152602281019290925260428201526062016040516020818303038152906040529050919050565b6113328282604051602401611693929190612871565b60408051601f198184030181529190526020810180516001600160e01b0316634b5c427760e01b1790526115f2565b606060006116cf83611b80565b90506114d86116e0825160c0611cb4565b82611e6a565b60606116f182611ee7565b6116fa57600080fd5b600061170583611f20565b90506000816001600160401b0381111561172157611721612187565b60405190808252806020026020018201604052801561176657816020015b604080518082019091526000808252602082015281526020019060019003908161173f5790505b50905060006117788560200151611fa3565b85602001516117879190612524565b90506000805b848110156117f05761179e83612024565b91506040518060400160405280838152602001848152508482815181106117c7576117c76124f8565b60209081029190910101526117dc8284612524565b9250806117e88161289f565b91505061178d565b509195945050505050565b80516000901580159061181057508151602110155b61181957600080fd5b600080611825846120c8565b8151919350915060208210156118415760208290036101000a90045b949350505050565b60608082516001148015611878575060808360008151811061186d5761186d6124f8565b016020015160f81c11155b15611884575081611471565b6114d861189384516080611cb4565b84611e6a565b6040805160208082528183019092526060916000919060208201818036833701905050905082602082015260005b602081101561190d578181815181106118e2576118e26124f8565b01602001516001600160f81b031916156118fb5761190d565b806119058161289f565b9150506118c7565b600061191a8260206125be565b6001600160401b0381111561193157611931612187565b6040519080825280601f01601f19166020018201604052801561195b576020820181803683370190505b50905060005b81518110156119cd5783836119758161289f565b945081518110611987576119876124f8565b602001015160f81c60f81b8282815181106119a4576119a46124f8565b60200101906001600160f81b031916908160001a905350806119c58161289f565b915050611961565b50949350505050565b7aff00000000000000ff00000000000000ff00000000000000ff000063ffffffff60401b604083901c90811663ffffffff60c01b84161760201c63ffffffff60601b919091166001600160e01b031984161717601081901c91821678ff00000000000000ff00000000000000ff00000000000000ff60301b821617600890811c7bff00000000000000ff00000000000000ff00000000000000ff000000939093167fff00000000000000ff00000000000000ff00000000000000ff000000000000009290921691909117919091179081901c7e0f000f000f000f000f000f000f000f000f000f000f000f000f000f000f000f167f0f000f000f000f000f000f000f000f000f000f000f000f000f000f000f000f00600492831c161790611b1c827f0606060606060606060606060606060606060606060606060606060606060606612524565b901c7f0f0f0f0f0f0f0f0f0f0f0f0f0f0f0f0f0f0f0f0f0f0f0f0f0f0f0f0f0f0f0f0f166007611b4c91906128ba565b611b76827f3030303030303030303030303030303030303030303030303030303030303030612524565b6114719190612524565b6060815160001415611ba55760408051600080825260208201909252905b5092915050565b6000805b8351811015611bec57838181518110611bc457611bc46124f8565b60200260200101515182611bd89190612524565b915080611be48161289f565b915050611ba9565b6000826001600160401b03811115611c0657611c06612187565b6040519080825280601f01601f191660200182016040528015611c30576020820181803683370190505b50600092509050602081015b85518310156119cd576000868481518110611c5957611c596124f8565b602002602001015190506000602082019050611c778382845161210f565b878581518110611c8957611c896124f8565b60200260200101515183611c9d9190612524565b925050508280611cac9061289f565b935050611c3c565b6060806038841015611d1e5760408051600180825281830190925290602082018180368337019050509050611ce98385612524565b601f1a60f81b81600081518110611d0257611d026124f8565b60200101906001600160f81b031916908160001a9053506114d8565b600060015b611d2d81876125eb565b15611d535781611d3c8161289f565b9250611d4c9050610100826128ba565b9050611d23565b611d5e826001612524565b6001600160401b03811115611d7557611d75612187565b6040519080825280601f01601f191660200182016040528015611d9f576020820181803683370190505b509250611dac8583612524565b611db7906037612524565b601f1a60f81b83600081518110611dd057611dd06124f8565b60200101906001600160f81b031916908160001a905350600190505b818111611e6157610100611e0082846125be565b611e0c906101006129bd565b611e1690886125eb565b611e2091906129c9565b601f1a60f81b838281518110611e3857611e386124f8565b60200101906001600160f81b031916908160001a90535080611e598161289f565b915050611dec565b50509392505050565b6060806040519050835180825260208201818101602087015b81831015611e9b578051835260209283019201611e83565b50855184518101855292509050808201602086015b81831015611ec8578051835260209283019201611eb0565b508651929092011591909101601f01601f191660405250905092915050565b8051600090611ef857506000919050565b6020820151805160001a9060c0821015611f16575060009392505050565b5060019392505050565b8051600090611f3157506000919050565b600080611f418460200151611fa3565b8460200151611f509190612524565b9050600084600001518560200151611f689190612524565b90505b80821015611f9a57611f7c82612024565b611f869083612524565b915082611f928161289f565b935050611f6b565b50909392505050565b8051600090811a6080811015611fbc5750600092915050565b60b8811080611fd7575060c08110801590611fd7575060f881105b15611fe55750600192915050565b60c081101561201257611ffa600160b86129dd565b6120079060ff16826125be565b6114d8906001612524565b611ffa600160f86129dd565b50919050565b80516000908190811a608081101561203f5760019150611b9e565b60b8811015612065576120536080826125be565b61205e906001612524565b9150611b9e565b60c08110156120925760b78103600185019450806020036101000a85510460018201810193505050611b9e565b60f88110156120a65761205360c0826125be565b60019390930151602084900360f7016101000a900490920160f5190192915050565b60008060006120da8460200151611fa3565b905060008185602001516120ee9190612524565b9050600082866000015161210291906125be565b9196919550909350505050565b8282825b6020811061214b578151835261212a602084612524565b9250612137602083612524565b91506121446020826125be565b9050612113565b6000600161215a8360206125be565b612166906101006129bd565b61217091906125be565b925184518416931916929092179092525050505050565b634e487b7160e01b600052604160045260246000fd5b60405161016081016001600160401b03811182821017156121c0576121c0612187565b60405290565b604051602081016001600160401b03811182821017156121c0576121c0612187565b604051601f8201601f191681016001600160401b038111828210171561221057612210612187565b604052919050565b6001600160a01b038116811461222d57600080fd5b50565b803561223b81612218565b919050565b803563ffffffff8116811461223b57600080fd5b803561ffff8116811461223b57600080fd5b803560ff8116811461223b57600080fd5b600082601f83011261228857600080fd5b81356001600160401b038111156122a1576122a1612187565b6122b4601f8201601f19166020016121e8565b8181528460208386010111156122c957600080fd5b816020850160208301376000918101602001919091529392505050565b6000602082840312156122f857600080fd5b81356001600160401b038082111561230f57600080fd5b90830190610160828603121561232457600080fd5b61232c61219d565b61233583612230565b815261234360208401612230565b602082015261235460408401612240565b604082015261236560608401612254565b606082015261237660808401612254565b608082015261238760a08401612266565b60a082015261239860c08401612230565b60c08201526123a960e08401612240565b60e08201526101006123bc818501612230565b908201526101206123ce848201612266565b9082015261014083810135838111156123e657600080fd5b6123f288828701612277565b918301919091525095945050505050565b6000815180845260005b818110156124295760208185018101518683018201520161240d565b8181111561243b576000602083870101525b50601f01601f19169290920160200192915050565b6000602080830181845280855180835260408601915060408160051b870101925083870160005b828110156124a557603f19888603018452612493858351612403565b94509285019290850190600101612477565b5092979650505050505050565b6000602082840312156124c457600080fd5b81516114d881612218565b6000602082840312156124e157600080fd5b81516001600160801b03811681146114d857600080fd5b634e487b7160e01b600052603260045260246000fd5b634e487b7160e01b600052601160045260246000fd5b600082198211156125375761253761250e565b500190565b60006020828403121561254e57600080fd5b5051919050565b6001600160a01b039687168152948616602086015263ffffffff93841660408601529185166060850152909116608083015290911660a082015260c00190565b6000602082840312156125a757600080fd5b81516001600160601b03811681146114d857600080fd5b6000828210156125d0576125d061250e565b500390565b634e487b7160e01b600052601260045260246000fd5b6000826125fa576125fa6125d5565b500490565b60006001600160401b0382111561261857612618612187565b5060051b60200190565b6000602080838503121561263557600080fd5b82516001600160401b038082111561264c57600080fd5b818501915085601f83011261266057600080fd5b815161267361266e826125ff565b6121e8565b81815260059190911b8301840190848101908883111561269257600080fd5b8585015b83811015612757578051858111156126ae5760008081fd5b8601808b03601f19018813156126c45760008081fd5b6126cc6121c6565b88820151878111156126de5760008081fd5b8083019250508b603f8301126126f45760008081fd5b88820151604061270661266e836125ff565b82815260059290921b84018101918b8101908f8411156127265760008081fd5b948201945b838610156127445785518252948c0194908c019061272b565b8452505050845250918601918601612696565b5098975050505050505050565b60006101008201905063ffffffff808616835284602084015260ff845116604084015260ff60208501511660608401528060408501511660808401528060608501511660a084015250608083015161ffff80821660c08501528060a08601511660e08501525050949350505050565b6000806000606084860312156127e857600080fd5b8351925060208401519150604084015190509250925092565b6040815260006128146040830185612403565b905060018060a01b03831660208301529392505050565b8051602080830151919081101561201e5760001960209190910360031b1b16919050565b6040815260006128626040830185612403565b90508260208301529392505050565b6040815260006128846040830185612403565b82810360208401526128968185612403565b95945050505050565b60006000198214156128b3576128b361250e565b5060010190565b60008160001904831182151516156128d4576128d461250e565b500290565b600181815b808511156129145781600019048211156128fa576128fa61250e565b8085161561290757918102915b93841c93908002906128de565b509250929050565b60008261292b57506001611471565b8161293857506000611471565b816001811461294e576002811461295857612974565b6001915050611471565b60ff8411156129695761296961250e565b50506001821b611471565b5060208310610133831016604e8410600b8410161715612997575081810a611471565b6129a183836128d9565b80600019048211156129b5576129b561250e565b029392505050565b60006114d8838361291c565b6000826129d8576129d86125d5565b500690565b600060ff821660ff8416808210156129f7576129f761250e565b9003939250505056fea264697066735822122053a0d7729def4018850f1975b8b9837d3dff39f0904e0cd44e5dd330d15e2e8664736f6c63430008080033",
  "linkReferences": {
    "contracts/V3/handler/MineHandlerLib.sol": {
      "MineHandlerLib": [
        {
          "length": 20,
          "start": 4443
        },
        {
          "length": 20,
          "start": 4593
        }
      ]
    }
  },
  "deployedLinkReferences": {
    "contracts/V3/handler/MineHandlerLib.sol": {
      "MineHandlerLib": [
        {
          "length": 20,
          "start": 4385
        },
        {
          "length": 20,
          "start": 4535
        }
      ]
    }
  }
}