{
  "_format": "hh-sol-artifact-1",
  "contractName": "AllocateLayerAlgorithm",
  "sourceName": "contracts/V3/handler/AllocateLayerAlgorithm.sol",
  "abi": [
    {
      "inputs": [
        {
          "components": [
            {
              "components": [
                {
                  "internalType": "uint8",
                  "name": "erc",
                  "type": "uint8"
                },
                {
                  "internalType": "address",
                  "name": "token",
                  "type": "address"
                },
                {
                  "internalType": "uint256[]",
                  "name": "valueList",
                  "type": "uint256[]"
                }
              ],
              "internalType": "struct Token.TokenTemplate",
              "name": "tokenTemplate",
              "type": "tuple"
            },
            {
              "internalType": "uint8",
              "name": "rule",
              "type": "uint8"
            },
            {
              "internalType": "address[]",
              "name": "ioAddressList",
              "type": "address[]"
            },
            {
              "internalType": "uint256[]",
              "name": "valueList",
              "type": "uint256[]"
            }
          ],
          "internalType": "struct Rule.TokenSlot[]",
          "name": "stdTokenSlotList",
          "type": "tuple[]"
        },
        {
          "components": [
            {
              "internalType": "uint8",
              "name": "erc",
              "type": "uint8"
            },
            {
              "internalType": "address",
              "name": "token",
              "type": "address"
            },
            {
              "internalType": "uint256",
              "name": "id",
              "type": "uint256"
            },
            {
              "internalType": "uint256",
              "name": "amount",
              "type": "uint256"
            },
            {
              "components": [
                {
                  "internalType": "uint32",
                  "name": "attrId",
                  "type": "uint32"
                },
                {
                  "internalType": "int40",
                  "name": "attrAmount",
                  "type": "int40"
                }
              ],
              "internalType": "struct Attribute.AttributeIn[]",
              "name": "attrInList",
              "type": "tuple[]"
            }
          ],
          "internalType": "struct Token.Token[]",
          "name": "inTokenList",
          "type": "tuple[]"
        },
        {
          "internalType": "uint16",
          "name": "roundCount",
          "type": "uint16"
        },
        {
          "internalType": "uint256",
          "name": "round",
          "type": "uint256"
        },
        {
          "internalType": "uint256",
          "name": "tokenSlotIndex",
          "type": "uint256"
        }
      ],
      "name": "calAllocateTokenId",
      "outputs": [
        {
          "internalType": "uint256",
          "name": "",
          "type": "uint256"
        },
        {
          "internalType": "uint256",
          "name": "",
          "type": "uint256"
        }
      ],
      "stateMutability": "view",
      "type": "function"
    }
  ],
  "bytecode": "0x608060405234801561001057600080fd5b50611c04806100206000396000f3fe608060405234801561001057600080fd5b506004361061002b5760003560e01c8063949ec16214610030575b600080fd5b61004361003e366004611554565b61005c565b6040805192835260208301919091520160405180910390f35b60008060008561ffff16875161007291906117a9565b9050600061008082876117cb565b61008a90866117ea565b90506100c46040518060400160405280601681526020017505a5a5a5a5a5a5a5a40e6e8c8a8ded6cadc92dcc8caf60531b815250826103d8565b6100f9604051806040016040528060138152602001720b4b4b4b4b4b4b4b481d1bdad95b90dbdd5b9d606a1b815250836103d8565b81811061010f57600160009350935050506103ce565b600088868151811061012357610123611801565b602002602001015190506000806101578c858151811061014557610145611801565b60200260200101516000015184610421565b9150915061017f604051806040016040528060038152602001622d2d2d60e81b8152506107db565b6101b86040518060400160405280601781526020017605a5a5a5a5a5a5a5a40e8ded6cadca6d8dee892dcc8caf604b1b815250896103d8565b6101ef604051806040016040528060118152602001700b4b4b4b4b4b4b4b481d1bdad95b8b9a59607a1b81525084604001516103d8565b6102266040518060400160405280601581526020017405a5a5a5a5a5a5a5a40e8ded6cadc92c892dcc8caf605b1b815250836103d8565b61025e6040518060400160405280601681526020017505a5a5a5a5a5a5a5a40e8ded6cadc92c898cadccee8d60531b815250826103d8565b610282604051806040016040528060038152602001622d2d2d60e81b8152506107db565b6000806102978e8e8e8e61003e8f6001611817565b915091506102be604051806040016040528060028152602001612d2d60f01b8152506107db565b6102f26040518060400160405280601281526020017105a5a5a5a5a5a5a5a40daead898cadccee8d60731b815250836103d8565b6103286040518060400160405280601481526020017305a5a5a5a5a5a5a5a40e6eada92c898cadccee8d60631b815250826103d8565b6103726040518060400160405280602081526020017f2d2d2d2d2d2d2d2d20746f6b656e49644c656e6774682a6d756c4c656e677468815250838561036d91906117cb565b6103d8565b6103a36040518060600160405280602d8152602001611a43602d91398261039985886117cb565b61036d9190611817565b6103ad82846117cb565b816103b884876117cb565b6103c29190611817565b98509850505050505050505b9550959350505050565b61041d82826040516024016103ee92919061187c565b60408051601f198184030181529190526020810180516001600160e01b0316632d839cb360e21b179052610821565b5050565b6000806000806001905084602001516001600160a01b031686602001516001600160a01b03161480156104665750845160ff16600214806104665750845160ff166003145b156107ce57600061047687610842565b90506104b0604051806040016040528060138152602001720b4b4b4b4b4b4b4b481a5914995c5d5a5c9959606a1b8152508260ff166103d8565b60006104bb88610887565b9050801561057f5760408701516104e65760006104d9826001611817565b95509550505050506107d4565b61050c6040518060600160405280602681526020016119276026913988604001516103d8565b600061052588604001518a61090990919063ffffffff16565b9050600081121561053f57509294509092506107d4915050565b60ff83166001141561055657809450819350610579565b60ff831661057957610569816001611817565b9450610576826001611817565b93505b506107cb565b600061058a89610e84565b90506105c8604051806060016040528060288152602001611a7060289139826000815181106105bb576105bb611801565b60200260200101516103d8565b6105f760405180606001604052806028815260200161194d60289139826001815181106105bb576105bb611801565b8060008151811061060a5761060a611801565b6020026020010151600010801561065557508060018151811061062f5761062f611801565b60200260200101518160008151811061064a5761064a611801565b602002602001015111155b156107c95760408801516106b957600094508060008151811061067a5761067a611801565b60200260200101518160018151811061069557610695611801565b60200260200101516106a791906117ea565b6106b2906002611817565b93506107c9565b60ff83166001141561073c57806000815181106106d8576106d8611801565b602002602001015188604001516106ef91906117ea565b94508060008151811061070457610704611801565b60200260200101518160018151811061071f5761071f611801565b602002602001015161073191906117ea565b6106b2906001611817565b60ff83166107c9578060008151811061075757610757611801565b6020026020010151886040015161076e91906117ea565b610779906001611817565b94508060008151811061078e5761078e611801565b6020026020010151816001815181106107a9576107a9611801565b60200260200101516107bb91906117ea565b6107c6906002611817565b93505b505b50505b90925090505b9250929050565b61081e816040516024016107ef919061189e565b60408051601f198184030181529190526020810180516001600160e01b031663104c13eb60e21b179052610821565b50565b80516a636f6e736f6c652e6c6f67602083016000808483855afa5050505050565b6000610881826040015160008151811061085e5761085e611801565b6020026020010151600460ff166000600461087991906118b1565b60ff16610ff5565b92915050565b805160009060ff16158061089f5750815160ff166001145b156108ac57506000919050565b815160ff16600214806108c35750815160ff166003145b156109015760006108d383611016565b905060ff8116600114156108f85760006108ec84611049565b61ffff16949350505050565b50600092915050565b506000919050565b815160009060ff1615806109215750825160ff166001145b1561092f5750600019610881565b825160ff1660031415610c4757600061094784611016565b905060ff811660011415610c3c57600061096085611049565b90506000856040015160008151811061097b5761097b611801565b602002602001015190506000866040015160018151811061099e5761099e611801565b60200260200101519050600087604001516002815181106109c1576109c1611801565b60200260200101519050600088604001516003815181106109e4576109e4611801565b6020026020010151905060008960400151600081518110610a0757610a07611801565b60200260200101818152505060008960400151600181518110610a2c57610a2c611801565b60200260200101818152505060008960400151600281518110610a5157610a51611801565b60200260200101818152505060008960400151600381518110610a7657610a76611801565b6020026020010181815250506000610aa38a60400151876004610a9991906118d6565b61ffff168b6110a8565b9050848a60400151600081518110610abd57610abd611801565b602002602001018181525050838a60400151600181518110610ae157610ae1611801565b602002602001018181525050828a60400151600281518110610b0557610b05611801565b602002602001018181525050818a60400151600381518110610b2957610b29611801565b60200260200101818152505060006000199050898b604001518381518110610b5357610b53611801565b60200260200101511415610b6f57610b6c6004836117ea565b90505b610b956040518060600160405280602f8152602001611a98602f91398c60200151611166565b610bb76040518060600160405280603381526020016119a3603391398b6103d8565b610bd9604051806060016040528060348152602001611afa60349139836103d8565b610c0b6040518060600160405280603b8152602001611b2e603b91398c6040015184815181106105bb576105bb611801565b610c2d604051806060016040528060348152602001611b6960349139826103d8565b97506108819650505050505050565b600019915050610881565b825160ff1660021415610e7a576000610c5f84611016565b905060ff811660011415610c3c576000610c7885611049565b905060008560400151600081518110610c9357610c93611801565b6020026020010151905060008660400151600181518110610cb657610cb6611801565b6020026020010151905060008760400151600081518110610cd957610cd9611801565b60200260200101818152505060008760400151600181518110610cfe57610cfe611801565b6020026020010181815250506000610d2b8860400151856002610d2191906118d6565b61ffff16896110a8565b9050828860400151600081518110610d4557610d45611801565b602002602001018181525050818860400151600181518110610d6957610d69611801565b602002602001018181525050600060001990508789604001518381518110610d9357610d93611801565b60200260200101511415610daf57610dac6004836117ea565b90505b610dd56040518060600160405280602e8152602001611975602e91398a60200151611166565b610df7604051806060016040528060328152602001611b9d60329139896103d8565b610e19604051806060016040528060338152602001611ac760339139836103d8565b610e4b6040518060600160405280603a81526020016119d6603a91398a6040015184815181106105bb576105bb611801565b610e6d604051806060016040528060338152602001611a1060339139826103d8565b9550610881945050505050565b5060001992915050565b6040805160028082526060808301845292600092919060208301908036833701905050835190915060ff1660021415610f4f576000610ec284611016565b905060ff8116610f49578360400151600281518110610ee357610ee3611801565b602002602001015182600081518110610efe57610efe611801565b6020026020010181815250508360400151600381518110610f2157610f21611801565b602002602001015182600181518110610f3c57610f3c611801565b6020026020010181815250505b50610881565b825160ff1660031415610881576000610f6784611016565b905060ff8116610fee578360400151600481518110610f8857610f88611801565b602002602001015182600081518110610fa357610fa3611801565b6020026020010181815250508360400151600581518110610fc657610fc6611801565b602002602001015182600181518110610fe157610fe1611801565b6020026020010181815250505b5092915050565b91821c91600080611009600180861b6117ea565b85169150505b9392505050565b6000610881826040015160008151811061103257611032611801565b6020026020010151600460ff16600060ff16610ff5565b805160009060ff16600214806110635750815160ff166003145b1561090157610881826040015160008151811061108257611082611801565b6020026020010151601060ff166000600461109d91906118b1565b6108799060046118b1565b60008351600014156110bc5750600061100f565b6000835b808210156111135760006110d483836111ab565b9050848782815181106110e9576110e9611801565b602002602001015111156110ff5780915061110d565b61110a816001611817565b92505b506110c0565b6000821180156111455750838661112b6001856117ea565b8151811061113b5761113b611801565b6020026020010151145b1561115e576111556001836117ea565b9250505061100f565b50905061100f565b61041d828260405160240161117c9291906118fc565b60408051601f198184030181529190526020810180516001600160e01b031663319af33360e01b179052610821565b60006111ba60028484186117a9565b61100f90848416611817565b634e487b7160e01b600052604160045260246000fd5b60405160a081016001600160401b03811182821017156111fe576111fe6111c6565b60405290565b604080519081016001600160401b03811182821017156111fe576111fe6111c6565b604051608081016001600160401b03811182821017156111fe576111fe6111c6565b604051606081016001600160401b03811182821017156111fe576111fe6111c6565b604051601f8201601f191681016001600160401b0381118282101715611292576112926111c6565b604052919050565b60006001600160401b038211156112b3576112b36111c6565b5060051b60200190565b803560ff811681146112ce57600080fd5b919050565b80356001600160a01b03811681146112ce57600080fd5b600082601f8301126112fb57600080fd5b8135602061131061130b8361129a565b61126a565b82815260059290921b8401810191818101908684111561132f57600080fd5b8286015b8481101561134a5780358352918301918301611333565b509695505050505050565b600082601f83011261136657600080fd5b8135602061137661130b8361129a565b82815260059290921b8401810191818101908684111561139557600080fd5b8286015b8481101561134a576113aa816112d3565b8352918301918301611399565b600082601f8301126113c857600080fd5b813560206113d861130b8361129a565b82815260059290921b840181019181810190868411156113f757600080fd5b8286015b8481101561134a5780356001600160401b038082111561141a57600080fd5b9088019060a0828b03601f1901121561143257600080fd5b61143a6111dc565b6114458784016112bd565b815260406114548185016112d3565b888301526060840135818301526080840135606083015260a08401358381111561147e5760008081fd5b8085019450508b603f85011261149657600092508283fd5b8784013592506114a861130b8461129a565b83815260069390931b8401810192888101908d8511156114c85760008081fd5b948201945b8486101561152c5782868f0312156114e55760008081fd5b6114ed611204565b863563ffffffff811681146115025760008081fd5b8152868b0135600481900b81146115195760008081fd5b818c0152825294820194908901906114cd565b60808401525050855250509183019183016113fb565b803561ffff811681146112ce57600080fd5b600080600080600060a0868803121561156c57600080fd5b6001600160401b038635111561158157600080fd5b86601f87358801011261159357600080fd5b6115a361130b873588013561129a565b8635870180358083526020808401939260059290921b909101018910156115c957600080fd5b602088358901015b88358901803560051b01602001811015611741576001600160401b03813511156115fa57600080fd5b88358901813501601f196080828d038201121561161657600080fd5b61161e611226565b6001600160401b036020840135111561163657600080fd5b606082602085013585018f0301121561164e57600080fd5b611656611248565b91506116696020808501358501016112bd565b825261167d604060208501358501016112d3565b60208301526001600160401b03606060208501358501013511156116a057600080fd5b6116b88d6020858101358601606081013501016112ea565b60408301528181526116cc604084016112bd565b60208201526001600160401b03606084013511156116e957600080fd5b6116fc8d60206060860135860101611355565b60408201526001600160401b036080840135111561171957600080fd5b61172c8d602060808601358601016112ea565b606082015285525050602092830192016115d1565b509550506001600160401b036020870135111561175d57600080fd5b61176d87602088013588016113b7565b935061177b60408701611542565b94979396509394606081013594506080013592915050565b634e487b7160e01b600052601160045260246000fd5b6000826117c657634e487b7160e01b600052601260045260246000fd5b500490565b60008160001904831182151516156117e5576117e5611793565b500290565b6000828210156117fc576117fc611793565b500390565b634e487b7160e01b600052603260045260246000fd5b6000821982111561182a5761182a611793565b500190565b6000815180845260005b8181101561185557602081850181015186830182015201611839565b81811115611867576000602083870101525b50601f01601f19169290920160200192915050565b60408152600061188f604083018561182f565b90508260208301529392505050565b60208152600061100f602083018461182f565b600060ff821660ff84168060ff038211156118ce576118ce611793565b019392505050565b600061ffff8083168185168083038211156118f3576118f3611793565b01949350505050565b60408152600061190f604083018561182f565b905060018060a01b0383166020830152939250505056fe2d2d2d2d2d2d20676574546f6b656e4964496e6465782073656172636820746f6b656e2e69642d2d2d2d2d2d2d2d20676574546f6b656e496e646578206e667420737464496452616e67655b315d2d2d2d2d2d2d2d2d2d2d2d2d2d2045524337323120546f6b656e2062696e6172792073656172636820746f6b656e2d2d2d2d2d2d2d2d2d2d2d2d2d204552433131353520546f6b656e2062696e617279207365617263682066696e64696e6749642d2d2d2d2d2d2d2d2d2d2d2d2d2045524337323120546f6b656e2062696e617279207365617263682066696e642076616c75655b696e6465785d2d2d2d2d2d2d2d2d2d2d2d2d2d2045524337323120546f6b656e2062696e617279207365617263682066696e6420666f756e642d2d2d2d2d2d2d2d20746f6b656e4964496e6465782a6d756c4c656e677468202b2073756d49644c656e6774682d2d2d2d2d2d2d2d20676574546f6b656e496e646578206e667420737464496452616e67655b305d2d2d2d2d2d2d2d2d2d2d2d2d2d204552433131353520546f6b656e2062696e6172792073656172636820746f6b656e2d2d2d2d2d2d2d2d2d2d2d2d2d2045524337323120546f6b656e2062696e617279207365617263682066696e6420696e6465782d2d2d2d2d2d2d2d2d2d2d2d2d204552433131353520546f6b656e2062696e617279207365617263682066696e6420696e6465782d2d2d2d2d2d2d2d2d2d2d2d2d204552433131353520546f6b656e2062696e617279207365617263682066696e642076616c75655b696e6465785d2d2d2d2d2d2d2d2d2d2d2d2d2d204552433131353520546f6b656e2062696e617279207365617263682066696e6420666f756e642d2d2d2d2d2d2d2d2d2d2d2d2d2045524337323120546f6b656e2062696e617279207365617263682066696e64696e674964a264697066735822122018e933b5be6f06449f0890040d6bd20b3429562f0096b881b87f206bf4564a1764736f6c63430008080033",
  "linkReferences": {},
  "deployedLinkReferences": {}
}