{
  "_format": "hh-sol-artifact-1",
  "contractName": "AllocateRelationHandlerLib",
  "sourceName": "contracts/V3/handler/AllocateRelationHandlerLib.sol",
  "abi": [
    {
      "inputs": [
        {
          "components": [
            {
              "internalType": "address",
              "name": "engine",
              "type": "address"
            },
            {
              "internalType": "address",
              "name": "clusterArea",
              "type": "address"
            },
            {
              "internalType": "uint32",
              "name": "clusterId",
              "type": "uint32"
            },
            {
              "internalType": "uint16",
              "name": "ruleSlotIndexInput",
              "type": "uint16"
            },
            {
              "internalType": "uint16",
              "name": "ruleSlotIndexOutput",
              "type": "uint16"
            },
            {
              "internalType": "uint8",
              "name": "branch",
              "type": "uint8"
            },
            {
              "internalType": "address",
              "name": "stateCounter",
              "type": "address"
            },
            {
              "internalType": "uint32",
              "name": "taskId",
              "type": "uint32"
            },
            {
              "internalType": "address",
              "name": "caller",
              "type": "address"
            },
            {
              "internalType": "uint8",
              "name": "cmd",
              "type": "uint8"
            },
            {
              "internalType": "bytes",
              "name": "args",
              "type": "bytes"
            }
          ],
          "internalType": "struct Handler.StateParams",
          "name": "params",
          "type": "tuple"
        },
        {
          "internalType": "uint128",
          "name": "ruleConfig",
          "type": "uint128"
        },
        {
          "internalType": "address",
          "name": "relation",
          "type": "address"
        }
      ],
      "name": "getAllocateRelationState",
      "outputs": [
        {
          "internalType": "bytes[]",
          "name": "",
          "type": "bytes[]"
        }
      ],
      "stateMutability": "view",
      "type": "function"
    }
  ],
  "bytecode": "0x6122a561003a600b82828239805160001a60731461002d57634e487b7160e01b600052600060045260246000fd5b30600052607381538281f3fe73000000000000000000000000000000000000000030146080604052600436106100355760003560e01c80630117bccc1461003a575b600080fd5b61004d610048366004611cb0565b610063565b60405161005a9190611e3b565b60405180910390f35b604080840151606085810151608080880151855163ffffffff90951660208087019190915261ffff938416868801529216848401528451808503840181529301909352815191909201208190600081306040516020016100c4929190611e9d565b60405160208183030381529060405280519060200120905086610120015160ff16600014156104e2576000610105876001600160801b031660086000610ab6565b60408051600680825260e08201909252919250816020015b606081526020019060019003908161011d57905050935061016a6040518060400160405280600e81526020016d0626c6f636b54696d657374616d760941b8152504263ffffffff16610ad5565b8460008151811061017d5761017d611eb4565b60200260200101819052506101c26040518060400160405280600b81526020016a313637b1b5a73ab6b132b960a91b8152506101b7610bf7565b63ffffffff16610ad5565b846001815181106101d5576101d5611eb4565b60200260200101819052506102156040518060400160405280601081526020016f0caf0cac6eae8ca626060a6eed2e8c6d60831b8152508260ff16610ad5565b8460028151811061022857610228611eb4565b60200260200101819052506000866001600160a01b031663184eaa9a848b61010001516040518363ffffffff1660e01b8152600401610268929190611e9d565b60206040518083038186803b15801561028057600080fd5b505afa158015610294573d6000803e3d6000fd5b505050506040513d601f19601f820116820180604052508101906102b89190611eca565b90506102e36040518060400160405280600781526020016634b73b34ba32b960c91b81525082610c83565b856003815181106102f6576102f6611eb4565b60200260200101819052506000876001600160a01b0316638ae8d7af858c61010001516040518363ffffffff1660e01b8152600401610336929190611e9d565b60206040518083038186803b15801561034e57600080fd5b505afa158015610362573d6000803e3d6000fd5b505050506040513d601f19601f820116820180604052508101906103869190611ee7565b90506103b3604051806040016040528060098152602001681a5cd25b9d9a5d195960ba1b81525082610d17565b866004815181106103c6576103c6611eb4565b6020908102919091010152604051633852cddf60e21b8152600481018590526000906001600160a01b038a169063e14b377c9060240160206040518083038186803b15801561041457600080fd5b505afa158015610428573d6000803e3d6000fd5b505050506040513d601f19601f8201168201806040525081019061044c9190611f09565b905061047c6040518060400160405280600c81526020016b1a5b9d9a5d195c90dbdd5b9d60a21b81525082610ad5565b8760058151811061048f5761048f611eb4565b60200260200101819052506104d96040518060400160405280601f81526020017f2d2d2d2d2d2d2d2052656c6174696f6e547265654c696220696e76697465720081525084610da8565b50505050610aab565b86610120015160ff16600114156106515761010087015160405163d444ef3b60e01b81526000916001600160a01b0388169163d444ef3b9161052991869190600401611e9d565b60006040518083038186803b15801561054157600080fd5b505afa158015610555573d6000803e3d6000fd5b505050506040513d6000823e601f3d908101601f1916820160405261057d9190810190611f22565b905080516001600160401b0381111561059857610598611b5c565b6040519080825280602002602001820160405280156105cb57816020015b60608152602001906001900390816105b65790505b50935060005b815181101561064a5761061c60405180604001604052806007815260200166696e766974656560c81b81525083838151811061060f5761060f611eb4565b6020026020010151610c83565b85828151811061062e5761062e611eb4565b60200260200101819052508061064390611fe9565b90506105d1565b5050610aab565b86610120015160ff16600214156107755760006106748861014001516000610df1565b60405163b213aa3d60e01b815260048101849052602481018290529091506000906001600160a01b0388169063b213aa3d9060440160206040518083038186803b1580156106c157600080fd5b505afa1580156106d5573d6000803e3d6000fd5b505050506040513d601f19601f820116820180604052508101906106f99190611eca565b604080516001808252818301909252919250816020015b60608152602001906001900390816107105790505094506107506040518060400160405280600781526020016634b73b34ba32b960c91b81525082610c83565b8560008151811061076357610763611eb4565b60200260200101819052505050610aab565b86610120015160ff16600314156108d057610100870151604051631b26df2160e11b81526000916001600160a01b0388169163364dbe42916107bc91869190600401611e9d565b60006040518083038186803b1580156107d457600080fd5b505afa1580156107e8573d6000803e3d6000fd5b505050506040513d6000823e601f3d908101601f191682016040526108109190810190611f22565b905080516001600160401b0381111561082b5761082b611b5c565b60405190808252806020026020018201604052801561085e57816020015b60608152602001906001900390816108495790505b50935060005b815181101561064a576108a260405180604001604052806007815260200166696e766974656560c81b81525083838151811061060f5761060f611eb4565b8582815181106108b4576108b4611eb4565b6020026020010181905250806108c990611fe9565b9050610864565b86610120015160ff1660041415610aab5760006108f38861014001516000610e56565b905060006109078961014001516001610df1565b905061092c60405180606001604052806022815260200161224e602291398383610ea1565b6020808a01516040808c015160608d015160808e01516101008f015193516000966109a396958a928a92016001600160a01b03978816815263ffffffff96909616602087015261ffff94851660408701529290931660608501528416608084015260a083019190915290911660c082015260e00190565b60408051808303601f1901815290829052805160209091012063359f8f9360e01b8252600482018190529150600090309063359f8f939060240160206040518083038186803b1580156109f557600080fd5b505afa158015610a09573d6000803e3d6000fd5b505050506040513d601f19601f82011682018060405250810190610a2d9190611f09565b604080516001808252818301909252919250816020015b6060815260200190600190039081610a44579050509650610a886040518060400160405280600b81526020016a1d1bdad95b905b5bdd5b9d60aa1b81525082610ad5565b87600081518110610a9b57610a9b611eb4565b6020026020010181905250505050505b509095945050505050565b91821c91600080610aca600180861b612004565b909416949350505050565b60606000610ae284610eed565b90506000610aef84610ef8565b9050610b326040518060400160405280600e81526020016d0b4b4b4b4b4b4b481d1bd55a5b9d60921b815250610b2d83610b289061201b565b610f0b565b610f57565b60408051600380825260808201909252600091816020015b6060815260200190600190039081610b4a5790505090508281600081518110610b7557610b75611eb4565b6020026020010181905250610ba5604051806040016040528060048152602001631d5a5b9d60e21b815250610eed565b81600181518110610bb857610bb8611eb4565b60200260200101819052508181600281518110610bd757610bd7611eb4565b6020026020010181905250610beb81610f9c565b93505050505b92915050565b60004661a4b1811415610c7c5760646001600160a01b031663a3b1b31d6040518163ffffffff1660e01b815260040160206040518083038186803b158015610c3e57600080fd5b505afa158015610c52573d6000803e3d6000fd5b505050506040513d601f19601f82011682018060405250810190610c769190611f09565b91505090565b4391505090565b60606000610c9084610eed565b90506000610c9d84610fc7565b6040805160038082526080820190925291925060009190816020015b6060815260200190600190039081610cb95790505090508281600081518110610ce457610ce4611eb4565b6020026020010181905250610ba5604051806040016040528060078152602001666164647265737360c81b815250610eed565b60606000610d2484610eed565b90506000610d3184610fea565b6040805160038082526080820190925291925060009190816020015b6060815260200190600190039081610d4d5790505090508281600081518110610d7857610d78611eb4565b6020026020010181905250610ba560405180604001604052806004815260200163189bdbdb60e21b815250610eed565b610ded8282604051602401610dbe92919061203f565b60408051601f198184030181529190526020810180516001600160e01b031663319af33360e01b179052611054565b5050565b600080610e05610e0085611075565b6110a2565b9050610e4e610e2f828560ff1681518110610e2257610e22611eb4565b60200260200101516110a2565b600281518110610e4157610e41611eb4565b60200260200101516111b7565b949350505050565b600080610e65610e0085611075565b9050610e4e610e82828560ff1681518110610e2257610e22611eb4565b600281518110610e9457610e94611eb4565b6020026020010151611204565b610ee8838383604051602401610eb993929190612069565b60408051601f198184030181529190526020810180516001600160e01b0316630d26b92560e01b179052611054565b505050565b6060610bf18261121e565b6060610bf1610f068361126e565b61121e565b6060610f16826113ab565b610f23608084901b6113ab565b60405161060f60f31b6020820152602281019290925260428201526062016040516020818303038152906040529050919050565b610ded8282604051602401610f6d929190612097565b60408051601f198184030181529190526020810180516001600160e01b0316634b5c427760e01b179052611054565b60606000610fa983611555565b9050610fc0610fba825160c0611689565b8261183f565b9392505050565b60408051600560a21b8318601482015260348101909152606090610fc08161121e565b604080516001808252818301909252606091600091906020820181803683370190505090508261101e57600160ff1b611024565b600160f81b5b8160008151811061103757611037611eb4565b60200101906001600160f81b031916908160001a90535092915050565b80516a636f6e736f6c652e6c6f67602083016000808483855afa5050505050565b60408051808201825260008082526020918201528151808301909252825182529182019181019190915290565b60606110ad826118bc565b6110b657600080fd5b60006110c1836118f5565b90506000816001600160401b038111156110dd576110dd611b5c565b60405190808252806020026020018201604052801561112257816020015b60408051808201909152600080825260208201528152602001906001900390816110fb5790505b50905060006111348560200151611978565b856020015161114391906120c5565b90506000805b848110156111ac5761115a836119f9565b915060405180604001604052808381526020018481525084828151811061118357611183611eb4565b602090810291909101015261119882846120c5565b9250806111a481611fe9565b915050611149565b509195945050505050565b8051600090158015906111cc57508151602110155b6111d557600080fd5b6000806111e184611a9d565b815191935091506020821015610e4e5760208290036101000a9004949350505050565b805160009060151461121557600080fd5b610bf1826111b7565b6060808251600114801561124d575060808360008151811061124257611242611eb4565b016020015160f81c11155b15611259575081610bf1565b610fc061126884516080611689565b8461183f565b6040805160208082528183019092526060916000919060208201818036833701905050905082602082015260005b60208110156112e2578181815181106112b7576112b7611eb4565b01602001516001600160f81b031916156112d0576112e2565b806112da81611fe9565b91505061129c565b60006112ef826020612004565b6001600160401b0381111561130657611306611b5c565b6040519080825280601f01601f191660200182016040528015611330576020820181803683370190505b50905060005b81518110156113a257838361134a81611fe9565b94508151811061135c5761135c611eb4565b602001015160f81c60f81b82828151811061137957611379611eb4565b60200101906001600160f81b031916908160001a9053508061139a81611fe9565b915050611336565b50949350505050565b7aff00000000000000ff00000000000000ff00000000000000ff000063ffffffff60401b604083901c90811663ffffffff60c01b84161760201c63ffffffff60601b919091166001600160e01b031984161717601081901c91821678ff00000000000000ff00000000000000ff00000000000000ff60301b821617600890811c7bff00000000000000ff00000000000000ff00000000000000ff000000939093167fff00000000000000ff00000000000000ff00000000000000ff000000000000009290921691909117919091179081901c7e0f000f000f000f000f000f000f000f000f000f000f000f000f000f000f000f167f0f000f000f000f000f000f000f000f000f000f000f000f000f000f000f000f00600492831c1617906114f1827f06060606060606060606060606060606060606060606060606060606060606066120c5565b901c7f0f0f0f0f0f0f0f0f0f0f0f0f0f0f0f0f0f0f0f0f0f0f0f0f0f0f0f0f0f0f0f0f16600761152191906120dd565b61154b827f30303030303030303030303030303030303030303030303030303030303030306120c5565b610bf191906120c5565b606081516000141561157a5760408051600080825260208201909252905b5092915050565b6000805b83518110156115c15783818151811061159957611599611eb4565b602002602001015151826115ad91906120c5565b9150806115b981611fe9565b91505061157e565b6000826001600160401b038111156115db576115db611b5c565b6040519080825280601f01601f191660200182016040528015611605576020820181803683370190505b50600092509050602081015b85518310156113a257600086848151811061162e5761162e611eb4565b60200260200101519050600060208201905061164c83828451611ae4565b87858151811061165e5761165e611eb4565b6020026020010151518361167291906120c5565b92505050828061168190611fe9565b935050611611565b60608060388410156116f357604080516001808252818301909252906020820181803683370190505090506116be83856120c5565b601f1a60f81b816000815181106116d7576116d7611eb4565b60200101906001600160f81b031916908160001a905350610fc0565b600060015b6117028187612112565b15611728578161171181611fe9565b92506117219050610100826120dd565b90506116f8565b6117338260016120c5565b6001600160401b0381111561174a5761174a611b5c565b6040519080825280601f01601f191660200182016040528015611774576020820181803683370190505b50925061178185836120c5565b61178c9060376120c5565b601f1a60f81b836000815181106117a5576117a5611eb4565b60200101906001600160f81b031916908160001a905350600190505b818111611836576101006117d58284612004565b6117e19061010061220a565b6117eb9088612112565b6117f59190612216565b601f1a60f81b83828151811061180d5761180d611eb4565b60200101906001600160f81b031916908160001a9053508061182e81611fe9565b9150506117c1565b50509392505050565b6060806040519050835180825260208201818101602087015b81831015611870578051835260209283019201611858565b50855184518101855292509050808201602086015b8183101561189d578051835260209283019201611885565b508651929092011591909101601f01601f191660405250905092915050565b80516000906118cd57506000919050565b6020820151805160001a9060c08210156118eb575060009392505050565b5060019392505050565b805160009061190657506000919050565b6000806119168460200151611978565b846020015161192591906120c5565b905060008460000151856020015161193d91906120c5565b90505b8082101561196f57611951826119f9565b61195b90836120c5565b91508261196781611fe9565b935050611940565b50909392505050565b8051600090811a60808110156119915750600092915050565b60b88110806119ac575060c081108015906119ac575060f881105b156119ba5750600192915050565b60c08110156119e7576119cf600160b861222a565b6119dc9060ff1682612004565b610fc09060016120c5565b6119cf600160f861222a565b50919050565b80516000908190811a6080811015611a145760019150611573565b60b8811015611a3a57611a28608082612004565b611a339060016120c5565b9150611573565b60c0811015611a675760b78103600185019450806020036101000a85510460018201810193505050611573565b60f8811015611a7b57611a2860c082612004565b60019390930151602084900360f7016101000a900490920160f5190192915050565b6000806000611aaf8460200151611978565b90506000818560200151611ac391906120c5565b90506000828660000151611ad79190612004565b9196919550909350505050565b8282825b60208110611b205781518352611aff6020846120c5565b9250611b0c6020836120c5565b9150611b19602082612004565b9050611ae8565b60006001611b2f836020612004565b611b3b9061010061220a565b611b459190612004565b925184518416931916929092179092525050505050565b634e487b7160e01b600052604160045260246000fd5b60405161016081016001600160401b0381118282101715611b9557611b95611b5c565b60405290565b604051601f8201601f191681016001600160401b0381118282101715611bc357611bc3611b5c565b604052919050565b6001600160a01b0381168114611be057600080fd5b50565b8035611bee81611bcb565b919050565b803563ffffffff81168114611bee57600080fd5b803561ffff81168114611bee57600080fd5b803560ff81168114611bee57600080fd5b600082601f830112611c3b57600080fd5b81356001600160401b03811115611c5457611c54611b5c565b611c67601f8201601f1916602001611b9b565b818152846020838601011115611c7c57600080fd5b816020850160208301376000918101602001919091529392505050565b80356001600160801b0381168114611bee57600080fd5b600080600060608486031215611cc557600080fd5b83356001600160401b0380821115611cdc57600080fd5b908501906101608288031215611cf157600080fd5b611cf9611b72565b611d0283611be3565b8152611d1060208401611be3565b6020820152611d2160408401611bf3565b6040820152611d3260608401611c07565b6060820152611d4360808401611c07565b6080820152611d5460a08401611c19565b60a0820152611d6560c08401611be3565b60c0820152611d7660e08401611bf3565b60e0820152610100611d89818501611be3565b90820152610120611d9b848201611c19565b908201526101408381013583811115611db357600080fd5b611dbf8a828701611c2a565b828401525050809550505050611dd760208501611c99565b9150611de560408501611be3565b90509250925092565b6000815180845260005b81811015611e1457602081850181015186830182015201611df8565b81811115611e26576000602083870101525b50601f01601f19169290920160200192915050565b6000602080830181845280855180835260408601915060408160051b870101925083870160005b82811015611e9057603f19888603018452611e7e858351611dee565b94509285019290850190600101611e62565b5092979650505050505050565b9182526001600160a01b0316602082015260400190565b634e487b7160e01b600052603260045260246000fd5b600060208284031215611edc57600080fd5b8151610fc081611bcb565b600060208284031215611ef957600080fd5b81518015158114610fc057600080fd5b600060208284031215611f1b57600080fd5b5051919050565b60006020808385031215611f3557600080fd5b82516001600160401b0380821115611f4c57600080fd5b818501915085601f830112611f6057600080fd5b815181811115611f7257611f72611b5c565b8060051b9150611f83848301611b9b565b8181529183018401918481019088841115611f9d57600080fd5b938501935b83851015611fc75784519250611fb783611bcb565b8282529385019390850190611fa2565b98975050505050505050565b634e487b7160e01b600052601160045260246000fd5b6000600019821415611ffd57611ffd611fd3565b5060010190565b60008282101561201657612016611fd3565b500390565b805160208083015191908110156119f35760001960209190910360031b1b16919050565b6040815260006120526040830185611dee565b905060018060a01b03831660208301529392505050565b60608152600061207c6060830186611dee565b6001600160a01b039490941660208301525060400152919050565b6040815260006120aa6040830185611dee565b82810360208401526120bc8185611dee565b95945050505050565b600082198211156120d8576120d8611fd3565b500190565b60008160001904831182151516156120f7576120f7611fd3565b500290565b634e487b7160e01b600052601260045260246000fd5b600082612121576121216120fc565b500490565b600181815b8085111561216157816000190482111561214757612147611fd3565b8085161561215457918102915b93841c939080029061212b565b509250929050565b60008261217857506001610bf1565b8161218557506000610bf1565b816001811461219b57600281146121a5576121c1565b6001915050610bf1565b60ff8411156121b6576121b6611fd3565b50506001821b610bf1565b5060208310610133831016604e8410600b84101617156121e4575081810a610bf1565b6121ee8383612126565b806000190482111561220257612202611fd3565b029392505050565b6000610fc08383612169565b600082612225576122256120fc565b500690565b600060ff821660ff84168082101561224457612244611fd3565b9003939250505056fe2d2d2d2d2d2d2d204152484c696220746f6b656e20257320746f6b656e4964202573a264697066735822122017b5abd50551220a0950f91aa43e94166154e5ed2973ca38e315b47333471ce864736f6c63430008080033",
  "linkReferences": {},
  "deployedLinkReferences": {}
}