{
  "_format": "hh-sol-artifact-1",
  "contractName": "EngineUtil",
  "sourceName": "contracts/V3/EngineUtil.sol",
  "abi": [
    {
      "inputs": [
        {
          "components": [
            {
              "internalType": "uint8",
              "name": "erc",
              "type": "uint8"
            },
            {
              "internalType": "address",
              "name": "token",
              "type": "address"
            },
            {
              "internalType": "uint256[]",
              "name": "valueList",
              "type": "uint256[]"
            }
          ],
          "internalType": "struct Token.TokenTemplate",
          "name": "tokenTemplate",
          "type": "tuple"
        }
      ],
      "name": "swapQuoteTokenTemplate",
      "outputs": [
        {
          "internalType": "uint256[]",
          "name": "",
          "type": "uint256[]"
        }
      ],
      "stateMutability": "view",
      "type": "function"
    }
  ],
  "bytecode": "0x61571f61003a600b82828239805160001a60731461002d57634e487b7160e01b600052600060045260246000fd5b30600052607381538281f3fe73000000000000000000000000000000000000000030146080604052600436106100615760003560e01c8063241c11e814610066578063b996c05314610088578063e3479653146100cf578063e7606676146100fd578063e978e6ae1461011d575b600080fd5b81801561007257600080fd5b50610086610081366004613c3d565b61013d565b005b81801561009457600080fd5b506100a86100a3366004613d56565b6104ea565b60408051825181526020808401519082015291810151908201526060015b60405180910390f35b8180156100db57600080fd5b506100ef6100ea366004613dd0565b610821565b6040519081526020016100c6565b61011061010b366004613e28565b6108cd565b6040516100c69190613e64565b81801561012957600080fd5b50610086610138366004614076565b610d37565b6000610162604051806060016040528060258152602001615547602591396000610821565b83519091506001600160a01b031633146101be5760405162461bcd60e51b81526020600482015260186024820152773932bb37b5b2903a30b9b5903bb937b7339031b0b63632b960411b60448201526064015b60405180910390fd5b60008084602001516001600160a01b0316631424e30c6040518163ffffffff1660e01b815260040160206040518083038186803b1580156101fe57600080fd5b505afa158015610212573d6000803e3d6000fd5b505050506040513d601f19601f820116820180604052508101906102369190614171565b6001600160a01b0316632c34025e866101000151610253886110ee565b61025c8961110d565b6040516001600160e01b031960e086901b16815263ffffffff93909316600484015261ffff909116602483015260ff16604482015260640160006040518083038186803b1580156102ac57600080fd5b505afa1580156102c0573d6000803e3d6000fd5b505050506040513d6000823e601f3d908101601f191682016040526102e891908101906144b9565b9150915061032b6040518060400160405280601c81526020017f2d2d2d2d2d2d2d2d2d2d207374644753492e666f756e64496e707574000000008152508361113d565b61034f60405180606001604052806026815260200161536b60269139825151611186565b60005b856101400151518161ffff1610801561036c575081515115155b156104e257600082600001518261ffff168151811061038d5761038d6145a2565b6020026020010151905060006103a682600001516111cb565b905080156103d7576103d060405180606001604052806039815260200161550e603991398261113d565b50506104d2565b60006103e683600001516112ce565b905080156104185761041060405180606001604052806038815260200161556c603891398261113d565b5050506104d2565b600061042784600001516113bd565b9050801561045a576104516040518060600160405280603c8152602001614f61603c91398261113d565b505050506104d2565b60408601516001600160a01b0316156104a8576104a38a87604001518c600001518d61014001518961ffff1681518110610496576104966145a2565b60200260200101516114ac565b6104cd565b6104cd8a8a8c600001518d61014001518961ffff1681518110610496576104966145a2565b505050505b6104db816145ce565b9050610352565b505050505050565b61050e60405180606001604052806000815260200160008152602001600081525090565b825160ff166001141561081b576000610526846115e7565b905060ff81166002141561081957600061053f8561161a565b9050600061054c8661168f565b90506000826001600160a01b031663c45a01556040518163ffffffff1660e01b815260040160206040518083038186803b15801561058957600080fd5b505afa15801561059d573d6000803e3d6000fd5b505050506040513d601f19601f820116820180604052508101906105c19190614171565b90506000816001600160a01b031663e6a439058960200151856040518363ffffffff1660e01b81526004016105f79291906145fd565b60206040518083038186803b15801561060f57600080fd5b505afa158015610623573d6000803e3d6000fd5b505050506040513d601f19601f820116820180604052508101906106479190614171565b90506000816001600160a01b0316630dfe16816040518163ffffffff1660e01b815260040160206040518083038186803b15801561068457600080fd5b505afa158015610698573d6000803e3d6000fd5b505050506040513d601f19601f820116820180604052508101906106bc9190614171565b90506000806000846001600160a01b0316630902f1ac6040518163ffffffff1660e01b815260040160606040518083038186803b1580156106fc57600080fd5b505afa158015610710573d6000803e3d6000fd5b505050506040513d601f19601f82011682018060405250810190610734919061462e565b92506001600160701b031692506001600160701b0316925060006107578d6116d6565b90508c602001516001600160a01b0316856001600160a01b0316141561079c5782848d602001516107889190614675565b6107929190614694565b60208d015261080f565b876001600160a01b0316856001600160a01b031614156107c75783838d602001516107889190614675565b60405162461bcd60e51b815260206004820152601d60248201527f746f6b656e206e6f74206d6174636820746f6b656e20696e207377617000000060448201526064016101b5565b5050505050505050505b505b50919050565b60008161086a576301312d00915061086a610865604051806040016040528060118152602001700b4b4b4b4b4b4b4b4b4b59d85cd55cd959607a1b815250856118f3565b61191f565b60005a61087790846146b6565b90506301312d008310156108c4576108c4610865604051806040016040528060118152602001700b4b4b4b4b4b4b4b4b4b59d85cd55cd959607a1b815250866108bf85611965565b611970565b5a949350505050565b606060006108da836116d6565b835190915060ff1660011415610d315760006108f5846115e7565b905060ff811660021415610d2f57600061090e8561161a565b9050600061091b8661168f565b90506000826001600160a01b031663c45a01556040518163ffffffff1660e01b815260040160206040518083038186803b15801561095857600080fd5b505afa15801561096c573d6000803e3d6000fd5b505050506040513d601f19601f820116820180604052508101906109909190614171565b90506000816001600160a01b031663e6a439058960200151856040518363ffffffff1660e01b81526004016109c69291906145fd565b60206040518083038186803b1580156109de57600080fd5b505afa1580156109f2573d6000803e3d6000fd5b505050506040513d601f19601f82011682018060405250810190610a169190614171565b90506000816001600160a01b0316630dfe16816040518163ffffffff1660e01b815260040160206040518083038186803b158015610a5357600080fd5b505afa158015610a67573d6000803e3d6000fd5b505050506040513d601f19601f82011682018060405250810190610a8b9190614171565b90506000806000846001600160a01b0316630902f1ac6040518163ffffffff1660e01b815260040160606040518083038186803b158015610acb57600080fd5b505afa158015610adf573d6000803e3d6000fd5b505050506040513d601f19601f82011682018060405250810190610b03919061462e565b92506001600160701b031692506001600160701b03169250610b57604051806060016040528060278152602001615664602791398b600081518110610b4a57610b4a6145a2565b6020026020010151611186565b610b86604051806060016040528060278152602001614f9d602791398b600181518110610b4a57610b4a6145a2565b8b602001516001600160a01b0316846001600160a01b03161415610c495781838b600081518110610bb957610bb96145a2565b6020026020010151610bcb9190614675565b610bd59190614694565b8a600081518110610be857610be86145a2565b60200260200101818152505081838b600181518110610c0957610c096145a2565b6020026020010151610c1b9190614675565b610c259190614694565b8a600181518110610c3857610c386145a2565b602002602001018181525050610cc8565b866001600160a01b0316846001600160a01b031614156107c75782828b600081518110610c7857610c786145a2565b6020026020010151610c8a9190614675565b610c949190614694565b8a600081518110610ca757610ca76145a2565b60200260200101818152505082828b600181518110610c0957610c096145a2565b610cf76040518060600160405280602b8152602001615186602b91398b600081518110610b4a57610b4a6145a2565b610d266040518060600160405280602b81526020016152df602b91398b600181518110610b4a57610b4a6145a2565b50505050505050505b505b92915050565b6000610d4683600001516111cb565b90508015610d8a57610d706040518060600160405280603281526020016155dc603291398261113d565b60028560c001818151610d8391906146cd565b60ff169052505b6000610d9984600001516112ce565b90508015610e1657610dc360405180606001604052806031815260200161545d603191398261113d565b6000610de0876040015161ffff168661199f90919063ffffffff16565b905060ff811660041415610dfb57610dfb81888888886119fa565b60018760c001818151610e0e91906146cd565b60ff16905250505b6000610e2585600001516113bd565b90508015610e6957610e4f604051806060016040528060358152602001615066603591398261113d565b60048760c001818151610e6291906146cd565b60ff169052505b610e926040518060600160405280602881526020016154bd602891398860c0015160ff16611186565b610ec26040518060600160405280602f8152602001615037602f9139610eb788611f9f565b63ffffffff16611186565b6000610ecd87611fb9565b90506000610eda88611fd3565b60608901519091506001600160a01b031615801590610efe575060c089015160ff16155b15611092576000604051806101000160405280336001600160a01b031681526020018a610100015163ffffffff1681526020018b6080015160ff1681526020018a60c0015163ffffffff168152602001610f578d612019565b60c0015181526020018b6020015160ff168152602001886000015160ff16815260200188602001516001600160a01b03168152509050600089606001516001600160a01b0316635de70a0d836040518263ffffffff1660e01b8152600401610fbf91906146f2565b602060405180830381600087803b158015610fd957600080fd5b505af1158015610fed573d6000803e3d6000fd5b505050506040513d601f19601f82011682018060405250810190611011919061477a565b905060008160030b131561103c57611029818561479d565b9350611035818461479d565b9250611067565b611045816147c5565b61104f90856147e9565b935061105a816147c5565b61106490846147e9565b92505b61108f6040518060600160405280602181526020016153cb602191398263ffffffff16611186565b50505b60408901516000906110ab90899061ffff1685856124ad565b90506110cf60405180606001604052806026815260200161560e602691398261113d565b80156110e1576110e18a8a8a8a6124e0565b5050505050505050505050565b6000610d318260a00151601060006008611108919061480e565b612a4d565b6000610d318260a00151600860006008611127919061480e565b61113290601061480e565b61110890601061480e565b6111828282604051602401611153929190614852565b60408051601f198184030181529190526020810180516001600160e01b031663c3b5563560e01b179052612a6c565b5050565b611182828260405160240161119c929190614876565b60408051601f198184030181529190526020810180516001600160e01b0316632d839cb360e21b179052612a6c565b6000806111d783612a8d565b905060006111e484612acc565b845190915060ff1660021480156111fe575060ff82166002145b1561122e5761122460405180606001604052806031815260200161521a6031913961191f565b5060019392505050565b835160ff166003148015611245575060ff82166002145b8015611254575060ff81166002145b1561127a576112246040518060600160405280603c81526020016152a3603c913961191f565b835160ff166001148061128f5750835160ff16155b801561129e575060ff81166002145b156112c4576112246040518060600160405280603b8152602001614ffc603b913961191f565b5060009392505050565b6000806112da83612a8d565b905060006112e784612acc565b845190915060ff166002148015611301575060ff82166003145b15611327576112246040518060600160405280603081526020016156346030913961191f565b835160ff16600314801561133e575060ff82166003145b801561134d575060ff81166003145b15611373576112246040518060600160405280603b815260200161509b603b913961191f565b835160ff16600114806113885750835160ff16155b8015611397575060ff81166003145b156112c4576112246040518060600160405280603a8152602001615391603a913961191f565b6000806113c983612a8d565b905060006113d684612acc565b845190915060ff1660021480156113f0575060ff82166004145b15611416576112246040518060600160405280603481526020016153376034913961191f565b835160ff16600314801561142d575060ff82166004145b801561143c575060ff81166004145b15611462576112246040518060600160405280603f8152602001615147603f913961191f565b835160ff16600114806114775750835160ff16155b8015611486575060ff81166004145b156112c4576112246040518060600160405280603e81526020016150d6603e913961191f565b6001600160a01b038216600114156114c3576114da565b6001600160a01b038216600214156114da57835191505b6115026040518060600160405280603481526020016151b16034913982602001518585612b24565b61153860405180606001604052806034815260200161568b60349139825161152990612b6d565b83604001518460600151612c42565b604081015115158061154d5750606081015115155b156115e15773__$f3ffbddbfa75d36b401c30b9eb0e8f0118$__6348e0db2e84600085856000015186602001518760400151886060015161158d8d612c8b565b6040518963ffffffff1660e01b81526004016115b0989796959493929190614898565b60006040518083038186803b1580156115c857600080fd5b505af41580156115dc573d6000803e3d6000fd5b505050505b50505050565b6000610d318260400151600081518110611603576116036145a2565b6020026020010151600460ff16600060ff16612a4d565b805160009060ff1660011415611687576000611635836115e7565b905060ff81166002141561168557600061164e84612cc6565b60408501519091506116618260036146cd565b60ff1681518110611674576116746145a2565b602002602001015192505050919050565b505b506000919050565b805160009060ff16600114156116875760006116aa836115e7565b905060ff8116600214156116855760006116c384612cc6565b60408501519091506116618260046146cd565b60408051600280825260608083018452926000929190602083019080368337505084519192505060ff1615806117105750825160ff166001145b1561179657826040015160018151811061172c5761172c6145a2565b602002602001015181600081518110611747576117476145a2565b602002602001018181525050826040015160028151811061176a5761176a6145a2565b602002602001015181600181518110611785576117856145a2565b602002602001018181525050610d31565b825160ff16600314156117f85782604001516002815181106117ba576117ba6145a2565b6020026020010151816000815181106117d5576117d56145a2565b602002602001018181525050826040015160038151811061176a5761176a6145a2565b825160ff1660021415610d3157600061181084612d29565b90508060ff1660021415610d2f57600061182985612da2565b9050600061183686612df6565b604087015190915060ff821661184d8460026148ef565b61185791906148ef565b61ffff168151811061186b5761186b6145a2565b602002602001015184600081518110611886576118866145a2565b6020908102919091010152604086015160ff82166118a58460036148ef565b6118af91906148ef565b61ffff16815181106118c3576118c36145a2565b6020026020010151846001815181106118de576118de6145a2565b60200260200101818152505050505092915050565b6060828260405160200161190892919061490c565b604051602081830303815290604052905092915050565b611962816040516024016119339190614948565b60408051601f198184030181529190526020810180516001600160e01b031663104c13eb60e21b179052612a6c565b50565b6060610d3182612e60565b60608383836040516020016119879392919061495b565b60405160208183030381529060405290509392505050565b60006119f3836060015183815181106119ba576119ba6145a2565b60200260200101516008600060086119d2919061480e565b6119dd90600861480e565b6119e890602061480e565b61110890602061480e565b9392505050565b60ff851660031415611c22576040810151158015611a1a57506060810151155b15611a2457611f98565b6000611a41856040015161ffff1684612ef490919063ffffffff16565b9050611a68604051806060016040528060338152602001615114603391398260ff16611186565b60008461014001518260ff16611a7d87612f53565b60ff1687610140015151896060015161ffff16611a9a9190614675565b611aa49190614694565b611aae919061480e565b81518110611abe57611abe6145a2565b60200260200101519050611ad06136ae565b835160ff1681526020808501516001600160a01b039081168284015260408087015181850152606080880151908501528883015181516377b2ecf960e11b8152915192169263ef65d9f292600480840193829003018186803b158015611b3557600080fd5b505afa158015611b49573d6000803e3d6000fd5b505050506040513d601f19601f82011682018060405250810190611b6d9190614171565b6001600160a01b031663010b560333886101000151856000015186602001518760400151876040518763ffffffff1660e01b8152600401611bb3969594939291906149b5565b600060405180830381600087803b158015611bcd57600080fd5b505af1158015611be1573d6000803e3d6000fd5b50505050611c1a868860a0015187604001518a6040015161ffff1681518110611c0c57611c0c6145a2565b6020026020010151876114ac565b505050611f98565b60ff851660041415611f98576000611c4b856040015161ffff1684612ef490919063ffffffff16565b9050611c726040518060600160405280603581526020016151e5603591398260ff16611186565b60008461014001518260ff16611c8787612f53565b60ff1687610140015151896060015161ffff16611ca49190614675565b611cae9190614694565b611cb8919061480e565b81518110611cc857611cc86145a2565b602090810291909101810151805191810151604080830151905163e94f8ad760e01b815233600482015260ff90941660248501526001600160a01b039091166044840152606483015260006084830181905260a4830152915073__$f3ffbddbfa75d36b401c30b9eb0e8f0118$__9063e94f8ad79060c40160006040518083038186803b158015611d5857600080fd5b505af4158015611d6c573d6000803e3d6000fd5b505050606084015184519091506127109060ff1660011480611d905750845160ff16155b15611da157611d9e87612c8b565b90505b611da96136ae565b855160ff1681526020808701516001600160a01b039081168284015260408089015181850152606084018690528a83015181516377b2ecf960e11b81529151600094919093169263ef65d9f2926004808201939291829003018186803b158015611e1257600080fd5b505afa158015611e26573d6000803e3d6000fd5b505050506040513d601f19601f82011682018060405250810190611e4a9190614171565b6001600160a01b03166381c964d4338b6101000151886000015189602001518a60400151886040518763ffffffff1660e01b8152600401611e90969594939291906149b5565b602060405180830381600087803b158015611eaa57600080fd5b505af1158015611ebe573d6000803e3d6000fd5b505050506040513d601f19601f82011682018060405250810190611ee29190614a24565b905080156110e15773__$f3ffbddbfa75d36b401c30b9eb0e8f0118$__6348e0db2e89604001518c6040015161ffff1681518110611f2257611f226145a2565b60200260200101516000338b600001518c602001518d604001518b8b6040518963ffffffff1660e01b8152600401611f61989796959493929190614898565b60006040518083038186803b158015611f7957600080fd5b505af4158015611f8d573d6000803e3d6000fd5b505050505050505050505b5050505050565b6000610d3182608001516020600060206119e8919061480e565b6000610d3182608001516020600060206119dd919061480e565b6000610d318260800151602060006020611fed919061480e565b611ff890602061480e565b61200390602061480e565b61200e90602061480e565b6119dd90602061480e565b6120216136e2565b600061202c83612f8e565b90506000612038612fdb565b905061204384613022565b60ff16815261205184613055565b60ff1660208201526120628461308c565b60ff166060820152612073846130d9565b60ff16604082015261208484613110565b60ff1661012082015283515160009061209f906001906146b6565b90505b602061ffff8416106123575781610120015160ff166001600160401b038111156120ce576120ce61376b565b6040519080825280602002602001820160405280156120f7578160200160208202803683370190505b5061014083015261012082015160ff166001600160401b0381111561211e5761211e61376b565b604051908082528060200260200182016040528015612147578160200160208202803683370190505b5061016083015261012082015160ff166001600160401b0381111561216e5761216e61376b565b604051908082528060200260200182016040528015612197578160200160208202803683370190505b5061018083015261012082015160ff166001600160401b038111156121be576121be61376b565b6040519080825280602002602001820160405280156121e7578160200160208202803683370190505b506101a083015261012082015160ff165b80156123445785518261220a81614a3f565b93508151811061221c5761221c6145a2565b6020026020010151836101a001518261223490614a3f565b92508281518110612247576122476145a2565b6001600160a01b039092166020928302919091019091015285518261226b81614a3f565b93508151811061227d5761227d6145a2565b6020026020010151836101800151828151811061229c5761229c6145a2565b60ff909216602092830291909101909101528551826122ba81614a3f565b9350815181106122cc576122cc6145a2565b602002602001015183610160015182815181106122eb576122eb6145a2565b602090810291909101015285518261230281614a3f565b935081518110612314576123146145a2565b60200260200101518361014001518281518110612333576123336145a2565b6020026020010181815250506121f8565b50612350602084614a56565b9250612492565b601061ffff8416106123a7578451805182908110612377576123776145a2565b6020908102919091010151610100830152612393601084614a56565b92508061239f81614a3f565b915050612492565b600861ffff8416106123e25784518051829081106123c7576123c76145a2565b602090810291909101015160e0830152612393600884614a56565b600461ffff84161061241d578451805182908110612402576124026145a2565b602090810291909101015160c0830152612393600484614a56565b600261ffff841610612457576124328561319f565b63ffffffff1660a0830181905261244c5761271060a08301525b612350600284614a56565b600161ffff8416106124925761246c8561320d565b62ffffff166080830181905261248457600160808301525b61248f600184614a56565b92505b61ffff83166124a0576124a5565b6120a2565b509392505050565b60006124d783836124be888861325a565b6124c8898961328d565b6124d28a8a6132c0565b6132f3565b95945050505050565b6000604051806101400160405280306001600160a01b0316815260200185602001516001600160a01b0316815260200186600001516001600160a01b0316815260200185610100015163ffffffff1681526020018560c0015163ffffffff16815260200185600001516001600160a01b03168152602001600060ff168152602001866060015161ffff168152602001866080015160ff168152602001866020015160ff1681525090506125af6040518060600160405280602d815260200161530a602d91398560400151613493565b60c085015160ff1661297857600084604001516001600160a01b031663b4b70352836040518263ffffffff1660e01b81526004016125ed9190614a71565b602060405180830381600087803b15801561260757600080fd5b505af115801561261b573d6000803e3d6000fd5b505050506040513d601f19601f8201168201806040525081019061263f9190614a24565b90506126636040518060600160405280603881526020016155a4603891398261113d565b806129725761268e6040518060600160405280602981526020016154e5602991398460200151613493565b6126b56040518060600160405280603b8152602001615422603b9139846080015151611186565b60608501516001600160a01b031615612764576080860151602087015160405163290f42cd60e21b815273__$6bf08ee4f93b81b1ff3f1b37c651f8e217$__9263a43d0b349261270d928a9291908990600401614d0f565b60006040518083038186803b15801561272557600080fd5b505af4158015612739573d6000803e3d6000fd5b505050506040513d6000823e601f3d908101601f191682016040526127619190810190614d51565b92505b608083015151156127d9576040516302d4a40d60e21b815273__$6bf08ee4f93b81b1ff3f1b37c651f8e217$__90630b529034906127a89088908790600401614e83565b60006040518083038186803b1580156127c057600080fd5b505af41580156127d4573d6000803e3d6000fd5b505050505b60006127f6876040015161ffff168661199f90919063ffffffff16565b905060ff8116600314156128165761281181888888886119fa565b612970565b61285360405180604001604052806013815260200172696e707574436c61696d2e64656661756c744b60681b815250886040015161ffff16611186565b6000612870886040015161ffff16876134d890919063ffffffff16565b905060008660400151896040015161ffff1681518110612892576128926145a2565b6020026020010151905060008261ffff16111561295d57806001600160a01b031663112b865f87602001518489604001516127106128cf8e612c8b565b63ffffffff168c606001516128e49190614675565b6128ee9190614694565b6040516001600160e01b031960e087901b1681526001600160a01b03909416600485015261ffff909216602484015260448301526064820152608401600060405180830381600087803b15801561294457600080fd5b505af1158015612958573d6000803e3d6000fd5b505050505b61296d888a60a0015183896114ac565b50505b505b50611f98565b6129a16040518060600160405280602f815260200161548e602f91398660c0015160ff16611186565b60608401516001600160a01b031615611f98576080850151602086015160405163290f42cd60e21b815273__$6bf08ee4f93b81b1ff3f1b37c651f8e217$__9263a43d0b34926129f992899291908890600401614d0f565b60006040518083038186803b158015612a1157600080fd5b505af4158015612a25573d6000803e3d6000fd5b505050506040513d6000823e601f3d908101601f191682016040526104e29190810190614d51565b91821c91600080612a61600180861b6146b6565b909416949350505050565b80516a636f6e736f6c652e6c6f67602083016000808483855afa5050505050565b6000610d318260400151600081518110612aa957612aa96145a2565b6020026020010151600460ff1660006004612ac491906146cd565b60ff16612a4d565b6000610d318260400151600081518110612ae857612ae86145a2565b6020026020010151600460ff1660006004612b0391906146cd565b612b0e9060046146cd565b612b199060106146cd565b612ac49060026146cd565b6115e184848484604051602401612b3e9493929190614ea8565b60408051601f198184030181529190526020810180516001600160e01b03166376c7947b60e11b179052612a6c565b606060ff8216612b9757505060408051808201909152600481526321b7b4b760e11b602082015290565b60ff821660011415612bc4575050604080518082019091526005815264045524332360dc1b602082015290565b60ff821660021415612bf257505060408051808201909152600681526545524337323160d01b602082015290565b60ff821660031415612c215750506040805180820190915260078152664552433131353560c81b602082015290565b5050604080518082019091526005815264456d70747960d81b602082015290565b6115e184848484604051602401612c5c9493929190614ee4565b60408051601f198184030181529190526020810180516001600160e01b0316633d175f4b60e21b179052612a6c565b6000610d318260a00151602060006008612ca5919061480e565b612cb090601061480e565b612cbb90601061480e565b61113290600861480e565b6000610d318260400151600081518110612ce257612ce26145a2565b6020026020010151600260ff1660006004612cfd91906146cd565b612d089060046146cd565b612d139060106146cd565b612d1e9060026146cd565b612b199060046146cd565b805160009060ff1660021415612d9a57610d318260400151600081518110612d5357612d536145a2565b6020026020010151600260ff1660006004612d6e91906146cd565b612d799060046146cd565b612d849060106146cd565b612d8f9060026146cd565b612ac49060046146cd565b506002919050565b805160009060ff1660021480612dbc5750815160ff166003145b1561168757610d318260400151600081518110612ddb57612ddb6145a2565b6020026020010151601060ff1660006004612d8f91906146cd565b805160009060ff1660021480612e105750815160ff166003145b1561168757610d318260400151600081518110612e2f57612e2f6145a2565b6020026020010151600260ff1660006004612e4a91906146cd565b612e559060046146cd565b612ac49060106146cd565b60606000612e6d8361354c565b60010190506000816001600160401b03811115612e8c57612e8c61376b565b6040519080825280601f01601f191660200182016040528015612eb6576020820181803683370190505b5090508181016020015b600019016f181899199a1a9b1b9c1cb0b131b232b360811b600a86061a8153600a8504945084612eef576124a5565b612ec0565b60006119f383606001518381518110612f0f57612f0f6145a2565b6020026020010151600860006008612f27919061480e565b612f3290600861480e565b612f3d90602061480e565b612f4890602061480e565b6119e890600861480e565b6000610d318260a00151601060006008612f6d919061480e565b612f7890601061480e565b612f8390601061480e565b61110890600861480e565b6000610d318260000151600081518110612faa57612faa6145a2565b6020026020010151601060ff1660006008612fc591906146cd565b612fd09060046146cd565b612d8f9060086146cd565b612fe36136e2565b612feb6136e2565b6000808252604082018190526127106080830181905260a0830181905260c083019190915260e08201819052610100820152919050565b6000610d31826000015160008151811061303e5761303e6145a2565b6020026020010151600860ff16600060ff16612a4d565b6000610d318260000151600081518110613071576130716145a2565b6020026020010151600460ff1660006008612ac491906146cd565b6000610d3182600001516000815181106130a8576130a86145a2565b6020026020010151600460ff16600060086130c391906146cd565b6130ce9060046146cd565b612ac49060086146cd565b6000610d3182600001516000815181106130f5576130f56145a2565b6020026020010151600860ff1660006008612d8f91906146cd565b6000610d31826000015160008151811061312c5761312c6145a2565b6020026020010151600860ff166000600861314791906146cd565b6131529060046146cd565b61315d9060086146cd565b6131689060046146cd565b6131739060106146cd565b61317e9060186146cd565b6131899060206146cd565b6131949060206146cd565b612ac49060206146cd565b6000610d3182600001516000815181106131bb576131bb6145a2565b6020026020010151602060ff16600060086131d691906146cd565b6131e19060046146cd565b6131ec9060086146cd565b6131f79060046146cd565b6132029060106146cd565b612ac49060186146cd565b6000610d318260000151600081518110613229576132296145a2565b6020026020010151601860ff166000600861324491906146cd565b61324f9060046146cd565b612e4a9060086146cd565b60006119f383606001518381518110613275576132756145a2565b6020026020010151600860006008611108919061480e565b60006119f3836060015183815181106132a8576132a86145a2565b6020026020010151602060006008612f83919061480e565b60006119f3836060015183815181106132db576132db6145a2565b6020026020010151602060006008612f48919061480e565b600060018180808060ff891661333257429350613310888c61479d565b63ffffffff169250613322878c61479d565b63ffffffff1691508a9050613370565b60ff89166001141561337057613346613622565b9350613352888b61479d565b63ffffffff169250613364878b61479d565b63ffffffff1691508990505b6133986040518060600160405280603681526020016153ec603691398c63ffffffff16611186565b6133c0604051806060016040528060388152602001614fc4603891398b63ffffffff16611186565b6133e26040518060600160405280602b815260200161524b602b913985611186565b6134046040518060600160405280602d8152602001615276602d913984611186565b6134266040518060600160405280602b81526020016156bf602b913983611186565b60008863ffffffff16118061344057508063ffffffff1684105b801561344b57508284105b1561345557600094505b60008763ffffffff16118061346f57508063ffffffff1684105b801561347a57508184115b1561348457600094505b50929998505050505050505050565b61118282826040516024016134a9929190614f1d565b60408051601f198184030181529190526020810180516001600160e01b031663319af33360e01b179052612a6c565b6000613542836060015183815181106134f3576134f36145a2565b602002602001015160106000600861350b919061480e565b61351690600861480e565b61352190602061480e565b61352c90602061480e565b61353790600861480e565b61113290602061480e565b60ff169392505050565b60008072184f03e93ff9f4daa797ed6e38ed64bf6a1f0160401b831061358b5772184f03e93ff9f4daa797ed6e38ed64bf6a1f0160401b830492506040015b6904ee2d6d415b85acef8160201b83106135b5576904ee2d6d415b85acef8160201b830492506020015b662386f26fc1000083106135d357662386f26fc10000830492506010015b6305f5e10083106135eb576305f5e100830492506008015b61271083106135ff57612710830492506004015b60648310613611576064830492506002015b600a8310610d315760010192915050565b60004661a4b18114156136a75760646001600160a01b031663a3b1b31d6040518163ffffffff1660e01b815260040160206040518083038186803b15801561366957600080fd5b505afa15801561367d573d6000803e3d6000fd5b505050506040513d601f19601f820116820180604052508101906136a19190614f47565b91505090565b4391505090565b6040518060800160405280600060ff16815260200160006001600160a01b0316815260200160008152602001600081525090565b604051806101c00160405280600060ff168152602001600060ff168152602001600060ff168152602001600060ff168152602001600062ffffff168152602001600063ffffffff168152602001600081526020016000815260200160008152602001600060ff168152602001606081526020016060815260200160608152602001606081525090565b634e487b7160e01b600052604160045260246000fd5b60405160a081016001600160401b03811182821017156137a3576137a361376b565b60405290565b604080519081016001600160401b03811182821017156137a3576137a361376b565b60405161018081016001600160401b03811182821017156137a3576137a361376b565b604051606081016001600160401b03811182821017156137a3576137a361376b565b604051608081016001600160401b03811182821017156137a3576137a361376b565b604051602081016001600160401b03811182821017156137a3576137a361376b565b604051601f8201601f191681016001600160401b038111828210171561387c5761387c61376b565b604052919050565b6001600160a01b038116811461196257600080fd5b80356138a481613884565b919050565b63ffffffff8116811461196257600080fd5b80356138a4816138a9565b60ff8116811461196257600080fd5b80356138a4816138c6565b60006001600160401b038211156138f9576138f961376b565b5060051b60200190565b8060040b811461196257600080fd5b600060a0828403121561392457600080fd5b61392c613781565b90508135613939816138c6565b815260208281013561394a81613884565b82820152604083810135818401526060808501359084015260808401356001600160401b0381111561397b57600080fd5b8401601f8101861361398c57600080fd5b803561399f61399a826138e0565b613854565b81815260069190911b820184019084810190888311156139be57600080fd5b928501925b82841015613a105784848a0312156139db5760008081fd5b6139e36137a9565b84356139ee816138a9565b8152848701356139fd81613903565b81880152825292840192908501906139c3565b608087015250939695505050505050565b600082601f830112613a3257600080fd5b81356020613a4261399a836138e0565b82815260059290921b84018101918181019086841115613a6157600080fd5b8286015b84811015613aa05780356001600160401b03811115613a845760008081fd5b613a928986838b0101613912565b845250918301918301613a65565b509695505050505050565b60006001600160401b03821115613ac457613ac461376b565b50601f01601f191660200190565b6000613ae061399a84613aab565b9050828152838383011115613af457600080fd5b828260208301376000602084830101529392505050565b600082601f830112613b1c57600080fd5b6119f383833560208501613ad2565b60006101808284031215613b3e57600080fd5b613b466137cb565b9050613b5182613899565b8152613b5f60208301613899565b6020820152613b7060408301613899565b6040820152613b8160608301613899565b60608201526080820135608082015260a082013560a0820152613ba660c083016138bb565b60c0820152613bb760e083016138bb565b60e0820152610100613bca8184016138bb565b90820152610120613bdc8382016138d5565b90820152610140828101356001600160401b0380821115613bfc57600080fd5b613c0886838701613a21565b83850152610160925082850135915080821115613c2457600080fd5b50613c3185828601613b0b565b82840152505092915050565b60008060408385031215613c5057600080fd5b82356001600160401b03811115613c6657600080fd5b613c7285828601613b2b565b9250506020830135613c8381613884565b809150509250929050565b600082601f830112613c9f57600080fd5b81356020613caf61399a836138e0565b82815260059290921b84018101918181019086841115613cce57600080fd5b8286015b84811015613aa05780358352918301918301613cd2565b600060608284031215613cfb57600080fd5b613d036137ee565b90508135613d10816138c6565b81526020820135613d2081613884565b602082015260408201356001600160401b03811115613d3e57600080fd5b613d4a84828501613c8e565b60408301525092915050565b6000808284036080811215613d6a57600080fd5b83356001600160401b03811115613d8057600080fd5b613d8c86828701613ce9565b9350506060601f1982011215613da157600080fd5b50613daa6137ee565b602084013581526040840135602082015260608401356040820152809150509250929050565b60008060408385031215613de357600080fd5b82356001600160401b03811115613df957600080fd5b8301601f81018513613e0a57600080fd5b613e1985823560208401613ad2565b95602094909401359450505050565b600060208284031215613e3a57600080fd5b81356001600160401b03811115613e5057600080fd5b613e5c84828501613ce9565b949350505050565b6020808252825182820181905260009190848201906040850190845b81811015613e9c57835183529284019291840191600101613e80565b50909695505050505050565b803561ffff811681146138a457600080fd5b600060e08284031215613ecc57600080fd5b60405160e081018181106001600160401b0382111715613eee57613eee61376b565b6040529050808235613eff81613884565b81526020830135613f0f816138c6565b6020820152613f2060408401613ea8565b6040820152613f3160608401613ea8565b60608201526080830135613f44816138c6565b608082015260a0830135613f5781613884565b60a0820152613f6860c084016138d5565b60c08201525092915050565b600060808284031215613f8657600080fd5b613f8e613810565b905081356001600160401b0380821115613fa757600080fd5b613fb385838601613ce9565b83526020915081840135613fc6816138c6565b83830152604084013581811115613fdc57600080fd5b8401601f81018613613fed57600080fd5b8035613ffb61399a826138e0565b81815260059190911b8201840190848101908883111561401a57600080fd5b928501925b8284101561404157833561403281613884565b8252928501929085019061401f565b6040870152505050606084013591508082111561405d57600080fd5b5061406a84828501613c8e565b60608301525092915050565b6000806000806000610160868803121561408f57600080fd5b85356001600160401b03808211156140a657600080fd5b908701906020828a0312156140ba57600080fd5b6140c2613832565b8235828111156140d157600080fd5b6140dd8b828601613c8e565b82525096506140ef8960208a01613eba565b955061010088013591508082111561410657600080fd5b61411289838a01613b2b565b945061012088013591508082111561412957600080fd5b61413589838a01613f74565b935061014088013591508082111561414c57600080fd5b5061415988828901613912565b9150509295509295909350565b80516138a481613884565b60006020828403121561418357600080fd5b81516119f381613884565b805180151581146138a457600080fd5b80516138a4816138c6565b600082601f8301126141ba57600080fd5b815160206141ca61399a836138e0565b82815260059290921b840181019181810190868411156141e957600080fd5b8286015b84811015613aa057805183529183019183016141ed565b600082601f83011261421557600080fd5b8151602061422561399a836138e0565b82815260059290921b8401810191818101908684111561424457600080fd5b8286015b84811015613aa057805161425b81613884565b8352918301918301614248565b600082601f83011261427957600080fd5b8151602061428961399a836138e0565b82815260059290921b840181019181810190868411156142a857600080fd5b8286015b84811015613aa05780516001600160401b03808211156142cb57600080fd5b90880190601f196080838c03820112156142e457600080fd5b6142ec613810565b87840151838111156142fd57600080fd5b84016060818e038401121561431157600080fd5b6143196137ee565b925088810151614328816138c6565b835260408181015161433981613884565b848b015260608201518581111561434f57600080fd5b61435d8f8c838601016141a9565b828601525083835261437081870161419e565b8a840152606086015193508484111561438857600080fd5b6143968e8b86890101614204565b908301525060808401519150828211156143af57600080fd5b6143bd8c89848701016141a9565b606082015286525050509183019183016142ac565b60005b838110156143ed5781810151838201526020016143d5565b838111156115e15750506000910152565b600082601f83011261440f57600080fd5b8151602061441f61399a836138e0565b82815260059290921b8401810191818101908684111561443e57600080fd5b8286015b84811015613aa05780516001600160401b038111156144615760008081fd5b8701603f810189136144735760008081fd5b84810151604061448561399a83613aab565b8281528b8284860101111561449a5760008081fd5b6144a9838983018487016143d2565b8652505050918301918301614442565b600080604083850312156144cc57600080fd5b6144d58361418e565b915060208301516001600160401b03808211156144f157600080fd5b9084019060a0828703121561450557600080fd5b61450d613781565b82518281111561451c57600080fd5b61452888828601614268565b8252506145376020840161419e565b602082015261454860408401614166565b604082015260608301518281111561455f57600080fd5b61456b88828601614204565b60608301525060808301518281111561458357600080fd5b61458f888286016143fe565b6080830152508093505050509250929050565b634e487b7160e01b600052603260045260246000fd5b634e487b7160e01b600052601160045260246000fd5b600061ffff808316818114156145e6576145e66145b8565b6001019392505050565b6001600160a01b03169052565b6001600160a01b0392831681529116602082015260400190565b80516001600160701b03811681146138a457600080fd5b60008060006060848603121561464357600080fd5b61464c84614617565b925061465a60208501614617565b9150604084015161466a816138a9565b809150509250925092565b600081600019048311821515161561468f5761468f6145b8565b500290565b6000826146b157634e487b7160e01b600052601260045260246000fd5b500490565b6000828210156146c8576146c86145b8565b500390565b600060ff821660ff84168060ff038211156146ea576146ea6145b8565b019392505050565b60006101008201905060018060a01b038351168252602083015163ffffffff808216602085015260ff604086015116604085015280606086015116606085015250506080830151608083015260a083015161475260a084018260ff169052565b5060c083015161476760c084018260ff169052565b5060e0830151610d2f60e08401826145f0565b60006020828403121561478c57600080fd5b81518060030b81146119f357600080fd5b600063ffffffff8083168185168083038211156147bc576147bc6145b8565b01949350505050565b60008160030b637fffffff198114156147e0576147e06145b8565b60000392915050565b600063ffffffff83811690831681811015614806576148066145b8565b039392505050565b60008219821115614821576148216145b8565b500190565b6000815180845261483e8160208601602086016143d2565b601f01601f19169290920160200192915050565b6040815260006148656040830185614826565b905082151560208301529392505050565b6040815260006148896040830185614826565b90508260208301529392505050565b6001600160a01b03988916815261ffff979097166020880152948716604087015260ff9390931660608601529416608084015260a083019390935260c082019290925263ffffffff90911660e08201526101000190565b600061ffff8083168185168083038211156147bc576147bc6145b8565b6000835161491e8184602088016143d2565b600b60fa1b908301908152835161493c8160018401602088016143d2565b01600101949350505050565b6020815260006119f36020830184614826565b6000845161496d8184602089016143d2565b8083019050600b60fa1b808252855161498d816001850160208a016143d2565b600192019182015283516149a88160028401602088016143d2565b0160020195945050505050565b60006101208201905060018060a01b03808916835263ffffffff8816602084015260ff87166040840152808616606084015284608084015260ff84511660a08401528060208501511660c084015250604083015160e08301526060830151610100830152979650505050505050565b600060208284031215614a3657600080fd5b6119f38261418e565b600081614a4e57614a4e6145b8565b506000190190565b600061ffff83811690831681811015614806576148066145b8565b600061014082019050614a858284516145f0565b6020830151614a9760208401826145f0565b506040830151614aaa60408401826145f0565b506060830151614ac2606084018263ffffffff169052565b506080830151614ada608084018263ffffffff169052565b5060a0830151614aed60a08401826145f0565b5060c0830151614b0260c084018260ff169052565b5060e0830151614b1860e084018261ffff169052565b506101008381015160ff908116918401919091526101209384015116929091019190915290565b805160ff1682526020808201516001600160a01b031681840152604080830151818501526060808401519085015260808084015160a09186018290528051918601829052600093908101929091849060c08801905b80831015614bc6578551805163ffffffff16835285015160040b85830152948401946001929092019190830190614b94565b50979650505050505050565b6000815180845260208085019450848260051b860182860160005b85811015614c17578383038952614c05838351614b3f565b98850198925090840190600101614bed565b5090979650505050505050565b6000610180614c348484516145f0565b6020830151614c4660208601826145f0565b506040830151614c5960408601826145f0565b506060830151614c6c60608601826145f0565b506080830151608085015260a083015160a085015260c0830151614c9860c086018263ffffffff169052565b5060e0830151614cb060e086018263ffffffff169052565b506101008381015163ffffffff16908501526101208084015160ff169085015261014080840151818601839052614ce983870182614bd2565b925050506101608084015185830382870152614d058382614826565b9695505050505050565b608081526000614d226080830187614c24565b60ff8616602084015260ff851660408401528281036060840152614d468185614b3f565b979650505050505050565b60006020808385031215614d6457600080fd5b82516001600160401b0380821115614d7b57600080fd5b9084019060a08287031215614d8f57600080fd5b614d97613781565b8251614da2816138c6565b815282840151614db181613884565b818501526040838101518183015260608085015190830152608084015183811115614ddb57600080fd5b80850194505087601f850112614df057600080fd5b83519250614e0061399a846138e0565b83815260069390931b84018501928581019089851115614e1f57600080fd5b948601945b84861015614e715782868b031215614e3c5760008081fd5b614e446137a9565b8651614e4f816138a9565b815286880151614e5e81613903565b8189015282529482019490860190614e24565b60808401525090979650505050505050565b604081526000614e966040830185614c24565b82810360208401526124d78185614b3f565b608081526000614ebb6080830187614826565b6001600160a01b0395861660208401529385166040830152509216606090920191909152919050565b608081526000614ef76080830187614826565b8281036020840152614f098187614826565b604084019590955250506060015292915050565b604081526000614f306040830185614826565b905060018060a01b03831660208301529392505050565b600060208284031215614f5957600080fd5b505191905056fe2d2d2d2d2d2d2d2d2d2d2d2d2d2d2d2070726f63657373496e7075745265766f6b65206e656564546f6b656e52657175697265644d6f756e74696e672d2d2d2d2d2d2d2d2d2d2d2d2d2d2d2d207377617020737464416d6f756e7452616e67655b315d2d2d2d2d2d2d2d2d2d2d2d2d2d2d2072756c65205f636865636b436c61696d54696d65207461736b5374617274426c6f636b4e756d6265722d2d2d2d2d2d2d2d2d2d20696e70757420434f494e202f20746f6b656e20455243323020616d6f756e74206f6e6c7920636865636b2065786973742d2d2d2d2d2d2d2d2d2d2d2d5f70726570617265504943207461736b2e74696d657374616d7050726f6365737365642d2d2d2d2d2d2d2d2d2d2d2d2d2d2d205f70726570617265504943206e656564436865636b52657175697265644d6f756e74696e672d2d2d2d2d2d2d2d2d2d20696e70757420746f6b656e2045524331313535206964206f7220616d6f756e74206f6e6c7920636865636b206e6f6e652d2d2d2d2d2d2d2d2d2d20696e70757420434f494e202f20746f6b656e20455243323020616d6f756e74206f6e6c7920636865636b206d6f756e74696e672d2d2d2d2d2d2d2d2d2d2d2d5f70726f636573734d6f756e74696e67206d6f756e74696e67546f6b656e536c6f74496e6465782d2d2d2d2d2d2d2d2d2d20696e70757420746f6b656e2045524331313535206964206f7220616d6f756e74206f6e6c7920636865636b206d6f756e74696e672d2d2d2d2d2d2d2d2d2d2d2d2d2d2d2d207377617020737464416d6f756e7452616e67655b305d2d6e65772d2d2d2d2d2d5f70726f63657373496e7075745472616e7366657220746f6b656e3a25732c2066726f6d3a25732c20746f3a25732d2d2d2d2d2d2d2d2d2d2d2d5f70726f636573734d6f756e74696e6720756e6d6f756e74696e67546f6b656e536c6f74496e6465782d2d2d2d2d2d2d2d2d2d20696e70757420746f6b656e20455243373231206964206f6e6c7920636865636b2065786973742d2d2d2d2d2d2d2d2d2d2d2d2d2d2072756c65205f636865636b436c61696d54696d652063757254696d652d2d2d2d2d2d2d2d2d2d2d2d2d2d2072756c65205f636865636b436c61696d54696d6520626567696e54696d652d2d2d2d2d2d2d2d2d2d20696e70757420746f6b656e2045524331313535206964206f7220616d6f756e74206f6e6c7920636865636b2065786973742d2d2d2d2d2d2d2d2d2d2d2d2d2d2d2d207377617020737464416d6f756e7452616e67655b315d2d6e65772d2d2d2d2d2d2d2d2d205f70726f63657373496e707574436c61696d207461736b2e6c61737448616e646c65722d2d2d2d2d2d2d2d2d2d20696e70757420746f6b656e20455243373231206964206f6e6c7920636865636b206d6f756e74696e672d2d2d2d2d2d2d2d2d2d207374644753492e746f6b656e536c6f744c6973742e6c656e6774682d2d2d2d2d2d2d2d2d2d20696e70757420434f494e202f20746f6b656e20455243323020616d6f756e74206f6e6c7920636865636b206e6f6e652d2d2d2d2d2d2d2d2d2d2d2d5f707265706172655049432064656c617954696d652d2d2d2d2d2d2d2d2d2d2d2d2d2d2072756c65205f636865636b436c61696d54696d65207461736b537461727454696d657374616d702d2d2d2d2d2d2d2d2d2d2d2d5f70726f63657373496e707574436c61696d20696e707574546f6b656e2e61747472496e4c6973742e6c656e6774682d2d2d2d2d2d2d2d2d2d2d2d2d2d2d205f70726570617265504943206e656564436865636b52657175697265644e6f6e652d2d2d2d2d2d2d2d2d2d2d2d5f70726f63657373496e707574436c61696d20696e707574436c61696d2e73746174652d2d2d2d2d2d2d2d2d2d2d2d5f7072657061726550494320696e707574436c61696d2e73746174652d2d2d2d2d2d2d2d2d2d2d2d5f70726f63657373496e707574436c61696d20696e707574546f6b656e2d2d2d2d2d2d2d2d2d2d2d2d2d2d2d2070726f63657373496e7075745265766f6b65206e656564436865636b526571756972656445786973742d2d2d2d2d2d3d3d3d3d3d3d2d2d2d2d2d2d20676173207265766f6b65202d2d2031372d312d2d2d2d2d2d2d2d2d2d2d2d2d2d2d2070726f63657373496e7075745265766f6b65206e656564546f6b656e52657175697265644e6f6e652d2d2d2d2d2d2d2d2d2d2d2d5f70726f63657373496e707574436c61696d20636c61696d494f416464726573734272616e6368546f6b656e2d2d2d2d2d2d2d2d2d2d2d2d2d2d2d205f70726570617265504943206e656564436865636b526571756972656445786973742d2d2d2d2d2d2d2d2d2d2d2d5f7072657061726550494320636865636b436c61696d54696d652d2d2d2d2d2d2d2d2d2d20696e70757420746f6b656e20455243373231206964206f6e6c7920636865636b206e6f6e652d2d2d2d2d2d2d2d2d2d2d2d2d2d2d2d207377617020737464416d6f756e7452616e67655b305d2d2d2d2d2d2d5f70726f63657373496e7075745472616e73666572206572633a25732c2069643a25732c20616d6f756e743a25732d2d2d2d2d2d2d2d2d2d2d2d2d2d2072756c65205f636865636b436c61696d54696d6520656e6454696d65a2646970667358221220a337f9d732b4bdc898ab79c8dc6e76f95cfac8b58f3ff38eb830dc6af0031a8764736f6c63430008080033",
  "linkReferences": {
    "contracts/V3/EngineAttribute.sol": {
      "EngineAttribute": [
        {
          "length": 20,
          "start": 10011
        },
        {
          "length": 20,
          "start": 10168
        },
        {
          "length": 20,
          "start": 10759
        }
      ]
    },
    "contracts/V3/util/Transfer.sol": {
      "Transfer": [
        {
          "length": 20,
          "start": 5518
        },
        {
          "length": 20,
          "start": 7517
        },
        {
          "length": 20,
          "start": 7974
        }
      ]
    }
  },
  "deployedLinkReferences": {
    "contracts/V3/EngineAttribute.sol": {
      "EngineAttribute": [
        {
          "length": 20,
          "start": 9953
        },
        {
          "length": 20,
          "start": 10110
        },
        {
          "length": 20,
          "start": 10701
        }
      ]
    },
    "contracts/V3/util/Transfer.sol": {
      "Transfer": [
        {
          "length": 20,
          "start": 5460
        },
        {
          "length": 20,
          "start": 7459
        },
        {
          "length": 20,
          "start": 7916
        }
      ]
    }
  }
}