{
  "_format": "hh-sol-artifact-1",
  "contractName": "RelationTreeLib",
  "sourceName": "contracts/V3/library/RelationTreeLib.sol",
  "abi": [
    {
      "anonymous": false,
      "inputs": [
        {
          "indexed": false,
          "internalType": "bytes32",
          "name": "hash",
          "type": "bytes32"
        },
        {
          "indexed": false,
          "internalType": "address",
          "name": "inviter",
          "type": "address"
        },
        {
          "indexed": false,
          "internalType": "address",
          "name": "invitee",
          "type": "address"
        },
        {
          "indexed": false,
          "internalType": "uint256",
          "name": "timestamp",
          "type": "uint256"
        },
        {
          "indexed": false,
          "internalType": "uint256",
          "name": "blockNumber",
          "type": "uint256"
        }
      ],
      "name": "Bind",
      "type": "event"
    },
    {
      "inputs": [
        {
          "internalType": "bytes32",
          "name": "hash",
          "type": "bytes32"
        },
        {
          "internalType": "address",
          "name": "base",
          "type": "address"
        },
        {
          "internalType": "address",
          "name": "father",
          "type": "address"
        }
      ],
      "name": "atSameBranch",
      "outputs": [
        {
          "internalType": "bool",
          "name": "",
          "type": "bool"
        }
      ],
      "stateMutability": "view",
      "type": "function"
    },
    {
      "inputs": [],
      "name": "cname",
      "outputs": [
        {
          "internalType": "string",
          "name": "",
          "type": "string"
        }
      ],
      "stateMutability": "pure",
      "type": "function"
    },
    {
      "inputs": [
        {
          "internalType": "bytes32",
          "name": "hash",
          "type": "bytes32"
        },
        {
          "internalType": "address",
          "name": "inviter",
          "type": "address"
        }
      ],
      "name": "getAllLevelInviteeCount",
      "outputs": [
        {
          "internalType": "uint256",
          "name": "",
          "type": "uint256"
        }
      ],
      "stateMutability": "view",
      "type": "function"
    },
    {
      "inputs": [
        {
          "internalType": "bytes32",
          "name": "hash",
          "type": "bytes32"
        },
        {
          "internalType": "address",
          "name": "inviter",
          "type": "address"
        }
      ],
      "name": "getAllLevelInvitees",
      "outputs": [
        {
          "internalType": "address[]",
          "name": "",
          "type": "address[]"
        }
      ],
      "stateMutability": "view",
      "type": "function"
    },
    {
      "inputs": [
        {
          "internalType": "bytes32",
          "name": "hash",
          "type": "bytes32"
        },
        {
          "internalType": "address",
          "name": "inviter",
          "type": "address"
        }
      ],
      "name": "getInviteeCount",
      "outputs": [
        {
          "internalType": "uint256",
          "name": "",
          "type": "uint256"
        }
      ],
      "stateMutability": "view",
      "type": "function"
    },
    {
      "inputs": [
        {
          "internalType": "bytes32",
          "name": "hash",
          "type": "bytes32"
        },
        {
          "internalType": "address",
          "name": "inviter",
          "type": "address"
        }
      ],
      "name": "getInvitees",
      "outputs": [
        {
          "internalType": "address[]",
          "name": "",
          "type": "address[]"
        }
      ],
      "stateMutability": "view",
      "type": "function"
    },
    {
      "inputs": [
        {
          "internalType": "bytes32",
          "name": "hash",
          "type": "bytes32"
        },
        {
          "internalType": "address",
          "name": "invitee",
          "type": "address"
        }
      ],
      "name": "getInviter",
      "outputs": [
        {
          "internalType": "address",
          "name": "",
          "type": "address"
        }
      ],
      "stateMutability": "view",
      "type": "function"
    },
    {
      "inputs": [
        {
          "internalType": "bytes32",
          "name": "hash",
          "type": "bytes32"
        },
        {
          "internalType": "uint256",
          "name": "index",
          "type": "uint256"
        }
      ],
      "name": "getInviterAtIndex",
      "outputs": [
        {
          "internalType": "address",
          "name": "",
          "type": "address"
        }
      ],
      "stateMutability": "view",
      "type": "function"
    },
    {
      "inputs": [
        {
          "internalType": "bytes32",
          "name": "hash",
          "type": "bytes32"
        },
        {
          "internalType": "address",
          "name": "invitee",
          "type": "address"
        },
        {
          "internalType": "uint256",
          "name": "level",
          "type": "uint256"
        }
      ],
      "name": "getInviterAtLevel",
      "outputs": [
        {
          "internalType": "address",
          "name": "",
          "type": "address"
        }
      ],
      "stateMutability": "view",
      "type": "function"
    },
    {
      "inputs": [
        {
          "internalType": "bytes32",
          "name": "hash",
          "type": "bytes32"
        }
      ],
      "name": "getInviterCount",
      "outputs": [
        {
          "internalType": "uint256",
          "name": "",
          "type": "uint256"
        }
      ],
      "stateMutability": "view",
      "type": "function"
    },
    {
      "inputs": [
        {
          "internalType": "bytes32",
          "name": "",
          "type": "bytes32"
        },
        {
          "internalType": "address",
          "name": "",
          "type": "address"
        }
      ],
      "name": "invitedBlockNumber",
      "outputs": [
        {
          "internalType": "uint256",
          "name": "",
          "type": "uint256"
        }
      ],
      "stateMutability": "view",
      "type": "function"
    },
    {
      "inputs": [
        {
          "internalType": "bytes32",
          "name": "",
          "type": "bytes32"
        },
        {
          "internalType": "address",
          "name": "",
          "type": "address"
        }
      ],
      "name": "invitedQueryMap",
      "outputs": [
        {
          "internalType": "bool",
          "name": "",
          "type": "bool"
        }
      ],
      "stateMutability": "view",
      "type": "function"
    },
    {
      "inputs": [
        {
          "internalType": "bytes32",
          "name": "",
          "type": "bytes32"
        },
        {
          "internalType": "address",
          "name": "",
          "type": "address"
        }
      ],
      "name": "invitedTimeStamp",
      "outputs": [
        {
          "internalType": "uint256",
          "name": "",
          "type": "uint256"
        }
      ],
      "stateMutability": "view",
      "type": "function"
    },
    {
      "inputs": [
        {
          "internalType": "bytes32",
          "name": "",
          "type": "bytes32"
        },
        {
          "internalType": "address",
          "name": "",
          "type": "address"
        },
        {
          "internalType": "uint256",
          "name": "",
          "type": "uint256"
        }
      ],
      "name": "inviteesQueryMap",
      "outputs": [
        {
          "internalType": "address",
          "name": "",
          "type": "address"
        }
      ],
      "stateMutability": "view",
      "type": "function"
    },
    {
      "inputs": [
        {
          "internalType": "bytes32",
          "name": "",
          "type": "bytes32"
        },
        {
          "internalType": "address",
          "name": "",
          "type": "address"
        }
      ],
      "name": "inviterQueryMap",
      "outputs": [
        {
          "internalType": "address",
          "name": "",
          "type": "address"
        }
      ],
      "stateMutability": "view",
      "type": "function"
    },
    {
      "inputs": [
        {
          "internalType": "bytes32",
          "name": "",
          "type": "bytes32"
        },
        {
          "internalType": "uint256",
          "name": "",
          "type": "uint256"
        }
      ],
      "name": "inviters",
      "outputs": [
        {
          "internalType": "address",
          "name": "",
          "type": "address"
        }
      ],
      "stateMutability": "view",
      "type": "function"
    },
    {
      "inputs": [
        {
          "internalType": "bytes32",
          "name": "hash",
          "type": "bytes32"
        },
        {
          "internalType": "address",
          "name": "asker",
          "type": "address"
        }
      ],
      "name": "isInvited",
      "outputs": [
        {
          "internalType": "bool",
          "name": "",
          "type": "bool"
        }
      ],
      "stateMutability": "view",
      "type": "function"
    },
    {
      "inputs": [
        {
          "internalType": "bytes32",
          "name": "hash",
          "type": "bytes32"
        },
        {
          "internalType": "address",
          "name": "inviter",
          "type": "address"
        },
        {
          "internalType": "address",
          "name": "invitee",
          "type": "address"
        }
      ],
      "name": "isInvitee",
      "outputs": [
        {
          "internalType": "bool",
          "name": "",
          "type": "bool"
        }
      ],
      "stateMutability": "view",
      "type": "function"
    },
    {
      "inputs": [
        {
          "internalType": "bytes32",
          "name": "",
          "type": "bytes32"
        },
        {
          "internalType": "address",
          "name": "",
          "type": "address"
        },
        {
          "internalType": "address",
          "name": "",
          "type": "address"
        }
      ],
      "name": "isInviteeMap",
      "outputs": [
        {
          "internalType": "bool",
          "name": "",
          "type": "bool"
        }
      ],
      "stateMutability": "view",
      "type": "function"
    },
    {
      "inputs": [
        {
          "internalType": "bytes32",
          "name": "hash",
          "type": "bytes32"
        },
        {
          "internalType": "address",
          "name": "inviter",
          "type": "address"
        },
        {
          "internalType": "address",
          "name": "invitee",
          "type": "address"
        }
      ],
      "name": "isInviter",
      "outputs": [
        {
          "internalType": "bool",
          "name": "",
          "type": "bool"
        }
      ],
      "stateMutability": "view",
      "type": "function"
    },
    {
      "inputs": [
        {
          "internalType": "bytes32",
          "name": "",
          "type": "bytes32"
        },
        {
          "internalType": "address",
          "name": "",
          "type": "address"
        }
      ],
      "name": "isRegistered",
      "outputs": [
        {
          "internalType": "bool",
          "name": "",
          "type": "bool"
        }
      ],
      "stateMutability": "view",
      "type": "function"
    },
    {
      "inputs": [
        {
          "internalType": "bytes32",
          "name": "outHash",
          "type": "bytes32"
        },
        {
          "internalType": "address",
          "name": "caller",
          "type": "address"
        }
      ],
      "name": "makeHash",
      "outputs": [
        {
          "internalType": "bytes32",
          "name": "",
          "type": "bytes32"
        }
      ],
      "stateMutability": "nonpayable",
      "type": "function"
    },
    {
      "inputs": [
        {
          "internalType": "bytes32",
          "name": "outHash",
          "type": "bytes32"
        },
        {
          "internalType": "address",
          "name": "inviter",
          "type": "address"
        },
        {
          "internalType": "address",
          "name": "invitee",
          "type": "address"
        }
      ],
      "name": "makeRelation",
      "outputs": [],
      "stateMutability": "nonpayable",
      "type": "function"
    },
    {
      "inputs": [],
      "name": "version",
      "outputs": [
        {
          "internalType": "uint256",
          "name": "",
          "type": "uint256"
        }
      ],
      "stateMutability": "pure",
      "type": "function"
    }
  ],
  "bytecode": "0x608060405234801561001057600080fd5b50611046806100206000396000f3fe608060405234801561001057600080fd5b50600436106101385760003560e01c806354fd4d50116100b357806354fd4d50146102e35780637bdab1f7146102ea57806383015ea2146103205780638ae8d7af1461035b5780638d4944fe146103925780639f37acf8146103a5578063af847002146103d0578063b213aa3d146103fb578063bf3507eb1461040e578063c13b5c7b14610421578063d444ef3b1461044f578063e14b377c1461046257600080fd5b8063030dc3181461013d5780630e242b871461018657806313651d07146101bf578063184eaa9a146101d45780631ae1b0db146101ff5780632ff3dac814610233578063315fcdb41461024657806334c76b2514610259578063364dbe421461028a5780633eb3a309146102aa5780634c192eef146102bd578063544b8086146102d0575b600080fd5b61017161014b366004610dda565b600360209081526000938452604080852082529284528284209052825290205460ff1681565b60405190151581526020015b60405180910390f35b6101b1610194366004610e16565b600760209081526000928352604080842090915290825290205481565b60405190815260200161017d565b6101d26101cd366004610dda565b610482565b005b6101e76101e2366004610e16565b6107ca565b6040516001600160a01b03909116815260200161017d565b6101e761020d366004610e16565b60016020908152600092835260408084209091529082529020546001600160a01b031681565b6101e7610241366004610e42565b6107f6565b610171610254366004610dda565b61082e565b604080518082018252600f81526e2932b630ba34b7b72a3932b2a634b160891b6020820152905161017d9190610e64565b61029d610298366004610e16565b610868565b60405161017d9190610eb9565b6101b16102b8366004610e16565b610874565b6101b16102cb366004610e16565b6108a7565b6101e76102de366004610f06565b6108bf565b60016101b1565b6101b16102f8366004610e16565b60009182526002602090815260408084206001600160a01b0393909316845291905290205490565b61017161032e366004610dda565b60009283526001602090815260408085206001600160a01b03938416865290915290922054821691161490565b610171610369366004610e16565b6000918252602082815260408084206001600160a01b0393909316845291905290205460ff1690565b6101716103a0366004610dda565b61091c565b6101716103b3366004610e16565b600060208181529281526040808220909352908152205460ff1681565b6101b16103de366004610e16565b600660209081526000928352604080842090915290825290205481565b6101e7610409366004610e42565b610996565b6101e761041c366004610f06565b6109d2565b61017161042f366004610e16565b600560209081526000928352604080842090915290825290205460ff1681565b61029d61045d366004610e16565b610a17565b6101b1610470366004610f3b565b60009081526004602052604090205490565b60008333604051602001610497929190610f54565b60408051601f19818403018152918152815160209283012060008181528084528281206001600160a01b038716825290935291205490915060ff161561052e5760405162461bcd60e51b815260206004820152602160248201527f52656c6174696f6e3a696e766974656520686173206265656e20696e766974656044820152601960fa1b60648201526084015b60405180910390fd5b6001600160a01b0383166105845760405162461bcd60e51b815260206004820152601d60248201527f52656c6174696f6e3a696e76697465722063616e206e6f7420626520300000006044820152606401610525565b61058f81838561091c565b156105f15760405162461bcd60e51b815260206004820152602c60248201527f52656c6174696f6e3a696e76697465722063616e206e6f74206265206368696c60448201526b64206f6620696e766974656560a01b6064820152608401610525565b6000818152602081815260408083206001600160a01b038681168086529184528285208054600160ff199182168117909255878752818652848720848852865284872080546001600160a01b0319908116948c1694851790915588885260028752858820848952875285882080548085018255908952878920018054909116851790558787526003865284872083885286528487209387529285528386208054909316179091558484526005835281842090845290915290205460ff166107105760008181526005602090815260408083206001600160a01b038716808552908352818420805460ff19166001908117909155858552600484529184208054928301815584529190922090910180546001600160a01b03191690911790555b60008181526006602090815260408083206001600160a01b0386168452909152902042905561073d610a95565b60008281526007602090815260408083206001600160a01b03871684529091529020557f39b43ba427aabfa8d6b67d10f4d1c2c9a0c7d56b447e66c6b48b2441eb27903c8184844261078d610a95565b604080519586526001600160a01b03948516602087015292909316918401919091526060830152608082015260a00160405180910390a150505050565b60008281526001602090815260408083206001600160a01b038086168552925290912054165b92915050565b6004602052816000526040600020818154811061081257600080fd5b6000918252602090912001546001600160a01b03169150829050565b60008381526003602090815260408083206001600160a01b038087168552908352818420908516845290915290205460ff165b9392505050565b60606108618383610b21565b60008282604051602001610889929190610f54565b60405160208183030381529060405280519060200120905092915050565b600060016108b58484610ce1565b6108619190610f81565b60008060015b8381116109135760008681526001602090815260408083206001600160a01b039889168452909152902054909416938491508161090157610913565b8061090b81610f98565b9150506108c5565b50949350505050565b6000816001600160a01b0316836001600160a01b0316141561094057506001610861565b6001600160a01b0382161561098c5760008481526001602090815260408083206001600160a01b039586168452909152902054821691831682141561098757506001610861565b610940565b5060009392505050565b60008281526004602052604081208054839081106109b6576109b6610fb3565b6000918252602090912001546001600160a01b03169392505050565b600260205282600052604060002060205281600052604060002081815481106109fa57600080fd5b6000918252602090912001546001600160a01b0316925083915050565b60008281526002602090815260408083206001600160a01b0385168452825291829020805483518184028101840190945280845260609392830182828015610a8857602002820191906000526020600020905b81546001600160a01b03168152600190910190602001808311610a6a575b5050505050905092915050565b60004661a4b1811415610b1a5760646001600160a01b031663a3b1b31d6040518163ffffffff1660e01b815260040160206040518083038186803b158015610adc57600080fd5b505afa158015610af0573d6000803e3d6000fd5b505050506040513d601f19601f82011682018060405250810190610b149190610fc9565b91505090565b4391505090565b60606000610b2f84846108a7565b90506000610b3e826001610fe2565b67ffffffffffffffff811115610b5657610b56610ffa565b604051908082528060200260200182016040528015610b7f578160200160208202803683370190505b5090508381600081518110610b9657610b96610fb3565b6001600160a01b039283166020918202929092018101919091526000878152600282526040808220938816825292825282812080548451818502810185019095528085526001949293830182828015610c1857602002820191906000526020600020905b81546001600160a01b03168152600190910190602001808311610bfa575b5050505050905060005b8151811015610cd5576000610c5089848481518110610c4357610c43610fb3565b6020026020010151610b21565b905060005b8151811015610cc057818181518110610c7057610c70610fb3565b6020026020010151868680610c8490610f98565b975081518110610c9657610c96610fb3565b6001600160a01b039092166020928302919091019091015280610cb881610f98565b915050610c55565b50508080610ccd90610f98565b915050610c22565b50919695505050505050565b60008281526002602090815260408083206001600160a01b0385168452825280832080548251818502810185019093528083528493830182828015610d4f57602002820191906000526020600020905b81546001600160a01b03168152600190910190602001808311610d31575b50505050509050600060019050815160001415610d71576001925050506107f0565b60005b825181101561091357610da086848381518110610d9357610d93610fb3565b6020026020010151610ce1565b610daa9083610fe2565b915080610db681610f98565b915050610d74565b80356001600160a01b0381168114610dd557600080fd5b919050565b600080600060608486031215610def57600080fd5b83359250610dff60208501610dbe565b9150610e0d60408501610dbe565b90509250925092565b60008060408385031215610e2957600080fd5b82359150610e3960208401610dbe565b90509250929050565b60008060408385031215610e5557600080fd5b50508035926020909101359150565b600060208083528351808285015260005b81811015610e9157858101830151858201604001528201610e75565b81811115610ea3576000604083870101525b50601f01601f1916929092016040019392505050565b6020808252825182820181905260009190848201906040850190845b81811015610efa5783516001600160a01b031683529284019291840191600101610ed5565b50909695505050505050565b600080600060608486031215610f1b57600080fd5b83359250610f2b60208501610dbe565b9150604084013590509250925092565b600060208284031215610f4d57600080fd5b5035919050565b9182526001600160a01b0316602082015260400190565b634e487b7160e01b600052601160045260246000fd5b600082821015610f9357610f93610f6b565b500390565b6000600019821415610fac57610fac610f6b565b5060010190565b634e487b7160e01b600052603260045260246000fd5b600060208284031215610fdb57600080fd5b5051919050565b60008219821115610ff557610ff5610f6b565b500190565b634e487b7160e01b600052604160045260246000fdfea2646970667358221220016e2b26d6abcbb42b7acd344ea8164d50a315e2d5a89735ff5c9b4bca5482ae64736f6c63430008080033",
  "linkReferences": {},
  "deployedLinkReferences": {}
}