{
  "_format": "hh-sol-artifact-1",
  "contractName": "WhiteListHandler",
  "sourceName": "contracts/V3/handler/WhiteListHandler.sol",
  "abi": [
    {
      "anonymous": false,
      "inputs": [
        {
          "indexed": true,
          "internalType": "address",
          "name": "clusterArea",
          "type": "address"
        },
        {
          "indexed": true,
          "internalType": "uint32",
          "name": "clusterId",
          "type": "uint32"
        },
        {
          "indexed": false,
          "internalType": "uint16",
          "name": "ruleSlotIndexInput",
          "type": "uint16"
        },
        {
          "indexed": false,
          "internalType": "uint16",
          "name": "ruleSlotIndexOutput",
          "type": "uint16"
        },
        {
          "indexed": false,
          "internalType": "address",
          "name": "caller",
          "type": "address"
        },
        {
          "indexed": false,
          "internalType": "uint8",
          "name": "state",
          "type": "uint8"
        }
      ],
      "name": "EventWhiteList",
      "type": "event"
    },
    {
      "anonymous": false,
      "inputs": [
        {
          "indexed": false,
          "internalType": "uint8",
          "name": "version",
          "type": "uint8"
        }
      ],
      "name": "Initialized",
      "type": "event"
    },
    {
      "anonymous": false,
      "inputs": [
        {
          "indexed": true,
          "internalType": "address",
          "name": "previousOwner",
          "type": "address"
        },
        {
          "indexed": true,
          "internalType": "address",
          "name": "newOwner",
          "type": "address"
        }
      ],
      "name": "OwnershipTransferred",
      "type": "event"
    },
    {
      "inputs": [
        {
          "components": [
            {
              "internalType": "address",
              "name": "engine",
              "type": "address"
            },
            {
              "internalType": "address",
              "name": "clusterArea",
              "type": "address"
            },
            {
              "internalType": "address",
              "name": "stateCounter",
              "type": "address"
            },
            {
              "internalType": "uint32",
              "name": "clusterId",
              "type": "uint32"
            },
            {
              "internalType": "uint32",
              "name": "taskId",
              "type": "uint32"
            },
            {
              "internalType": "address",
              "name": "claimer",
              "type": "address"
            },
            {
              "internalType": "uint8",
              "name": "io",
              "type": "uint8"
            },
            {
              "internalType": "uint16",
              "name": "round",
              "type": "uint16"
            },
            {
              "internalType": "uint8",
              "name": "branch",
              "type": "uint8"
            },
            {
              "internalType": "uint8",
              "name": "tokenSlotIndex",
              "type": "uint8"
            }
          ],
          "internalType": "struct IHandler.Claim",
          "name": "claim",
          "type": "tuple"
        }
      ],
      "name": "claimIOAddressBranchToken",
      "outputs": [
        {
          "internalType": "bool",
          "name": "",
          "type": "bool"
        }
      ],
      "stateMutability": "nonpayable",
      "type": "function"
    },
    {
      "inputs": [],
      "name": "cname",
      "outputs": [
        {
          "internalType": "string",
          "name": "",
          "type": "string"
        }
      ],
      "stateMutability": "pure",
      "type": "function"
    },
    {
      "inputs": [
        {
          "components": [
            {
              "internalType": "address",
              "name": "engine",
              "type": "address"
            },
            {
              "internalType": "address",
              "name": "clusterArea",
              "type": "address"
            },
            {
              "internalType": "address",
              "name": "stateCounter",
              "type": "address"
            },
            {
              "internalType": "uint32",
              "name": "clusterId",
              "type": "uint32"
            },
            {
              "internalType": "uint32",
              "name": "taskId",
              "type": "uint32"
            },
            {
              "internalType": "address",
              "name": "claimer",
              "type": "address"
            },
            {
              "internalType": "uint8",
              "name": "io",
              "type": "uint8"
            },
            {
              "internalType": "uint16",
              "name": "round",
              "type": "uint16"
            },
            {
              "internalType": "uint8",
              "name": "branch",
              "type": "uint8"
            },
            {
              "internalType": "uint8",
              "name": "tokenSlotIndex",
              "type": "uint8"
            }
          ],
          "internalType": "struct IHandler.Claim",
          "name": "claim",
          "type": "tuple"
        }
      ],
      "name": "getClaimIOAddressBranchToken",
      "outputs": [
        {
          "internalType": "bool",
          "name": "",
          "type": "bool"
        }
      ],
      "stateMutability": "view",
      "type": "function"
    },
    {
      "inputs": [
        {
          "internalType": "string[]",
          "name": "areaNameList",
          "type": "string[]"
        }
      ],
      "name": "getEngineAreaList",
      "outputs": [
        {
          "internalType": "address[]",
          "name": "",
          "type": "address[]"
        }
      ],
      "stateMutability": "nonpayable",
      "type": "function"
    },
    {
      "inputs": [],
      "name": "getIOBranches",
      "outputs": [
        {
          "components": [
            {
              "internalType": "uint8[]",
              "name": "inBranch",
              "type": "uint8[]"
            },
            {
              "internalType": "uint8[]",
              "name": "outBranch",
              "type": "uint8[]"
            }
          ],
          "internalType": "struct IHandler.IOBranch[]",
          "name": "branches",
          "type": "tuple[]"
        }
      ],
      "stateMutability": "pure",
      "type": "function"
    },
    {
      "inputs": [
        {
          "internalType": "address",
          "name": "engine",
          "type": "address"
        },
        {
          "internalType": "address",
          "name": "clusterArea",
          "type": "address"
        },
        {
          "internalType": "uint32",
          "name": "clusterId",
          "type": "uint32"
        },
        {
          "internalType": "address",
          "name": "stateCounter",
          "type": "address"
        },
        {
          "internalType": "uint32",
          "name": "taskId",
          "type": "uint32"
        },
        {
          "internalType": "uint16",
          "name": "round",
          "type": "uint16"
        }
      ],
      "name": "getInputAddressRound",
      "outputs": [
        {
          "internalType": "address[]",
          "name": "",
          "type": "address[]"
        }
      ],
      "stateMutability": "view",
      "type": "function"
    },
    {
      "inputs": [
        {
          "internalType": "address",
          "name": "engine",
          "type": "address"
        },
        {
          "internalType": "address",
          "name": "clusterArea",
          "type": "address"
        },
        {
          "internalType": "uint32",
          "name": "clusterId",
          "type": "uint32"
        },
        {
          "internalType": "address",
          "name": "stateCounter",
          "type": "address"
        },
        {
          "internalType": "uint32",
          "name": "taskId",
          "type": "uint32"
        },
        {
          "internalType": "uint16",
          "name": "round",
          "type": "uint16"
        }
      ],
      "name": "getOutputAddressRound",
      "outputs": [
        {
          "internalType": "address[]",
          "name": "",
          "type": "address[]"
        }
      ],
      "stateMutability": "view",
      "type": "function"
    },
    {
      "inputs": [
        {
          "internalType": "uint32",
          "name": "clusterId",
          "type": "uint32"
        },
        {
          "internalType": "uint16",
          "name": "ruleSlotIndex",
          "type": "uint16"
        },
        {
          "internalType": "uint8",
          "name": "branch",
          "type": "uint8"
        }
      ],
      "name": "getRuleGroupSlotArgs",
      "outputs": [
        {
          "internalType": "bytes",
          "name": "",
          "type": "bytes"
        }
      ],
      "stateMutability": "view",
      "type": "function"
    },
    {
      "inputs": [
        {
          "components": [
            {
              "internalType": "address",
              "name": "engine",
              "type": "address"
            },
            {
              "internalType": "address",
              "name": "clusterArea",
              "type": "address"
            },
            {
              "internalType": "uint32",
              "name": "clusterId",
              "type": "uint32"
            },
            {
              "internalType": "uint16",
              "name": "ruleSlotIndexInput",
              "type": "uint16"
            },
            {
              "internalType": "uint16",
              "name": "ruleSlotIndexOutput",
              "type": "uint16"
            },
            {
              "internalType": "uint8",
              "name": "branch",
              "type": "uint8"
            },
            {
              "internalType": "address",
              "name": "stateCounter",
              "type": "address"
            },
            {
              "internalType": "uint32",
              "name": "taskId",
              "type": "uint32"
            },
            {
              "internalType": "address",
              "name": "caller",
              "type": "address"
            },
            {
              "internalType": "uint8",
              "name": "cmd",
              "type": "uint8"
            },
            {
              "internalType": "bytes",
              "name": "args",
              "type": "bytes"
            }
          ],
          "internalType": "struct Handler.StateParams",
          "name": "params",
          "type": "tuple"
        }
      ],
      "name": "getState",
      "outputs": [
        {
          "internalType": "bytes[]",
          "name": "",
          "type": "bytes[]"
        }
      ],
      "stateMutability": "view",
      "type": "function"
    },
    {
      "inputs": [
        {
          "internalType": "address",
          "name": "engine",
          "type": "address"
        },
        {
          "internalType": "address",
          "name": "outAddress",
          "type": "address"
        },
        {
          "internalType": "address",
          "name": "clusterArea",
          "type": "address"
        },
        {
          "internalType": "uint32",
          "name": "clusterId",
          "type": "uint32"
        },
        {
          "internalType": "address",
          "name": "stateCounter",
          "type": "address"
        },
        {
          "internalType": "uint32",
          "name": "taskId",
          "type": "uint32"
        },
        {
          "internalType": "bytes",
          "name": "args",
          "type": "bytes"
        },
        {
          "internalType": "uint16",
          "name": "round",
          "type": "uint16"
        }
      ],
      "name": "getTokenBranch",
      "outputs": [
        {
          "components": [
            {
              "internalType": "uint256[]",
              "name": "valueList",
              "type": "uint256[]"
            }
          ],
          "internalType": "struct TokenHandler.TokenBranch",
          "name": "",
          "type": "tuple"
        }
      ],
      "stateMutability": "view",
      "type": "function"
    },
    {
      "inputs": [],
      "name": "initialize",
      "outputs": [],
      "stateMutability": "nonpayable",
      "type": "function"
    },
    {
      "inputs": [],
      "name": "owner",
      "outputs": [
        {
          "internalType": "address",
          "name": "",
          "type": "address"
        }
      ],
      "stateMutability": "view",
      "type": "function"
    },
    {
      "inputs": [
        {
          "components": [
            {
              "internalType": "address",
              "name": "caller",
              "type": "address"
            },
            {
              "internalType": "address",
              "name": "stateCounter",
              "type": "address"
            },
            {
              "internalType": "address",
              "name": "poolFee",
              "type": "address"
            },
            {
              "components": [
                {
                  "internalType": "address",
                  "name": "caller",
                  "type": "address"
                },
                {
                  "internalType": "address",
                  "name": "clusterArea",
                  "type": "address"
                },
                {
                  "internalType": "address",
                  "name": "lastHandler",
                  "type": "address"
                },
                {
                  "internalType": "address",
                  "name": "snippet",
                  "type": "address"
                },
                {
                  "internalType": "uint256",
                  "name": "valueTime",
                  "type": "uint256"
                },
                {
                  "internalType": "uint256",
                  "name": "value",
                  "type": "uint256"
                },
                {
                  "internalType": "uint32",
                  "name": "taskId",
                  "type": "uint32"
                },
                {
                  "internalType": "uint32",
                  "name": "parentTaskId",
                  "type": "uint32"
                },
                {
                  "internalType": "uint32",
                  "name": "clusterId",
                  "type": "uint32"
                },
                {
                  "internalType": "uint8",
                  "name": "state",
                  "type": "uint8"
                },
                {
                  "components": [
                    {
                      "internalType": "uint8",
                      "name": "erc",
                      "type": "uint8"
                    },
                    {
                      "internalType": "address",
                      "name": "token",
                      "type": "address"
                    },
                    {
                      "internalType": "uint256",
                      "name": "id",
                      "type": "uint256"
                    },
                    {
                      "internalType": "uint256",
                      "name": "amount",
                      "type": "uint256"
                    },
                    {
                      "components": [
                        {
                          "internalType": "uint32",
                          "name": "attrId",
                          "type": "uint32"
                        },
                        {
                          "internalType": "int40",
                          "name": "attrAmount",
                          "type": "int40"
                        }
                      ],
                      "internalType": "struct Attribute.AttributeIn[]",
                      "name": "attrInList",
                      "type": "tuple[]"
                    }
                  ],
                  "internalType": "struct Token.Token[]",
                  "name": "inTokenList",
                  "type": "tuple[]"
                },
                {
                  "internalType": "bytes",
                  "name": "args",
                  "type": "bytes"
                }
              ],
              "internalType": "struct Task.Task",
              "name": "task",
              "type": "tuple"
            },
            {
              "internalType": "uint8",
              "name": "state",
              "type": "uint8"
            }
          ],
          "internalType": "struct Handler.Process",
          "name": "param",
          "type": "tuple"
        },
        {
          "components": [
            {
              "internalType": "address",
              "name": "handler",
              "type": "address"
            },
            {
              "internalType": "uint8",
              "name": "code",
              "type": "uint8"
            },
            {
              "internalType": "string",
              "name": "msg",
              "type": "string"
            },
            {
              "internalType": "bytes",
              "name": "args",
              "type": "bytes"
            }
          ],
          "internalType": "struct Handler.Result",
          "name": "preResult",
          "type": "tuple"
        }
      ],
      "name": "process",
      "outputs": [
        {
          "components": [
            {
              "internalType": "address",
              "name": "handler",
              "type": "address"
            },
            {
              "internalType": "uint8",
              "name": "code",
              "type": "uint8"
            },
            {
              "internalType": "string",
              "name": "msg",
              "type": "string"
            },
            {
              "internalType": "bytes",
              "name": "args",
              "type": "bytes"
            }
          ],
          "internalType": "struct Handler.Result",
          "name": "res",
          "type": "tuple"
        }
      ],
      "stateMutability": "nonpayable",
      "type": "function"
    },
    {
      "inputs": [
        {
          "internalType": "uint32",
          "name": "clusterId",
          "type": "uint32"
        },
        {
          "components": [
            {
              "components": [
                {
                  "components": [
                    {
                      "components": [
                        {
                          "internalType": "uint8",
                          "name": "erc",
                          "type": "uint8"
                        },
                        {
                          "internalType": "address",
                          "name": "token",
                          "type": "address"
                        },
                        {
                          "internalType": "uint256[]",
                          "name": "valueList",
                          "type": "uint256[]"
                        }
                      ],
                      "internalType": "struct Token.TokenTemplate",
                      "name": "tokenTemplate",
                      "type": "tuple"
                    },
                    {
                      "internalType": "uint8",
                      "name": "rule",
                      "type": "uint8"
                    },
                    {
                      "internalType": "address[]",
                      "name": "ioAddressList",
                      "type": "address[]"
                    },
                    {
                      "internalType": "uint256[]",
                      "name": "valueList",
                      "type": "uint256[]"
                    }
                  ],
                  "internalType": "struct Rule.TokenSlot[]",
                  "name": "tokenSlotList",
                  "type": "tuple[]"
                },
                {
                  "internalType": "uint8",
                  "name": "branch",
                  "type": "uint8"
                },
                {
                  "internalType": "address",
                  "name": "poolToken",
                  "type": "address"
                },
                {
                  "internalType": "address[]",
                  "name": "handlerList",
                  "type": "address[]"
                },
                {
                  "internalType": "bytes[]",
                  "name": "argsList",
                  "type": "bytes[]"
                }
              ],
              "internalType": "struct Rule.GroupSlot[]",
              "name": "groupSlotList",
              "type": "tuple[]"
            },
            {
              "internalType": "uint8[]",
              "name": "ruleSlotBound",
              "type": "uint8[]"
            },
            {
              "components": [
                {
                  "internalType": "uint16",
                  "name": "ruleSlotIndexInput",
                  "type": "uint16"
                },
                {
                  "internalType": "uint16",
                  "name": "ruleSlotIndexOutput",
                  "type": "uint16"
                },
                {
                  "internalType": "uint8",
                  "name": "state",
                  "type": "uint8"
                },
                {
                  "internalType": "uint32",
                  "name": "totalCount",
                  "type": "uint32"
                },
                {
                  "internalType": "uint8",
                  "name": "durationType",
                  "type": "uint8"
                },
                {
                  "internalType": "uint32",
                  "name": "delayTimestamp",
                  "type": "uint32"
                },
                {
                  "internalType": "uint32",
                  "name": "delayBlockNumber",
                  "type": "uint32"
                },
                {
                  "internalType": "uint64",
                  "name": "handlerCount",
                  "type": "uint64"
                },
                {
                  "internalType": "address[]",
                  "name": "handlerList",
                  "type": "address[]"
                },
                {
                  "internalType": "bytes[]",
                  "name": "handlerArgsList",
                  "type": "bytes[]"
                },
                {
                  "internalType": "address",
                  "name": "snippet",
                  "type": "address"
                }
              ],
              "internalType": "struct Rule.Rule[]",
              "name": "ruleList",
              "type": "tuple[]"
            },
            {
              "components": [
                {
                  "internalType": "uint32",
                  "name": "attrId",
                  "type": "uint32"
                },
                {
                  "internalType": "string",
                  "name": "name",
                  "type": "string"
                },
                {
                  "internalType": "string",
                  "name": "symbol",
                  "type": "string"
                },
                {
                  "internalType": "string",
                  "name": "uri",
                  "type": "string"
                },
                {
                  "internalType": "uint8",
                  "name": "level",
                  "type": "uint8"
                }
              ],
              "internalType": "struct Attribute.Attribute[]",
              "name": "attrList",
              "type": "tuple[]"
            },
            {
              "internalType": "uint8[]",
              "name": "attrStateList",
              "type": "uint8[]"
            },
            {
              "internalType": "address[]",
              "name": "deployerList",
              "type": "address[]"
            },
            {
              "internalType": "address[]",
              "name": "adminList",
              "type": "address[]"
            },
            {
              "internalType": "uint32",
              "name": "delayTimestamp",
              "type": "uint32"
            },
            {
              "internalType": "uint32",
              "name": "delayBlockNumber",
              "type": "uint32"
            },
            {
              "internalType": "uint8",
              "name": "state",
              "type": "uint8"
            },
            {
              "internalType": "string",
              "name": "description",
              "type": "string"
            }
          ],
          "internalType": "struct Cluster.Cluster",
          "name": "cluster",
          "type": "tuple"
        }
      ],
      "name": "regRule",
      "outputs": [],
      "stateMutability": "nonpayable",
      "type": "function"
    },
    {
      "inputs": [
        {
          "internalType": "uint32",
          "name": "clusterId",
          "type": "uint32"
        },
        {
          "internalType": "uint16",
          "name": "ruleSlotIndex",
          "type": "uint16"
        },
        {
          "internalType": "uint8",
          "name": "branch",
          "type": "uint8"
        },
        {
          "internalType": "bytes",
          "name": "args",
          "type": "bytes"
        }
      ],
      "name": "regRuleGroupSlotArgs",
      "outputs": [],
      "stateMutability": "nonpayable",
      "type": "function"
    },
    {
      "inputs": [],
      "name": "renounceOwnership",
      "outputs": [],
      "stateMutability": "nonpayable",
      "type": "function"
    },
    {
      "inputs": [
        {
          "internalType": "bytes32",
          "name": "",
          "type": "bytes32"
        }
      ],
      "name": "ruleConfig",
      "outputs": [
        {
          "internalType": "uint256",
          "name": "",
          "type": "uint256"
        }
      ],
      "stateMutability": "view",
      "type": "function"
    },
    {
      "inputs": [
        {
          "internalType": "bytes32",
          "name": "",
          "type": "bytes32"
        }
      ],
      "name": "ruleWhiteAddressList",
      "outputs": [
        {
          "internalType": "uint8",
          "name": "",
          "type": "uint8"
        }
      ],
      "stateMutability": "view",
      "type": "function"
    },
    {
      "inputs": [
        {
          "internalType": "address[]",
          "name": "engineAreaList",
          "type": "address[]"
        }
      ],
      "name": "setEngineAreaList",
      "outputs": [],
      "stateMutability": "nonpayable",
      "type": "function"
    },
    {
      "inputs": [
        {
          "internalType": "address",
          "name": "newOwner",
          "type": "address"
        }
      ],
      "name": "transferOwnership",
      "outputs": [],
      "stateMutability": "nonpayable",
      "type": "function"
    },
    {
      "inputs": [
        {
          "internalType": "uint32",
          "name": "clusterId",
          "type": "uint32"
        },
        {
          "internalType": "uint16",
          "name": "ruleSlotIndexInput",
          "type": "uint16"
        },
        {
          "internalType": "uint16",
          "name": "ruleSlotIndexOutput",
          "type": "uint16"
        },
        {
          "internalType": "uint8",
          "name": "cmd",
          "type": "uint8"
        },
        {
          "internalType": "bytes",
          "name": "args",
          "type": "bytes"
        }
      ],
      "name": "updateArgs",
      "outputs": [
        {
          "internalType": "bool",
          "name": "",
          "type": "bool"
        }
      ],
      "stateMutability": "nonpayable",
      "type": "function"
    },
    {
      "inputs": [],
      "name": "version",
      "outputs": [
        {
          "internalType": "uint256",
          "name": "",
          "type": "uint256"
        }
      ],
      "stateMutability": "pure",
      "type": "function"
    }
  ],
  "bytecode": "0x608060405234801561001057600080fd5b50613f4e806100206000396000f3fe608060405234801561001057600080fd5b50600436106101225760003560e01c80638129fc1c116100a85780638129fc1c1461027d5780638da5cb5b1461028557806395edcb08146102a0578063a903620c146102c0578063af84b51f146102d3578063b41bd789146102f3578063b4b7035214610306578063d0d35b5514610319578063f2fde38b1461032c578063f2fe4fa51461033f578063f96f58271461034e57600080fd5b80631cc4f041146101275780631eda6e4f1461015057806334c76b25146101925780634b2dbcb8146101c05780634b2e9b41146101c05780634b7b47d2146101f457806354fd4d50146102295780635790c2941461023a57806362329cc51461024f5780636dabaf0414610262578063715018a614610275575b600080fd5b61013b610135366004612436565b50600190565b60405190151581526020015b60405180910390f35b61018561015e36600461257b565b50506040805160208082018352606091829052825190810190925281529695505050505050565b6040516101479190612634565b60408051808201909152600981526815da1a5d19531a5cdd60ba1b60208201525b60405161014791906126e0565b6101e76101ce3660046126f3565b5050604080516000815260208101909152949350505050565b604051610147919061276d565b6102176102023660046127ba565b60686020526000908152604090205460ff1681565b60405160ff9091168152602001610147565b60015b604051908152602001610147565b61024d6102483660046127d3565b61036e565b005b6101e761025d366004612864565b6103ef565b61013b610270366004612914565b6104cc565b61024d610584565b61024d610598565b6033546040516001600160a01b039091168152602001610147565b6102b36102ae366004612ba5565b6106a9565b6040516101479190612d75565b61024d6102ce3660046134ce565b610a54565b6102e66102e1366004613681565b610ad1565b604051610147919061379e565b61024d610301366004613800565b610c1d565b61013b610314366004612436565b610d2b565b6101b3610327366004613834565b610da0565b61024d61033a366004613877565b610dbd565b606060405161014791906138d2565b61022c61035c3660046127ba565b60696020526000908152604090205481565b6040518060400160405280600f81526020016e436c757374657252756c654172656160881b8152506066816040516103a69190613957565b90815260405190819003602001902054336001600160a01b03909116146103e85760405162461bcd60e51b81526004016103df90613973565b60405180910390fd5b5050505050565b6060600082516001600160401b0381111561040c5761040c61229d565b604051908082528060200260200182016040528015610435578160200160208202803683370190505b50905060005b81518110156104c5576066848281518110610458576104586139aa565b602002602001015160405161046d9190613957565b9081526040519081900360200190205482516001600160a01b039091169083908390811061049d5761049d6139aa565b6001600160a01b03909216602092830291909101909101526104be816139d6565b905061043b565b5092915050565b60006040518060400160405280601681526020017521b63ab9ba32b9293ab632a0b932b0a430b7323632b960511b81525060668160405161050d9190613957565b90815260405190819003602001902054336001600160a01b03909116146105465760405162461bcd60e51b81526004016103df90613973565b60ff841661055f5761055a87878786610e33565b610577565b60ff8416600114156105775761057787878786611019565b5060019695505050505050565b61058c611269565b61059660006112c3565b565b600054610100900460ff16158080156105b85750600054600160ff909116105b806105d25750303b1580156105d2575060005460ff166001145b6106355760405162461bcd60e51b815260206004820152602e60248201527f496e697469616c697a61626c653a20636f6e747261637420697320616c72656160448201526d191e481a5b9a5d1a585b1a5e995960921b60648201526084016103df565b6000805460ff191660011790558015610658576000805461ff0019166101001790555b610660611315565b80156106a6576000805461ff0019169055604051600181527f7f26b83ff96e1f2b6a682f133852f6798a09c465da95921460cefb38474024989060200160405180910390a15b50565b604080516080810182526000808252602082015260609181018290528181019190915260405180604001604052806006815260200165456e67696e6560d01b8152506066816040516106fb9190613957565b90815260405190819003602001902054336001600160a01b03909116146107345760405162461bcd60e51b81526004016103df90613973565b60008460600151602001516001600160a01b031663fe8c4aa36040518163ffffffff1660e01b815260040160206040518083038186803b15801561077757600080fd5b505afa15801561078b573d6000803e3d6000fd5b505050506040513d601f19601f820116820180604052508101906107af91906139f1565b9050600081866060015161010001516107cb8860600151611344565b6107d88960600151611369565b6040516020016107eb9493929190613a0e565b60408051601f1981840301815291815281516020928301206000818152606990935290822054909250906108218260088361138e565b90506108656040518060400160405280601d81526020017f2d2d2d2d2d2d57686974654c69737441646472657373207377697463680000008152508260ff166113ad565b60ff81166108975761088e604051806060016040528060218152602001613de8602191396113f2565b505050506104c5565b600084896060015161010001516108b18b60600151611344565b6108be8c60600151611369565b8c516040516108d4959493929190602001613a41565b60408051601f1981840301815291815281516020928301206000818152606890935291205490915060ff16600181141561096c5761092b6040518060600160405280602b8152602001613e89602b91398b51611435565b505060408051808201825260118152701dda1a5d19481b1a5cdd081c185cdcd959607a1b60208083019190915291880152600090870152506104c592505050565b60608a81015161010001518b51604080516001600160a01b03808c16602083015263ffffffff90941691810191909152600093810184905260808101939093521660a082015260c00160408051601f1981840301815291815281516020928301206000818152606890935291205490925060ff1690506001811415610a0e5761092b604051806060016040528060268152602001613e63602691398b51611435565b505060408051808201825260158152741dda1a5d19481b1a5cdd081b9bdd081c185cdcd959605a1b60208083019190915291880152600190870152505050505092915050565b6040518060400160405280601681526020017521b63ab9ba32b9293ab632a0b932b0a430b7323632b960511b815250606681604051610a939190613957565b90815260405190819003602001902054336001600160a01b0390911614610acc5760405162461bcd60e51b81526004016103df90613973565b505050565b6060600082602001516001600160a01b031663fe8c4aa36040518163ffffffff1660e01b815260040160206040518083038186803b158015610b1257600080fd5b505afa158015610b26573d6000803e3d6000fd5b505050506040513d601f19601f82011682018060405250810190610b4a91906139f1565b9050600081846040015185606001518660800151876101000151604051602001610b78959493929190613a41565b60408051808303601f1901815282825280516020909101206001808452838301909252925060009190816020015b6060815260200190600190039081610ba65750506040805180820182526005815264195e1a5cdd60da1b602080830191909152600086815260689091529190912054919250610bf79160ff1661147a565b81600081518110610c0a57610c0a6139aa565b6020908102919091010152949350505050565b610c25611269565b60005b8151811015610d2757818181518110610c4357610c436139aa565b60200260200101516066838381518110610c5f57610c5f6139aa565b60200260200101516001600160a01b03166334c76b256040518163ffffffff1660e01b815260040160006040518083038186803b158015610c9f57600080fd5b505afa158015610cb3573d6000803e3d6000fd5b505050506040513d6000823e601f3d908101601f19168201604052610cdb9190810190613a7c565b604051610ce89190613957565b90815260405190819003602001902080546001600160a01b03929092166001600160a01b0319909216919091179055610d20816139d6565b9050610c28565b5050565b600060405180604001604052806006815260200165456e67696e6560d01b815250606681604051610d5c9190613957565b90815260405190819003602001902054336001600160a01b0390911614610d955760405162461bcd60e51b81526004016103df90613973565b600091505b50919050565b604080516000808252602082019092526060915b50949350505050565b610dc5611269565b6001600160a01b038116610e2a5760405162461bcd60e51b815260206004820152602660248201527f4f776e61626c653a206e6577206f776e657220697320746865207a65726f206160448201526564647265737360d01b60648201526084016103df565b6106a6816112c3565b6000610e4082600061159a565b9050600033868686604051602001610e5b9493929190613a0e565b604051602081830303815290604052805190602001209050600060696000838152602001908152602001600020549050610e9c818460ff16600860006115f2565b6000838152606960205260408120829055909150610ebb856001611617565b9050610ee06040518060600160405280602d8152602001613e09602d913982516113ad565b60005b81518161ffff16101561100e576000828261ffff1681518110610f0857610f086139aa565b602002602001015190506000338b8b8b610f2186611656565b604051602001610f35959493929190613a41565b60408051601f198184030181529181528151602092830120600081815260689093529120805460ff19166001179055905063ffffffff8b16337f5c672befb1e372cf682230a693300a297b1e24971b8d2a44a5cb2a13edce4a168c8c610f9a87611656565b6001604051610fac9493929190613ae9565b60405180910390a3610ffb6040518060400160405280601e81526020017f2d2d2d2d2d2d2d2d2d2d2d2d205f726567417267732061646472657373200000815250610ff684611656565b611435565b50508061100790613b18565b9050610ee3565b505050505050505050565b600061102682600061159a565b90506000338686866040516020016110419493929190613a0e565b604051602081830303815290604052805190602001209050600060696000838152602001908152602001600020549050611082818460ff16600860006115f2565b90508060696000848152602001908152602001600020819055506110c1604051806060016040528060358152602001613ee4603591398460ff166113ad565b60006110ce856001611617565b90506110f3604051806060016040528060308152602001613eb46030913982516113ad565b60005b81518161ffff16101561100e576000828261ffff168151811061111b5761111b6139aa565b60200260200101519050600061113082611670565b905060006111578260008151811061114a5761114a6139aa565b6020026020010151611656565b9050600061117e83600181518110611171576111716139aa565b6020026020010151611785565b90506111a66040518060600160405280602d8152602001613e36602d9139838360ff166117d2565b6000338e8e8e866040516020016111c1959493929190613a41565b604051602081830303815290604052805190602001209050816068600083815260200190815260200160002060006101000a81548160ff021916908360ff1602179055508d63ffffffff16336001600160a01b03167f5c672befb1e372cf682230a693300a297b1e24971b8d2a44a5cb2a13edce4a168f8f878760405161124b9493929190613ae9565b60405180910390a350505050508061126290613b18565b90506110f6565b6033546001600160a01b031633146105965760405162461bcd60e51b815260206004820181905260248201527f4f776e61626c653a2063616c6c6572206973206e6f7420746865206f776e657260448201526064016103df565b603380546001600160a01b038381166001600160a01b0319831681179093556040519116919082907f8be0079c531659141344cd1fd0a4f28419497f9722a3daafe3b4186f6b6457e090600090a35050565b600054610100900460ff1661133c5760405162461bcd60e51b81526004016103df90613b3a565b610596611819565b60006113638260a0015160106000600861135e9190613b85565b61138e565b92915050565b60006113638260a001516010600060086113839190613b85565b61135e906010613b85565b91821c916000806113a2600180861b613b9d565b909416949350505050565b610d2782826040516024016113c3929190613bb4565b60408051601f198184030181529190526020810180516001600160e01b0316632d839cb360e21b179052611849565b6106a68160405160240161140691906126e0565b60408051601f198184030181529190526020810180516001600160e01b031663104c13eb60e21b179052611849565b610d27828260405160240161144b929190613bd6565b60408051601f198184030181529190526020810180516001600160e01b031663319af33360e01b179052611849565b606060006114878461186a565b9050600061149484611875565b90506114d76040518060400160405280600e81526020016d0b4b4b4b4b4b4b481d1bd55a5b9d60921b8152506114d2836114cd90613c00565b611888565b6118d4565b60408051600380825260808201909252600091816020015b60608152602001906001900390816114ef579050509050828160008151811061151a5761151a6139aa565b602002602001018190525061154a604051806040016040528060048152602001631d5a5b9d60e21b81525061186a565b8160018151811061155d5761155d6139aa565b6020026020010181905250818160028151811061157c5761157c6139aa565b602002602001018190525061159081611919565b9695505050505050565b6000806115ae6115a985611944565b611670565b90506115ea6115d8828560ff16815181106115cb576115cb6139aa565b6020026020010151611670565b600281518110611171576111716139aa565b949350505050565b600083821b8183611606600180881b613b9d565b901b19969096161795945050505050565b606060006116276115a985611944565b90506115ea611644828560ff16815181106115cb576115cb6139aa565b6002815181106115cb576115cb6139aa565b805160009060151461166757600080fd5b61136382611785565b606061167b82611971565b61168457600080fd5b600061168f836119aa565b90506000816001600160401b038111156116ab576116ab61229d565b6040519080825280602002602001820160405280156116f057816020015b60408051808201909152600080825260208201528152602001906001900390816116c95790505b50905060006117028560200151611a2d565b85602001516117119190613b85565b90506000805b8481101561177a5761172883611aa8565b9150604051806040016040528083815260200184815250848281518110611751576117516139aa565b60209081029190910101526117668284613b85565b925080611772816139d6565b915050611717565b509195945050505050565b80516000901580159061179a57508151602110155b6117a357600080fd5b6000806117af84611b4c565b8151919350915060208210156115ea5760208290036101000a9004949350505050565b610acc8383836040516024016117ea93929190613c24565b60408051601f198184030181529190526020810180516001600160e01b0316630d26b92560e01b179052611849565b600054610100900460ff166118405760405162461bcd60e51b81526004016103df90613b3a565b610596336112c3565b80516a636f6e736f6c652e6c6f67602083016000808483855afa5050505050565b606061136382611b93565b606061136361188383611be3565b611b93565b606061189382611d17565b6118a0608084901b611d17565b60405161060f60f31b6020820152602281019290925260428201526062016040516020818303038152906040529050919050565b610d2782826040516024016118ea929190613c52565b60408051601f198184030181529190526020810180516001600160e01b0316634b5c427760e01b179052611849565b6060600061192683611ec1565b905061193d611937825160c0611ff2565b826121a8565b9392505050565b60408051808201825260008082526020918201528151808301909252825182529182019181019190915290565b805160009061198257506000919050565b6020820151805160001a9060c08210156119a0575060009392505050565b5060019392505050565b80516000906119bb57506000919050565b6000806119cb8460200151611a2d565b84602001516119da9190613b85565b90506000846000015185602001516119f29190613b85565b90505b80821015611a2457611a0682611aa8565b611a109083613b85565b915082611a1c816139d6565b9350506119f5565b50909392505050565b8051600090811a6080811015611a465750600092915050565b60b8811080611a61575060c08110801590611a61575060f881105b15611a6f5750600192915050565b60c0811015611a9c57611a84600160b8613c77565b611a919060ff1682613b9d565b61193d906001613b85565b611a84600160f8613c77565b80516000908190811a6080811015611ac357600191506104c5565b60b8811015611ae957611ad7608082613b9d565b611ae2906001613b85565b91506104c5565b60c0811015611b165760b78103600185019450806020036101000a855104600182018101935050506104c5565b60f8811015611b2a57611ad760c082613b9d565b60019390930151602084900360f7016101000a900490920160f5190192915050565b6000806000611b5e8460200151611a2d565b90506000818560200151611b729190613b85565b90506000828660000151611b869190613b9d565b9196919550909350505050565b60608082516001148015611bc25750608083600081518110611bb757611bb76139aa565b016020015160f81c11155b15611bce575081611363565b61193d611bdd84516080611ff2565b846121a8565b6040805160208082528183019092526060916000919060208201818036833701905050905082602082015260005b6020811015611c5757818181518110611c2c57611c2c6139aa565b01602001516001600160f81b03191615611c4557611c57565b80611c4f816139d6565b915050611c11565b6000611c64826020613b9d565b6001600160401b03811115611c7b57611c7b61229d565b6040519080825280601f01601f191660200182016040528015611ca5576020820181803683370190505b50905060005b8151811015610db4578383611cbf816139d6565b945081518110611cd157611cd16139aa565b602001015160f81c60f81b828281518110611cee57611cee6139aa565b60200101906001600160f81b031916908160001a90535080611d0f816139d6565b915050611cab565b7aff00000000000000ff00000000000000ff00000000000000ff000063ffffffff60401b604083901c90811663ffffffff60c01b84161760201c63ffffffff60601b919091166001600160e01b031984161717601081901c91821678ff00000000000000ff00000000000000ff00000000000000ff60301b821617600890811c7bff00000000000000ff00000000000000ff00000000000000ff000000939093167fff00000000000000ff00000000000000ff00000000000000ff000000000000009290921691909117919091179081901c7e0f000f000f000f000f000f000f000f000f000f000f000f000f000f000f000f167f0f000f000f000f000f000f000f000f000f000f000f000f000f000f000f000f00600492831c161790611e5d827f0606060606060606060606060606060606060606060606060606060606060606613b85565b901c7f0f0f0f0f0f0f0f0f0f0f0f0f0f0f0f0f0f0f0f0f0f0f0f0f0f0f0f0f0f0f0f0f166007611e8d9190613c9a565b611eb7827f3030303030303030303030303030303030303030303030303030303030303030613b85565b6113639190613b85565b6060815160001415611ee35760408051600080825260208201909252906104c5565b6000805b8351811015611f2a57838181518110611f0257611f026139aa565b60200260200101515182611f169190613b85565b915080611f22816139d6565b915050611ee7565b6000826001600160401b03811115611f4457611f4461229d565b6040519080825280601f01601f191660200182016040528015611f6e576020820181803683370190505b50600092509050602081015b8551831015610db4576000868481518110611f9757611f976139aa565b602002602001015190506000602082019050611fb583828451612225565b878581518110611fc757611fc76139aa565b60200260200101515183611fdb9190613b85565b925050508280611fea906139d6565b935050611f7a565b606080603884101561205c57604080516001808252818301909252906020820181803683370190505090506120278385613b85565b601f1a60f81b81600081518110612040576120406139aa565b60200101906001600160f81b031916908160001a90535061193d565b600060015b61206b8187613ccf565b15612091578161207a816139d6565b925061208a905061010082613c9a565b9050612061565b61209c826001613b85565b6001600160401b038111156120b3576120b361229d565b6040519080825280601f01601f1916602001820160405280156120dd576020820181803683370190505b5092506120ea8583613b85565b6120f5906037613b85565b601f1a60f81b8360008151811061210e5761210e6139aa565b60200101906001600160f81b031916908160001a905350600190505b81811161219f5761010061213e8284613b9d565b61214a90610100613dc7565b6121549088613ccf565b61215e9190613dd3565b601f1a60f81b838281518110612176576121766139aa565b60200101906001600160f81b031916908160001a90535080612197816139d6565b91505061212a565b50509392505050565b6060806040519050835180825260208201818101602087015b818310156121d95780518352602092830192016121c1565b50855184518101855292509050808201602086015b818310156122065780518352602092830192016121ee565b508651929092011591909101601f01601f191660405250905092915050565b8282825b602081106122615781518352612240602084613b85565b925061224d602083613b85565b915061225a602082613b9d565b9050612229565b60006001612270836020613b9d565b61227c90610100613dc7565b6122869190613b9d565b925184518416931916929092179092525050505050565b634e487b7160e01b600052604160045260246000fd5b60405161014081016001600160401b03811182821017156122d6576122d661229d565b60405290565b60405160a081016001600160401b03811182821017156122d6576122d661229d565b604080519081016001600160401b03811182821017156122d6576122d661229d565b604051608081016001600160401b03811182821017156122d6576122d661229d565b60405161018081016001600160401b03811182821017156122d6576122d661229d565b604051606081016001600160401b03811182821017156122d6576122d661229d565b60405161016081016001600160401b03811182821017156122d6576122d661229d565b604051601f8201601f191681016001600160401b03811182821017156123d2576123d261229d565b604052919050565b6001600160a01b03811681146106a657600080fd5b80356123fa816123da565b919050565b803563ffffffff811681146123fa57600080fd5b803560ff811681146123fa57600080fd5b803561ffff811681146123fa57600080fd5b6000610140828403121561244957600080fd5b6124516122b3565b61245a836123ef565b8152612468602084016123ef565b6020820152612479604084016123ef565b604082015261248a606084016123ff565b606082015261249b608084016123ff565b60808201526124ac60a084016123ef565b60a08201526124bd60c08401612413565b60c08201526124ce60e08401612424565b60e08201526101006124e1818501612413565b908201526101206124f3848201612413565b908201529392505050565b60006001600160401b038211156125175761251761229d565b50601f01601f191660200190565b600082601f83011261253657600080fd5b8135612549612544826124fe565b6123aa565b81815284602083860101111561255e57600080fd5b816020850160208301376000918101602001919091529392505050565b600080600080600080600080610100898b03121561259857600080fd5b88356125a3816123da565b975060208901356125b3816123da565b965060408901356125c3816123da565b95506125d160608a016123ff565b945060808901356125e1816123da565b93506125ef60a08a016123ff565b925060c08901356001600160401b0381111561260a57600080fd5b6126168b828c01612525565b92505061262560e08a01612424565b90509295985092959890939650565b6020808252825182820182905280516040840181905260009291820190839060608601905b808310156126795783518252928401926001929092019190840190612659565b509695505050505050565b60005b8381101561269f578181015183820152602001612687565b838111156126ae576000848401525b50505050565b600081518084526126cc816020860160208601612684565b601f01601f19169290920160200192915050565b60208152600061193d60208301846126b4565b60008060008060008060c0878903121561270c57600080fd5b8635612717816123da565b95506020870135612727816123da565b9450612735604088016123ff565b93506060870135612745816123da565b9250612753608088016123ff565b915061276160a08801612424565b90509295509295509295565b6020808252825182820181905260009190848201906040850190845b818110156127ae5783516001600160a01b031683529284019291840191600101612789565b50909695505050505050565b6000602082840312156127cc57600080fd5b5035919050565b600080600080608085870312156127e957600080fd5b6127f2856123ff565b935061280060208601612424565b925061280e60408601612413565b915060608501356001600160401b0381111561282957600080fd5b61283587828801612525565b91505092959194509250565b60006001600160401b0382111561285a5761285a61229d565b5060051b60200190565b6000602080838503121561287757600080fd5b82356001600160401b038082111561288e57600080fd5b818501915085601f8301126128a257600080fd5b81356128b061254482612841565b81815260059190911b830184019084810190888311156128cf57600080fd5b8585015b83811015612907578035858111156128eb5760008081fd5b6128f98b89838a0101612525565b8452509186019186016128d3565b5098975050505050505050565b600080600080600060a0868803121561292c57600080fd5b612935866123ff565b945061294360208701612424565b935061295160408701612424565b925061295f60608701612413565b915060808601356001600160401b0381111561297a57600080fd5b61298688828901612525565b9150509295509295909350565b600082601f8301126129a457600080fd5b813560206129b461254483612841565b82815260059290921b840181019181810190868411156129d357600080fd5b8286015b848110156126795780356001600160401b03808211156129f657600080fd5b9088019060a0828b03601f19011215612a0e57600080fd5b612a166122dc565b612a21878401612413565b8152604080840135612a32816123da565b828901526060848101358284015260808501359083015260a084013583811115612a5c5760008081fd5b8085019450508b603f850112612a7457600092508283fd5b878401359250612a8661254484612841565b83815260069390931b8401810192888101908d851115612aa65760008081fd5b948201945b84861015612afd5782868f031215612ac35760008081fd5b612acb6122fe565b612ad4876123ff565b81528a8701358060040b8114612aea5760008081fd5b818c015282529482019490890190612aab565b60808401525050855250509183019183016129d7565b600060808284031215612b2557600080fd5b612b2d612320565b90508135612b3a816123da565b8152612b4860208301612413565b602082015260408201356001600160401b0380821115612b6757600080fd5b612b7385838601612525565b60408401526060840135915080821115612b8c57600080fd5b50612b9984828501612525565b60608301525092915050565b60008060408385031215612bb857600080fd5b82356001600160401b0380821115612bcf57600080fd5b9084019060a08287031215612be357600080fd5b612beb6122dc565b8235612bf6816123da565b81526020830135612c06816123da565b60208201526040830135612c19816123da565b6040820152606083013582811115612c3057600080fd5b83016101808189031215612c4357600080fd5b612c4b612342565b612c54826123ef565b8152612c62602083016123ef565b6020820152612c73604083016123ef565b6040820152612c84606083016123ef565b60608201526080820135608082015260a082013560a0820152612ca960c083016123ff565b60c0820152612cba60e083016123ff565b60e0820152610100612ccd8184016123ff565b90820152610120612cdf838201612413565b908201526101408281013585811115612cf757600080fd5b612d038b828601612993565b8284015250506101608083013585811115612d1d57600080fd5b612d298b828601612525565b8284015250508060608401525050612d4360808401612413565b608082015293506020850135915080821115612d5e57600080fd5b50612d6b85828601612b13565b9150509250929050565b6020815260018060a01b03825116602082015260ff60208301511660408201526000604083015160806060840152612db060a08401826126b4565b90506060840151601f19848303016080850152612dcd82826126b4565b95945050505050565b600082601f830112612de757600080fd5b81356020612df761254483612841565b82815260059290921b84018101918181019086841115612e1657600080fd5b8286015b848110156126795780358352918301918301612e1a565b600082601f830112612e4257600080fd5b81356020612e5261254483612841565b82815260059290921b84018101918181019086841115612e7157600080fd5b8286015b84811015612679578035612e88816123da565b8352918301918301612e75565b600082601f830112612ea657600080fd5b81356020612eb661254483612841565b82815260059290921b84018101918181019086841115612ed557600080fd5b8286015b848110156126795780356001600160401b0380821115612ef857600080fd5b90880190601f196080838c0382011215612f1157600080fd5b612f19612320565b8784013583811115612f2a57600080fd5b84016060818e0384011215612f3e57600080fd5b612f46612365565b9250612f53898201612413565b8352604080820135612f64816123da565b848b0152606082013585811115612f7a57600080fd5b612f888f8c83860101612dd6565b8286015250838352612f9b818701612413565b8a8401526060860135935084841115612fb357600080fd5b612fc18e8b86890101612e31565b90830152506080840135915082821115612fda57600080fd5b612fe88c8984870101612dd6565b60608201528652505050918301918301612ed9565b600082601f83011261300e57600080fd5b8135602061301e61254483612841565b82815260059290921b8401810191818101908684111561303d57600080fd5b8286015b848110156126795780356001600160401b038111156130605760008081fd5b61306e8986838b0101612525565b845250918301918301613041565b600082601f83011261308d57600080fd5b8135602061309d61254483612841565b82815260059290921b840181019181810190868411156130bc57600080fd5b8286015b848110156126795780356001600160401b03808211156130e05760008081fd5b9088019060a0828b03601f19018113156130fa5760008081fd5b6131026122dc565b87840135838111156131145760008081fd5b6131228d8a83880101612e95565b8252506040613132818601612413565b8983015260606131438187016123ef565b8284015260809150818601358581111561315d5760008081fd5b61316b8f8c838a0101612e31565b828501525050828501359250838311156131855760008081fd5b6131938d8a85880101612ffd565b9082015286525050509183019183016130c0565b600082601f8301126131b857600080fd5b813560206131c861254483612841565b82815260059290921b840181019181810190868411156131e757600080fd5b8286015b84811015612679576131fc81612413565b83529183019183016131eb565b80356001600160401b03811681146123fa57600080fd5b600082601f83011261323157600080fd5b8135602061324161254483612841565b82815260059290921b8401810191818101908684111561326057600080fd5b8286015b848110156126795780356001600160401b03808211156132845760008081fd5b90880190610160828b03601f190181131561329f5760008081fd5b6132a7612387565b6132b2888501612424565b815260406132c1818601612424565b8983015260606132d2818701612413565b82840152608091506132e58287016123ff565b9083015260a06132f6868201612413565b8284015260c091506133098287016123ff565b9083015260e061331a8682016123ff565b82840152610100915061332e828701613209565b9083015261012085810135858111156133475760008081fd5b6133558f8c838a0101612e31565b8385015250610140915081860135858111156133715760008081fd5b61337f8f8c838a0101612ffd565b8285015250506133908386016123ef565b908201528652505050918301918301613264565b600082601f8301126133b557600080fd5b813560206133c561254483612841565b82815260059290921b840181019181810190868411156133e457600080fd5b8286015b848110156126795780356001600160401b03808211156134085760008081fd5b9088019060a0828b03601f19018113156134225760008081fd5b61342a6122dc565b6134358885016123ff565b81526040808501358481111561344b5760008081fd5b6134598e8b83890101612525565b8a84015250606080860135858111156134725760008081fd5b6134808f8c838a0101612525565b838501525060809150818601358581111561349b5760008081fd5b6134a98f8c838a0101612525565b8285015250506134ba838601612413565b9082015286525050509183019183016133e8565b600080604083850312156134e157600080fd5b6134ea836123ff565b915060208301356001600160401b038082111561350657600080fd5b90840190610160828703121561351b57600080fd5b613523612387565b82358281111561353257600080fd5b61353e8882860161307c565b82525060208301358281111561355357600080fd5b61355f888286016131a7565b60208301525060408301358281111561357757600080fd5b61358388828601613220565b60408301525060608301358281111561359b57600080fd5b6135a7888286016133a4565b6060830152506080830135828111156135bf57600080fd5b6135cb888286016131a7565b60808301525060a0830135828111156135e357600080fd5b6135ef88828601612e31565b60a08301525060c08301358281111561360757600080fd5b61361388828601612e31565b60c08301525061362560e084016123ff565b60e08201526101006136388185016123ff565b9082015261012061364a848201612413565b90820152610140838101358381111561366257600080fd5b61366e89828701612525565b8284015250508093505050509250929050565b60006020828403121561369357600080fd5b81356001600160401b03808211156136aa57600080fd5b9083019061016082860312156136bf57600080fd5b6136c7612387565b6136d0836123ef565b81526136de602084016123ef565b60208201526136ef604084016123ff565b604082015261370060608401612424565b606082015261371160808401612424565b608082015261372260a08401612413565b60a082015261373360c084016123ef565b60c082015261374460e084016123ff565b60e08201526101006137578185016123ef565b90820152610120613769848201612413565b90820152610140838101358381111561378157600080fd5b61378d88828701612525565b918301919091525095945050505050565b6000602080830181845280855180835260408601915060408160051b870101925083870160005b828110156137f357603f198886030184526137e18583516126b4565b945092850192908501906001016137c5565b5092979650505050505050565b60006020828403121561381257600080fd5b81356001600160401b0381111561382857600080fd5b6115ea84828501612e31565b60008060006060848603121561384957600080fd5b613852846123ff565b925061386060208501612424565b915061386e60408501612413565b90509250925092565b60006020828403121561388957600080fd5b813561193d816123da565b600081518084526020808501945080840160005b838110156138c757815160ff16875295820195908201906001016138a8565b509495945050505050565b60006020808301818452808551808352604092508286019150828160051b87010184880160005b8381101561394957888303603f190185528151805187855261391d88860182613894565b91890151858303868b01529190506139358183613894565b9689019694505050908601906001016138f9565b509098975050505050505050565b60008251613969818460208701612684565b9190910192915050565b6020808252601d908201527f73656e646572206e6f74206d6174636820617265612061646472657373000000604082015260600190565b634e487b7160e01b600052603260045260246000fd5b634e487b7160e01b600052601160045260246000fd5b60006000198214156139ea576139ea6139c0565b5060010190565b600060208284031215613a0357600080fd5b815161193d816123da565b6001600160a01b0394909416845263ffffffff92909216602084015261ffff908116604084015216606082015260800190565b6001600160a01b03958616815263ffffffff94909416602085015261ffff928316604085015291166060830152909116608082015260a00190565b600060208284031215613a8e57600080fd5b81516001600160401b03811115613aa457600080fd5b8201601f81018413613ab557600080fd5b8051613ac3612544826124fe565b818152856020838501011115613ad857600080fd5b612dcd826020830160208601612684565b61ffff94851681529290931660208301526001600160a01b0316604082015260ff909116606082015260800190565b600061ffff80831681811415613b3057613b306139c0565b6001019392505050565b6020808252602b908201527f496e697469616c697a61626c653a20636f6e7472616374206973206e6f74206960408201526a6e697469616c697a696e6760a81b606082015260800190565b60008219821115613b9857613b986139c0565b500190565b600082821015613baf57613baf6139c0565b500390565b604081526000613bc760408301856126b4565b90508260208301529392505050565b604081526000613be960408301856126b4565b905060018060a01b03831660208301529392505050565b80516020808301519190811015610d9a5760001960209190910360031b1b16919050565b606081526000613c3760608301866126b4565b6001600160a01b039490941660208301525060400152919050565b604081526000613c6560408301856126b4565b8281036020840152612dcd81856126b4565b600060ff821660ff841680821015613c9157613c916139c0565b90039392505050565b6000816000190483118215151615613cb457613cb46139c0565b500290565b634e487b7160e01b600052601260045260246000fd5b600082613cde57613cde613cb9565b500490565b600181815b80851115613d1e578160001904821115613d0457613d046139c0565b80851615613d1157918102915b93841c9390800290613ce8565b509250929050565b600082613d3557506001611363565b81613d4257506000611363565b8160018114613d585760028114613d6257613d7e565b6001915050611363565b60ff841115613d7357613d736139c0565b50506001821b611363565b5060208310610133831016604e8410600b8410161715613da1575081810a611363565b613dab8383613ce3565b8060001904821115613dbf57613dbf6139c0565b029392505050565b600061193d8383613d26565b600082613de257613de2613cb9565b50069056fe2d2d2d2d2d2d57686974654c6973744164647265737320737769746368206f66662d2d2d2d2d2d2d2d2d2d2d2d205f726567417267732077686974654c69737448616e646c6572206c656e6774682d2d2d2d2d2d2d2d2d2d2d2d2d2d207570646174654172677320616464726573732025732073746174652025732d2d2d2d2d2d2d2d2d2d2d2d20616c6c2072756c65207768697465206c69737420657175616c2d2d2d2d2d2d2d2d2d2d2d2d2073706563696669632072756c65207768697465206c69737420657175616c2d2d2d2d2d2d2d2d2d2d2d2d205f757064617465417267732077686974654c69737448616e646c6572206c656e6774682d2d2d2d2d2d2d2d2d2d2d2d205f757064617465417267732077686974654c69737448616e646c6572207768697465537769746368a2646970667358221220f64017f99a78ded8d62410d9a4229b82f22521344ac68af17f4caa088a15b9a064736f6c63430008080033",
  "linkReferences": {},
  "deployedLinkReferences": {}
}