{
  "_format": "hh-sol-artifact-1",
  "contractName": "MineHandler",
  "sourceName": "contracts/V3/handler/MineHandler.sol",
  "abi": [
    {
      "anonymous": false,
      "inputs": [
        {
          "indexed": false,
          "internalType": "uint8",
          "name": "version",
          "type": "uint8"
        }
      ],
      "name": "Initialized",
      "type": "event"
    },
    {
      "anonymous": false,
      "inputs": [
        {
          "indexed": true,
          "internalType": "address",
          "name": "previousOwner",
          "type": "address"
        },
        {
          "indexed": true,
          "internalType": "address",
          "name": "newOwner",
          "type": "address"
        }
      ],
      "name": "OwnershipTransferred",
      "type": "event"
    },
    {
      "inputs": [
        {
          "components": [
            {
              "internalType": "address",
              "name": "engine",
              "type": "address"
            },
            {
              "internalType": "address",
              "name": "clusterArea",
              "type": "address"
            },
            {
              "internalType": "address",
              "name": "stateCounter",
              "type": "address"
            },
            {
              "internalType": "uint32",
              "name": "clusterId",
              "type": "uint32"
            },
            {
              "internalType": "uint32",
              "name": "taskId",
              "type": "uint32"
            },
            {
              "internalType": "address",
              "name": "claimer",
              "type": "address"
            },
            {
              "internalType": "uint8",
              "name": "io",
              "type": "uint8"
            },
            {
              "internalType": "uint16",
              "name": "round",
              "type": "uint16"
            },
            {
              "internalType": "uint8",
              "name": "branch",
              "type": "uint8"
            },
            {
              "internalType": "uint8",
              "name": "tokenSlotIndex",
              "type": "uint8"
            }
          ],
          "internalType": "struct IHandler.Claim",
          "name": "claim",
          "type": "tuple"
        }
      ],
      "name": "claimIOAddressBranchToken",
      "outputs": [
        {
          "internalType": "bool",
          "name": "",
          "type": "bool"
        }
      ],
      "stateMutability": "nonpayable",
      "type": "function"
    },
    {
      "inputs": [
        {
          "internalType": "bytes32",
          "name": "",
          "type": "bytes32"
        }
      ],
      "name": "clusterRuleAttenuationCountTimeType",
      "outputs": [
        {
          "internalType": "uint128",
          "name": "",
          "type": "uint128"
        }
      ],
      "stateMutability": "view",
      "type": "function"
    },
    {
      "inputs": [
        {
          "internalType": "bytes32",
          "name": "",
          "type": "bytes32"
        }
      ],
      "name": "clusterRuleTaskAttenuationCountRate",
      "outputs": [
        {
          "internalType": "uint256",
          "name": "",
          "type": "uint256"
        }
      ],
      "stateMutability": "view",
      "type": "function"
    },
    {
      "inputs": [],
      "name": "cname",
      "outputs": [
        {
          "internalType": "string",
          "name": "",
          "type": "string"
        }
      ],
      "stateMutability": "pure",
      "type": "function"
    },
    {
      "inputs": [
        {
          "internalType": "bytes32",
          "name": "",
          "type": "bytes32"
        }
      ],
      "name": "engineClusterTaskOutputAddressRoundClaimedClaimableBeginTimeMap",
      "outputs": [
        {
          "internalType": "uint96",
          "name": "",
          "type": "uint96"
        }
      ],
      "stateMutability": "view",
      "type": "function"
    },
    {
      "inputs": [
        {
          "components": [
            {
              "internalType": "address",
              "name": "engine",
              "type": "address"
            },
            {
              "internalType": "address",
              "name": "clusterArea",
              "type": "address"
            },
            {
              "internalType": "address",
              "name": "stateCounter",
              "type": "address"
            },
            {
              "internalType": "uint32",
              "name": "clusterId",
              "type": "uint32"
            },
            {
              "internalType": "uint32",
              "name": "taskId",
              "type": "uint32"
            },
            {
              "internalType": "address",
              "name": "claimer",
              "type": "address"
            },
            {
              "internalType": "uint8",
              "name": "io",
              "type": "uint8"
            },
            {
              "internalType": "uint16",
              "name": "round",
              "type": "uint16"
            },
            {
              "internalType": "uint8",
              "name": "branch",
              "type": "uint8"
            },
            {
              "internalType": "uint8",
              "name": "tokenSlotIndex",
              "type": "uint8"
            }
          ],
          "internalType": "struct IHandler.Claim",
          "name": "claim",
          "type": "tuple"
        }
      ],
      "name": "getClaimIOAddressBranchToken",
      "outputs": [
        {
          "internalType": "bool",
          "name": "",
          "type": "bool"
        }
      ],
      "stateMutability": "view",
      "type": "function"
    },
    {
      "inputs": [
        {
          "internalType": "bytes32",
          "name": "hash",
          "type": "bytes32"
        }
      ],
      "name": "getClusterGroupSlotArgs",
      "outputs": [
        {
          "internalType": "bytes",
          "name": "",
          "type": "bytes"
        }
      ],
      "stateMutability": "view",
      "type": "function"
    },
    {
      "inputs": [
        {
          "internalType": "bytes32",
          "name": "hash",
          "type": "bytes32"
        }
      ],
      "name": "getClusterRuleAttenuationCountTimeType",
      "outputs": [
        {
          "internalType": "uint128",
          "name": "",
          "type": "uint128"
        }
      ],
      "stateMutability": "view",
      "type": "function"
    },
    {
      "inputs": [
        {
          "internalType": "bytes32",
          "name": "hash",
          "type": "bytes32"
        }
      ],
      "name": "getClusterRuleTaskAttenuationCountRate",
      "outputs": [
        {
          "internalType": "uint256",
          "name": "",
          "type": "uint256"
        }
      ],
      "stateMutability": "view",
      "type": "function"
    },
    {
      "inputs": [
        {
          "internalType": "string[]",
          "name": "areaNameList",
          "type": "string[]"
        }
      ],
      "name": "getEngineAreaList",
      "outputs": [
        {
          "internalType": "address[]",
          "name": "",
          "type": "address[]"
        }
      ],
      "stateMutability": "nonpayable",
      "type": "function"
    },
    {
      "inputs": [
        {
          "internalType": "bytes32",
          "name": "hash",
          "type": "bytes32"
        }
      ],
      "name": "getEngineClusterTaskCallerTokenBranchList",
      "outputs": [
        {
          "components": [
            {
              "internalType": "uint256[]",
              "name": "valueList",
              "type": "uint256[]"
            }
          ],
          "internalType": "struct TokenHandler.TokenBranch[]",
          "name": "",
          "type": "tuple[]"
        }
      ],
      "stateMutability": "view",
      "type": "function"
    },
    {
      "inputs": [
        {
          "internalType": "bytes32",
          "name": "hash",
          "type": "bytes32"
        }
      ],
      "name": "getEngineClusterTaskOutputAddressRoundClaimedClaimableBeginTimeMap",
      "outputs": [
        {
          "internalType": "uint96",
          "name": "",
          "type": "uint96"
        }
      ],
      "stateMutability": "view",
      "type": "function"
    },
    {
      "inputs": [],
      "name": "getIOBranches",
      "outputs": [
        {
          "components": [
            {
              "internalType": "uint8[]",
              "name": "inBranch",
              "type": "uint8[]"
            },
            {
              "internalType": "uint8[]",
              "name": "outBranch",
              "type": "uint8[]"
            }
          ],
          "internalType": "struct IHandler.IOBranch[]",
          "name": "branches",
          "type": "tuple[]"
        }
      ],
      "stateMutability": "pure",
      "type": "function"
    },
    {
      "inputs": [
        {
          "internalType": "address",
          "name": "engine",
          "type": "address"
        },
        {
          "internalType": "address",
          "name": "clusterArea",
          "type": "address"
        },
        {
          "internalType": "uint32",
          "name": "clusterId",
          "type": "uint32"
        },
        {
          "internalType": "address",
          "name": "stateCounter",
          "type": "address"
        },
        {
          "internalType": "uint32",
          "name": "taskId",
          "type": "uint32"
        },
        {
          "internalType": "uint16",
          "name": "round",
          "type": "uint16"
        }
      ],
      "name": "getInputAddressRound",
      "outputs": [
        {
          "internalType": "address[]",
          "name": "addr",
          "type": "address[]"
        }
      ],
      "stateMutability": "view",
      "type": "function"
    },
    {
      "inputs": [
        {
          "internalType": "address",
          "name": "engine",
          "type": "address"
        },
        {
          "internalType": "address",
          "name": "clusterArea",
          "type": "address"
        },
        {
          "internalType": "uint32",
          "name": "clusterId",
          "type": "uint32"
        },
        {
          "internalType": "address",
          "name": "stateCounter",
          "type": "address"
        },
        {
          "internalType": "uint32",
          "name": "taskId",
          "type": "uint32"
        },
        {
          "internalType": "uint16",
          "name": "round",
          "type": "uint16"
        }
      ],
      "name": "getOutputAddressRound",
      "outputs": [
        {
          "internalType": "address[]",
          "name": "addr",
          "type": "address[]"
        }
      ],
      "stateMutability": "view",
      "type": "function"
    },
    {
      "inputs": [
        {
          "internalType": "uint32",
          "name": "clusterId",
          "type": "uint32"
        },
        {
          "internalType": "uint16",
          "name": "ruleSlotIndex",
          "type": "uint16"
        },
        {
          "internalType": "uint8",
          "name": "branch",
          "type": "uint8"
        }
      ],
      "name": "getRuleGroupSlotArgs",
      "outputs": [
        {
          "internalType": "bytes",
          "name": "",
          "type": "bytes"
        }
      ],
      "stateMutability": "view",
      "type": "function"
    },
    {
      "inputs": [
        {
          "components": [
            {
              "internalType": "address",
              "name": "engine",
              "type": "address"
            },
            {
              "internalType": "address",
              "name": "clusterArea",
              "type": "address"
            },
            {
              "internalType": "uint32",
              "name": "clusterId",
              "type": "uint32"
            },
            {
              "internalType": "uint16",
              "name": "ruleSlotIndexInput",
              "type": "uint16"
            },
            {
              "internalType": "uint16",
              "name": "ruleSlotIndexOutput",
              "type": "uint16"
            },
            {
              "internalType": "uint8",
              "name": "branch",
              "type": "uint8"
            },
            {
              "internalType": "address",
              "name": "stateCounter",
              "type": "address"
            },
            {
              "internalType": "uint32",
              "name": "taskId",
              "type": "uint32"
            },
            {
              "internalType": "address",
              "name": "caller",
              "type": "address"
            },
            {
              "internalType": "uint8",
              "name": "cmd",
              "type": "uint8"
            },
            {
              "internalType": "bytes",
              "name": "args",
              "type": "bytes"
            }
          ],
          "internalType": "struct Handler.StateParams",
          "name": "params",
          "type": "tuple"
        }
      ],
      "name": "getState",
      "outputs": [
        {
          "internalType": "bytes[]",
          "name": "",
          "type": "bytes[]"
        }
      ],
      "stateMutability": "view",
      "type": "function"
    },
    {
      "inputs": [
        {
          "internalType": "address",
          "name": "engine",
          "type": "address"
        },
        {
          "internalType": "address",
          "name": "outAddress",
          "type": "address"
        },
        {
          "internalType": "address",
          "name": "clusterArea",
          "type": "address"
        },
        {
          "internalType": "uint32",
          "name": "clusterId",
          "type": "uint32"
        },
        {
          "internalType": "address",
          "name": "stateCounter",
          "type": "address"
        },
        {
          "internalType": "uint32",
          "name": "taskId",
          "type": "uint32"
        },
        {
          "internalType": "bytes",
          "name": "args",
          "type": "bytes"
        },
        {
          "internalType": "uint16",
          "name": "round",
          "type": "uint16"
        }
      ],
      "name": "getTokenBranch",
      "outputs": [
        {
          "components": [
            {
              "internalType": "uint256[]",
              "name": "valueList",
              "type": "uint256[]"
            }
          ],
          "internalType": "struct TokenHandler.TokenBranch",
          "name": "",
          "type": "tuple"
        }
      ],
      "stateMutability": "view",
      "type": "function"
    },
    {
      "inputs": [],
      "name": "initialize",
      "outputs": [],
      "stateMutability": "nonpayable",
      "type": "function"
    },
    {
      "inputs": [],
      "name": "owner",
      "outputs": [
        {
          "internalType": "address",
          "name": "",
          "type": "address"
        }
      ],
      "stateMutability": "view",
      "type": "function"
    },
    {
      "inputs": [
        {
          "components": [
            {
              "internalType": "address",
              "name": "caller",
              "type": "address"
            },
            {
              "internalType": "address",
              "name": "stateCounter",
              "type": "address"
            },
            {
              "internalType": "address",
              "name": "poolFee",
              "type": "address"
            },
            {
              "components": [
                {
                  "internalType": "address",
                  "name": "caller",
                  "type": "address"
                },
                {
                  "internalType": "address",
                  "name": "clusterArea",
                  "type": "address"
                },
                {
                  "internalType": "address",
                  "name": "lastHandler",
                  "type": "address"
                },
                {
                  "internalType": "address",
                  "name": "snippet",
                  "type": "address"
                },
                {
                  "internalType": "uint256",
                  "name": "valueTime",
                  "type": "uint256"
                },
                {
                  "internalType": "uint256",
                  "name": "value",
                  "type": "uint256"
                },
                {
                  "internalType": "uint32",
                  "name": "taskId",
                  "type": "uint32"
                },
                {
                  "internalType": "uint32",
                  "name": "parentTaskId",
                  "type": "uint32"
                },
                {
                  "internalType": "uint32",
                  "name": "clusterId",
                  "type": "uint32"
                },
                {
                  "internalType": "uint8",
                  "name": "state",
                  "type": "uint8"
                },
                {
                  "components": [
                    {
                      "internalType": "uint8",
                      "name": "erc",
                      "type": "uint8"
                    },
                    {
                      "internalType": "address",
                      "name": "token",
                      "type": "address"
                    },
                    {
                      "internalType": "uint256",
                      "name": "id",
                      "type": "uint256"
                    },
                    {
                      "internalType": "uint256",
                      "name": "amount",
                      "type": "uint256"
                    },
                    {
                      "components": [
                        {
                          "internalType": "uint32",
                          "name": "attrId",
                          "type": "uint32"
                        },
                        {
                          "internalType": "int40",
                          "name": "attrAmount",
                          "type": "int40"
                        }
                      ],
                      "internalType": "struct Attribute.AttributeIn[]",
                      "name": "attrInList",
                      "type": "tuple[]"
                    }
                  ],
                  "internalType": "struct Token.Token[]",
                  "name": "inTokenList",
                  "type": "tuple[]"
                },
                {
                  "internalType": "bytes",
                  "name": "args",
                  "type": "bytes"
                }
              ],
              "internalType": "struct Task.Task",
              "name": "task",
              "type": "tuple"
            },
            {
              "internalType": "uint8",
              "name": "state",
              "type": "uint8"
            }
          ],
          "internalType": "struct Handler.Process",
          "name": "param",
          "type": "tuple"
        },
        {
          "components": [
            {
              "internalType": "address",
              "name": "handler",
              "type": "address"
            },
            {
              "internalType": "uint8",
              "name": "code",
              "type": "uint8"
            },
            {
              "internalType": "string",
              "name": "msg",
              "type": "string"
            },
            {
              "internalType": "bytes",
              "name": "args",
              "type": "bytes"
            }
          ],
          "internalType": "struct Handler.Result",
          "name": "preResult",
          "type": "tuple"
        }
      ],
      "name": "process",
      "outputs": [
        {
          "components": [
            {
              "internalType": "address",
              "name": "handler",
              "type": "address"
            },
            {
              "internalType": "uint8",
              "name": "code",
              "type": "uint8"
            },
            {
              "internalType": "string",
              "name": "msg",
              "type": "string"
            },
            {
              "internalType": "bytes",
              "name": "args",
              "type": "bytes"
            }
          ],
          "internalType": "struct Handler.Result",
          "name": "",
          "type": "tuple"
        }
      ],
      "stateMutability": "nonpayable",
      "type": "function"
    },
    {
      "inputs": [],
      "name": "randomGenerator",
      "outputs": [
        {
          "internalType": "address",
          "name": "",
          "type": "address"
        }
      ],
      "stateMutability": "view",
      "type": "function"
    },
    {
      "inputs": [
        {
          "internalType": "uint32",
          "name": "clusterId",
          "type": "uint32"
        },
        {
          "components": [
            {
              "components": [
                {
                  "components": [
                    {
                      "components": [
                        {
                          "internalType": "uint8",
                          "name": "erc",
                          "type": "uint8"
                        },
                        {
                          "internalType": "address",
                          "name": "token",
                          "type": "address"
                        },
                        {
                          "internalType": "uint256[]",
                          "name": "valueList",
                          "type": "uint256[]"
                        }
                      ],
                      "internalType": "struct Token.TokenTemplate",
                      "name": "tokenTemplate",
                      "type": "tuple"
                    },
                    {
                      "internalType": "uint8",
                      "name": "rule",
                      "type": "uint8"
                    },
                    {
                      "internalType": "address[]",
                      "name": "ioAddressList",
                      "type": "address[]"
                    },
                    {
                      "internalType": "uint256[]",
                      "name": "valueList",
                      "type": "uint256[]"
                    }
                  ],
                  "internalType": "struct Rule.TokenSlot[]",
                  "name": "tokenSlotList",
                  "type": "tuple[]"
                },
                {
                  "internalType": "uint8",
                  "name": "branch",
                  "type": "uint8"
                },
                {
                  "internalType": "address",
                  "name": "poolToken",
                  "type": "address"
                },
                {
                  "internalType": "address[]",
                  "name": "handlerList",
                  "type": "address[]"
                },
                {
                  "internalType": "bytes[]",
                  "name": "argsList",
                  "type": "bytes[]"
                }
              ],
              "internalType": "struct Rule.GroupSlot[]",
              "name": "groupSlotList",
              "type": "tuple[]"
            },
            {
              "internalType": "uint8[]",
              "name": "ruleSlotBound",
              "type": "uint8[]"
            },
            {
              "components": [
                {
                  "internalType": "uint16",
                  "name": "ruleSlotIndexInput",
                  "type": "uint16"
                },
                {
                  "internalType": "uint16",
                  "name": "ruleSlotIndexOutput",
                  "type": "uint16"
                },
                {
                  "internalType": "uint8",
                  "name": "state",
                  "type": "uint8"
                },
                {
                  "internalType": "uint32",
                  "name": "totalCount",
                  "type": "uint32"
                },
                {
                  "internalType": "uint8",
                  "name": "durationType",
                  "type": "uint8"
                },
                {
                  "internalType": "uint32",
                  "name": "delayTimestamp",
                  "type": "uint32"
                },
                {
                  "internalType": "uint32",
                  "name": "delayBlockNumber",
                  "type": "uint32"
                },
                {
                  "internalType": "uint64",
                  "name": "handlerCount",
                  "type": "uint64"
                },
                {
                  "internalType": "address[]",
                  "name": "handlerList",
                  "type": "address[]"
                },
                {
                  "internalType": "bytes[]",
                  "name": "handlerArgsList",
                  "type": "bytes[]"
                },
                {
                  "internalType": "address",
                  "name": "snippet",
                  "type": "address"
                }
              ],
              "internalType": "struct Rule.Rule[]",
              "name": "ruleList",
              "type": "tuple[]"
            },
            {
              "components": [
                {
                  "internalType": "uint32",
                  "name": "attrId",
                  "type": "uint32"
                },
                {
                  "internalType": "string",
                  "name": "name",
                  "type": "string"
                },
                {
                  "internalType": "string",
                  "name": "symbol",
                  "type": "string"
                },
                {
                  "internalType": "string",
                  "name": "uri",
                  "type": "string"
                },
                {
                  "internalType": "uint8",
                  "name": "level",
                  "type": "uint8"
                }
              ],
              "internalType": "struct Attribute.Attribute[]",
              "name": "attrList",
              "type": "tuple[]"
            },
            {
              "internalType": "uint8[]",
              "name": "attrStateList",
              "type": "uint8[]"
            },
            {
              "internalType": "address[]",
              "name": "deployerList",
              "type": "address[]"
            },
            {
              "internalType": "address[]",
              "name": "adminList",
              "type": "address[]"
            },
            {
              "internalType": "uint32",
              "name": "delayTimestamp",
              "type": "uint32"
            },
            {
              "internalType": "uint32",
              "name": "delayBlockNumber",
              "type": "uint32"
            },
            {
              "internalType": "uint8",
              "name": "state",
              "type": "uint8"
            },
            {
              "internalType": "string",
              "name": "description",
              "type": "string"
            }
          ],
          "internalType": "struct Cluster.Cluster",
          "name": "cluster",
          "type": "tuple"
        }
      ],
      "name": "regRule",
      "outputs": [],
      "stateMutability": "nonpayable",
      "type": "function"
    },
    {
      "inputs": [
        {
          "internalType": "uint32",
          "name": "clusterId",
          "type": "uint32"
        },
        {
          "internalType": "uint16",
          "name": "ruleSlotIndex",
          "type": "uint16"
        },
        {
          "internalType": "uint8",
          "name": "branch",
          "type": "uint8"
        },
        {
          "internalType": "bytes",
          "name": "args",
          "type": "bytes"
        }
      ],
      "name": "regRuleGroupSlotArgs",
      "outputs": [],
      "stateMutability": "nonpayable",
      "type": "function"
    },
    {
      "inputs": [],
      "name": "renounceOwnership",
      "outputs": [],
      "stateMutability": "nonpayable",
      "type": "function"
    },
    {
      "inputs": [
        {
          "internalType": "bytes32",
          "name": "",
          "type": "bytes32"
        }
      ],
      "name": "ruleGroupSlotArgs",
      "outputs": [
        {
          "internalType": "bytes",
          "name": "",
          "type": "bytes"
        }
      ],
      "stateMutability": "view",
      "type": "function"
    },
    {
      "inputs": [
        {
          "internalType": "address[]",
          "name": "engineAreaList",
          "type": "address[]"
        }
      ],
      "name": "setEngineAreaList",
      "outputs": [],
      "stateMutability": "nonpayable",
      "type": "function"
    },
    {
      "inputs": [
        {
          "internalType": "address",
          "name": "newOwner",
          "type": "address"
        }
      ],
      "name": "transferOwnership",
      "outputs": [],
      "stateMutability": "nonpayable",
      "type": "function"
    },
    {
      "inputs": [
        {
          "internalType": "uint32",
          "name": "clusterId",
          "type": "uint32"
        },
        {
          "internalType": "uint16",
          "name": "ruleSlotIndexInput",
          "type": "uint16"
        },
        {
          "internalType": "uint16",
          "name": "ruleSlotIndexOutput",
          "type": "uint16"
        },
        {
          "internalType": "uint8",
          "name": "cmd",
          "type": "uint8"
        },
        {
          "internalType": "bytes",
          "name": "args",
          "type": "bytes"
        }
      ],
      "name": "updateArgs",
      "outputs": [
        {
          "internalType": "bool",
          "name": "",
          "type": "bool"
        }
      ],
      "stateMutability": "nonpayable",
      "type": "function"
    },
    {
      "inputs": [],
      "name": "version",
      "outputs": [
        {
          "internalType": "uint256",
          "name": "",
          "type": "uint256"
        }
      ],
      "stateMutability": "pure",
      "type": "function"
    }
  ],
  "bytecode": "0x608060405234801561001057600080fd5b5061624880620000216000396000f3fe608060405234801561001057600080fd5b506004361061017a5760003560e01c806380fed744116100d457806380fed7441461033b5780638129fc1c146103645780638da5cb5b1461036c57806394cbedc11461039157806395edcb08146103ba578063a903620c146103da578063af84b51f146103ed578063b2a0d71a1461040d578063b41bd7891461042d578063b4b7035214610440578063d0d35b5514610453578063dcbad90d14610466578063f2fde38b14610479578063f2fe4fa51461048c578063f8970ff3146104a157600080fd5b806306694f021461017f5780631b202235146101a85780631cc4f041146101e95780631eda6e4f1461020c5780632311c08f1461022c57806334c76b251461026d578063394a73981461028d57806340477c5d146102a05780634b2dbcb8146102c05780634b2e9b41146102c057806354fd4d50146102e75780635790c294146102f857806362329cc51461030d5780636dabaf0414610320578063715018a614610333575b600080fd5b61019261018d366004613e4d565b6104c1565b60405161019f9190613ec2565b60405180910390f35b6101d16101b6366004613e4d565b6069602052600090815260409020546001600160801b031681565b6040516001600160801b03909116815260200161019f565b6101fc6101f7366004614099565b610563565b604051901515815260200161019f565b61021f61021a3660046141de565b6105f3565b60405161019f91906142df565b61025561023a366004613e4d565b6000908152606b60205260409020546001600160601b031690565b6040516001600160601b03909116815260200161019f565b6040805180820190915260048152634d696e6560e01b6020820152610192565b61019261029b366004613e4d565b6106b6565b6102b36102ae366004613e4d565b610750565b60405161019f91906142f2565b6102da6102ce366004614354565b60609695505050505050565b60405161019f91906143db565b60015b60405190815260200161019f565b61030b610306366004614428565b61080c565b005b6102da61031b3660046144bb565b6108e1565b6101fc61032e36600461456b565b6109be565b61030b610b58565b6101d1610349366004613e4d565b6000908152606960205260409020546001600160801b031690565b61030b610b6c565b6033546001600160a01b03165b6040516001600160a01b03909116815260200161019f565b61025561039f366004613e4d565b606b602052600090815260409020546001600160601b031681565b6103cd6103c8366004614802565b610c7d565b60405161019f91906149d2565b61030b6103e836600461512f565b610f96565b6104006103fb3660046152e2565b611013565b60405161019f91906153ff565b6102ea61041b366004613e4d565b606a6020526000908152604090205481565b61030b61043b366004615454565b6110a1565b6101fc61044e366004614099565b611211565b610192610461366004615488565b61136f565b606754610379906001600160a01b031681565b61030b6104873660046154cf565b611449565b6104946114bf565b60405161019f919061552a565b6102ea6104af366004613e4d565b6000908152606a602052604090205490565b60008181526068602052604090208054606091906104de906155af565b80601f016020809104026020016040519081016040528092919081815260200182805461050a906155af565b80156105575780601f1061052c57610100808354040283529160200191610557565b820191906000526020600020905b81548152906001019060200180831161053a57829003601f168201915b50505050509050919050565b604051639ef5e7bb60e01b815260009073__$10c7622a794a4c36e0cba83f19e55bd777$__90639ef5e7bb9061059d9085906004016156a8565b60206040518083038186803b1580156105b557600080fd5b505af41580156105c9573d6000803e3d6000fd5b505050506040513d601f19601f820116820180604052508101906105ed91906156b7565b92915050565b60408051602081019091526060815260006106128a898989898e611506565b6000818152606c6020526040902080549192509061ffff851690811061063a5761063a6156d9565b906000526020600020016040518060200160405290816000820180548060200260200160405190810160405280929190818152602001828054801561069e57602002820191906000526020600020905b81548152602001906001019080831161068a575b50505050508152505091505098975050505050505050565b606860205260009081526040902080546106cf906155af565b80601f01602080910402602001604051908101604052809291908181526020018280546106fb906155af565b80156107485780601f1061071d57610100808354040283529160200191610748565b820191906000526020600020905b81548152906001019060200180831161072b57829003601f168201915b505050505081565b6060606c6000838152602001908152602001600020805480602002602001604051908101604052809291908181526020016000905b82821015610801576000848152602090819020604080519185018054808502840183018352938301848152929390928492909184918401828280156107e957602002820191906000526020600020905b8154815260200190600101908083116107d5575b50505050508152505081526020019060010190610785565b505050509050919050565b6040518060400160405280600f81526020016e436c757374657252756c654172656160881b81525060668160405161084491906156ef565b90815260405190819003602001902054336001600160a01b03909116146108865760405162461bcd60e51b815260040161087d9061570b565b60405180910390fd5b60003386868660405160200161089f949392919061572e565b60408051601f1981840301815291815281516020928301206000818152606884529190912085519193506108d892909190860190613cb1565b50505050505050565b6060600082516001600160401b038111156108fe576108fe613ed5565b604051908082528060200260200182016040528015610927578160200160208202803683370190505b50905060005b81518110156109b757606684828151811061094a5761094a6156d9565b602002602001015160405161095f91906156ef565b9081526040519081900360200190205482516001600160a01b039091169083908390811061098f5761098f6156d9565b6001600160a01b03909216602092830291909101909101526109b081615777565b905061092d565b5092915050565b60006040518060400160405280601681526020017521b63ab9ba32b9293ab632a0b932b0a430b7323632b960511b8152506066816040516109ff91906156ef565b90815260405190819003602001902054336001600160a01b0390911614610a385760405162461bcd60e51b815260040161087d9061570b565b60ff84161580610a4b575060ff84166001145b15610b4b57600033888888604051602001610a699493929190615792565b60408051601f1981840301815290829052805160209091012060675463237dc7f360e11b835290925073__$10c7622a794a4c36e0cba83f19e55bd777$__916346fb8fe691610ace916001600160a01b03909116908c908c908c908b906004016157c5565b60206040518083038186803b158015610ae657600080fd5b505af4158015610afa573d6000803e3d6000fd5b505050506040513d601f19601f82011682018060405250810190610b1e9190615812565b60009182526069602052604090912080546001600160801b0319166001600160801b039092169190911790555b5060019695505050505050565b610b60611548565b610b6a60006115a2565b565b600054610100900460ff1615808015610b8c5750600054600160ff909116105b80610ba65750303b158015610ba6575060005460ff166001145b610c095760405162461bcd60e51b815260206004820152602e60248201527f496e697469616c697a61626c653a20636f6e747261637420697320616c72656160448201526d191e481a5b9a5d1a585b1a5e995960921b606482015260840161087d565b6000805460ff191660011790558015610c2c576000805461ff0019166101001790555b610c346115f4565b8015610c7a576000805461ff0019169055604051600181527f7f26b83ff96e1f2b6a682f133852f6798a09c465da95921460cefb38474024989060200160405180910390a15b50565b610c85613d35565b60405180604001604052806006815260200165456e67696e6560d01b815250606681604051610cb491906156ef565b90815260405190819003602001902054336001600160a01b0390911614610ced5760405162461bcd60e51b815260040161087d9061570b565b308352608084015160ff16610d3657610d2560405180604001604052806008815260200167135208125394155560c21b815250611623565b610d2f8484611666565b9250610f8e565b608084015160ff1660011415610f8e576000610d55856060015161166e565b9050610d8f6040518060400160405280601581526020017409a90408ab08a86aaa88a40c2e4cee698cadccee8d605b1b815250825161167a565b80511580610d9e575080516001145b15610dba57610daf858560006116c3565b9350839250506109b7565b6060850151600090610dd690610dd1908484611cf5565b611d4f565b9050610e0a6040518060400160405280600d81526020016c4d48204558454355544520257360981b8152508260ff1661167a565b60ff8116600a1415610f6e57610e4d604051806040016040528060168152602001754d4820636d6420313030206d616b652072616e646f6d60501b815250611623565b606754606087015160208101516101008201516001600160a01b039093169263063738cb92610e7b90611d9d565b610e888b60600151611db7565b60208c015160608d015160c001518d516040516001600160e01b031960e08a901b168152610ebf979695949392919060040161583b565b602060405180830381600087803b158015610ed957600080fd5b505af1158015610eed573d6000803e3d6000fd5b505050506040513d601f19601f82011682018060405250810190610f1191906156b7565b15610f2257600a6020860152610f64565b604080518082018252601c81527f6d616b652072616e646f6d20657863656564207374642074696d657300000000602080830191909152918701526001908601525b84935050506109b7565b6060860151610f7e906000611ddc565b610f898686836116c3565b945050505b509092915050565b6040518060400160405280601681526020017521b63ab9ba32b9293ab632a0b932b0a430b7323632b960511b815250606681604051610fd591906156ef565b90815260405190819003602001902054336001600160a01b039091161461100e5760405162461bcd60e51b815260040161087d9061570b565b505050565b6040516318adc02760e21b815260609073__$e5539aee5e4b7b43b991bb6eb023810f45$__906362b7009c9061104d908590600401615887565b60006040518083038186803b15801561106557600080fd5b505af4158015611079573d6000803e3d6000fd5b505050506040513d6000823e601f3d908101601f191682016040526105ed919081019061598f565b6110a9611548565b60005b81518110156111ab578181815181106110c7576110c76156d9565b602002602001015160668383815181106110e3576110e36156d9565b60200260200101516001600160a01b03166334c76b256040518163ffffffff1660e01b815260040160006040518083038186803b15801561112357600080fd5b505afa158015611137573d6000803e3d6000fd5b505050506040513d6000823e601f3d908101601f1916820160405261115f9190810190615a47565b60405161116c91906156ef565b90815260405190819003602001902080546001600160a01b03929092166001600160a01b03199092169190911790556111a481615777565b90506110ac565b50604080518082018252600f81526e2930b73237b6a3b2b732b930ba37b960891b602082015290516066916111df916156ef565b90815260405190819003602001902054606780546001600160a01b0319166001600160a01b0390921691909117905550565b600060405180604001604052806006815260200165456e67696e6560d01b81525060668160405161124291906156ef565b90815260405190819003602001902054336001600160a01b039091161461127b5760405162461bcd60e51b815260040161087d9061570b565b600061129f3385602001518660600151876040015188608001518960a00151611506565b90506000606c60008381526020019081526020016000208560e0015161ffff16815481106112cf576112cf6156d9565b90600052602060002001905073__$10c7622a794a4c36e0cba83f19e55bd777$__638d5a6cd586836040518363ffffffff1660e01b8152600401611314929190615a8f565b60206040518083038186803b15801561132c57600080fd5b505af4158015611340573d6000803e3d6000fd5b505050506040513d601f19601f8201168201806040525081019061136491906156b7565b935050505b50919050565b606060003385858560405160200161138a949392919061572e565b6040516020818303038152906040528051906020012090506068600082815260200190815260200160002080546113c0906155af565b80601f01602080910402602001604051908101604052809291908181526020018280546113ec906155af565b80156114395780601f1061140e57610100808354040283529160200191611439565b820191906000526020600020905b81548152906001019060200180831161141c57829003601f168201915b50505050509150505b9392505050565b611451611548565b6001600160a01b0381166114b65760405162461bcd60e51b815260206004820152602660248201527f4f776e61626c653a206e6577206f776e657220697320746865207a65726f206160448201526564647265737360d01b606482015260840161087d565b610c7a816115a2565b6040805160008082526020820190925260609190816109b7565b60408051808201909152606080825260208201528152602001906001900390816114d95790505092915050565b60008087878787878760405160200161152496959493929190615aac565b60408051808303601f19018152919052805160209091012098975050505050505050565b6033546001600160a01b03163314610b6a5760405162461bcd60e51b815260206004820181905260248201527f4f776e61626c653a2063616c6c6572206973206e6f7420746865206f776e6572604482015260640161087d565b603380546001600160a01b038381166001600160a01b0319831681179093556040519116919082907f8be0079c531659141344cd1fd0a4f28419497f9722a3daafe3b4186f6b6457e090600090a35050565b600054610100900460ff1661161b5760405162461bcd60e51b815260040161087d90615aec565b610b6a611e1d565b610c7a816040516024016116379190613ec2565b60408051601f198184030181529190526020810180516001600160e01b031663104c13eb60e21b179052611e4d565b611369613d35565b60606105ed8230611e6e565b6116bf8282604051602401611690929190615b37565b60408051601f198184030181529190526020810180516001600160e01b0316632d839cb360e21b179052611e4d565b5050565b6116cb613d35565b60608401516020808201516101008301518288015160c090940151885160405160009661170096339695949193919201615aac565b60405160208183030381529060405280519060200120905060008560600151602001516001600160a01b031663fe8c4aa36040518163ffffffff1660e01b815260040160206040518083038186803b15801561175b57600080fd5b505afa15801561176f573d6000803e3d6000fd5b505050506040513d601f19601f820116820180604052508101906117939190615b59565b6060870151610100810151906117a890611d9d565b6117b58960600151611db7565b6040516020016117c89493929190615792565b604051602081830303815290604052805190602001209050600160ff166117f28760600151611f26565b60ff16141561198857600061182c33886060015160200151896060015161010001518a602001518b6060015160c001518c60000151611506565b6000818152606c6020908152604080832081519283019091526060825292935090611855611f4b565b90506118648a60600151611f26565b60ff1681526000602082015261187a8282611f92565b8254600181018455600084815260209081902084518051869492909201926118a792849290910190613d5b565b5050506000858152606960205260408120546001600160801b0316906118d88260086118d38482615b76565b612591565b905060ff8116156118f0576118eb6125b0565b6118f2565b425b606b60008a815260200190815260200160002060006101000a8154816001600160601b0302191690836001600160601b0316021790555061197d6040518060400160405280601c81526020017f636c61696d2074696d657374616d70204252414e43485f5354414b4500000000815250600160201b426119729190615ba4565b63ffffffff1661167a565b505050505050611ceb565b600060ff1661199a8760600151611f26565b60ff161415611c7a576000828152606b602090815260408220546001600160601b031691906119de9083906008906119d3908590615b76565b6118d3906020615b76565b9050611a226040518060400160405280601e81526020017f4d696e652045786563757465202d2d2d20726f756e64576974686472617700008152508260ff1661167a565b60ff811660011415611a9157600160ff168160ff161415611a716040518060600160405280602181526020016161ae60219139611a6c8b6060015160c0015163ffffffff1661263c565b612647565b90611a8f5760405162461bcd60e51b815260040161087d9190613ec2565b505b6000611aa9836001600160601b031660206000612591565b9050611af06040518060400160405280601d81526020017f4d696e652045786563757465202d2d207461736b426567696e54696d650000008152508263ffffffff1661167a565b6000848152606960205260408120546001600160801b031690611b1582600883612591565b90506000611b326001600160801b03841660086118d38482615b76565b90506000611b5b6001600160801b0385166020611b50846008615b76565b6118d3906008615b76565b905060ff8b1660021415611b8257611b768d86858585612673565b606460208d0152611c6e565b60ff8b1660011415611c6e57611bd06040518060400160405280602081526020017f636c61696d2048414e444c45525f434d445f434c41494d2072756c65547970658152508460ff1661167a565b611bdd8d868585856127e2565b60018360ff161415611c6e5760ff8216611c2857611c1b6001600160601b038816611c0c600160201b42615ba4565b63ffffffff1660206000612c32565b63ffffffff169650611c46565b611c3d876001600160601b0316611c0c6125b0565b63ffffffff1696505b6000898152606b6020526040902080546001600160601b0319166001600160601b0389161790555b50505050505050611ceb565b6000611ccb6040518060400160405280601b81526020017a135a5b99481a5b9c1d5d109c985b98da081a5cc81a5b1b1959d85b602a1b815250611a6c611cc38a60600151611f26565b60ff1661263c565b90611ce95760405162461bcd60e51b815260040161087d9190613ec2565b505b5092949350505050565b611cfd613d95565b611d2c83611d0c846001615bb8565b60ff1681518110611d1f57611d1f6156d9565b6020026020010151612c57565b600281518110611d3e57611d3e6156d9565b602002602001015190509392505050565b805160009015801590611d6457508151602110155b611d6d57600080fd5b600080611d7984612d60565b815191935091506020821015611d955760208290036101000a90045b949350505050565b60006105ed8260a001516010600060086118d39190615b76565b60006105ed8260a00151601060006008611dd19190615b76565b6118d3906010615b76565b60a0820151611e119060ff83166008611df6600082615b76565b611e01906010615b76565b611e0c906010615b76565b612c32565b60a09092019190915250565b600054610100900460ff16611e445760405162461bcd60e51b815260040161087d90615aec565b610b6a336115a2565b80516a636f6e736f6c652e6c6f67602083016000808483855afa5050505050565b60606000611e88611e83856101600151612da7565b612c57565b905060005b8151811015611f1b576000611ecf611eb0848481518110611d1f57611d1f6156d9565b600081518110611ec257611ec26156d9565b6020026020010151612dcd565b9050846001600160a01b0316816001600160a01b03161415611f0a57611f00838381518110611d1f57611d1f6156d9565b93505050506105ed565b50611f1481615777565b9050611e8d565b506060949350505050565b60006105ed8260a00151600860006008611f409190615b76565b611dd1906010615b76565b611f53613daf565b611f5b613daf565b6000808252604082018190526127106080830181905260a0830181905260c083019190915260e08201819052610100820152919050565b60c081015160019015611fad5780611fa981615777565b9150505b8160e0015161271014611fc85780611fc481615777565b9150505b81610100015161271014611fe45780611fe081615777565b9150505b61014082015151151580611ffd57506101608201515115155b8061200d57506101a08201515115155b1561207f57600082610160015151836101400151511161205257826101a0015151836101600151511161204657826101a001515161205a565b8261016001515161205a565b826101400151515b9050612067816004615bdd565b6120719083615b76565b60ff90911661012084015290505b6120a96040518060600160405280602e815260200161615b602e913983610120015160ff1661167a565b806001600160401b038111156120c1576120c1613ed5565b6040519080825280602002602001820160405280156120ea578160200160208202803683370190505b50835281516120fa908490612de7565b612108838360200151612e3f565b612116838360600151612e80565b612124838360400151612ecf565b61213383836101200151612f13565b61215460405180606001604052806025815260200161618960259139611623565b60008060019050836080015162ffffff16612710146121895761217b858560800151612fa4565b612186600183615bfc565b91505b8360a0015163ffffffff16612710146121b8576121aa858560a0015161300b565b6121b5600283615bfc565b91505b60c0840151156121fe5760c08401518551826121d381615777565b9350815181106121e5576121e56156d9565b60209081029190910101526121fb600483615bfc565b91505b8360e00151612710146122475760e084015185518261221c81615777565b93508151811061222e5761222e6156d9565b6020908102919091010152612244600883615bfc565b91505b836101000151612710146122925761010084015185518261226781615777565b935081518110612279576122796156d9565b602090810291909101015261228f601083615bfc565b91505b61012084015160ff16156125805760005b84610120015160ff1681101561254e576000856101400151511180156122ce57508461014001515181105b156123255784610140015181815181106122ea576122ea6156d9565b60200260200101518660000151838061230290615777565b945081518110612314576123146156d9565b602002602001018181525050612353565b85516000908361233481615777565b945081518110612346576123466156d9565b6020026020010181815250505b60008561016001515111801561236e57508461016001515181105b156123c557846101600151818151811061238a5761238a6156d9565b6020026020010151866000015183806123a290615777565b9450815181106123b4576123b46156d9565b6020026020010181815250506123f3565b8551600090836123d481615777565b9450815181106123e6576123e66156d9565b6020026020010181815250505b60008561018001515111801561240e57508461018001515181105b1561246857846101800151818151811061242a5761242a6156d9565b602002602001015160ff168660000151838061244590615777565b945081518110612457576124576156d9565b602002602001018181525050612495565b855181908361247681615777565b945081518110612488576124886156d9565b6020026020010181815250505b6000856101a00151511180156124b05750846101a001515181105b1561251057846101a0015181815181106124cc576124cc6156d9565b60200260200101516001600160a01b0316866000015183806124ed90615777565b9450815181106124ff576124ff6156d9565b60200260200101818152505061253e565b85516000908361251f81615777565b945081518110612531576125316156d9565b6020026020010181815250505b61254781615777565b90506122a3565b5061255a602083615bfc565b91506125806040518060800160405280604481526020016161cf6044913986515161167a565b61258a858361307e565b5050505050565b91821c916000806125a5600180861b615c22565b909416949350505050565b60004661a4b18114156126355760646001600160a01b031663a3b1b31d6040518163ffffffff1660e01b815260040160206040518083038186803b1580156125f757600080fd5b505afa15801561260b573d6000803e3d6000fd5b505050506040513d601f19601f8201168201806040525081019061262f9190615c39565b91505090565b4391505090565b60606105ed826130ce565b6060828260405160200161265c929190615c52565b604051602081830303815290604052905092915050565b60006126a4338760600151602001518860600151610100015189602001518a6060015160c001518b60000151611506565b6000818152606c602052604081208054929350916126e6916001918491906126ce576126ce6156d9565b9060005260206000200161316a90919063ffffffff16565b6127166001826000815481106126fe576126fe6156d9565b906000526020600020016131c290919063ffffffff16565b61272387878787876127e2565b6060870151602080820151610100830151828b015160c0909401518b5160405160009661275896339695949193919201615aac565b60408051601f1981840301815291815281516020928301206000818152606b8452918220549093506001600160601b0316916127ab9183916001916008916127a09190615b76565b611e0c906020615b76565b6000928352606b602052604090922080546001600160601b0319166001600160601b03909316929092179091555050505050505050565b612818604051806040016040528060118152602001704d4820436c61696d2072756c655479706560781b8152508460ff1661167a565b60608501516020808201516101008301518289015160c090940151895160405160009661284d96339695949193919201615aac565b60408051601f1981840301815291815281516020928301206000818152606b8452918220549093506001600160601b03169161288f9083906118d38482615b76565b60ff1690506128d3604051806040016040528060178152602001764d4820436c61696d20726f756e64436c61696d61626c6560481b8152508263ffffffff1661167a565b60018660ff161415612a685760ff85161580156128fe5750426128f68589615c8e565b63ffffffff16115b1561296d5760405162461bcd60e51b815260206004820152603960248201527f4d482074696d6572203a207461736b426567696e54696d65202b20696e746572604482015278076616c54696d65203e20626c6f636b2e74696d657374616d7603c1b606482015260840161087d565b60ff8516600114801561299557506129836125b0565b61298d8589615c8e565b63ffffffff16115b15612a015760405162461bcd60e51b815260206004820152603660248201527f4d482074696d6572203a207461736b426567696e54696d65202b20696e7465726044820152753b30b62a34b6b2901f10313637b1b597373ab6b132b960511b606482015260840161087d565b612a0c8860016131fd565b612a376001600160601b038316612a24836001615c8e565b63ffffffff166020611e0c600082615b76565b6000848152606b6020526040902080546001600160601b0319166001600160601b0392909216919091179055612b84565b60028660ff161415612b8457600060ff8616612aa8578463ffffffff168863ffffffff1642612a979190615c22565b612aa19190615cad565b9050612ad5565b8463ffffffff168863ffffffff16612abe6125b0565b612ac89190615c22565b612ad29190615cad565b90505b612b0d604051806040016040528060168152602001754d4820436c61696d20726f756e6443616e436c61696d60501b8152508261167a565b8163ffffffff16811115612b82576000612b2d63ffffffff841683615c22565b9050612b398a826131fd565b612b546001600160601b038516836020611e0c600082615b76565b6000868152606b6020526040902080546001600160601b0319166001600160601b0392909216919091179055505b505b606754606089015160208101516101008201516001600160a01b039093169263495fb7ec92612bb290611d9d565b612bbf8d60600151611db7565b60208e015160608f015160c001518f516040516001600160e01b031960e08a901b168152612bf6979695949392919060040161583b565b600060405180830381600087803b158015612c1057600080fd5b505af1158015612c24573d6000803e3d6000fd5b505050505050505050505050565b600083821b8183612c46600180881b615c22565b901b19969096161795945050505050565b6060612c6282613685565b612c6b57600080fd5b6000612c76836136be565b90506000816001600160401b03811115612c9257612c92613ed5565b604051908082528060200260200182016040528015612ccb57816020015b612cb8613d95565b815260200190600190039081612cb05790505b5090506000612cdd8560200151613741565b8560200151612cec9190615b76565b90506000805b84811015612d5557612d03836137bc565b9150604051806040016040528083815260200184815250848281518110612d2c57612d2c6156d9565b6020908102919091010152612d418284615b76565b925080612d4d81615777565b915050612cf2565b509195945050505050565b6000806000612d728460200151613741565b90506000818560200151612d869190615b76565b90506000828660000151612d9a9190615c22565b9196919550909350505050565b612daf613d95565b50604080518082019091528151815260209182019181019190915290565b8051600090601514612dde57600080fd5b6105ed82611d4f565b612e1c8260000151600081518110612e0157612e016156d9565b60200260200101518260ff16600860ff16600060ff16612c32565b82518051600090612e2f57612e2f6156d9565b6020026020010181815250505050565b612e1c8260000151600081518110612e5957612e596156d9565b60200260200101518260ff16600460ff1660006008612e789190615bb8565b60ff16612c32565b612e1c8260000151600081518110612e9a57612e9a6156d9565b60200260200101518260ff16600460ff1660006008612eb99190615bb8565b612ec4906004615bb8565b612e78906008615bb8565b612e1c8260000151600081518110612ee957612ee96156d9565b60200260200101518260ff16600860ff1660006008612f089190615bb8565b612e78906004615bb8565b612e1c8260000151600081518110612f2d57612f2d6156d9565b60200260200101518260ff16600860ff1660006008612f4c9190615bb8565b612f57906004615bb8565b612f62906008615bb8565b612f6d906004615bb8565b612f78906010615bb8565b612f83906018615bb8565b612f8e906020615bb8565b612f99906020615bb8565b612e78906020615bb8565b612e1c8260000151600081518110612fbe57612fbe6156d9565b60200260200101518262ffffff16601860ff1660006008612fdf9190615bb8565b612fea906004615bb8565b612ff5906008615bb8565b613000906004615bb8565b612e78906010615bb8565b612e1c8260000151600081518110613025576130256156d9565b60200260200101518263ffffffff16602060ff16600060086130479190615bb8565b613052906004615bb8565b61305d906008615bb8565b613068906004615bb8565b613073906010615bb8565b612e78906018615bb8565b612e1c8260000151600081518110613098576130986156d9565b60200260200101518261ffff16601060ff16600060086130b89190615bb8565b6130c3906004615bb8565b612f08906008615bb8565b606060006130db83613860565b60010190506000816001600160401b038111156130fa576130fa613ed5565b6040519080825280601f01601f191660200182016040528015613124576020820181803683370190505b5090508181016020015b600019016f181899199a1a9b1b9c1cb0b131b232b360811b600a86061a8153600a850494508461315d57613162565b61312e565b509392505050565b61319c82600001600081548110613183576131836156d9565b60009182526020822001549060ff841690600890612c32565b826000016000815481106131b2576131b26156d9565b6000918252602090912001555050565b61319c826000016000815481106131db576131db6156d9565b90600052602060002001548260ff16600460ff1660006008612e789190615bb8565b600061320c836060015161166e565b905061323e6040518060400160405280600d81526020016c09a9040c2e4cee698cadccee8d609b1b815250825161167a565b600060028251111561326257606084015161325f90610dd190846001611cf5565b90505b600160ff82166064141561339b5760008560600151602001516001600160a01b031663fe8c4aa36040518163ffffffff1660e01b815260040160206040518083038186803b1580156132b357600080fd5b505afa1580156132c7573d6000803e3d6000fd5b505050506040513d601f19601f820116820180604052508101906132eb9190615b59565b60608701516101008101519061330090611d9d565b61330d8960600151611db7565b6040516020016133209493929190615792565b60408051601f19818403018152918152815160209283012060008181526069909352908220549092506001600160801b0316906133848260086133638482615b76565b61336e906008615b76565b613379906020615b76565b611f40906020615b76565b905060ff81166001141561339757600093505b5050505b801561355e576067546001600160a01b0316635245622763ffffffff86166001600160401b038111156133d0576133d0613ed5565b6040519080825280601f01601f1916602001820160405280156133fa576020820181803683370190505b5060608801516020810151610100820151909161341690611d9d565b6134238b60600151611db7565b60208c015160608d015160c001518d516040516001600160e01b031960e08b901b16815261345b989796959493929190600401615cc1565b602060405180830381600087803b15801561347557600080fd5b505af1158015613489573d6000803e3d6000fd5b505050506040513d601f19601f820116820180604052508101906134ad9190615c39565b905060018114156135005760405162461bcd60e51b815260206004820181905260248201527f6d696e652072616e646f6d20686173207061737365642032353620626c6f636b604482015260640161087d565b600281141561354f5760405162461bcd60e51b815260206004820152601b60248201527a0dad2dcca40e4c2dcc8deda40c4d8dec6d640dcdee840e4cac2c6d602b1b604482015260640161087d565b61355b61271082615ba4565b90505b600061358f338760600151602001518860600151610100015189602001518a6060015160c001518b60000151611506565b6000818152606c602052604080822080549151636d0aa59560e01b815293945092909190819073__$10c7622a794a4c36e0cba83f19e55bd777$__90636d0aa595906135e3908d908d908b90600401615f3e565b60006040518083038186803b1580156135fb57600080fd5b505af415801561360f573d6000803e3d6000fd5b505050506040513d6000823e601f3d908101601f191682016040526136379190810190616005565b855460018101875560008781526020908190208351805195975093955085949201926136699284929190910190613d5b565b5050506136798a8a85858a613936565b50505050505050505050565b805160009061369657506000919050565b6020820151805160001a9060c08210156136b4575060009392505050565b5060019392505050565b80516000906136cf57506000919050565b6000806136df8460200151613741565b84602001516136ee9190615b76565b90506000846000015185602001516137069190615b76565b90505b808210156137385761371a826137bc565b6137249083615b76565b91508261373081615777565b935050613709565b50909392505050565b8051600090811a608081101561375a5750600092915050565b60b8811080613775575060c08110801590613775575060f881105b156137835750600192915050565b60c08110156137b057613798600160b861604b565b6137a59060ff1682615c22565b611442906001615b76565b613798600160f861604b565b80516000908190811a60808110156137d757600191506109b7565b60b88110156137fd576137eb608082615c22565b6137f6906001615b76565b91506109b7565b60c081101561382a5760b78103600185019450806020036101000a855104600182018101935050506109b7565b60f881101561383e576137eb60c082615c22565b60019390930151602084900360f7016101000a900490920160f5190192915050565b60008072184f03e93ff9f4daa797ed6e38ed64bf6a1f0160401b831061389f5772184f03e93ff9f4daa797ed6e38ed64bf6a1f0160401b830492506040015b6904ee2d6d415b85acef8160201b83106138c9576904ee2d6d415b85acef8160201b830492506020015b662386f26fc1000083106138e757662386f26fc10000830492506010015b6305f5e10083106138ff576305f5e100830492506008015b612710831061391357612710830492506004015b60648310613925576064830492506002015b600a83106105ed5760010192915050565b60008060008073__$10c7622a794a4c36e0cba83f19e55bd777$__63e81310598a8a6040518363ffffffff1660e01b815260040161397592919061606e565b60806040518083038186803b15801561398d57600080fd5b505af41580156139a1573d6000803e3d6000fd5b505050506040513d601f19601f820116820180604052508101906139c59190616096565b935093509350935060018260ff1614156139fc5760006139e5338b613a6b565b6000908152606a6020526040902082905550613a1b565b6000613a08338b613afd565b6000908152606a60205260409020829055505b613a5160405180604001604052806014815260200173026a410383937b1b2b9b99030ba3a2930ba34b7960651b8152508561167a565b613a6089898989898989613b96565b505050505050505050565b6000808383606001516020015184606001516101000151613a8f8660600151611d9d565b613a9c8760600151611db7565b604080516001600160a01b039687166020820152959094169385019390935263ffffffff909116606084015261ffff90811660808401521660a082015260c0015b60408051808303601f190181529190528051602090910120949350505050565b6000808383606001516020015184606001516101000151613b218660600151611d9d565b613b2e8760600151611db7565b60208089015160608a015160c00151604051613add989796959493016001600160a01b039788168152958716602087015263ffffffff948516604087015261ffff9384166060870152919092166080850152931660a08301529190911660c082015260e00190565b6000613bc7338960600151602001518a6060015161010001518b602001518c6060015160c001518d60000151611506565b9050600073__$10c7622a794a4c36e0cba83f19e55bd777$__631f5dbd128a8a8a8a8a8a8a6040518863ffffffff1660e01b8152600401613c0e97969594939291906160d5565b60006040518083038186803b158015613c2657600080fd5b505af4158015613c3a573d6000803e3d6000fd5b505050506040513d6000823e601f3d908101601f19168201604052613c629190810190616126565b6000838152606c602052604090208054919250829161ffff8a16908110613c8b57613c8b6156d9565b906000526020600020016000820151816000019080519060200190612c24929190613d5b565b828054613cbd906155af565b90600052602060002090601f016020900481019282613cdf5760008555613d25565b82601f10613cf857805160ff1916838001178555613d25565b82800160010185558215613d25579182015b82811115613d25578251825591602001919060010190613d0a565b50613d31929150613e38565b5090565b604080516080810182526000808252602082015260609181018290528181019190915290565b828054828255906000526020600020908101928215613d255791602002820182811115613d25578251825591602001919060010190613d0a565b604051806040016040528060008152602001600081525090565b604051806101c00160405280600060ff168152602001600060ff168152602001600060ff168152602001600060ff168152602001600062ffffff168152602001600063ffffffff168152602001600081526020016000815260200160008152602001600060ff168152602001606081526020016060815260200160608152602001606081525090565b5b80821115613d315760008155600101613e39565b600060208284031215613e5f57600080fd5b5035919050565b60005b83811015613e81578181015183820152602001613e69565b83811115613e90576000848401525b50505050565b60008151808452613eae816020860160208601613e66565b601f01601f19169290920160200192915050565b6020815260006114426020830184613e96565b634e487b7160e01b600052604160045260246000fd5b60405161014081016001600160401b0381118282101715613f0e57613f0e613ed5565b60405290565b60405160a081016001600160401b0381118282101715613f0e57613f0e613ed5565b604080519081016001600160401b0381118282101715613f0e57613f0e613ed5565b604051608081016001600160401b0381118282101715613f0e57613f0e613ed5565b60405161018081016001600160401b0381118282101715613f0e57613f0e613ed5565b604051606081016001600160401b0381118282101715613f0e57613f0e613ed5565b60405161016081016001600160401b0381118282101715613f0e57613f0e613ed5565b604051602081016001600160401b0381118282101715613f0e57613f0e613ed5565b604051601f8201601f191681016001600160401b038111828210171561402c5761402c613ed5565b604052919050565b6001600160a01b0381168114610c7a57600080fd5b803561405481614034565b919050565b803563ffffffff8116811461405457600080fd5b60ff81168114610c7a57600080fd5b80356140548161406d565b803561ffff8116811461405457600080fd5b600061014082840312156140ac57600080fd5b6140b4613eeb565b6140bd83614049565b81526140cb60208401614049565b60208201526140dc60408401614049565b60408201526140ed60608401614059565b60608201526140fe60808401614059565b608082015261410f60a08401614049565b60a082015261412060c0840161407c565b60c082015261413160e08401614087565b60e082015261010061414481850161407c565b9082015261012061415684820161407c565b908201529392505050565b60006001600160401b0382111561417a5761417a613ed5565b50601f01601f191660200190565b600082601f83011261419957600080fd5b81356141ac6141a782614161565b614004565b8181528460208386010111156141c157600080fd5b816020850160208301376000918101602001919091529392505050565b600080600080600080600080610100898b0312156141fb57600080fd5b883561420681614034565b9750602089013561421681614034565b9650604089013561422681614034565b955061423460608a01614059565b9450608089013561424481614034565b935061425260a08a01614059565b925060c08901356001600160401b0381111561426d57600080fd5b6142798b828c01614188565b92505061428860e08a01614087565b90509295985092959890939650565b805160208084528151848201819052600092820190839060408701905b808310156142d457835182529284019260019290920191908401906142b4565b509695505050505050565b6020815260006114426020830184614297565b6000602080830181845280855180835260408601915060408160051b870101925083870160005b8281101561434757603f19888603018452614335858351614297565b94509285019290850190600101614319565b5092979650505050505050565b60008060008060008060c0878903121561436d57600080fd5b863561437881614034565b9550602087013561438881614034565b945061439660408801614059565b935060608701356143a681614034565b92506143b460808801614059565b91506143c260a08801614087565b90509295509295509295565b6001600160a01b03169052565b6020808252825182820181905260009190848201906040850190845b8181101561441c5783516001600160a01b0316835292840192918401916001016143f7565b50909695505050505050565b6000806000806080858703121561443e57600080fd5b61444785614059565b935061445560208601614087565b925060408501356144658161406d565b915060608501356001600160401b0381111561448057600080fd5b61448c87828801614188565b91505092959194509250565b60006001600160401b038211156144b1576144b1613ed5565b5060051b60200190565b600060208083850312156144ce57600080fd5b82356001600160401b03808211156144e557600080fd5b818501915085601f8301126144f957600080fd5b81356145076141a782614498565b81815260059190911b8301840190848101908883111561452657600080fd5b8585015b8381101561455e578035858111156145425760008081fd5b6145508b89838a0101614188565b84525091860191860161452a565b5098975050505050505050565b600080600080600060a0868803121561458357600080fd5b61458c86614059565b945061459a60208701614087565b93506145a860408701614087565b925060608601356145b88161406d565b915060808601356001600160401b038111156145d357600080fd5b6145df88828901614188565b9150509295509295909350565b600082601f8301126145fd57600080fd5b8135602061460d6141a783614498565b82815260059290921b8401810191818101908684111561462c57600080fd5b8286015b848110156142d45780356001600160401b038082111561464f57600080fd5b9088019060a0828b03601f1901121561466757600080fd5b61466f613f14565b8683013561467c8161406d565b815260408381013561468d81614034565b828901526060848101358284015260808501359083015260a0840135838111156146b75760008081fd5b8085019450508b603f8501126146cf57600092508283fd5b8784013592506146e16141a784614498565b83815260069390931b8401810192888101908d8511156147015760008081fd5b948201945b848610156147585782868f03121561471e5760008081fd5b614726613f36565b61472f87614059565b81528a8701358060040b81146147455760008081fd5b818c015282529482019490890190614706565b6080840152505085525050918301918301614630565b60006080828403121561478057600080fd5b614788613f58565b9050813561479581614034565b815260208201356147a58161406d565b602082015260408201356001600160401b03808211156147c457600080fd5b6147d085838601614188565b604084015260608401359150808211156147e957600080fd5b506147f684828501614188565b60608301525092915050565b6000806040838503121561481557600080fd5b82356001600160401b038082111561482c57600080fd5b9084019060a0828703121561484057600080fd5b614848613f14565b823561485381614034565b8152602083013561486381614034565b6020820152604083013561487681614034565b604082015260608301358281111561488d57600080fd5b830161018081890312156148a057600080fd5b6148a8613f7a565b6148b182614049565b81526148bf60208301614049565b60208201526148d060408301614049565b60408201526148e160608301614049565b60608201526080820135608082015260a082013560a082015261490660c08301614059565b60c082015261491760e08301614059565b60e082015261010061492a818401614059565b9082015261012061493c83820161407c565b90820152610140828101358581111561495457600080fd5b6149608b8286016145ec565b828401525050610160808301358581111561497a57600080fd5b6149868b828601614188565b82840152505080606084015250506149a06080840161407c565b6080820152935060208501359150808211156149bb57600080fd5b506149c88582860161476e565b9150509250929050565b6020815260018060a01b03825116602082015260ff60208301511660408201526000604083015160806060840152614a0d60a0840182613e96565b90506060840151601f19848303016080850152614a2a8282613e96565b95945050505050565b600082601f830112614a4457600080fd5b81356020614a546141a783614498565b82815260059290921b84018101918181019086841115614a7357600080fd5b8286015b848110156142d45780358352918301918301614a77565b600082601f830112614a9f57600080fd5b81356020614aaf6141a783614498565b82815260059290921b84018101918181019086841115614ace57600080fd5b8286015b848110156142d4578035614ae581614034565b8352918301918301614ad2565b600082601f830112614b0357600080fd5b81356020614b136141a783614498565b82815260059290921b84018101918181019086841115614b3257600080fd5b8286015b848110156142d45780356001600160401b0380821115614b5557600080fd5b90880190601f196080838c0382011215614b6e57600080fd5b614b76613f58565b8784013583811115614b8757600080fd5b84016060818e0384011215614b9b57600080fd5b614ba3613f9d565b925088810135614bb28161406d565b8352604081810135614bc381614034565b848b0152606082013585811115614bd957600080fd5b614be78f8c83860101614a33565b8286015250838352614bfa81870161407c565b8a8401526060860135935084841115614c1257600080fd5b614c208e8b86890101614a8e565b90830152506080840135915082821115614c3957600080fd5b614c478c8984870101614a33565b60608201528652505050918301918301614b36565b600082601f830112614c6d57600080fd5b81356020614c7d6141a783614498565b82815260059290921b84018101918181019086841115614c9c57600080fd5b8286015b848110156142d45780356001600160401b03811115614cbf5760008081fd5b614ccd8986838b0101614188565b845250918301918301614ca0565b600082601f830112614cec57600080fd5b81356020614cfc6141a783614498565b82815260059290921b84018101918181019086841115614d1b57600080fd5b8286015b848110156142d45780356001600160401b0380821115614d3f5760008081fd5b9088019060a0828b03601f1901811315614d595760008081fd5b614d61613f14565b8784013583811115614d735760008081fd5b614d818d8a83880101614af2565b8252506040614d9181860161407c565b898301526060614da2818701614049565b82840152608091508186013585811115614dbc5760008081fd5b614dca8f8c838a0101614a8e565b82850152505082850135925083831115614de45760008081fd5b614df28d8a85880101614c5c565b908201528652505050918301918301614d1f565b600082601f830112614e1757600080fd5b81356020614e276141a783614498565b82815260059290921b84018101918181019086841115614e4657600080fd5b8286015b848110156142d4578035614e5d8161406d565b8352918301918301614e4a565b80356001600160401b038116811461405457600080fd5b600082601f830112614e9257600080fd5b81356020614ea26141a783614498565b82815260059290921b84018101918181019086841115614ec157600080fd5b8286015b848110156142d45780356001600160401b0380821115614ee55760008081fd5b90880190610160828b03601f1901811315614f005760008081fd5b614f08613fbf565b614f13888501614087565b81526040614f22818601614087565b898301526060614f3381870161407c565b8284015260809150614f46828701614059565b9083015260a0614f5786820161407c565b8284015260c09150614f6a828701614059565b9083015260e0614f7b868201614059565b828401526101009150614f8f828701614e6a565b908301526101208581013585811115614fa85760008081fd5b614fb68f8c838a0101614a8e565b838501525061014091508186013585811115614fd25760008081fd5b614fe08f8c838a0101614c5c565b828501525050614ff1838601614049565b908201528652505050918301918301614ec5565b600082601f83011261501657600080fd5b813560206150266141a783614498565b82815260059290921b8401810191818101908684111561504557600080fd5b8286015b848110156142d45780356001600160401b03808211156150695760008081fd5b9088019060a0828b03601f19018113156150835760008081fd5b61508b613f14565b615096888501614059565b8152604080850135848111156150ac5760008081fd5b6150ba8e8b83890101614188565b8a84015250606080860135858111156150d35760008081fd5b6150e18f8c838a0101614188565b83850152506080915081860135858111156150fc5760008081fd5b61510a8f8c838a0101614188565b82850152505061511b83860161407c565b908201528652505050918301918301615049565b6000806040838503121561514257600080fd5b61514b83614059565b915060208301356001600160401b038082111561516757600080fd5b90840190610160828703121561517c57600080fd5b615184613fbf565b82358281111561519357600080fd5b61519f88828601614cdb565b8252506020830135828111156151b457600080fd5b6151c088828601614e06565b6020830152506040830135828111156151d857600080fd5b6151e488828601614e81565b6040830152506060830135828111156151fc57600080fd5b61520888828601615005565b60608301525060808301358281111561522057600080fd5b61522c88828601614e06565b60808301525060a08301358281111561524457600080fd5b61525088828601614a8e565b60a08301525060c08301358281111561526857600080fd5b61527488828601614a8e565b60c08301525061528660e08401614059565b60e0820152610100615299818501614059565b908201526101206152ab84820161407c565b9082015261014083810135838111156152c357600080fd5b6152cf89828701614188565b8284015250508093505050509250929050565b6000602082840312156152f457600080fd5b81356001600160401b038082111561530b57600080fd5b90830190610160828603121561532057600080fd5b615328613fbf565b61533183614049565b815261533f60208401614049565b602082015261535060408401614059565b604082015261536160608401614087565b606082015261537260808401614087565b608082015261538360a0840161407c565b60a082015261539460c08401614049565b60c08201526153a560e08401614059565b60e08201526101006153b8818501614049565b908201526101206153ca84820161407c565b9082015261014083810135838111156153e257600080fd5b6153ee88828701614188565b918301919091525095945050505050565b6000602080830181845280855180835260408601915060408160051b870101925083870160005b8281101561434757603f19888603018452615442858351613e96565b94509285019290850190600101615426565b60006020828403121561546657600080fd5b81356001600160401b0381111561547c57600080fd5b611d9584828501614a8e565b60008060006060848603121561549d57600080fd5b6154a684614059565b92506154b460208501614087565b915060408401356154c48161406d565b809150509250925092565b6000602082840312156154e157600080fd5b813561144281614034565b600081518084526020808501945080840160005b8381101561551f57815160ff1687529582019590820190600101615500565b509495945050505050565b60006020808301818452808551808352604092508286019150828160051b87010184880160005b838110156155a157888303603f1901855281518051878552615575888601826154ec565b91890151858303868b015291905061558d81836154ec565b968901969450505090860190600101615551565b509098975050505050505050565b600181811c908216806155c357607f821691505b6020821081141561136957634e487b7160e01b600052602260045260246000fd5b6155ef8282516143ce565b602081015161560160208401826143ce565b50604081015161561460408401826143ce565b50606081015161562c606084018263ffffffff169052565b506080810151615644608084018263ffffffff169052565b5060a081015161565760a08401826143ce565b5060c081015161566c60c084018260ff169052565b5060e081015161568260e084018261ffff169052565b506101008181015160ff81168483015250506101208181015160ff811684830152613e90565b61014081016105ed82846155e4565b6000602082840312156156c957600080fd5b8151801515811461144257600080fd5b634e487b7160e01b600052603260045260246000fd5b60008251615701818460208701613e66565b9190910192915050565b6020808252600990820152680dcdee840dac2e8c6d60bb1b604082015260600190565b6001600160a01b0394909416845263ffffffff92909216602084015261ffff16604083015260ff16606082015260800190565b634e487b7160e01b600052601160045260246000fd5b600060001982141561578b5761578b615761565b5060010190565b6001600160a01b0394909416845263ffffffff92909216602084015261ffff908116604084015216606082015260800190565b6001600160a01b038616815263ffffffff8516602082015261ffff84811660408301528316606082015260a06080820181905260009061580790830184613e96565b979650505050505050565b60006020828403121561582457600080fd5b81516001600160801b038116811461144257600080fd5b6001600160a01b03978816815263ffffffff968716602082015261ffff9586166040820152939094166060840152908516608083015290921660a083015290911660c082015260e00190565b602081526158996020820183516143ce565b600060208301516158ad60408401826143ce565b50604083015163ffffffff8116606084015250606083015161ffff8116608084015250608083015161ffff811660a08401525060a083015160ff811660c08401525060c083015161590160e08401826143ce565b5060e083015161010061591b8185018363ffffffff169052565b840151905061012061592f848201836143ce565b84015190506101406159458482018360ff169052565b840151610160848101529050611d95610180840182613e96565b600061596d6141a784614161565b905082815283838301111561598157600080fd5b611442836020830184613e66565b600060208083850312156159a257600080fd5b82516001600160401b03808211156159b957600080fd5b818501915085601f8301126159cd57600080fd5b81516159db6141a782614498565b81815260059190911b830184019084810190888311156159fa57600080fd5b8585015b8381101561455e57805185811115615a165760008081fd5b8601603f81018b13615a285760008081fd5b615a398b898301516040840161595f565b8452509186019186016159fe565b600060208284031215615a5957600080fd5b81516001600160401b03811115615a6f57600080fd5b8201601f81018413615a8057600080fd5b611d958482516020840161595f565b6101608101615a9e82856155e4565b826101408301529392505050565b6001600160a01b039687168152948616602086015263ffffffff93841660408601529185166060850152909116608083015290911660a082015260c00190565b6020808252602b908201527f496e697469616c697a61626c653a20636f6e7472616374206973206e6f74206960408201526a6e697469616c697a696e6760a81b606082015260800190565b604081526000615b4a6040830185613e96565b90508260208301529392505050565b600060208284031215615b6b57600080fd5b815161144281614034565b60008219821115615b8957615b89615761565b500190565b634e487b7160e01b600052601260045260246000fd5b600082615bb357615bb3615b8e565b500690565b600060ff821660ff84168060ff03821115615bd557615bd5615761565b019392505050565b6000816000190483118215151615615bf757615bf7615761565b500290565b600061ffff808316818516808303821115615c1957615c19615761565b01949350505050565b600082821015615c3457615c34615761565b500390565b600060208284031215615c4b57600080fd5b5051919050565b60008351615c64818460208801613e66565b600b60fa1b9083019081528351615c82816001840160208801613e66565b01600101949350505050565b600063ffffffff808316818516808303821115615c1957615c19615761565b600082615cbc57615cbc615b8e565b500490565b6000610100808352615cd58184018c613e96565b6001600160a01b039a8b16602085015263ffffffff998a16604085015261ffff98891660608501529690971660808301525092871660a0840152941660c08201529290931660e09092019190915250919050565b600081518084526020808501808196508360051b810191508286016000805b86811015615dec578385038a528251805160ff168652868101516001600160a01b031687870152604080820151818801526060808301519088015260809182015160a0928801839052805192880183905288019160c088019185915b80831015615dd6578451805163ffffffff1685528b015160040b8b850152938a01939281019260019290920191615da4565b5050509a87019a95505091850191600101615d48565b509298975050505050505050565b600060018060a01b0380835116845280602084015116602085015280604084015116604085015250606082015160a06060850152615e3c60a0850182516143ce565b6020810151615e4e60c08601826143ce565b506040810151615e6160e08601826143ce565b506060810151610100615e76818701836143ce565b60808301519150610120828188015260a08401519250610140838189015260c08501519350610160615eaf818a018663ffffffff169052565b60e08601519450610180615eca818b018763ffffffff169052565b8487015163ffffffff166101a08b01528387015160ff166101c08b0152828701516101e08b01919091529450615f046102208a0186615d29565b950151888603609f19016102008a0152949350615f279250839150849050613e96565b9150506080830151613162608086018260ff169052565b606081526000615f516060830186615dfa565b63ffffffff9490941660208301525060400152919050565b60006020808385031215615f7c57600080fd5b615f84613fe2565b915082516001600160401b03811115615f9c57600080fd5b8301601f81018513615fad57600080fd5b8051615fbb6141a782614498565b81815260059190911b82018301908381019087831115615fda57600080fd5b928401925b82841015615ff857835182529284019290840190615fdf565b8552509295945050505050565b6000806040838503121561601857600080fd5b82516160238161406d565b60208401519092506001600160401b0381111561603f57600080fd5b6149c885828601615f69565b600060ff821660ff84168082101561606557616065615761565b90039392505050565b6040815260006160816040830185615dfa565b905063ffffffff831660208301529392505050565b600080600080608085870312156160ac57600080fd5b845193506020850151925060408501516160c58161406d565b6060959095015193969295505050565b60e0815260006160e860e083018a615dfa565b63ffffffff9890981660208301525061ffff95909516604086015260ff939093166060850152608084019190915260a083015260c090910152919050565b60006020828403121561613857600080fd5b81516001600160401b0381111561614e57600080fd5b611d9584828501615f6956fe2d2d2d2d2d2d2d2d2d2d2d2d20746f6b656e48616e646c657220736574506172616d7320746f6b656e436f756e742d2d2d2d2d2d2d2d2d2d2d2d20746f6b656e48616e646c657220736574506172616d7320314d696e652048616e646c6572206861732066696e69736865642c207461736b49642d2d2d2d2d2d2d2d2d2d2d2d20746f6b656e48616e646c657220736574506172616d7320746f6b656e436f756e742073656c662e76616c75654c6973742e6c656e677468a264697066735822122097c43580f8f172ae40075fa5b5d9a0c469ec6ad884f864af5a2e6ad8a831daec64736f6c63430008080033",
  "linkReferences": {
    "contracts/V3/handler/MineHandlerLib.sol": {
      "MineHandlerLib": [
        {
          "length": 20,
          "start": 1430
        },
        {
          "length": 20,
          "start": 2741
        },
        {
          "length": 20,
          "start": 4862
        },
        {
          "length": 20,
          "start": 13784
        },
        {
          "length": 20,
          "start": 14687
        },
        {
          "length": 20,
          "start": 15342
        }
      ]
    },
    "contracts/V3/handler/MineHandlerLibState.sol": {
      "MineHandlerLibState": [
        {
          "length": 20,
          "start": 4166
        }
      ]
    }
  },
  "deployedLinkReferences": {
    "contracts/V3/handler/MineHandlerLib.sol": {
      "MineHandlerLib": [
        {
          "length": 20,
          "start": 1397
        },
        {
          "length": 20,
          "start": 2708
        },
        {
          "length": 20,
          "start": 4829
        },
        {
          "length": 20,
          "start": 13751
        },
        {
          "length": 20,
          "start": 14654
        },
        {
          "length": 20,
          "start": 15309
        }
      ]
    },
    "contracts/V3/handler/MineHandlerLibState.sol": {
      "MineHandlerLibState": [
        {
          "length": 20,
          "start": 4133
        }
      ]
    }
  }
}