{
  "_format": "hh-sol-artifact-1",
  "contractName": "ClusterArea",
  "sourceName": "contracts/V3/ClusterArea.sol",
  "abi": [
    {
      "anonymous": false,
      "inputs": [
        {
          "indexed": true,
          "internalType": "address",
          "name": "caller",
          "type": "address"
        },
        {
          "indexed": true,
          "internalType": "uint8",
          "name": "regType",
          "type": "uint8"
        },
        {
          "indexed": true,
          "internalType": "uint32",
          "name": "clusterId",
          "type": "uint32"
        },
        {
          "indexed": false,
          "internalType": "uint8",
          "name": "ruleSlotIndex1",
          "type": "uint8"
        },
        {
          "indexed": false,
          "internalType": "uint8",
          "name": "ruleSlotIndex2",
          "type": "uint8"
        }
      ],
      "name": "EventCluster",
      "type": "event"
    },
    {
      "anonymous": false,
      "inputs": [
        {
          "indexed": false,
          "internalType": "uint8",
          "name": "version",
          "type": "uint8"
        }
      ],
      "name": "Initialized",
      "type": "event"
    },
    {
      "anonymous": false,
      "inputs": [
        {
          "indexed": true,
          "internalType": "address",
          "name": "previousOwner",
          "type": "address"
        },
        {
          "indexed": true,
          "internalType": "address",
          "name": "newOwner",
          "type": "address"
        }
      ],
      "name": "OwnershipTransferred",
      "type": "event"
    },
    {
      "anonymous": false,
      "inputs": [
        {
          "indexed": false,
          "internalType": "uint8",
          "name": "channel",
          "type": "uint8"
        },
        {
          "indexed": false,
          "internalType": "address",
          "name": "account",
          "type": "address"
        }
      ],
      "name": "Paused",
      "type": "event"
    },
    {
      "anonymous": false,
      "inputs": [
        {
          "indexed": false,
          "internalType": "address",
          "name": "from",
          "type": "address"
        },
        {
          "indexed": false,
          "internalType": "uint256",
          "name": "value",
          "type": "uint256"
        }
      ],
      "name": "Receive",
      "type": "event"
    },
    {
      "anonymous": false,
      "inputs": [
        {
          "indexed": true,
          "internalType": "bytes32",
          "name": "role",
          "type": "bytes32"
        },
        {
          "indexed": true,
          "internalType": "bytes32",
          "name": "previousAdminRole",
          "type": "bytes32"
        },
        {
          "indexed": true,
          "internalType": "bytes32",
          "name": "newAdminRole",
          "type": "bytes32"
        }
      ],
      "name": "RoleAdminChanged",
      "type": "event"
    },
    {
      "anonymous": false,
      "inputs": [
        {
          "indexed": true,
          "internalType": "bytes32",
          "name": "role",
          "type": "bytes32"
        },
        {
          "indexed": true,
          "internalType": "address",
          "name": "account",
          "type": "address"
        },
        {
          "indexed": true,
          "internalType": "address",
          "name": "sender",
          "type": "address"
        }
      ],
      "name": "RoleGranted",
      "type": "event"
    },
    {
      "anonymous": false,
      "inputs": [
        {
          "indexed": true,
          "internalType": "bytes32",
          "name": "role",
          "type": "bytes32"
        },
        {
          "indexed": true,
          "internalType": "address",
          "name": "account",
          "type": "address"
        },
        {
          "indexed": true,
          "internalType": "address",
          "name": "sender",
          "type": "address"
        }
      ],
      "name": "RoleRevoked",
      "type": "event"
    },
    {
      "anonymous": false,
      "inputs": [
        {
          "indexed": false,
          "internalType": "uint8",
          "name": "channel",
          "type": "uint8"
        },
        {
          "indexed": false,
          "internalType": "address",
          "name": "account",
          "type": "address"
        }
      ],
      "name": "Unpaused",
      "type": "event"
    },
    {
      "inputs": [],
      "name": "DEFAULT_ADMIN_ROLE",
      "outputs": [
        {
          "internalType": "bytes32",
          "name": "",
          "type": "bytes32"
        }
      ],
      "stateMutability": "view",
      "type": "function"
    },
    {
      "inputs": [
        {
          "internalType": "uint32",
          "name": "clusterId",
          "type": "uint32"
        },
        {
          "components": [
            {
              "components": [
                {
                  "components": [
                    {
                      "components": [
                        {
                          "internalType": "uint8",
                          "name": "erc",
                          "type": "uint8"
                        },
                        {
                          "internalType": "address",
                          "name": "token",
                          "type": "address"
                        },
                        {
                          "internalType": "uint256[]",
                          "name": "valueList",
                          "type": "uint256[]"
                        }
                      ],
                      "internalType": "struct Token.TokenTemplate",
                      "name": "tokenTemplate",
                      "type": "tuple"
                    },
                    {
                      "internalType": "uint8",
                      "name": "rule",
                      "type": "uint8"
                    },
                    {
                      "internalType": "address[]",
                      "name": "ioAddressList",
                      "type": "address[]"
                    },
                    {
                      "internalType": "uint256[]",
                      "name": "valueList",
                      "type": "uint256[]"
                    }
                  ],
                  "internalType": "struct Rule.TokenSlot[]",
                  "name": "tokenSlotList",
                  "type": "tuple[]"
                },
                {
                  "internalType": "uint8",
                  "name": "branch",
                  "type": "uint8"
                },
                {
                  "internalType": "address",
                  "name": "poolToken",
                  "type": "address"
                },
                {
                  "internalType": "address[]",
                  "name": "handlerList",
                  "type": "address[]"
                },
                {
                  "internalType": "bytes[]",
                  "name": "argsList",
                  "type": "bytes[]"
                }
              ],
              "internalType": "struct Rule.GroupSlot[]",
              "name": "groupSlotList",
              "type": "tuple[]"
            },
            {
              "internalType": "uint8[]",
              "name": "ruleSlotBound",
              "type": "uint8[]"
            },
            {
              "components": [
                {
                  "internalType": "uint16",
                  "name": "ruleSlotIndexInput",
                  "type": "uint16"
                },
                {
                  "internalType": "uint16",
                  "name": "ruleSlotIndexOutput",
                  "type": "uint16"
                },
                {
                  "internalType": "uint8",
                  "name": "state",
                  "type": "uint8"
                },
                {
                  "internalType": "uint32",
                  "name": "totalCount",
                  "type": "uint32"
                },
                {
                  "internalType": "uint8",
                  "name": "durationType",
                  "type": "uint8"
                },
                {
                  "internalType": "uint32",
                  "name": "delayTimestamp",
                  "type": "uint32"
                },
                {
                  "internalType": "uint32",
                  "name": "delayBlockNumber",
                  "type": "uint32"
                },
                {
                  "internalType": "uint64",
                  "name": "handlerCount",
                  "type": "uint64"
                },
                {
                  "internalType": "address[]",
                  "name": "handlerList",
                  "type": "address[]"
                },
                {
                  "internalType": "bytes[]",
                  "name": "handlerArgsList",
                  "type": "bytes[]"
                },
                {
                  "internalType": "address",
                  "name": "snippet",
                  "type": "address"
                }
              ],
              "internalType": "struct Rule.Rule[]",
              "name": "ruleList",
              "type": "tuple[]"
            },
            {
              "components": [
                {
                  "internalType": "uint32",
                  "name": "attrId",
                  "type": "uint32"
                },
                {
                  "internalType": "string",
                  "name": "name",
                  "type": "string"
                },
                {
                  "internalType": "string",
                  "name": "symbol",
                  "type": "string"
                },
                {
                  "internalType": "string",
                  "name": "uri",
                  "type": "string"
                },
                {
                  "internalType": "uint8",
                  "name": "level",
                  "type": "uint8"
                }
              ],
              "internalType": "struct Attribute.Attribute[]",
              "name": "attrList",
              "type": "tuple[]"
            },
            {
              "internalType": "uint8[]",
              "name": "attrStateList",
              "type": "uint8[]"
            },
            {
              "internalType": "address[]",
              "name": "deployerList",
              "type": "address[]"
            },
            {
              "internalType": "address[]",
              "name": "adminList",
              "type": "address[]"
            },
            {
              "internalType": "uint32",
              "name": "delayTimestamp",
              "type": "uint32"
            },
            {
              "internalType": "uint32",
              "name": "delayBlockNumber",
              "type": "uint32"
            },
            {
              "internalType": "uint8",
              "name": "state",
              "type": "uint8"
            },
            {
              "internalType": "string",
              "name": "description",
              "type": "string"
            }
          ],
          "internalType": "struct Cluster.Cluster",
          "name": "cluster",
          "type": "tuple"
        }
      ],
      "name": "addRule",
      "outputs": [],
      "stateMutability": "payable",
      "type": "function"
    },
    {
      "inputs": [],
      "name": "clusterAttributeArea",
      "outputs": [
        {
          "internalType": "address",
          "name": "",
          "type": "address"
        }
      ],
      "stateMutability": "view",
      "type": "function"
    },
    {
      "inputs": [],
      "name": "clusterAttributeAreaToken",
      "outputs": [
        {
          "internalType": "address",
          "name": "",
          "type": "address"
        }
      ],
      "stateMutability": "view",
      "type": "function"
    },
    {
      "inputs": [
        {
          "internalType": "uint32",
          "name": "",
          "type": "uint32"
        }
      ],
      "name": "clusterDescription",
      "outputs": [
        {
          "internalType": "string",
          "name": "",
          "type": "string"
        }
      ],
      "stateMutability": "view",
      "type": "function"
    },
    {
      "inputs": [],
      "name": "clusterMountingArea",
      "outputs": [
        {
          "internalType": "address",
          "name": "",
          "type": "address"
        }
      ],
      "stateMutability": "view",
      "type": "function"
    },
    {
      "inputs": [
        {
          "internalType": "uint32",
          "name": "",
          "type": "uint32"
        }
      ],
      "name": "clusterRegBlockNumber",
      "outputs": [
        {
          "internalType": "uint32",
          "name": "",
          "type": "uint32"
        }
      ],
      "stateMutability": "view",
      "type": "function"
    },
    {
      "inputs": [
        {
          "internalType": "uint32",
          "name": "",
          "type": "uint32"
        }
      ],
      "name": "clusterRegTimestamp",
      "outputs": [
        {
          "internalType": "uint32",
          "name": "",
          "type": "uint32"
        }
      ],
      "stateMutability": "view",
      "type": "function"
    },
    {
      "inputs": [],
      "name": "clusterRuleArea",
      "outputs": [
        {
          "internalType": "address",
          "name": "",
          "type": "address"
        }
      ],
      "stateMutability": "view",
      "type": "function"
    },
    {
      "inputs": [],
      "name": "clusterRuleAreaHandler",
      "outputs": [
        {
          "internalType": "address",
          "name": "",
          "type": "address"
        }
      ],
      "stateMutability": "view",
      "type": "function"
    },
    {
      "inputs": [
        {
          "internalType": "uint32",
          "name": "",
          "type": "uint32"
        }
      ],
      "name": "clusterRuleDelayBlockNumber",
      "outputs": [
        {
          "internalType": "uint32",
          "name": "",
          "type": "uint32"
        }
      ],
      "stateMutability": "view",
      "type": "function"
    },
    {
      "inputs": [
        {
          "internalType": "uint32",
          "name": "",
          "type": "uint32"
        }
      ],
      "name": "clusterRuleDelayTimestamp",
      "outputs": [
        {
          "internalType": "uint32",
          "name": "",
          "type": "uint32"
        }
      ],
      "stateMutability": "view",
      "type": "function"
    },
    {
      "inputs": [
        {
          "internalType": "uint32",
          "name": "",
          "type": "uint32"
        }
      ],
      "name": "clusterState",
      "outputs": [
        {
          "internalType": "uint8",
          "name": "",
          "type": "uint8"
        }
      ],
      "stateMutability": "view",
      "type": "function"
    },
    {
      "inputs": [],
      "name": "cname",
      "outputs": [
        {
          "internalType": "string",
          "name": "",
          "type": "string"
        }
      ],
      "stateMutability": "pure",
      "type": "function"
    },
    {
      "inputs": [],
      "name": "engine",
      "outputs": [
        {
          "internalType": "address",
          "name": "",
          "type": "address"
        }
      ],
      "stateMutability": "view",
      "type": "function"
    },
    {
      "inputs": [
        {
          "internalType": "uint32",
          "name": "clusterId",
          "type": "uint32"
        }
      ],
      "name": "getAdminList",
      "outputs": [
        {
          "internalType": "address[]",
          "name": "",
          "type": "address[]"
        }
      ],
      "stateMutability": "view",
      "type": "function"
    },
    {
      "inputs": [],
      "name": "getClusterAttributeArea",
      "outputs": [
        {
          "internalType": "address",
          "name": "",
          "type": "address"
        }
      ],
      "stateMutability": "view",
      "type": "function"
    },
    {
      "inputs": [],
      "name": "getClusterAttributeAreaToken",
      "outputs": [
        {
          "internalType": "address",
          "name": "",
          "type": "address"
        }
      ],
      "stateMutability": "view",
      "type": "function"
    },
    {
      "inputs": [],
      "name": "getClusterMountingArea",
      "outputs": [
        {
          "internalType": "address",
          "name": "",
          "type": "address"
        }
      ],
      "stateMutability": "view",
      "type": "function"
    },
    {
      "inputs": [
        {
          "internalType": "uint32",
          "name": "clusterId",
          "type": "uint32"
        },
        {
          "internalType": "uint8",
          "name": "role",
          "type": "uint8"
        }
      ],
      "name": "getClusterRoleHash",
      "outputs": [
        {
          "internalType": "bytes32",
          "name": "",
          "type": "bytes32"
        }
      ],
      "stateMutability": "view",
      "type": "function"
    },
    {
      "inputs": [],
      "name": "getClusterRuleArea",
      "outputs": [
        {
          "internalType": "address",
          "name": "",
          "type": "address"
        }
      ],
      "stateMutability": "view",
      "type": "function"
    },
    {
      "inputs": [],
      "name": "getClusterRuleAreaHandler",
      "outputs": [
        {
          "internalType": "address",
          "name": "",
          "type": "address"
        }
      ],
      "stateMutability": "view",
      "type": "function"
    },
    {
      "inputs": [
        {
          "internalType": "uint32",
          "name": "clusterId",
          "type": "uint32"
        }
      ],
      "name": "getClusterState",
      "outputs": [
        {
          "internalType": "uint8",
          "name": "",
          "type": "uint8"
        }
      ],
      "stateMutability": "view",
      "type": "function"
    },
    {
      "inputs": [],
      "name": "getCurrentClusterId",
      "outputs": [
        {
          "internalType": "uint256",
          "name": "",
          "type": "uint256"
        }
      ],
      "stateMutability": "view",
      "type": "function"
    },
    {
      "inputs": [
        {
          "internalType": "uint32",
          "name": "clusterId",
          "type": "uint32"
        }
      ],
      "name": "getDelayBlockNumber",
      "outputs": [
        {
          "internalType": "uint32",
          "name": "",
          "type": "uint32"
        }
      ],
      "stateMutability": "view",
      "type": "function"
    },
    {
      "inputs": [
        {
          "internalType": "uint32",
          "name": "clusterId",
          "type": "uint32"
        }
      ],
      "name": "getDelayTimestamp",
      "outputs": [
        {
          "internalType": "uint32",
          "name": "",
          "type": "uint32"
        }
      ],
      "stateMutability": "view",
      "type": "function"
    },
    {
      "inputs": [
        {
          "internalType": "uint32",
          "name": "clusterId",
          "type": "uint32"
        }
      ],
      "name": "getDeployerList",
      "outputs": [
        {
          "internalType": "address[]",
          "name": "",
          "type": "address[]"
        }
      ],
      "stateMutability": "view",
      "type": "function"
    },
    {
      "inputs": [
        {
          "internalType": "uint32",
          "name": "clusterId",
          "type": "uint32"
        }
      ],
      "name": "getDescription",
      "outputs": [
        {
          "internalType": "string",
          "name": "",
          "type": "string"
        }
      ],
      "stateMutability": "view",
      "type": "function"
    },
    {
      "inputs": [],
      "name": "getEngine",
      "outputs": [
        {
          "internalType": "address",
          "name": "",
          "type": "address"
        }
      ],
      "stateMutability": "view",
      "type": "function"
    },
    {
      "inputs": [
        {
          "internalType": "uint32",
          "name": "clusterId",
          "type": "uint32"
        },
        {
          "internalType": "uint16",
          "name": "ruleSlotIndexInput",
          "type": "uint16"
        },
        {
          "internalType": "uint16",
          "name": "ruleSlotIndexOutput",
          "type": "uint16"
        }
      ],
      "name": "getPostGroupSlotForEngine",
      "outputs": [
        {
          "components": [
            {
              "internalType": "address[]",
              "name": "postHandlerList",
              "type": "address[]"
            }
          ],
          "internalType": "struct IClusterArea.PostForEngine",
          "name": "",
          "type": "tuple"
        }
      ],
      "stateMutability": "nonpayable",
      "type": "function"
    },
    {
      "inputs": [
        {
          "internalType": "uint32",
          "name": "clusterId",
          "type": "uint32"
        },
        {
          "internalType": "uint16",
          "name": "ruleSlotIndexInput",
          "type": "uint16"
        },
        {
          "internalType": "uint16",
          "name": "ruleSlotIndexOutput",
          "type": "uint16"
        },
        {
          "internalType": "uint8",
          "name": "branch",
          "type": "uint8"
        }
      ],
      "name": "getPreGroupSlotForEngine",
      "outputs": [
        {
          "components": [
            {
              "internalType": "bool",
              "name": "foundGroupSlot",
              "type": "bool"
            },
            {
              "components": [
                {
                  "components": [
                    {
                      "components": [
                        {
                          "internalType": "uint8",
                          "name": "erc",
                          "type": "uint8"
                        },
                        {
                          "internalType": "address",
                          "name": "token",
                          "type": "address"
                        },
                        {
                          "internalType": "uint256[]",
                          "name": "valueList",
                          "type": "uint256[]"
                        }
                      ],
                      "internalType": "struct Token.TokenTemplate",
                      "name": "tokenTemplate",
                      "type": "tuple"
                    },
                    {
                      "internalType": "uint8",
                      "name": "rule",
                      "type": "uint8"
                    },
                    {
                      "internalType": "address[]",
                      "name": "ioAddressList",
                      "type": "address[]"
                    },
                    {
                      "internalType": "uint256[]",
                      "name": "valueList",
                      "type": "uint256[]"
                    }
                  ],
                  "internalType": "struct Rule.TokenSlot[]",
                  "name": "tokenSlotList",
                  "type": "tuple[]"
                },
                {
                  "internalType": "uint8",
                  "name": "branch",
                  "type": "uint8"
                },
                {
                  "internalType": "address",
                  "name": "poolToken",
                  "type": "address"
                },
                {
                  "internalType": "address[]",
                  "name": "handlerList",
                  "type": "address[]"
                },
                {
                  "internalType": "bytes[]",
                  "name": "argsList",
                  "type": "bytes[]"
                }
              ],
              "internalType": "struct Rule.GroupSlot",
              "name": "groupSlot",
              "type": "tuple"
            },
            {
              "internalType": "address",
              "name": "snippet",
              "type": "address"
            },
            {
              "internalType": "address[]",
              "name": "preHandlerList",
              "type": "address[]"
            },
            {
              "internalType": "uint8",
              "name": "ruleDurationType",
              "type": "uint8"
            },
            {
              "internalType": "uint32",
              "name": "ruleDelayTimestamp",
              "type": "uint32"
            },
            {
              "internalType": "uint32",
              "name": "ruleDelayBlockNumber",
              "type": "uint32"
            },
            {
              "internalType": "uint32",
              "name": "delayTimestamp",
              "type": "uint32"
            },
            {
              "internalType": "uint32",
              "name": "delayBlockNumber",
              "type": "uint32"
            }
          ],
          "internalType": "struct IClusterArea.PreForEngine",
          "name": "preForEngine",
          "type": "tuple"
        }
      ],
      "stateMutability": "nonpayable",
      "type": "function"
    },
    {
      "inputs": [
        {
          "internalType": "uint32",
          "name": "clusterId",
          "type": "uint32"
        },
        {
          "internalType": "uint16",
          "name": "ruleSlotIndexInput",
          "type": "uint16"
        },
        {
          "internalType": "uint16",
          "name": "ruleSlotIndexOutput",
          "type": "uint16"
        }
      ],
      "name": "getProcessGroupSlotForEngine",
      "outputs": [
        {
          "components": [
            {
              "internalType": "address[]",
              "name": "processHandlerList",
              "type": "address[]"
            }
          ],
          "internalType": "struct IClusterArea.ProcessForEngine",
          "name": "",
          "type": "tuple"
        }
      ],
      "stateMutability": "nonpayable",
      "type": "function"
    },
    {
      "inputs": [
        {
          "internalType": "bytes32",
          "name": "role",
          "type": "bytes32"
        }
      ],
      "name": "getRoleAdmin",
      "outputs": [
        {
          "internalType": "bytes32",
          "name": "",
          "type": "bytes32"
        }
      ],
      "stateMutability": "view",
      "type": "function"
    },
    {
      "inputs": [
        {
          "internalType": "bytes32",
          "name": "role",
          "type": "bytes32"
        },
        {
          "internalType": "uint256",
          "name": "index",
          "type": "uint256"
        }
      ],
      "name": "getRoleMember",
      "outputs": [
        {
          "internalType": "address",
          "name": "",
          "type": "address"
        }
      ],
      "stateMutability": "view",
      "type": "function"
    },
    {
      "inputs": [
        {
          "internalType": "bytes32",
          "name": "role",
          "type": "bytes32"
        }
      ],
      "name": "getRoleMemberCount",
      "outputs": [
        {
          "internalType": "uint256",
          "name": "",
          "type": "uint256"
        }
      ],
      "stateMutability": "view",
      "type": "function"
    },
    {
      "inputs": [
        {
          "internalType": "bytes32",
          "name": "role",
          "type": "bytes32"
        },
        {
          "internalType": "address",
          "name": "account",
          "type": "address"
        }
      ],
      "name": "grantRole",
      "outputs": [],
      "stateMutability": "nonpayable",
      "type": "function"
    },
    {
      "inputs": [
        {
          "internalType": "uint32",
          "name": "clusterId",
          "type": "uint32"
        },
        {
          "internalType": "uint8",
          "name": "role",
          "type": "uint8"
        },
        {
          "internalType": "address",
          "name": "account",
          "type": "address"
        }
      ],
      "name": "grantRole",
      "outputs": [],
      "stateMutability": "nonpayable",
      "type": "function"
    },
    {
      "inputs": [
        {
          "internalType": "bytes32",
          "name": "role",
          "type": "bytes32"
        },
        {
          "internalType": "address",
          "name": "account",
          "type": "address"
        }
      ],
      "name": "hasRole",
      "outputs": [
        {
          "internalType": "bool",
          "name": "",
          "type": "bool"
        }
      ],
      "stateMutability": "view",
      "type": "function"
    },
    {
      "inputs": [
        {
          "internalType": "uint32",
          "name": "clusterId",
          "type": "uint32"
        },
        {
          "internalType": "uint8",
          "name": "role",
          "type": "uint8"
        },
        {
          "internalType": "address",
          "name": "account",
          "type": "address"
        }
      ],
      "name": "haveRole",
      "outputs": [
        {
          "internalType": "bool",
          "name": "",
          "type": "bool"
        }
      ],
      "stateMutability": "view",
      "type": "function"
    },
    {
      "inputs": [
        {
          "internalType": "address",
          "name": "poolContract_",
          "type": "address"
        },
        {
          "internalType": "address",
          "name": "engine_",
          "type": "address"
        },
        {
          "internalType": "address",
          "name": "poolFee_",
          "type": "address"
        },
        {
          "internalType": "address",
          "name": "clusterRuleArea_",
          "type": "address"
        },
        {
          "internalType": "address",
          "name": "clusterRuleAreaHandler_",
          "type": "address"
        },
        {
          "internalType": "address",
          "name": "clusterAttributeArea_",
          "type": "address"
        },
        {
          "internalType": "address",
          "name": "clusterAttributeAreaToken_",
          "type": "address"
        },
        {
          "internalType": "address",
          "name": "clusterMountingArea_",
          "type": "address"
        }
      ],
      "name": "initialize",
      "outputs": [],
      "stateMutability": "nonpayable",
      "type": "function"
    },
    {
      "inputs": [],
      "name": "owner",
      "outputs": [
        {
          "internalType": "address",
          "name": "",
          "type": "address"
        }
      ],
      "stateMutability": "view",
      "type": "function"
    },
    {
      "inputs": [
        {
          "internalType": "uint8",
          "name": "channel",
          "type": "uint8"
        },
        {
          "internalType": "bool",
          "name": "_paused",
          "type": "bool"
        }
      ],
      "name": "pause",
      "outputs": [],
      "stateMutability": "nonpayable",
      "type": "function"
    },
    {
      "inputs": [
        {
          "internalType": "uint8",
          "name": "channel",
          "type": "uint8"
        }
      ],
      "name": "paused",
      "outputs": [
        {
          "internalType": "bool",
          "name": "",
          "type": "bool"
        }
      ],
      "stateMutability": "view",
      "type": "function"
    },
    {
      "inputs": [],
      "name": "poolContract",
      "outputs": [
        {
          "internalType": "address",
          "name": "",
          "type": "address"
        }
      ],
      "stateMutability": "view",
      "type": "function"
    },
    {
      "inputs": [],
      "name": "poolFee",
      "outputs": [
        {
          "internalType": "address",
          "name": "",
          "type": "address"
        }
      ],
      "stateMutability": "view",
      "type": "function"
    },
    {
      "inputs": [
        {
          "components": [
            {
              "components": [
                {
                  "components": [
                    {
                      "components": [
                        {
                          "internalType": "uint8",
                          "name": "erc",
                          "type": "uint8"
                        },
                        {
                          "internalType": "address",
                          "name": "token",
                          "type": "address"
                        },
                        {
                          "internalType": "uint256[]",
                          "name": "valueList",
                          "type": "uint256[]"
                        }
                      ],
                      "internalType": "struct Token.TokenTemplate",
                      "name": "tokenTemplate",
                      "type": "tuple"
                    },
                    {
                      "internalType": "uint8",
                      "name": "rule",
                      "type": "uint8"
                    },
                    {
                      "internalType": "address[]",
                      "name": "ioAddressList",
                      "type": "address[]"
                    },
                    {
                      "internalType": "uint256[]",
                      "name": "valueList",
                      "type": "uint256[]"
                    }
                  ],
                  "internalType": "struct Rule.TokenSlot[]",
                  "name": "tokenSlotList",
                  "type": "tuple[]"
                },
                {
                  "internalType": "uint8",
                  "name": "branch",
                  "type": "uint8"
                },
                {
                  "internalType": "address",
                  "name": "poolToken",
                  "type": "address"
                },
                {
                  "internalType": "address[]",
                  "name": "handlerList",
                  "type": "address[]"
                },
                {
                  "internalType": "bytes[]",
                  "name": "argsList",
                  "type": "bytes[]"
                }
              ],
              "internalType": "struct Rule.GroupSlot[]",
              "name": "groupSlotList",
              "type": "tuple[]"
            },
            {
              "internalType": "uint8[]",
              "name": "ruleSlotBound",
              "type": "uint8[]"
            },
            {
              "components": [
                {
                  "internalType": "uint16",
                  "name": "ruleSlotIndexInput",
                  "type": "uint16"
                },
                {
                  "internalType": "uint16",
                  "name": "ruleSlotIndexOutput",
                  "type": "uint16"
                },
                {
                  "internalType": "uint8",
                  "name": "state",
                  "type": "uint8"
                },
                {
                  "internalType": "uint32",
                  "name": "totalCount",
                  "type": "uint32"
                },
                {
                  "internalType": "uint8",
                  "name": "durationType",
                  "type": "uint8"
                },
                {
                  "internalType": "uint32",
                  "name": "delayTimestamp",
                  "type": "uint32"
                },
                {
                  "internalType": "uint32",
                  "name": "delayBlockNumber",
                  "type": "uint32"
                },
                {
                  "internalType": "uint64",
                  "name": "handlerCount",
                  "type": "uint64"
                },
                {
                  "internalType": "address[]",
                  "name": "handlerList",
                  "type": "address[]"
                },
                {
                  "internalType": "bytes[]",
                  "name": "handlerArgsList",
                  "type": "bytes[]"
                },
                {
                  "internalType": "address",
                  "name": "snippet",
                  "type": "address"
                }
              ],
              "internalType": "struct Rule.Rule[]",
              "name": "ruleList",
              "type": "tuple[]"
            },
            {
              "components": [
                {
                  "internalType": "uint32",
                  "name": "attrId",
                  "type": "uint32"
                },
                {
                  "internalType": "string",
                  "name": "name",
                  "type": "string"
                },
                {
                  "internalType": "string",
                  "name": "symbol",
                  "type": "string"
                },
                {
                  "internalType": "string",
                  "name": "uri",
                  "type": "string"
                },
                {
                  "internalType": "uint8",
                  "name": "level",
                  "type": "uint8"
                }
              ],
              "internalType": "struct Attribute.Attribute[]",
              "name": "attrList",
              "type": "tuple[]"
            },
            {
              "internalType": "uint8[]",
              "name": "attrStateList",
              "type": "uint8[]"
            },
            {
              "internalType": "address[]",
              "name": "deployerList",
              "type": "address[]"
            },
            {
              "internalType": "address[]",
              "name": "adminList",
              "type": "address[]"
            },
            {
              "internalType": "uint32",
              "name": "delayTimestamp",
              "type": "uint32"
            },
            {
              "internalType": "uint32",
              "name": "delayBlockNumber",
              "type": "uint32"
            },
            {
              "internalType": "uint8",
              "name": "state",
              "type": "uint8"
            },
            {
              "internalType": "string",
              "name": "description",
              "type": "string"
            }
          ],
          "internalType": "struct Cluster.Cluster",
          "name": "cluster",
          "type": "tuple"
        }
      ],
      "name": "regCluster",
      "outputs": [],
      "stateMutability": "payable",
      "type": "function"
    },
    {
      "inputs": [
        {
          "components": [
            {
              "components": [
                {
                  "components": [
                    {
                      "components": [
                        {
                          "internalType": "uint8",
                          "name": "erc",
                          "type": "uint8"
                        },
                        {
                          "internalType": "address",
                          "name": "token",
                          "type": "address"
                        },
                        {
                          "internalType": "uint256[]",
                          "name": "valueList",
                          "type": "uint256[]"
                        }
                      ],
                      "internalType": "struct Token.TokenTemplate",
                      "name": "tokenTemplate",
                      "type": "tuple"
                    },
                    {
                      "internalType": "uint8",
                      "name": "rule",
                      "type": "uint8"
                    },
                    {
                      "internalType": "address[]",
                      "name": "ioAddressList",
                      "type": "address[]"
                    },
                    {
                      "internalType": "uint256[]",
                      "name": "valueList",
                      "type": "uint256[]"
                    }
                  ],
                  "internalType": "struct Rule.TokenSlot[]",
                  "name": "tokenSlotList",
                  "type": "tuple[]"
                },
                {
                  "internalType": "uint8",
                  "name": "branch",
                  "type": "uint8"
                },
                {
                  "internalType": "address",
                  "name": "poolToken",
                  "type": "address"
                },
                {
                  "internalType": "address[]",
                  "name": "handlerList",
                  "type": "address[]"
                },
                {
                  "internalType": "bytes[]",
                  "name": "argsList",
                  "type": "bytes[]"
                }
              ],
              "internalType": "struct Rule.GroupSlot[]",
              "name": "groupSlotList",
              "type": "tuple[]"
            },
            {
              "internalType": "uint8[]",
              "name": "ruleSlotBound",
              "type": "uint8[]"
            },
            {
              "components": [
                {
                  "internalType": "uint16",
                  "name": "ruleSlotIndexInput",
                  "type": "uint16"
                },
                {
                  "internalType": "uint16",
                  "name": "ruleSlotIndexOutput",
                  "type": "uint16"
                },
                {
                  "internalType": "uint8",
                  "name": "state",
                  "type": "uint8"
                },
                {
                  "internalType": "uint32",
                  "name": "totalCount",
                  "type": "uint32"
                },
                {
                  "internalType": "uint8",
                  "name": "durationType",
                  "type": "uint8"
                },
                {
                  "internalType": "uint32",
                  "name": "delayTimestamp",
                  "type": "uint32"
                },
                {
                  "internalType": "uint32",
                  "name": "delayBlockNumber",
                  "type": "uint32"
                },
                {
                  "internalType": "uint64",
                  "name": "handlerCount",
                  "type": "uint64"
                },
                {
                  "internalType": "address[]",
                  "name": "handlerList",
                  "type": "address[]"
                },
                {
                  "internalType": "bytes[]",
                  "name": "handlerArgsList",
                  "type": "bytes[]"
                },
                {
                  "internalType": "address",
                  "name": "snippet",
                  "type": "address"
                }
              ],
              "internalType": "struct Rule.Rule[]",
              "name": "ruleList",
              "type": "tuple[]"
            },
            {
              "components": [
                {
                  "internalType": "uint32",
                  "name": "attrId",
                  "type": "uint32"
                },
                {
                  "internalType": "string",
                  "name": "name",
                  "type": "string"
                },
                {
                  "internalType": "string",
                  "name": "symbol",
                  "type": "string"
                },
                {
                  "internalType": "string",
                  "name": "uri",
                  "type": "string"
                },
                {
                  "internalType": "uint8",
                  "name": "level",
                  "type": "uint8"
                }
              ],
              "internalType": "struct Attribute.Attribute[]",
              "name": "attrList",
              "type": "tuple[]"
            },
            {
              "internalType": "uint8[]",
              "name": "attrStateList",
              "type": "uint8[]"
            },
            {
              "internalType": "address[]",
              "name": "deployerList",
              "type": "address[]"
            },
            {
              "internalType": "address[]",
              "name": "adminList",
              "type": "address[]"
            },
            {
              "internalType": "uint32",
              "name": "delayTimestamp",
              "type": "uint32"
            },
            {
              "internalType": "uint32",
              "name": "delayBlockNumber",
              "type": "uint32"
            },
            {
              "internalType": "uint8",
              "name": "state",
              "type": "uint8"
            },
            {
              "internalType": "string",
              "name": "description",
              "type": "string"
            }
          ],
          "internalType": "struct Cluster.Cluster",
          "name": "cluster",
          "type": "tuple"
        }
      ],
      "name": "regRule",
      "outputs": [],
      "stateMutability": "payable",
      "type": "function"
    },
    {
      "inputs": [],
      "name": "renounceOwnership",
      "outputs": [],
      "stateMutability": "nonpayable",
      "type": "function"
    },
    {
      "inputs": [
        {
          "internalType": "bytes32",
          "name": "role",
          "type": "bytes32"
        },
        {
          "internalType": "address",
          "name": "account",
          "type": "address"
        }
      ],
      "name": "renounceRole",
      "outputs": [],
      "stateMutability": "nonpayable",
      "type": "function"
    },
    {
      "inputs": [
        {
          "internalType": "uint32",
          "name": "clusterId",
          "type": "uint32"
        },
        {
          "internalType": "uint8",
          "name": "role",
          "type": "uint8"
        },
        {
          "internalType": "address",
          "name": "account",
          "type": "address"
        }
      ],
      "name": "renounceRole",
      "outputs": [],
      "stateMutability": "nonpayable",
      "type": "function"
    },
    {
      "inputs": [
        {
          "internalType": "uint32",
          "name": "clusterId",
          "type": "uint32"
        },
        {
          "internalType": "uint8",
          "name": "role",
          "type": "uint8"
        },
        {
          "internalType": "address",
          "name": "account",
          "type": "address"
        }
      ],
      "name": "revokeRole",
      "outputs": [],
      "stateMutability": "nonpayable",
      "type": "function"
    },
    {
      "inputs": [
        {
          "internalType": "bytes32",
          "name": "role",
          "type": "bytes32"
        },
        {
          "internalType": "address",
          "name": "account",
          "type": "address"
        }
      ],
      "name": "revokeRole",
      "outputs": [],
      "stateMutability": "nonpayable",
      "type": "function"
    },
    {
      "inputs": [
        {
          "internalType": "address",
          "name": "clusterAttributeArea_",
          "type": "address"
        }
      ],
      "name": "setClusterAttributeArea",
      "outputs": [],
      "stateMutability": "nonpayable",
      "type": "function"
    },
    {
      "inputs": [
        {
          "internalType": "address",
          "name": "clusterRuleArea_",
          "type": "address"
        }
      ],
      "name": "setClusterRuleArea",
      "outputs": [],
      "stateMutability": "nonpayable",
      "type": "function"
    },
    {
      "inputs": [
        {
          "internalType": "address",
          "name": "clusterRuleAreaHandler_",
          "type": "address"
        }
      ],
      "name": "setClusterRuleAreaHandler",
      "outputs": [],
      "stateMutability": "nonpayable",
      "type": "function"
    },
    {
      "inputs": [
        {
          "internalType": "uint32",
          "name": "clusterId",
          "type": "uint32"
        },
        {
          "internalType": "uint8",
          "name": "state",
          "type": "uint8"
        }
      ],
      "name": "setClusterState",
      "outputs": [],
      "stateMutability": "nonpayable",
      "type": "function"
    },
    {
      "inputs": [
        {
          "internalType": "address",
          "name": "engine_",
          "type": "address"
        }
      ],
      "name": "setEngine",
      "outputs": [],
      "stateMutability": "nonpayable",
      "type": "function"
    },
    {
      "inputs": [
        {
          "internalType": "address",
          "name": "poolContract_",
          "type": "address"
        }
      ],
      "name": "setPoolContract",
      "outputs": [],
      "stateMutability": "nonpayable",
      "type": "function"
    },
    {
      "inputs": [
        {
          "internalType": "address",
          "name": "poolFee_",
          "type": "address"
        }
      ],
      "name": "setPoolFee",
      "outputs": [],
      "stateMutability": "nonpayable",
      "type": "function"
    },
    {
      "inputs": [
        {
          "internalType": "bytes4",
          "name": "interfaceId",
          "type": "bytes4"
        }
      ],
      "name": "supportsInterface",
      "outputs": [
        {
          "internalType": "bool",
          "name": "",
          "type": "bool"
        }
      ],
      "stateMutability": "view",
      "type": "function"
    },
    {
      "inputs": [
        {
          "internalType": "address",
          "name": "newOwner",
          "type": "address"
        }
      ],
      "name": "transferOwnership",
      "outputs": [],
      "stateMutability": "nonpayable",
      "type": "function"
    },
    {
      "inputs": [
        {
          "internalType": "uint32",
          "name": "clusterId",
          "type": "uint32"
        },
        {
          "internalType": "uint16",
          "name": "ruleSlotIndex",
          "type": "uint16"
        },
        {
          "internalType": "uint8",
          "name": "branch",
          "type": "uint8"
        },
        {
          "internalType": "uint8",
          "name": "tokenSlotIndex",
          "type": "uint8"
        },
        {
          "components": [
            {
              "internalType": "uint256",
              "name": "id",
              "type": "uint256"
            },
            {
              "internalType": "uint256",
              "name": "amount",
              "type": "uint256"
            },
            {
              "internalType": "uint256",
              "name": "idIndex",
              "type": "uint256"
            }
          ],
          "internalType": "struct Token.TokenHandler",
          "name": "tokenHandler",
          "type": "tuple"
        }
      ],
      "name": "updateGroupSlotTokenHandler",
      "outputs": [
        {
          "internalType": "bool",
          "name": "",
          "type": "bool"
        }
      ],
      "stateMutability": "nonpayable",
      "type": "function"
    },
    {
      "inputs": [],
      "name": "version",
      "outputs": [
        {
          "internalType": "uint256",
          "name": "",
          "type": "uint256"
        }
      ],
      "stateMutability": "pure",
      "type": "function"
    },
    {
      "stateMutability": "payable",
      "type": "receive"
    }
  ],
  "bytecode": "0x608060405234801561001057600080fd5b506153b1806100206000396000f3fe60806040526004361061032c5760003560e01c80637339ad99116101b2578063c7d6bff1116100ed578063ee625d7c11610090578063ee625d7c14610b72578063ef65d9f214610ba6578063f1a12e6614610bc5578063f2881d1314610be5578063f2fde38b14610c05578063f598d06914610c25578063fe3ee16914610c46578063fe8c4aa314610c6657600080fd5b8063c7d6bff114610a50578063c983351214610a7d578063c9d4623f14610a9d578063ca15c87314610abe578063cbe5515914610ade578063d3b7b3b714610afe578063d547741f14610b32578063dceacb0e14610b5257600080fd5b80639010d07c116101555780639010d07c1461097357806391d148541461099357806393b441dc146109b3578063a217fddf146109d2578063a3f5a033146109e7578063b18c9b3314610a07578063ba14157914610a1c578063c3e9022714610a2f57600080fd5b80637339ad991461084c57806384fedbc11461086c57806386b9f1d81461089d57806387ad2d50146108bd57806388d52ef7146108dd5780638a29e2de146108fe5780638da5cb5b1461091e5780638e9ddacb1461093c57600080fd5b806336568abe1161028257806355b51b9e1161022557806355b51b9e1461075757806357f5ff281461076a57806359c3f3e01461078a5780635ac86ab7146107aa5780635e2ad7cf146107ca5780635ec0fd9c146107f75780635fc1bed014610817578063715018a61461083757600080fd5b806336568abe1461062f5780633ae08c651461064f5780633c9e6a15146106985780633ce03640146106b8578063496752b5146106d85780634f62bd0d146106eb57806353eb7e1b1461072257806354fd4d501461074357600080fd5b806301ffc9a71461039f57806305957706146103d4578063061d30d314610407578063089fe6aa146104285780630e830e49146104495780631424e30c1461046b57806320dcce021461048a578063223f8f06146104d3578063248a9ca3146104f4578063280d7451146105325780632f2ff15d1461055157806331a158b31461057157806334c76b25146105a557806335083f4d146105e25780633546933a1461060f57600080fd5b3661039a576103606040518060400160405280600d81526020016c2d2d2d2d72656365697665282960981b81525034610c85565b604080513381523460208201527fd6717f327e0cb88b4a97a7f67a453e9258252c34937ccbdd86de7cb840e7def3910160405180910390a1005b600080fd5b3480156103ab57600080fd5b506103bf6103ba3660046133ff565b610cce565b60405190151581526020015b60405180910390f35b3480156103e057600080fd5b50610130546001600160a01b03165b6040516001600160a01b0390911681526020016103cb565b34801561041357600080fd5b50610136546103ef906001600160a01b031681565b34801561043457600080fd5b50610131546103ef906001600160a01b031681565b34801561045557600080fd5b5061046961046436600461344e565b610cf9565b005b34801561047757600080fd5b50610132546001600160a01b03166103ef565b34801561049657600080fd5b506104be6104a5366004613488565b61013a6020526000908152604090205463ffffffff1681565b60405163ffffffff90911681526020016103cb565b3480156104df57600080fd5b50610134546103ef906001600160a01b031681565b34801561050057600080fd5b5061052461050f3660046134a5565b600090815260c9602052604090206001015490565b6040519081526020016103cb565b34801561053e57600080fd5b50610134546001600160a01b03166103ef565b34801561055d57600080fd5b5061046961056c3660046134be565b610d24565b34801561057d57600080fd5b506104be61058c366004613488565b61013c6020526000908152604090205463ffffffff1681565b3480156105b157600080fd5b5060408051808201909152600b81526a436c75737465724172656160a81b60208201525b6040516103cb9190613546565b3480156105ee57600080fd5b506106026105fd366004613488565b610d4e565b6040516103cb9190613559565b34801561061b57600080fd5b5061046961062a36600461344e565b610e0a565b34801561063b57600080fd5b5061046961064a3660046134be565b610e35565b34801561065b57600080fd5b5061068661066a366004613488565b63ffffffff166000908152610137602052604090205460ff1690565b60405160ff90911681526020016103cb565b3480156106a457600080fd5b506104696106b33660046135c0565b610eb4565b3480156106c457600080fd5b506105d56106d3366004613488565b610f3d565b6104696106e636600461403e565b610fd8565b3480156106f757600080fd5b506104be610706366004613488565b63ffffffff908116600090815261013b60205260409020541690565b34801561072e57600080fd5b50610132546103ef906001600160a01b031681565b34801561074f57600080fd5b506001610524565b61046961076536600461408d565b6112b2565b34801561077657600080fd5b5061046961078536600461344e565b6116ac565b34801561079657600080fd5b506104696107a536600461344e565b6116d7565b3480156107b657600080fd5b506103bf6107c53660046140c1565b611702565b3480156107d657600080fd5b506107ea6107e53660046140de565b61171a565b6040516103cb919061432c565b34801561080357600080fd5b506104696108123660046135c0565b611c50565b34801561082357600080fd5b5061046961083236600461344e565b611c8d565b34801561084357600080fd5b50610469611cb8565b34801561085857600080fd5b506103bf6108673660046143f8565b611ccc565b34801561087857600080fd5b50610686610887366004613488565b6101376020526000908152604090205460ff1681565b3480156108a957600080fd5b506105d56108b8366004613488565b611e44565b3480156108c957600080fd5b506104696108d83660046135c0565b611eee565b3480156108e957600080fd5b5061012f546103ef906001600160a01b031681565b34801561090a57600080fd5b506104696109193660046144af565b611f24565b34801561092a57600080fd5b506033546001600160a01b03166103ef565b34801561094857600080fd5b506104be610957366004613488565b63ffffffff908116600090815261013c60205260409020541690565b34801561097f57600080fd5b506103ef61098e366004614558565b6120ce565b34801561099f57600080fd5b506103bf6109ae3660046134be565b6120ed565b3480156109bf57600080fd5b50610135546001600160a01b03166103ef565b3480156109de57600080fd5b50610524600081565b3480156109f357600080fd5b50610602610a02366004613488565b612118565b348015610a1357600080fd5b506105246121cb565b610469610a2a36600461408d565b6121dc565b348015610a3b57600080fd5b50610133546103ef906001600160a01b031681565b348015610a5c57600080fd5b50610a70610a6b36600461457a565b61241d565b6040516103cb91906145bf565b348015610a8957600080fd5b50610524610a983660046145da565b61258c565b348015610aa957600080fd5b50610130546103ef906001600160a01b031681565b348015610aca57600080fd5b50610524610ad93660046134a5565b6125c4565b348015610aea57600080fd5b50610469610af936600461344e565b6125db565b348015610b0a57600080fd5b506104be610b19366004613488565b6101396020526000908152604090205463ffffffff1681565b348015610b3e57600080fd5b50610469610b4d3660046134be565b612606565b348015610b5e57600080fd5b50610a70610b6d36600461457a565b61262b565b348015610b7e57600080fd5b506104be610b8d366004613488565b61013b6020526000908152604090205463ffffffff1681565b348015610bb257600080fd5b50610136546001600160a01b03166103ef565b348015610bd157600080fd5b506103bf610be03660046135c0565b61274b565b348015610bf157600080fd5b50610469610c003660046145da565b612764565b348015610c1157600080fd5b50610469610c2036600461344e565b6127f5565b348015610c3157600080fd5b50610135546103ef906001600160a01b031681565b348015610c5257600080fd5b50610469610c61366004614616565b61286e565b348015610c7257600080fd5b50610133546001600160a01b03166103ef565b610cca8282604051602401610c9b929190614644565b60408051601f198184030181529190526020810180516001600160e01b0316632d839cb360e21b17905261288e565b5050565b60006001600160e01b03198216635a05180f60e01b1480610cf35750610cf3826128af565b92915050565b610d016128e4565b61013080546001600160a01b0319166001600160a01b0392909216919091179055565b600082815260c96020526040902060010154610d3f8161293e565b610d498383612948565b505050565b60606000610d5d83600161258c565b90506000610d6a826125c4565b90506000816001600160401b03811115610d8657610d8661360b565b604051908082528060200260200182016040528015610daf578160200160208202803683370190505b50905060005b82811015610e0157610dc784826120ce565b828281518110610dd957610dd9614666565b6001600160a01b0390921660209283029190910190910152610dfa81614692565b9050610db5565b50949350505050565b610e126128e4565b61013480546001600160a01b0319166001600160a01b0392909216919091179055565b6001600160a01b0381163314610eaa5760405162461bcd60e51b815260206004820152602f60248201527f416363657373436f6e74726f6c3a2063616e206f6e6c792072656e6f756e636560448201526e103937b632b9903337b91039b2b63360891b60648201526084015b60405180910390fd5b610cca828261296a565b6001600160a01b0381163314610f1f5760405162461bcd60e51b815260206004820152602a60248201527f436c7573746572203a2063616e206f6e6c792072656e6f756e636520726f6c6560448201526939903337b91039b2b63360b11b6064820152608401610ea1565b6000610f2b848461258c565b9050610f37818361296a565b50505050565b6101386020526000908152604090208054610f57906146ad565b80601f0160208091040260200160405190810160405280929190818152602001828054610f83906146ad565b8015610fd05780601f10610fa557610100808354040283529160200191610fd0565b820191906000526020600020905b815481529060010190602001808311610fb357829003601f168201915b505050505081565b6003610fe381611702565b156110005760405162461bcd60e51b8152600401610ea1906146e8565b60005a905061103b6040518060400160405280600e81526020016d2d2d2d2d2d2d2061646452756c6560901b8152508563ffffffff16610c85565b61104f61104985600261258c565b336120ed565b6110ae5760405162461bcd60e51b815260206004820152602a60248201527f61646452756c65205f6d736753656e6465722829206d75737420636c7573746560448201526939103232b83637bcb2b960b11b6064820152608401610ea1565b610134546001600160a01b0316634abbcd0b33606086015160808701516040516001600160e01b031960e086901b1681526110f193928a926000926004016147f5565b600060405180830381600087803b15801561110b57600080fd5b505af115801561111f573d6000803e3d6000fd5b5050610132546040516306237ce160e11b81526001600160a01b039091169250630c46f9c2915061115890339088908890600401614aa1565b600060405180830381600087803b15801561117257600080fd5b505af1158015611186573d6000803e3d6000fd5b50506101335460405163c13ae5bb60e01b81526001600160a01b03909116925063c13ae5bb91506111bd9087908790600401614ad1565b600060405180830381600087803b1580156111d757600080fd5b505af11580156111eb573d6000803e3d6000fd5b50506040805160008082526020820152815163ffffffff8916945060049350339260008051602061522e833981519152928290030190a460005a61122f9083614af0565b6101315460405163163ce46160e01b815291925073__$37d1e3923919c704bdb48c10208c7fa215$__9163163ce4619161127b916001600160a01b039091169085906004908101614b07565b60006040518083038186803b15801561129357600080fd5b505af41580156112a7573d6000803e3d6000fd5b505050505050505050565b60026112bd81611702565b156112da5760405162461bcd60e51b8152600401610ea1906146e8565b60005a90506112ee61012e80546001019055565b60006112fa61012e5490565b90506113326040518060400160405280600e81526020016d2d2d2d2d2d2d2072656752756c6560901b8152508263ffffffff16610c85565b600284602001515110156113885760405162461bcd60e51b815260206004820181905260248201527f636c75737465722072756c65536c6f74426f756e642e6c656e677468203e3d326044820152606401610ea1565b61012084015163ffffffff8216600090815261013760205260408120805460ff191660ff909316929092179091555b8460c0015151811015611405576113f56113d283600161258c565b8660c0015183815181106113e8576113e8614666565b6020026020010151612948565b6113fe81614692565b90506113b7565b5061141a61141482600261258c565b33612948565b61014084015163ffffffff8216600090815261013860209081526040909120825161144a939192909101906132cf565b5060e084015163ffffffff808316600090815261013b60209081526040808320805495851663ffffffff1996871617905561010089015161013c835281842080549186169187169190911790556101399091529020805442909216919092161790556114b461298c565b63ffffffff828116600090815261013a60205260409020805463ffffffff191692909116919091179055610134546001600160a01b0316634abbcd0b33606087015160808801516040516001600160e01b031960e086901b168152611521939287926000926004016147f5565b600060405180830381600087803b15801561153b57600080fd5b505af115801561154f573d6000803e3d6000fd5b5050610132546040516306237ce160e11b81526001600160a01b039091169250630c46f9c2915061158890339085908990600401614aa1565b600060405180830381600087803b1580156115a257600080fd5b505af11580156115b6573d6000803e3d6000fd5b50506101335460405163c13ae5bb60e01b81526001600160a01b03909116925063c13ae5bb91506115ed9084908890600401614ad1565b600060405180830381600087803b15801561160757600080fd5b505af115801561161b573d6000803e3d6000fd5b50506040805160008082526020820152815163ffffffff8616945060039350339260008051602061522e833981519152928290030190a460005a61165f9084614af0565b6101315460405163163ce46160e01b815291925073__$37d1e3923919c704bdb48c10208c7fa215$__9163163ce4619161127b916001600160a01b03909116908590600390600401614b07565b6116b46128e4565b61013180546001600160a01b0319166001600160a01b0392909216919091179055565b6116df6128e4565b61012f80546001600160a01b0319166001600160a01b0392909216919091179055565b60ff9081166000908152606560205260409020541690565b611722613353565b61172a612a18565b63ffffffff85166000908152610137602052604090205460ff1661174e61012e5490565b8663ffffffff161180611762575060ff8116155b156117785761176f613353565b9150611c489050565b6117996040518060600160405280603081526020016151fe60309139612a31565b6101325460405163161a012f60e11b815263ffffffff8816600482015261ffff8716602482015260ff8516604482015260009182916001600160a01b0390911690632c34025e9060640160006040518083038186803b1580156117fb57600080fd5b505afa15801561180f573d6000803e3d6000fd5b505050506040513d6000823e601f3d908101601f191682016040526118379190810190614e25565b9150915061185c6040518060600160405280603081526020016151ce60309139612a31565b600088888860405160200161187393929190614f11565b60405160208183030381529060405280519060200120905060006040518061012001604052808515158152602001848152602001856118b3576000611938565b6101335460405163206460d160e11b81526001600160a01b03909116906340c8c1a2906118e8908f908f908f90600401614f11565b60206040518083038186803b15801561190057600080fd5b505afa158015611914573d6000803e3d6000fd5b505050506040513d601f19601f820116820180604052508101906119389190614f33565b6001600160a01b031681526020018561195f576040805160008152602081019091526119e8565b61013354604051630a79f57160e41b81526001600160a01b039091169063a79f571090611994908f908f908f90600401614f11565b60006040518083038186803b1580156119ac57600080fd5b505afa1580156119c0573d6000803e3d6000fd5b505050506040513d6000823e601f3d908101601f191682016040526119e89190810190614f50565b8152602001856119f9576000611a7e565b61013254604051631f1d398160e01b81526001600160a01b0390911690631f1d398190611a2e908f908f908f90600401614f11565b60206040518083038186803b158015611a4657600080fd5b505afa158015611a5a573d6000803e3d6000fd5b505050506040513d601f19601f82011682018060405250810190611a7e9190614f84565b60ff16815260200185611a92576000611b17565b61013254604051630622b57760e21b81526001600160a01b039091169063188ad5dc90611ac7908f908f908f90600401614f11565b60206040518083038186803b158015611adf57600080fd5b505afa158015611af3573d6000803e3d6000fd5b505050506040513d601f19601f82011682018060405250810190611b179190614fa1565b63ffffffff16815260200185611b2e576000611bb3565b610132546040516376fe12d760e11b81526001600160a01b039091169063edfc25ae90611b63908f908f908f90600401614f11565b60206040518083038186803b158015611b7b57600080fd5b505afa158015611b8f573d6000803e3d6000fd5b505050506040513d601f19601f82011682018060405250810190611bb39190614fa1565b63ffffffff16815260200185611bca576000611be4565b63ffffffff808d16600090815261013b6020526040902054165b63ffffffff16815260200185611bfb576000611c15565b63ffffffff808d16600090815261013c6020526040902054165b63ffffffff168152509050611c4160405180606001604052806030815260200161529860309139612a31565b9450505050505b949350505050565b6000611c5d84600161258c565b9050611c6981336120ed565b15610f37576000611c7a858561258c565b9050611c868184612948565b5050505050565b611c956128e4565b61013380546001600160a01b0319166001600160a01b0392909216919091179055565b611cc06128e4565b611cca6000612a63565b565b6000611cf66040518060800160405280604a815260200161524e604a91398763ffffffff16610c85565b610130546001600160a01b03163314611d80576000611d606040518060800160405280605481526020016152c860549139611d368963ffffffff16612ab5565b611d438961ffff16612ab5565b611d4f8960ff16612ab5565b611d5b8960ff16612ab5565b612ac0565b90611d7e5760405162461bcd60e51b8152600401610ea19190613546565b505b6101325460408051637339ad9960e01b815263ffffffff8916600482015261ffff8816602482015260ff80881660448301528616606482015284516084820152602085015160a48201529084015160c48201526001600160a01b0390911690637339ad999060e401602060405180830381600087803b158015611e0257600080fd5b505af1158015611e16573d6000803e3d6000fd5b505050506040513d601f19601f82011682018060405250810190611e3a9190614fbe565b9695505050505050565b63ffffffff8116600090815261013860205260409020805460609190611e69906146ad565b80601f0160208091040260200160405190810160405280929190818152602001828054611e95906146ad565b8015611ee25780601f10611eb757610100808354040283529160200191611ee2565b820191906000526020600020905b815481529060010190602001808311611ec557829003601f168201915b50505050509050919050565b6000611efb84600161258c565b9050611f0781336120ed565b15610f37576000611f18858561258c565b9050611c86818461296a565b600054610100900460ff1615808015611f445750600054600160ff909116105b80611f5e5750303b158015611f5e575060005460ff166001145b611fc15760405162461bcd60e51b815260206004820152602e60248201527f496e697469616c697a61626c653a20636f6e747261637420697320616c72656160448201526d191e481a5b9a5d1a585b1a5e995960921b6064820152608401610ea1565b6000805460ff191660011790558015611fe4576000805461ff0019166101001790555b611fec612af5565b611ff4612b1c565b611ffc612af5565b61012f80546001600160a01b03199081166001600160a01b038c811691909117909255610130805482168b8416179055610131805482168a841617905561013280548216898416179055610133805482168884161790556101348054821687841617905561013580548216868416179055610136805490911691841691909117905580156112a7576000805461ff0019169055604051600181527f7f26b83ff96e1f2b6a682f133852f6798a09c465da95921460cefb38474024989060200160405180910390a1505050505050505050565b600082815260fb602052604081206120e69083612b4c565b9392505050565b600091825260c9602090815260408084206001600160a01b0393909316845291905290205460ff1690565b6060600061212783600261258c565b90506000612134826125c4565b90506000816001600160401b038111156121505761215061360b565b604051908082528060200260200182016040528015612179578160200160208202803683370190505b50905060005b82811015610e015761219184826120ce565b8282815181106121a3576121a3614666565b6001600160a01b03909216602092830291909101909101526121c481614692565b905061217f565b60006121d761012e5490565b905090565b60016121e781611702565b156122045760405162461bcd60e51b8152600401610ea1906146e8565b60005a905061221861012e80546001019055565b600061222461012e5490565b905061225f60405180604001604052806011815260200170169696969696903932b3a1b63ab9ba32b960791b8152508263ffffffff16610c85565b61012084015163ffffffff8216600090815261013760205260408120805460ff191660ff909316929092179091555b8460c00151518110156122b9576122a96113d283600161258c565b6122b281614692565b905061228e565b506122c861141482600261258c565b61014084015163ffffffff821660009081526101386020908152604090912082516122f8939192909101906132cf565b5060e084015163ffffffff808316600090815261013b60209081526040808320805495851663ffffffff1996871617905561010089015161013c8352818420805491861691871691909117905561013990915290208054429092169190921617905561236261298c565b63ffffffff828116600081815261013a60205260409020805463ffffffff19169390921692909217905560013360408051600080825260208201526001600160a01b03929092169160008051602061522e833981519152910160405180910390a460005a6123d09084614af0565b6101315460405163163ce46160e01b815291925073__$37d1e3923919c704bdb48c10208c7fa215$__9163163ce4619161127b916001600160a01b03909116908590600290600401614b07565b604080516020810190915260608152612434612a18565b61012e548463ffffffff161180612462575063ffffffff84166000908152610137602052604090205460ff16155b1561247e576040805160208101909152606081525b90506120e6565b61249f60405180606001604052806030815260200161531c60309139612a31565b60008484846040516020016124b693929190614f11565b60408051601f1981840301815282825280516020918201209083019182905261013354632485217560e21b90925292506000919081906001600160a01b031663921485d46125098a8a8a60248701614f11565b60006040518083038186803b15801561252157600080fd5b505afa158015612535573d6000803e3d6000fd5b505050506040513d6000823e601f3d908101601f1916820160405261255d9190810190614f50565b815250905061258360405180606001604052806030815260200161534c60309139612a31565b95945050505050565b6040805163ffffffff9390931660208085019190915260ff929092168382015280518084038201815260609093019052815191012090565b600081815260fb60205260408120610cf390612b58565b6125e36128e4565b61013280546001600160a01b0319166001600160a01b0392909216919091179055565b600082815260c960205260409020600101546126218161293e565b610d49838361296a565b60408051602081019091526060815261012e548463ffffffff161180612668575063ffffffff84166000908152610137602052604090205460ff16155b1561268157604080516020810190915260608152612477565b600084848460405160200161269893929190614f11565b60408051601f1981840301815282825280516020918201209083019182905261013354633f5a6e8760e11b90925292506000919081906001600160a01b0316637eb4dd0e6126eb8a8a8a60248701614f11565b60006040518083038186803b15801561270357600080fd5b505afa158015612717573d6000803e3d6000fd5b505050506040513d6000823e601f3d908101601f1916820160405261273f9190810190614f50565b90529695505050505050565b600080612758858561258c565b905061258381846120ed565b6127708260013361274b565b6127ca5760405162461bcd60e51b815260206004820152602560248201527f736574436c757374657253746174653a206d73672e73656e646572206e6f742060448201526430b236b4b760d91b6064820152608401610ea1565b63ffffffff91909116600090815261013760205260409020805460ff191660ff909216919091179055565b6127fd6128e4565b6001600160a01b0381166128625760405162461bcd60e51b815260206004820152602660248201527f4f776e61626c653a206e6577206f776e657220697320746865207a65726f206160448201526564647265737360d01b6064820152608401610ea1565b61286b81612a63565b50565b6128766128e4565b801561288557610cca82612b62565b610cca82612bf7565b80516a636f6e736f6c652e6c6f67602083016000808483855afa5050505050565b60006001600160e01b03198216637965db0b60e01b1480610cf357506301ffc9a760e01b6001600160e01b0319831614610cf3565b6033546001600160a01b03163314611cca5760405162461bcd60e51b815260206004820181905260248201527f4f776e61626c653a2063616c6c6572206973206e6f7420746865206f776e65726044820152606401610ea1565b61286b8133612c8f565b6129528282612ce8565b600082815260fb60205260409020610d499082612d6e565b6129748282612d83565b600082815260fb60205260409020610d499082612dea565b60004661a4b1811415612a115760646001600160a01b031663a3b1b31d6040518163ffffffff1660e01b815260040160206040518083038186803b1580156129d357600080fd5b505afa1580156129e7573d6000803e3d6000fd5b505050506040513d601f19601f82011682018060405250810190612a0b9190614fdb565b91505090565b4391505090565b61012d54612a2a576301312d0061012d555b5a61012d55565b61286b6040518060400160405280601081526020016f01e969696969696969696969033b0b9960851b81525082612dff565b603380546001600160a01b038381166001600160a01b0319831681179093556040519116919082907f8be0079c531659141344cd1fd0a4f28419497f9722a3daafe3b4186f6b6457e090600090a35050565b6060610cf382612e44565b60608585858585604051602001612adb959493929190614ff4565b604051602081830303815290604052905095945050505050565b600054610100900460ff16611cca5760405162461bcd60e51b8152600401610ea19061508a565b600054610100900460ff16612b435760405162461bcd60e51b8152600401610ea19061508a565b611cca33612a63565b60006120e68383612ee0565b6000610cf3825490565b80612b6c81611702565b15612b895760405162461bcd60e51b8152600401610ea1906146e8565b60ff82166000908152606560205260409020805460ff191660011790557f0116a706473db0e0938996f608b9894b96b1583d307f8c605ec7fccb6d7a8cdb82612bcf3390565b6040805160ff90931683526001600160a01b0390911660208301520160405180910390a15050565b80612c0181611702565b612c4d5760405162461bcd60e51b815260206004820152601c60248201527f5061757361626c653a206e6f7420706175736564206368616e6e656c000000006044820152606401610ea1565b60ff82166000908152606560205260409020805460ff191690557fe33b1e8c9a3225cc5a849e3f9c6d9c272be7915b24983c2a048dfe7c79390f418233612bcf565b612c9982826120ed565b610cca57612ca681612f0a565b612cb1836020612f1c565b604051602001612cc29291906150d5565b60408051601f198184030181529082905262461bcd60e51b8252610ea191600401613546565b612cf282826120ed565b610cca57600082815260c9602090815260408083206001600160a01b03851684529091529020805460ff19166001179055612d2a3390565b6001600160a01b0316816001600160a01b0316837f2f8788117e7eff1d82e926ec794901d17c78024a50270940304540a733656f0d60405160405180910390a45050565b60006120e6836001600160a01b0384166130b7565b612d8d82826120ed565b15610cca57600082815260c9602090815260408083206001600160a01b0385168085529252808320805460ff1916905551339285917ff6391f5c32d9c69d2a47ea670b442974b53935d1edc7fd64eb21e047a839171b9190a45050565b60006120e6836001600160a01b038416613106565b610cca8282604051602401612e15929190615144565b60408051601f198184030181529190526020810180516001600160e01b0316634b5c427760e01b17905261288e565b60606000612e51836131f9565b60010190506000816001600160401b03811115612e7057612e7061360b565b6040519080825280601f01601f191660200182016040528015612e9a576020820181803683370190505b5090508181016020015b600019016f181899199a1a9b1b9c1cb0b131b232b360811b600a86061a8153600a8504945084612ed357612ed8565b612ea4565b509392505050565b6000826000018281548110612ef757612ef7614666565b9060005260206000200154905092915050565b6060610cf36001600160a01b03831660145b60606000612f2b836002615169565b612f36906002615188565b6001600160401b03811115612f4d57612f4d61360b565b6040519080825280601f01601f191660200182016040528015612f77576020820181803683370190505b509050600360fc1b81600081518110612f9257612f92614666565b60200101906001600160f81b031916908160001a905350600f60fb1b81600181518110612fc157612fc1614666565b60200101906001600160f81b031916908160001a9053506000612fe5846002615169565b612ff0906001615188565b90505b6001811115613068576f181899199a1a9b1b9c1cb0b131b232b360811b85600f166010811061302457613024614666565b1a60f81b82828151811061303a5761303a614666565b60200101906001600160f81b031916908160001a90535060049490941c93613061816151a0565b9050612ff3565b5083156120e65760405162461bcd60e51b815260206004820181905260248201527f537472696e67733a20686578206c656e67746820696e73756666696369656e746044820152606401610ea1565b60008181526001830160205260408120546130fe57508154600181810184556000848152602080822090930184905584548482528286019093526040902091909155610cf3565b506000610cf3565b600081815260018301602052604081205480156131ef57600061312a600183614af0565b855490915060009061313e90600190614af0565b90508181146131a357600086600001828154811061315e5761315e614666565b906000526020600020015490508087600001848154811061318157613181614666565b6000918252602080832090910192909255918252600188019052604090208390555b85548690806131b4576131b46151b7565b600190038181906000526020600020016000905590558560010160008681526020019081526020016000206000905560019350505050610cf3565b6000915050610cf3565b60008072184f03e93ff9f4daa797ed6e38ed64bf6a1f0160401b83106132385772184f03e93ff9f4daa797ed6e38ed64bf6a1f0160401b830492506040015b6904ee2d6d415b85acef8160201b8310613262576904ee2d6d415b85acef8160201b830492506020015b662386f26fc10000831061328057662386f26fc10000830492506010015b6305f5e1008310613298576305f5e100830492506008015b61271083106132ac57612710830492506004015b606483106132be576064830492506002015b600a8310610cf35760010192915050565b8280546132db906146ad565b90600052602060002090601f0160209004810192826132fd5760008555613343565b82601f1061331657805160ff1916838001178555613343565b82800160010185558215613343579182015b82811115613343578251825591602001919060010190613328565b5061334f9291506133dd565b5090565b6040518061012001604052806000151581526020016133a66040518060a0016040528060608152602001600060ff16815260200160006001600160a01b0316815260200160608152602001606081525090565b815260006020820181905260606040830181905282018190526080820181905260a0820181905260c0820181905260e09091015290565b5b8082111561334f57600081556001016133de565b6001600160a01b03169052565b60006020828403121561341157600080fd5b81356001600160e01b0319811681146120e657600080fd5b6001600160a01b038116811461286b57600080fd5b803561344981613429565b919050565b60006020828403121561346057600080fd5b81356120e681613429565b63ffffffff8116811461286b57600080fd5b80356134498161346b565b60006020828403121561349a57600080fd5b81356120e68161346b565b6000602082840312156134b757600080fd5b5035919050565b600080604083850312156134d157600080fd5b8235915060208301356134e381613429565b809150509250929050565b60005b838110156135095781810151838201526020016134f1565b83811115610f375750506000910152565b600081518084526135328160208601602086016134ee565b601f01601f19169290920160200192915050565b6020815260006120e6602083018461351a565b6020808252825182820181905260009190848201906040850190845b8181101561359a5783516001600160a01b031683529284019291840191600101613575565b50909695505050505050565b60ff8116811461286b57600080fd5b8035613449816135a6565b6000806000606084860312156135d557600080fd5b83356135e08161346b565b925060208401356135f0816135a6565b9150604084013561360081613429565b809150509250925092565b634e487b7160e01b600052604160045260246000fd5b604051608081016001600160401b03811182821017156136435761364361360b565b60405290565b604051606081016001600160401b03811182821017156136435761364361360b565b60405160a081016001600160401b03811182821017156136435761364361360b565b60405161016081016001600160401b03811182821017156136435761364361360b565b604051601f8201601f191681016001600160401b03811182821017156136d8576136d861360b565b604052919050565b60006001600160401b038211156136f9576136f961360b565b5060051b60200190565b600082601f83011261371457600080fd5b81356020613729613724836136e0565b6136b0565b82815260059290921b8401810191818101908684111561374857600080fd5b8286015b84811015613763578035835291830191830161374c565b509695505050505050565b600082601f83011261377f57600080fd5b8135602061378f613724836136e0565b82815260059290921b840181019181810190868411156137ae57600080fd5b8286015b848110156137635780356137c581613429565b83529183019183016137b2565b600082601f8301126137e357600080fd5b813560206137f3613724836136e0565b82815260059290921b8401810191818101908684111561381257600080fd5b8286015b848110156137635780356001600160401b038082111561383557600080fd5b90880190601f196080838c038201121561384e57600080fd5b613856613621565b878401358381111561386757600080fd5b84016060818e038401121561387b57600080fd5b613883613649565b925088810135613892816135a6565b83526040818101356138a381613429565b848b01526060820135858111156138b957600080fd5b6138c78f8c83860101613703565b82860152508383526138da8187016135b5565b8a84015260608601359350848411156138f257600080fd5b6139008e8b8689010161376e565b9083015250608084013591508282111561391957600080fd5b6139278c8984870101613703565b60608201528652505050918301918301613816565b60006001600160401b038211156139555761395561360b565b50601f01601f191660200190565b60006139716137248461393c565b905082815283838301111561398557600080fd5b828260208301376000602084830101529392505050565b600082601f8301126139ad57600080fd5b813560206139bd613724836136e0565b82815260059290921b840181019181810190868411156139dc57600080fd5b8286015b848110156137635780356001600160401b038111156139ff5760008081fd5b8701603f81018913613a115760008081fd5b613a22898683013560408401613963565b8452509183019183016139e0565b600082601f830112613a4157600080fd5b81356020613a51613724836136e0565b82815260059290921b84018101918181019086841115613a7057600080fd5b8286015b848110156137635780356001600160401b0380821115613a945760008081fd5b9088019060a0828b03601f1901811315613aae5760008081fd5b613ab661366b565b8784013583811115613ac85760008081fd5b613ad68d8a838801016137d2565b8252506040613ae68186016135b5565b898301526060613af781870161343e565b82840152608091508186013585811115613b115760008081fd5b613b1f8f8c838a010161376e565b82850152505082850135925083831115613b395760008081fd5b613b478d8a8588010161399c565b908201528652505050918301918301613a74565b600082601f830112613b6c57600080fd5b81356020613b7c613724836136e0565b82815260059290921b84018101918181019086841115613b9b57600080fd5b8286015b84811015613763578035613bb2816135a6565b8352918301918301613b9f565b803561ffff8116811461344957600080fd5b80356001600160401b038116811461344957600080fd5b600082601f830112613bf957600080fd5b81356020613c09613724836136e0565b82815260059290921b84018101918181019086841115613c2857600080fd5b8286015b848110156137635780356001600160401b0380821115613c4c5760008081fd5b90880190610160828b03601f1901811315613c675760008081fd5b613c6f61368d565b613c7a888501613bbf565b81526040613c89818601613bbf565b898301526060613c9a8187016135b5565b8284015260809150613cad82870161347d565b9083015260a0613cbe8682016135b5565b8284015260c09150613cd182870161347d565b9083015260e0613ce286820161347d565b828401526101009150613cf6828701613bd1565b908301526101208581013585811115613d0f5760008081fd5b613d1d8f8c838a010161376e565b838501525061014091508186013585811115613d395760008081fd5b613d478f8c838a010161399c565b828501525050613d5883860161343e565b908201528652505050918301918301613c2c565b600082601f830112613d7d57600080fd5b6120e683833560208501613963565b600082601f830112613d9d57600080fd5b81356020613dad613724836136e0565b82815260059290921b84018101918181019086841115613dcc57600080fd5b8286015b848110156137635780356001600160401b0380821115613df05760008081fd5b9088019060a0828b03601f1901811315613e0a5760008081fd5b613e1261366b565b613e1d88850161347d565b815260408085013584811115613e335760008081fd5b613e418e8b83890101613d6c565b8a8401525060608086013585811115613e5a5760008081fd5b613e688f8c838a0101613d6c565b8385015250608091508186013585811115613e835760008081fd5b613e918f8c838a0101613d6c565b828501525050613ea28386016135b5565b908201528652505050918301918301613dd0565b60006101608284031215613ec957600080fd5b613ed161368d565b905081356001600160401b0380821115613eea57600080fd5b613ef685838601613a30565b83526020840135915080821115613f0c57600080fd5b613f1885838601613b5b565b60208401526040840135915080821115613f3157600080fd5b613f3d85838601613be8565b60408401526060840135915080821115613f5657600080fd5b613f6285838601613d8c565b60608401526080840135915080821115613f7b57600080fd5b613f8785838601613b5b565b608084015260a0840135915080821115613fa057600080fd5b613fac8583860161376e565b60a084015260c0840135915080821115613fc557600080fd5b613fd18583860161376e565b60c0840152613fe260e0850161347d565b60e08401526101009150613ff782850161347d565b82840152610120915061400b8285016135b5565b828401526101409150818401358181111561402557600080fd5b61403186828701613d6c565b8385015250505092915050565b6000806040838503121561405157600080fd5b823561405c8161346b565b915060208301356001600160401b0381111561407757600080fd5b61408385828601613eb6565b9150509250929050565b60006020828403121561409f57600080fd5b81356001600160401b038111156140b557600080fd5b611c4884828501613eb6565b6000602082840312156140d357600080fd5b81356120e6816135a6565b600080600080608085870312156140f457600080fd5b84356140ff8161346b565b935061410d60208601613bbf565b925061411b60408601613bbf565b9150606085013561412b816135a6565b939692955090935050565b600081518084526020808501945080840160005b838110156141665781518752958201959082019060010161414a565b509495945050505050565b600081518084526020808501945080840160005b838110156141665781516001600160a01b031687529582019590820190600101614185565b600081518084526020808501808196508360051b8101915082860160005b858110156141f25782840389526141e084835161351a565b988501989350908401906001016141c8565b5091979650505050505050565b600060a0808401835182865281815180845260c093508388019150838160051b8901016020808501945060005b838110156142d5578a830360bf19018552855180516080808652815160ff1690860152838101516001600160a01b03168a86015260409081015160608a870181905261427b60e0880183614136565b91508584015161428f8789018260ff169052565b5082840151878303848901526142a58382614171565b9350508084015193508683038188015250506142c18183614136565b97840197968401969450505060010161422c565b508089015160ff16908a015260408089015196506142f5908a01876133f2565b6060880151955088810360608a015261430e8187614171565b955050505050506080830151848203608086015261258382826141aa565b6020815261433f60208201835115159052565b6000602083015161012080604085015261435d6101408501836141ff565b9150604085015161437160608601826133f2565b506060850151848303601f1901608086015261438d8382614171565b92505060808501516143a460a086018260ff169052565b5060a085015163ffffffff811660c08601525060c085015163ffffffff811660e08601525060e08501516101006143e28187018363ffffffff169052565b9095015163ffffffff1693019290925250919050565b600080600080600085870360e081121561441157600080fd5b863561441c8161346b565b955061442a60208801613bbf565b9450604087013561443a816135a6565b9350606087013561444a816135a6565b92506060607f198201121561445e57600080fd5b50604051606081018181106001600160401b03821117156144815761448161360b565b80604052506080870135815260a0870135602082015260c08701356040820152809150509295509295909350565b600080600080600080600080610100898b0312156144cc57600080fd5b88356144d781613429565b975060208901356144e781613429565b965060408901356144f781613429565b9550606089013561450781613429565b9450608089013561451781613429565b935060a089013561452781613429565b925060c089013561453781613429565b915060e089013561454781613429565b809150509295985092959890939650565b6000806040838503121561456b57600080fd5b50508035926020909101359150565b60008060006060848603121561458f57600080fd5b833561459a8161346b565b92506145a860208501613bbf565b91506145b660408501613bbf565b90509250925092565b6020815260008251602080840152611c486040840182614171565b600080604083850312156145ed57600080fd5b82356145f88161346b565b915060208301356134e3816135a6565b801515811461286b57600080fd5b6000806040838503121561462957600080fd5b8235614634816135a6565b915060208301356134e381614608565b604081526000614657604083018561351a565b90508260208301529392505050565b634e487b7160e01b600052603260045260246000fd5b634e487b7160e01b600052601160045260246000fd5b60006000198214156146a6576146a661467c565b5060010190565b600181811c908216806146c157607f821691505b602082108114156146e257634e487b7160e01b600052602260045260246000fd5b50919050565b60208082526018908201527714185d5cd8589b194e881c185d5cd9590818da185b9b995b60421b604082015260600190565b600081518084526020808501808196508360051b8101915082860160005b858110156141f2578284038952815160a063ffffffff82511686528682015181888801526147688288018261351a565b91505060408083015187830382890152614782838261351a565b925050506060808301518783038289015261479d838261351a565b60809485015160ff169890940197909752505098850198935090840190600101614738565b600081518084526020808501945080840160005b8381101561416657815160ff16875295820195908201906001016147d6565b6001600160a01b03868116825263ffffffff861660208301528416604082015260a06060820181905260009061482d9083018561471a565b828103608084015261483f81856147c2565b98975050505050505050565b600081518084526020808501808196508360051b8101915082860160005b858110156141f25782840389526148818483516141ff565b98850198935090840190600101614869565b600081518084526020808501808196508360051b8101915082860160005b858110156141f25782840389528151805161ffff908116865286820151168686015260408082015160ff9081169187019190915260608083015163ffffffff908116918801919091526080808401519092169187019190915260a08083015182169087015260c0808301519091169086015260e0808201516001600160401b03169086015261010080820151610160828801819052919061495483890182614171565b92505050610120808301518783038289015261497083826141aa565b92505050610140808301519250614989818801846133f2565b5099860199945050908401906001016148b1565b600061016082518185526149b38286018261484b565b915050602083015184820360208601526149cd82826147c2565b915050604083015184820360408601526149e78282614893565b91505060608301518482036060860152614a01828261471a565b91505060808301518482036080860152614a1b82826147c2565b91505060a083015184820360a0860152614a358282614171565b91505060c083015184820360c0860152614a4f8282614171565b91505060e0830151614a6960e086018263ffffffff169052565b506101008381015163ffffffff16908501526101208084015160ff16908501526101408084015185830382870152611e3a838261351a565b6001600160a01b038416815263ffffffff831660208201526060604082018190526000906125839083018461499d565b63ffffffff83168152604060208201526000611c48604083018461499d565b600082821015614b0257614b0261467c565b500390565b6001600160a01b03939093168352602083019190915260ff16604082015260600190565b8051613449816135a6565b805161344981613429565b600082601f830112614b5257600080fd5b81516020614b62613724836136e0565b82815260059290921b84018101918181019086841115614b8157600080fd5b8286015b848110156137635780518352918301918301614b85565b600082601f830112614bad57600080fd5b81516020614bbd613724836136e0565b82815260059290921b84018101918181019086841115614bdc57600080fd5b8286015b84811015613763578051614bf381613429565b8352918301918301614be0565b600082601f830112614c1157600080fd5b81516020614c21613724836136e0565b82815260059290921b84018101918181019086841115614c4057600080fd5b8286015b848110156137635780516001600160401b0380821115614c6357600080fd5b90880190601f196080838c0382011215614c7c57600080fd5b614c84613621565b8784015183811115614c9557600080fd5b84016060818e0384011215614ca957600080fd5b614cb1613649565b925088810151614cc0816135a6565b8352604081810151614cd181613429565b848b0152606082015185811115614ce757600080fd5b614cf58f8c83860101614b41565b8286015250838352614d08818701614b2b565b8a8401526060860151935084841115614d2057600080fd5b614d2e8e8b86890101614b9c565b90830152506080840151915082821115614d4757600080fd5b614d558c8984870101614b41565b60608201528652505050918301918301614c44565b600082601f830112614d7b57600080fd5b81516020614d8b613724836136e0565b82815260059290921b84018101918181019086841115614daa57600080fd5b8286015b848110156137635780516001600160401b03811115614dcd5760008081fd5b8701603f81018913614ddf5760008081fd5b848101516040614df16137248361393c565b8281528b82848601011115614e065760008081fd5b614e15838983018487016134ee565b8652505050918301918301614dae565b60008060408385031215614e3857600080fd5b8251614e4381614608565b60208401519092506001600160401b0380821115614e6057600080fd5b9084019060a08287031215614e7457600080fd5b614e7c61366b565b825182811115614e8b57600080fd5b614e9788828601614c00565b825250614ea660208401614b2b565b6020820152614eb760408401614b36565b6040820152606083015182811115614ece57600080fd5b614eda88828601614b9c565b606083015250608083015182811115614ef257600080fd5b614efe88828601614d6a565b6080830152508093505050509250929050565b63ffffffff93909316835261ffff918216602084015216604082015260600190565b600060208284031215614f4557600080fd5b81516120e681613429565b600060208284031215614f6257600080fd5b81516001600160401b03811115614f7857600080fd5b611c4884828501614b9c565b600060208284031215614f9657600080fd5b81516120e6816135a6565b600060208284031215614fb357600080fd5b81516120e68161346b565b600060208284031215614fd057600080fd5b81516120e681614608565b600060208284031215614fed57600080fd5b5051919050565b60008651615006818460208b016134ee565b8083019050600b60fa1b8082528751615026816001850160208c016134ee565b600192019182018190528651615043816002850160208b016134ee565b600292019182018190528551615060816003850160208a016134ee565b6003920191820152835161507b8160048401602088016134ee565b01600401979650505050505050565b6020808252602b908201527f496e697469616c697a61626c653a20636f6e7472616374206973206e6f74206960408201526a6e697469616c697a696e6760a81b606082015260800190565b76020b1b1b2b9b9a1b7b73a3937b61d1030b1b1b7bab73a1604d1b8152600083516151078160178501602088016134ee565b7001034b99036b4b9b9b4b733903937b6329607d1b60179184019182015283516151388160288401602088016134ee565b01602801949350505050565b604081526000615157604083018561351a565b8281036020840152612583818561351a565b60008160001904831182151516156151835761518361467c565b500290565b6000821982111561519b5761519b61467c565b500190565b6000816151af576151af61467c565b506000190190565b634e487b7160e01b600052603160045260246000fdfe2d2d2d2d2d2d3d3d3d3d3d3d2d2d2d2d2d2d20676173202d2d2d2d2d20636c757374657241726561202d2d2d2d2d20322d2d2d2d2d2d3d3d3d3d3d3d2d2d2d2d2d2d20676173202d2d2d2d2d20636c757374657241726561202d2d2d2d2d203191dcfee75f5a7067382c571405bede409bf393dd1c62158a1acdd6a776f6b8b22d2d2d2d2d2d3d3d3d3d3d3d2d2d2d2d2d2d20636c7573746572417265612075706461746547726f7570536c6f74546f6b656e48616e646c6572202d2d2d2d2d20636c757374657249642d2d2d2d2d2d3d3d3d3d3d3d2d2d2d2d2d2d20676173202d2d2d2d2d20636c757374657241726561202d2d2d2d2d20336e6f206175746820746f2075706461746547726f7570536c6f74546f6b656e48616e646c657220636c757374657249642c72756c65536c6f74496e6465782c6272616e63682c746f6b656e536c6f74496e6465782d2d2d2d2d2d3d3d3d3d3d3d2d2d2d2d2d2d20676173202d2d2d2d2d20636c757374657241726561202d2d2d2d2d20342d2d2d2d2d2d3d3d3d3d3d3d2d2d2d2d2d2d20676173202d2d2d2d2d20636c757374657241726561202d2d2d2d2d2036a2646970667358221220d7ec19300683040eace76747dcba3bf4e034b9d1d139823c1edfe25e83c3d4a564736f6c63430008080033",
  "linkReferences": {
    "contracts/V3/ClusterRuleAreaProcess.sol": {
      "ClusterRuleAreaProcess": [
        {
          "length": 20,
          "start": 4709
        },
        {
          "length": 20,
          "start": 5781
        },
        {
          "length": 20,
          "start": 9222
        }
      ]
    }
  },
  "deployedLinkReferences": {
    "contracts/V3/ClusterRuleAreaProcess.sol": {
      "ClusterRuleAreaProcess": [
        {
          "length": 20,
          "start": 4677
        },
        {
          "length": 20,
          "start": 5749
        },
        {
          "length": 20,
          "start": 9190
        }
      ]
    }
  }
}