{
  "_format": "hh-sol-artifact-1",
  "contractName": "Relation",
  "sourceName": "contracts/V3/library/Relation.sol",
  "abi": [
    {
      "anonymous": false,
      "inputs": [
        {
          "indexed": false,
          "internalType": "bytes32",
          "name": "hash",
          "type": "bytes32"
        },
        {
          "indexed": false,
          "internalType": "address",
          "name": "inviter",
          "type": "address"
        },
        {
          "indexed": false,
          "internalType": "address",
          "name": "invitee",
          "type": "address"
        },
        {
          "indexed": false,
          "internalType": "uint256",
          "name": "timestamp",
          "type": "uint256"
        },
        {
          "indexed": false,
          "internalType": "uint256",
          "name": "blockNumber",
          "type": "uint256"
        }
      ],
      "name": "Bind",
      "type": "event"
    },
    {
      "inputs": [
        {
          "internalType": "bytes32",
          "name": "hash",
          "type": "bytes32"
        },
        {
          "internalType": "address",
          "name": "base",
          "type": "address"
        },
        {
          "internalType": "address",
          "name": "father",
          "type": "address"
        }
      ],
      "name": "atSameBranch",
      "outputs": [
        {
          "internalType": "bool",
          "name": "",
          "type": "bool"
        }
      ],
      "stateMutability": "view",
      "type": "function"
    },
    {
      "inputs": [],
      "name": "cname",
      "outputs": [
        {
          "internalType": "string",
          "name": "",
          "type": "string"
        }
      ],
      "stateMutability": "pure",
      "type": "function"
    },
    {
      "inputs": [
        {
          "internalType": "bytes32",
          "name": "hash",
          "type": "bytes32"
        },
        {
          "internalType": "address",
          "name": "inviter",
          "type": "address"
        }
      ],
      "name": "getAllLevelInviteeCount",
      "outputs": [
        {
          "internalType": "uint256",
          "name": "",
          "type": "uint256"
        }
      ],
      "stateMutability": "view",
      "type": "function"
    },
    {
      "inputs": [
        {
          "internalType": "bytes32",
          "name": "hash",
          "type": "bytes32"
        },
        {
          "internalType": "address",
          "name": "inviter",
          "type": "address"
        }
      ],
      "name": "getAllLevelInvitees",
      "outputs": [
        {
          "internalType": "address[]",
          "name": "",
          "type": "address[]"
        }
      ],
      "stateMutability": "view",
      "type": "function"
    },
    {
      "inputs": [
        {
          "internalType": "bytes32",
          "name": "hash",
          "type": "bytes32"
        },
        {
          "internalType": "address",
          "name": "inviter",
          "type": "address"
        }
      ],
      "name": "getInviteeCount",
      "outputs": [
        {
          "internalType": "uint256",
          "name": "",
          "type": "uint256"
        }
      ],
      "stateMutability": "view",
      "type": "function"
    },
    {
      "inputs": [
        {
          "internalType": "bytes32",
          "name": "hash",
          "type": "bytes32"
        },
        {
          "internalType": "address",
          "name": "inviter",
          "type": "address"
        }
      ],
      "name": "getInvitees",
      "outputs": [
        {
          "internalType": "address[]",
          "name": "",
          "type": "address[]"
        }
      ],
      "stateMutability": "view",
      "type": "function"
    },
    {
      "inputs": [
        {
          "internalType": "bytes32",
          "name": "hash",
          "type": "bytes32"
        },
        {
          "internalType": "address",
          "name": "invitee",
          "type": "address"
        }
      ],
      "name": "getInviter",
      "outputs": [
        {
          "internalType": "address",
          "name": "",
          "type": "address"
        }
      ],
      "stateMutability": "view",
      "type": "function"
    },
    {
      "inputs": [
        {
          "internalType": "bytes32",
          "name": "hash",
          "type": "bytes32"
        },
        {
          "internalType": "uint256",
          "name": "index",
          "type": "uint256"
        }
      ],
      "name": "getInviterAtIndex",
      "outputs": [
        {
          "internalType": "address",
          "name": "",
          "type": "address"
        }
      ],
      "stateMutability": "view",
      "type": "function"
    },
    {
      "inputs": [
        {
          "internalType": "bytes32",
          "name": "hash",
          "type": "bytes32"
        },
        {
          "internalType": "address",
          "name": "invitee",
          "type": "address"
        },
        {
          "internalType": "uint256",
          "name": "level",
          "type": "uint256"
        }
      ],
      "name": "getInviterAtLevel",
      "outputs": [
        {
          "internalType": "address",
          "name": "",
          "type": "address"
        }
      ],
      "stateMutability": "view",
      "type": "function"
    },
    {
      "inputs": [
        {
          "internalType": "bytes32",
          "name": "hash",
          "type": "bytes32"
        }
      ],
      "name": "getInviterCount",
      "outputs": [
        {
          "internalType": "uint256",
          "name": "",
          "type": "uint256"
        }
      ],
      "stateMutability": "view",
      "type": "function"
    },
    {
      "inputs": [
        {
          "internalType": "bytes32",
          "name": "",
          "type": "bytes32"
        },
        {
          "internalType": "address",
          "name": "",
          "type": "address"
        }
      ],
      "name": "invitedBlockNumber",
      "outputs": [
        {
          "internalType": "uint256",
          "name": "",
          "type": "uint256"
        }
      ],
      "stateMutability": "view",
      "type": "function"
    },
    {
      "inputs": [
        {
          "internalType": "bytes32",
          "name": "",
          "type": "bytes32"
        },
        {
          "internalType": "address",
          "name": "",
          "type": "address"
        }
      ],
      "name": "invitedQueryMap",
      "outputs": [
        {
          "internalType": "bool",
          "name": "",
          "type": "bool"
        }
      ],
      "stateMutability": "view",
      "type": "function"
    },
    {
      "inputs": [
        {
          "internalType": "bytes32",
          "name": "",
          "type": "bytes32"
        },
        {
          "internalType": "address",
          "name": "",
          "type": "address"
        }
      ],
      "name": "invitedTimeStamp",
      "outputs": [
        {
          "internalType": "uint256",
          "name": "",
          "type": "uint256"
        }
      ],
      "stateMutability": "view",
      "type": "function"
    },
    {
      "inputs": [
        {
          "internalType": "bytes32",
          "name": "",
          "type": "bytes32"
        },
        {
          "internalType": "address",
          "name": "",
          "type": "address"
        },
        {
          "internalType": "uint256",
          "name": "",
          "type": "uint256"
        }
      ],
      "name": "inviteesQueryMap",
      "outputs": [
        {
          "internalType": "address",
          "name": "",
          "type": "address"
        }
      ],
      "stateMutability": "view",
      "type": "function"
    },
    {
      "inputs": [
        {
          "internalType": "bytes32",
          "name": "",
          "type": "bytes32"
        },
        {
          "internalType": "address",
          "name": "",
          "type": "address"
        }
      ],
      "name": "inviterQueryMap",
      "outputs": [
        {
          "internalType": "address",
          "name": "",
          "type": "address"
        }
      ],
      "stateMutability": "view",
      "type": "function"
    },
    {
      "inputs": [
        {
          "internalType": "bytes32",
          "name": "",
          "type": "bytes32"
        },
        {
          "internalType": "uint256",
          "name": "",
          "type": "uint256"
        }
      ],
      "name": "inviters",
      "outputs": [
        {
          "internalType": "address",
          "name": "",
          "type": "address"
        }
      ],
      "stateMutability": "view",
      "type": "function"
    },
    {
      "inputs": [
        {
          "internalType": "bytes32",
          "name": "hash",
          "type": "bytes32"
        },
        {
          "internalType": "address",
          "name": "asker",
          "type": "address"
        }
      ],
      "name": "isInvited",
      "outputs": [
        {
          "internalType": "bool",
          "name": "",
          "type": "bool"
        }
      ],
      "stateMutability": "view",
      "type": "function"
    },
    {
      "inputs": [
        {
          "internalType": "bytes32",
          "name": "hash",
          "type": "bytes32"
        },
        {
          "internalType": "address",
          "name": "inviter",
          "type": "address"
        },
        {
          "internalType": "address",
          "name": "invitee",
          "type": "address"
        }
      ],
      "name": "isInvitee",
      "outputs": [
        {
          "internalType": "bool",
          "name": "",
          "type": "bool"
        }
      ],
      "stateMutability": "view",
      "type": "function"
    },
    {
      "inputs": [
        {
          "internalType": "bytes32",
          "name": "",
          "type": "bytes32"
        },
        {
          "internalType": "address",
          "name": "",
          "type": "address"
        },
        {
          "internalType": "address",
          "name": "",
          "type": "address"
        }
      ],
      "name": "isInviteeMap",
      "outputs": [
        {
          "internalType": "bool",
          "name": "",
          "type": "bool"
        }
      ],
      "stateMutability": "view",
      "type": "function"
    },
    {
      "inputs": [
        {
          "internalType": "bytes32",
          "name": "hash",
          "type": "bytes32"
        },
        {
          "internalType": "address",
          "name": "inviter",
          "type": "address"
        },
        {
          "internalType": "address",
          "name": "invitee",
          "type": "address"
        }
      ],
      "name": "isInviter",
      "outputs": [
        {
          "internalType": "bool",
          "name": "",
          "type": "bool"
        }
      ],
      "stateMutability": "view",
      "type": "function"
    },
    {
      "inputs": [
        {
          "internalType": "bytes32",
          "name": "",
          "type": "bytes32"
        },
        {
          "internalType": "address",
          "name": "",
          "type": "address"
        }
      ],
      "name": "isRegistered",
      "outputs": [
        {
          "internalType": "bool",
          "name": "",
          "type": "bool"
        }
      ],
      "stateMutability": "view",
      "type": "function"
    },
    {
      "inputs": [
        {
          "internalType": "bytes32",
          "name": "outHash",
          "type": "bytes32"
        },
        {
          "internalType": "address",
          "name": "caller",
          "type": "address"
        }
      ],
      "name": "makeHash",
      "outputs": [
        {
          "internalType": "bytes32",
          "name": "",
          "type": "bytes32"
        }
      ],
      "stateMutability": "nonpayable",
      "type": "function"
    },
    {
      "inputs": [
        {
          "internalType": "bytes32",
          "name": "outHash",
          "type": "bytes32"
        },
        {
          "internalType": "address",
          "name": "inviter",
          "type": "address"
        },
        {
          "internalType": "address",
          "name": "invitee",
          "type": "address"
        }
      ],
      "name": "makeRelation",
      "outputs": [],
      "stateMutability": "nonpayable",
      "type": "function"
    },
    {
      "inputs": [],
      "name": "version",
      "outputs": [
        {
          "internalType": "uint256",
          "name": "",
          "type": "uint256"
        }
      ],
      "stateMutability": "pure",
      "type": "function"
    }
  ],
  "bytecode": "0x608060405234801561001057600080fd5b5061103f806100206000396000f3fe608060405234801561001057600080fd5b50600436106101385760003560e01c806354fd4d50116100b357806354fd4d50146102dc5780637bdab1f7146102e357806383015ea2146103195780638ae8d7af146103545780638d4944fe1461038b5780639f37acf81461039e578063af847002146103c9578063b213aa3d146103f4578063bf3507eb14610407578063c13b5c7b1461041a578063d444ef3b14610448578063e14b377c1461045b57600080fd5b8063030dc3181461013d5780630e242b871461018657806313651d07146101bf578063184eaa9a146101d45780631ae1b0db146101ff5780632ff3dac814610233578063315fcdb41461024657806334c76b2514610259578063364dbe42146102835780633eb3a309146102a35780634c192eef146102b6578063544b8086146102c9575b600080fd5b61017161014b366004610dd3565b600360209081526000938452604080852082529284528284209052825290205460ff1681565b60405190151581526020015b60405180910390f35b6101b1610194366004610e0f565b600760209081526000928352604080842090915290825290205481565b60405190815260200161017d565b6101d26101cd366004610dd3565b61047b565b005b6101e76101e2366004610e0f565b6107c3565b6040516001600160a01b03909116815260200161017d565b6101e761020d366004610e0f565b60016020908152600092835260408084209091529082529020546001600160a01b031681565b6101e7610241366004610e3b565b6107ef565b610171610254366004610dd3565b610827565b60408051808201825260088152672932b630ba34b7b760c11b6020820152905161017d9190610e5d565b610296610291366004610e0f565b610861565b60405161017d9190610eb2565b6101b16102b1366004610e0f565b61086d565b6101b16102c4366004610e0f565b6108a0565b6101e76102d7366004610eff565b6108b8565b60016101b1565b6101b16102f1366004610e0f565b60009182526002602090815260408084206001600160a01b0393909316845291905290205490565b610171610327366004610dd3565b60009283526001602090815260408085206001600160a01b03938416865290915290922054821691161490565b610171610362366004610e0f565b6000918252602082815260408084206001600160a01b0393909316845291905290205460ff1690565b610171610399366004610dd3565b610915565b6101716103ac366004610e0f565b600060208181529281526040808220909352908152205460ff1681565b6101b16103d7366004610e0f565b600660209081526000928352604080842090915290825290205481565b6101e7610402366004610e3b565b61098f565b6101e7610415366004610eff565b6109cb565b610171610428366004610e0f565b600560209081526000928352604080842090915290825290205460ff1681565b610296610456366004610e0f565b610a10565b6101b1610469366004610f34565b60009081526004602052604090205490565b60008333604051602001610490929190610f4d565b60408051601f19818403018152918152815160209283012060008181528084528281206001600160a01b038716825290935291205490915060ff16156105275760405162461bcd60e51b815260206004820152602160248201527f52656c6174696f6e3a696e766974656520686173206265656e20696e766974656044820152601960fa1b60648201526084015b60405180910390fd5b6001600160a01b03831661057d5760405162461bcd60e51b815260206004820152601d60248201527f52656c6174696f6e3a696e76697465722063616e206e6f742062652030000000604482015260640161051e565b610588818385610915565b156105ea5760405162461bcd60e51b815260206004820152602c60248201527f52656c6174696f6e3a696e76697465722063616e206e6f74206265206368696c60448201526b64206f6620696e766974656560a01b606482015260840161051e565b6000818152602081815260408083206001600160a01b038681168086529184528285208054600160ff199182168117909255878752818652848720848852865284872080546001600160a01b0319908116948c1694851790915588885260028752858820848952875285882080548085018255908952878920018054909116851790558787526003865284872083885286528487209387529285528386208054909316179091558484526005835281842090845290915290205460ff166107095760008181526005602090815260408083206001600160a01b038716808552908352818420805460ff19166001908117909155858552600484529184208054928301815584529190922090910180546001600160a01b03191690911790555b60008181526006602090815260408083206001600160a01b03861684529091529020429055610736610a8e565b60008281526007602090815260408083206001600160a01b03871684529091529020557f39b43ba427aabfa8d6b67d10f4d1c2c9a0c7d56b447e66c6b48b2441eb27903c81848442610786610a8e565b604080519586526001600160a01b03948516602087015292909316918401919091526060830152608082015260a00160405180910390a150505050565b60008281526001602090815260408083206001600160a01b038086168552925290912054165b92915050565b6004602052816000526040600020818154811061080b57600080fd5b6000918252602090912001546001600160a01b03169150829050565b60008381526003602090815260408083206001600160a01b038087168552908352818420908516845290915290205460ff165b9392505050565b606061085a8383610b1a565b60008282604051602001610882929190610f4d565b60405160208183030381529060405280519060200120905092915050565b600060016108ae8484610cda565b61085a9190610f7a565b60008060015b83811161090c5760008681526001602090815260408083206001600160a01b03988916845290915290205490941693849150816108fa5761090c565b8061090481610f91565b9150506108be565b50949350505050565b6000816001600160a01b0316836001600160a01b031614156109395750600161085a565b6001600160a01b038216156109855760008481526001602090815260408083206001600160a01b03958616845290915290205482169183168214156109805750600161085a565b610939565b5060009392505050565b60008281526004602052604081208054839081106109af576109af610fac565b6000918252602090912001546001600160a01b03169392505050565b600260205282600052604060002060205281600052604060002081815481106109f357600080fd5b6000918252602090912001546001600160a01b0316925083915050565b60008281526002602090815260408083206001600160a01b0385168452825291829020805483518184028101840190945280845260609392830182828015610a8157602002820191906000526020600020905b81546001600160a01b03168152600190910190602001808311610a63575b5050505050905092915050565b60004661a4b1811415610b135760646001600160a01b031663a3b1b31d6040518163ffffffff1660e01b815260040160206040518083038186803b158015610ad557600080fd5b505afa158015610ae9573d6000803e3d6000fd5b505050506040513d601f19601f82011682018060405250810190610b0d9190610fc2565b91505090565b4391505090565b60606000610b2884846108a0565b90506000610b37826001610fdb565b67ffffffffffffffff811115610b4f57610b4f610ff3565b604051908082528060200260200182016040528015610b78578160200160208202803683370190505b5090508381600081518110610b8f57610b8f610fac565b6001600160a01b039283166020918202929092018101919091526000878152600282526040808220938816825292825282812080548451818502810185019095528085526001949293830182828015610c1157602002820191906000526020600020905b81546001600160a01b03168152600190910190602001808311610bf3575b5050505050905060005b8151811015610cce576000610c4989848481518110610c3c57610c3c610fac565b6020026020010151610b1a565b905060005b8151811015610cb957818181518110610c6957610c69610fac565b6020026020010151868680610c7d90610f91565b975081518110610c8f57610c8f610fac565b6001600160a01b039092166020928302919091019091015280610cb181610f91565b915050610c4e565b50508080610cc690610f91565b915050610c1b565b50919695505050505050565b60008281526002602090815260408083206001600160a01b0385168452825280832080548251818502810185019093528083528493830182828015610d4857602002820191906000526020600020905b81546001600160a01b03168152600190910190602001808311610d2a575b50505050509050600060019050815160001415610d6a576001925050506107e9565b60005b825181101561090c57610d9986848381518110610d8c57610d8c610fac565b6020026020010151610cda565b610da39083610fdb565b915080610daf81610f91565b915050610d6d565b80356001600160a01b0381168114610dce57600080fd5b919050565b600080600060608486031215610de857600080fd5b83359250610df860208501610db7565b9150610e0660408501610db7565b90509250925092565b60008060408385031215610e2257600080fd5b82359150610e3260208401610db7565b90509250929050565b60008060408385031215610e4e57600080fd5b50508035926020909101359150565b600060208083528351808285015260005b81811015610e8a57858101830151858201604001528201610e6e565b81811115610e9c576000604083870101525b50601f01601f1916929092016040019392505050565b6020808252825182820181905260009190848201906040850190845b81811015610ef35783516001600160a01b031683529284019291840191600101610ece565b50909695505050505050565b600080600060608486031215610f1457600080fd5b83359250610f2460208501610db7565b9150604084013590509250925092565b600060208284031215610f4657600080fd5b5035919050565b9182526001600160a01b0316602082015260400190565b634e487b7160e01b600052601160045260246000fd5b600082821015610f8c57610f8c610f64565b500390565b6000600019821415610fa557610fa5610f64565b5060010190565b634e487b7160e01b600052603260045260246000fd5b600060208284031215610fd457600080fd5b5051919050565b60008219821115610fee57610fee610f64565b500190565b634e487b7160e01b600052604160045260246000fdfea26469706673582212205caba694990d922b956fc85bc1c536eb3f54b1f010475bce4863f07a3ed3ca2664736f6c63430008080033",
  "linkReferences": {},
  "deployedLinkReferences": {}
}