{
  "_format": "hh-sol-artifact-1",
  "contractName": "RestrictHandler",
  "sourceName": "contracts/V3/handler/RestrictHandler.sol",
  "abi": [
    {
      "anonymous": false,
      "inputs": [
        {
          "indexed": false,
          "internalType": "uint8",
          "name": "version",
          "type": "uint8"
        }
      ],
      "name": "Initialized",
      "type": "event"
    },
    {
      "anonymous": false,
      "inputs": [
        {
          "indexed": true,
          "internalType": "address",
          "name": "previousOwner",
          "type": "address"
        },
        {
          "indexed": true,
          "internalType": "address",
          "name": "newOwner",
          "type": "address"
        }
      ],
      "name": "OwnershipTransferred",
      "type": "event"
    },
    {
      "inputs": [
        {
          "components": [
            {
              "internalType": "address",
              "name": "engine",
              "type": "address"
            },
            {
              "internalType": "address",
              "name": "clusterArea",
              "type": "address"
            },
            {
              "internalType": "address",
              "name": "stateCounter",
              "type": "address"
            },
            {
              "internalType": "uint32",
              "name": "clusterId",
              "type": "uint32"
            },
            {
              "internalType": "uint32",
              "name": "taskId",
              "type": "uint32"
            },
            {
              "internalType": "address",
              "name": "claimer",
              "type": "address"
            },
            {
              "internalType": "uint8",
              "name": "io",
              "type": "uint8"
            },
            {
              "internalType": "uint16",
              "name": "round",
              "type": "uint16"
            },
            {
              "internalType": "uint8",
              "name": "branch",
              "type": "uint8"
            },
            {
              "internalType": "uint8",
              "name": "tokenSlotIndex",
              "type": "uint8"
            }
          ],
          "internalType": "struct IHandler.Claim",
          "name": "claim",
          "type": "tuple"
        }
      ],
      "name": "claimIOAddressBranchToken",
      "outputs": [
        {
          "internalType": "bool",
          "name": "",
          "type": "bool"
        }
      ],
      "stateMutability": "nonpayable",
      "type": "function"
    },
    {
      "inputs": [],
      "name": "cname",
      "outputs": [
        {
          "internalType": "string",
          "name": "",
          "type": "string"
        }
      ],
      "stateMutability": "pure",
      "type": "function"
    },
    {
      "inputs": [
        {
          "internalType": "bytes32",
          "name": "",
          "type": "bytes32"
        }
      ],
      "name": "engineClusterRuleAddressCallTimeCallCount",
      "outputs": [
        {
          "internalType": "uint64",
          "name": "",
          "type": "uint64"
        }
      ],
      "stateMutability": "view",
      "type": "function"
    },
    {
      "inputs": [
        {
          "components": [
            {
              "internalType": "address",
              "name": "engine",
              "type": "address"
            },
            {
              "internalType": "address",
              "name": "clusterArea",
              "type": "address"
            },
            {
              "internalType": "address",
              "name": "stateCounter",
              "type": "address"
            },
            {
              "internalType": "uint32",
              "name": "clusterId",
              "type": "uint32"
            },
            {
              "internalType": "uint32",
              "name": "taskId",
              "type": "uint32"
            },
            {
              "internalType": "address",
              "name": "claimer",
              "type": "address"
            },
            {
              "internalType": "uint8",
              "name": "io",
              "type": "uint8"
            },
            {
              "internalType": "uint16",
              "name": "round",
              "type": "uint16"
            },
            {
              "internalType": "uint8",
              "name": "branch",
              "type": "uint8"
            },
            {
              "internalType": "uint8",
              "name": "tokenSlotIndex",
              "type": "uint8"
            }
          ],
          "internalType": "struct IHandler.Claim",
          "name": "claim",
          "type": "tuple"
        }
      ],
      "name": "getClaimIOAddressBranchToken",
      "outputs": [
        {
          "internalType": "bool",
          "name": "",
          "type": "bool"
        }
      ],
      "stateMutability": "view",
      "type": "function"
    },
    {
      "inputs": [
        {
          "internalType": "address",
          "name": "engine",
          "type": "address"
        },
        {
          "internalType": "address",
          "name": "clusterArea",
          "type": "address"
        },
        {
          "internalType": "uint32",
          "name": "clusterId",
          "type": "uint32"
        },
        {
          "internalType": "uint16",
          "name": "ruleSlotIndexInput",
          "type": "uint16"
        },
        {
          "internalType": "uint16",
          "name": "ruleSlotIndexOutput",
          "type": "uint16"
        },
        {
          "internalType": "address",
          "name": "addr",
          "type": "address"
        }
      ],
      "name": "getClusterRuleAddressCallCount",
      "outputs": [
        {
          "internalType": "uint32",
          "name": "",
          "type": "uint32"
        }
      ],
      "stateMutability": "view",
      "type": "function"
    },
    {
      "inputs": [
        {
          "internalType": "address",
          "name": "engine",
          "type": "address"
        },
        {
          "internalType": "address",
          "name": "clusterArea",
          "type": "address"
        },
        {
          "internalType": "uint32",
          "name": "clusterId",
          "type": "uint32"
        },
        {
          "internalType": "uint16",
          "name": "ruleSlotIndexInput",
          "type": "uint16"
        },
        {
          "internalType": "uint16",
          "name": "ruleSlotIndexOutput",
          "type": "uint16"
        },
        {
          "internalType": "address",
          "name": "addr",
          "type": "address"
        }
      ],
      "name": "getClusterRuleAddressCallTime",
      "outputs": [
        {
          "internalType": "uint32",
          "name": "",
          "type": "uint32"
        }
      ],
      "stateMutability": "view",
      "type": "function"
    },
    {
      "inputs": [
        {
          "internalType": "address",
          "name": "clusterArea",
          "type": "address"
        },
        {
          "internalType": "uint32",
          "name": "clusterId",
          "type": "uint32"
        },
        {
          "internalType": "uint16",
          "name": "ruleSlotIndexInput",
          "type": "uint16"
        },
        {
          "internalType": "uint16",
          "name": "ruleSlotIndexOutput",
          "type": "uint16"
        }
      ],
      "name": "getClusterRulePerAddressMaxCount",
      "outputs": [
        {
          "internalType": "uint32",
          "name": "",
          "type": "uint32"
        }
      ],
      "stateMutability": "view",
      "type": "function"
    },
    {
      "inputs": [
        {
          "internalType": "address",
          "name": "clusterArea",
          "type": "address"
        },
        {
          "internalType": "uint32",
          "name": "clusterId",
          "type": "uint32"
        },
        {
          "internalType": "uint16",
          "name": "ruleSlotIndexInput",
          "type": "uint16"
        },
        {
          "internalType": "uint16",
          "name": "ruleSlotIndexOutput",
          "type": "uint16"
        }
      ],
      "name": "getClusterRulePerAddressTimeLimit",
      "outputs": [
        {
          "internalType": "uint32",
          "name": "",
          "type": "uint32"
        }
      ],
      "stateMutability": "view",
      "type": "function"
    },
    {
      "inputs": [
        {
          "internalType": "string[]",
          "name": "areaNameList",
          "type": "string[]"
        }
      ],
      "name": "getEngineAreaList",
      "outputs": [
        {
          "internalType": "address[]",
          "name": "",
          "type": "address[]"
        }
      ],
      "stateMutability": "nonpayable",
      "type": "function"
    },
    {
      "inputs": [],
      "name": "getIOBranches",
      "outputs": [
        {
          "components": [
            {
              "internalType": "uint8[]",
              "name": "inBranch",
              "type": "uint8[]"
            },
            {
              "internalType": "uint8[]",
              "name": "outBranch",
              "type": "uint8[]"
            }
          ],
          "internalType": "struct IHandler.IOBranch[]",
          "name": "branches",
          "type": "tuple[]"
        }
      ],
      "stateMutability": "pure",
      "type": "function"
    },
    {
      "inputs": [
        {
          "internalType": "address",
          "name": "engine",
          "type": "address"
        },
        {
          "internalType": "address",
          "name": "clusterArea",
          "type": "address"
        },
        {
          "internalType": "uint32",
          "name": "clusterId",
          "type": "uint32"
        },
        {
          "internalType": "address",
          "name": "stateCounter",
          "type": "address"
        },
        {
          "internalType": "uint32",
          "name": "taskId",
          "type": "uint32"
        },
        {
          "internalType": "uint16",
          "name": "round",
          "type": "uint16"
        }
      ],
      "name": "getInputAddressRound",
      "outputs": [
        {
          "internalType": "address[]",
          "name": "addr",
          "type": "address[]"
        }
      ],
      "stateMutability": "view",
      "type": "function"
    },
    {
      "inputs": [
        {
          "internalType": "address",
          "name": "engine",
          "type": "address"
        },
        {
          "internalType": "address",
          "name": "clusterArea",
          "type": "address"
        },
        {
          "internalType": "uint32",
          "name": "clusterId",
          "type": "uint32"
        },
        {
          "internalType": "address",
          "name": "stateCounter",
          "type": "address"
        },
        {
          "internalType": "uint32",
          "name": "taskId",
          "type": "uint32"
        },
        {
          "internalType": "uint16",
          "name": "round",
          "type": "uint16"
        }
      ],
      "name": "getOutputAddressRound",
      "outputs": [
        {
          "internalType": "address[]",
          "name": "addr",
          "type": "address[]"
        }
      ],
      "stateMutability": "view",
      "type": "function"
    },
    {
      "inputs": [
        {
          "internalType": "uint32",
          "name": "clusterId",
          "type": "uint32"
        },
        {
          "internalType": "uint16",
          "name": "ruleSlotIndex",
          "type": "uint16"
        },
        {
          "internalType": "uint8",
          "name": "branch",
          "type": "uint8"
        }
      ],
      "name": "getRuleGroupSlotArgs",
      "outputs": [
        {
          "internalType": "bytes",
          "name": "",
          "type": "bytes"
        }
      ],
      "stateMutability": "view",
      "type": "function"
    },
    {
      "inputs": [
        {
          "components": [
            {
              "internalType": "address",
              "name": "engine",
              "type": "address"
            },
            {
              "internalType": "address",
              "name": "clusterArea",
              "type": "address"
            },
            {
              "internalType": "uint32",
              "name": "clusterId",
              "type": "uint32"
            },
            {
              "internalType": "uint16",
              "name": "ruleSlotIndexInput",
              "type": "uint16"
            },
            {
              "internalType": "uint16",
              "name": "ruleSlotIndexOutput",
              "type": "uint16"
            },
            {
              "internalType": "uint8",
              "name": "branch",
              "type": "uint8"
            },
            {
              "internalType": "address",
              "name": "stateCounter",
              "type": "address"
            },
            {
              "internalType": "uint32",
              "name": "taskId",
              "type": "uint32"
            },
            {
              "internalType": "address",
              "name": "caller",
              "type": "address"
            },
            {
              "internalType": "uint8",
              "name": "cmd",
              "type": "uint8"
            },
            {
              "internalType": "bytes",
              "name": "args",
              "type": "bytes"
            }
          ],
          "internalType": "struct Handler.StateParams",
          "name": "params",
          "type": "tuple"
        }
      ],
      "name": "getState",
      "outputs": [
        {
          "internalType": "bytes[]",
          "name": "",
          "type": "bytes[]"
        }
      ],
      "stateMutability": "view",
      "type": "function"
    },
    {
      "inputs": [
        {
          "internalType": "address",
          "name": "engine",
          "type": "address"
        },
        {
          "internalType": "address",
          "name": "outAddress",
          "type": "address"
        },
        {
          "internalType": "address",
          "name": "clusterArea",
          "type": "address"
        },
        {
          "internalType": "uint32",
          "name": "clusterId",
          "type": "uint32"
        },
        {
          "internalType": "address",
          "name": "stateCounter",
          "type": "address"
        },
        {
          "internalType": "uint32",
          "name": "taskId",
          "type": "uint32"
        },
        {
          "internalType": "bytes",
          "name": "args",
          "type": "bytes"
        },
        {
          "internalType": "uint16",
          "name": "round",
          "type": "uint16"
        }
      ],
      "name": "getTokenBranch",
      "outputs": [
        {
          "components": [
            {
              "internalType": "uint256[]",
              "name": "valueList",
              "type": "uint256[]"
            }
          ],
          "internalType": "struct TokenHandler.TokenBranch",
          "name": "",
          "type": "tuple"
        }
      ],
      "stateMutability": "view",
      "type": "function"
    },
    {
      "inputs": [],
      "name": "initialize",
      "outputs": [],
      "stateMutability": "nonpayable",
      "type": "function"
    },
    {
      "inputs": [],
      "name": "owner",
      "outputs": [
        {
          "internalType": "address",
          "name": "",
          "type": "address"
        }
      ],
      "stateMutability": "view",
      "type": "function"
    },
    {
      "inputs": [
        {
          "components": [
            {
              "internalType": "address",
              "name": "caller",
              "type": "address"
            },
            {
              "internalType": "address",
              "name": "stateCounter",
              "type": "address"
            },
            {
              "internalType": "address",
              "name": "poolFee",
              "type": "address"
            },
            {
              "components": [
                {
                  "internalType": "address",
                  "name": "caller",
                  "type": "address"
                },
                {
                  "internalType": "address",
                  "name": "clusterArea",
                  "type": "address"
                },
                {
                  "internalType": "address",
                  "name": "lastHandler",
                  "type": "address"
                },
                {
                  "internalType": "address",
                  "name": "snippet",
                  "type": "address"
                },
                {
                  "internalType": "uint256",
                  "name": "valueTime",
                  "type": "uint256"
                },
                {
                  "internalType": "uint256",
                  "name": "value",
                  "type": "uint256"
                },
                {
                  "internalType": "uint32",
                  "name": "taskId",
                  "type": "uint32"
                },
                {
                  "internalType": "uint32",
                  "name": "parentTaskId",
                  "type": "uint32"
                },
                {
                  "internalType": "uint32",
                  "name": "clusterId",
                  "type": "uint32"
                },
                {
                  "internalType": "uint8",
                  "name": "state",
                  "type": "uint8"
                },
                {
                  "components": [
                    {
                      "internalType": "uint8",
                      "name": "erc",
                      "type": "uint8"
                    },
                    {
                      "internalType": "address",
                      "name": "token",
                      "type": "address"
                    },
                    {
                      "internalType": "uint256",
                      "name": "id",
                      "type": "uint256"
                    },
                    {
                      "internalType": "uint256",
                      "name": "amount",
                      "type": "uint256"
                    },
                    {
                      "components": [
                        {
                          "internalType": "uint32",
                          "name": "attrId",
                          "type": "uint32"
                        },
                        {
                          "internalType": "int40",
                          "name": "attrAmount",
                          "type": "int40"
                        }
                      ],
                      "internalType": "struct Attribute.AttributeIn[]",
                      "name": "attrInList",
                      "type": "tuple[]"
                    }
                  ],
                  "internalType": "struct Token.Token[]",
                  "name": "inTokenList",
                  "type": "tuple[]"
                },
                {
                  "internalType": "bytes",
                  "name": "args",
                  "type": "bytes"
                }
              ],
              "internalType": "struct Task.Task",
              "name": "task",
              "type": "tuple"
            },
            {
              "internalType": "uint8",
              "name": "state",
              "type": "uint8"
            }
          ],
          "internalType": "struct Handler.Process",
          "name": "param",
          "type": "tuple"
        },
        {
          "components": [
            {
              "internalType": "address",
              "name": "handler",
              "type": "address"
            },
            {
              "internalType": "uint8",
              "name": "code",
              "type": "uint8"
            },
            {
              "internalType": "string",
              "name": "msg",
              "type": "string"
            },
            {
              "internalType": "bytes",
              "name": "args",
              "type": "bytes"
            }
          ],
          "internalType": "struct Handler.Result",
          "name": "preResult",
          "type": "tuple"
        }
      ],
      "name": "process",
      "outputs": [
        {
          "components": [
            {
              "internalType": "address",
              "name": "handler",
              "type": "address"
            },
            {
              "internalType": "uint8",
              "name": "code",
              "type": "uint8"
            },
            {
              "internalType": "string",
              "name": "msg",
              "type": "string"
            },
            {
              "internalType": "bytes",
              "name": "args",
              "type": "bytes"
            }
          ],
          "internalType": "struct Handler.Result",
          "name": "",
          "type": "tuple"
        }
      ],
      "stateMutability": "nonpayable",
      "type": "function"
    },
    {
      "inputs": [
        {
          "internalType": "uint32",
          "name": "clusterId",
          "type": "uint32"
        },
        {
          "components": [
            {
              "components": [
                {
                  "components": [
                    {
                      "components": [
                        {
                          "internalType": "uint8",
                          "name": "erc",
                          "type": "uint8"
                        },
                        {
                          "internalType": "address",
                          "name": "token",
                          "type": "address"
                        },
                        {
                          "internalType": "uint256[]",
                          "name": "valueList",
                          "type": "uint256[]"
                        }
                      ],
                      "internalType": "struct Token.TokenTemplate",
                      "name": "tokenTemplate",
                      "type": "tuple"
                    },
                    {
                      "internalType": "uint8",
                      "name": "rule",
                      "type": "uint8"
                    },
                    {
                      "internalType": "address[]",
                      "name": "ioAddressList",
                      "type": "address[]"
                    },
                    {
                      "internalType": "uint256[]",
                      "name": "valueList",
                      "type": "uint256[]"
                    }
                  ],
                  "internalType": "struct Rule.TokenSlot[]",
                  "name": "tokenSlotList",
                  "type": "tuple[]"
                },
                {
                  "internalType": "uint8",
                  "name": "branch",
                  "type": "uint8"
                },
                {
                  "internalType": "address",
                  "name": "poolToken",
                  "type": "address"
                },
                {
                  "internalType": "address[]",
                  "name": "handlerList",
                  "type": "address[]"
                },
                {
                  "internalType": "bytes[]",
                  "name": "argsList",
                  "type": "bytes[]"
                }
              ],
              "internalType": "struct Rule.GroupSlot[]",
              "name": "groupSlotList",
              "type": "tuple[]"
            },
            {
              "internalType": "uint8[]",
              "name": "ruleSlotBound",
              "type": "uint8[]"
            },
            {
              "components": [
                {
                  "internalType": "uint16",
                  "name": "ruleSlotIndexInput",
                  "type": "uint16"
                },
                {
                  "internalType": "uint16",
                  "name": "ruleSlotIndexOutput",
                  "type": "uint16"
                },
                {
                  "internalType": "uint8",
                  "name": "state",
                  "type": "uint8"
                },
                {
                  "internalType": "uint32",
                  "name": "totalCount",
                  "type": "uint32"
                },
                {
                  "internalType": "uint8",
                  "name": "durationType",
                  "type": "uint8"
                },
                {
                  "internalType": "uint32",
                  "name": "delayTimestamp",
                  "type": "uint32"
                },
                {
                  "internalType": "uint32",
                  "name": "delayBlockNumber",
                  "type": "uint32"
                },
                {
                  "internalType": "uint64",
                  "name": "handlerCount",
                  "type": "uint64"
                },
                {
                  "internalType": "address[]",
                  "name": "handlerList",
                  "type": "address[]"
                },
                {
                  "internalType": "bytes[]",
                  "name": "handlerArgsList",
                  "type": "bytes[]"
                },
                {
                  "internalType": "address",
                  "name": "snippet",
                  "type": "address"
                }
              ],
              "internalType": "struct Rule.Rule[]",
              "name": "ruleList",
              "type": "tuple[]"
            },
            {
              "components": [
                {
                  "internalType": "uint32",
                  "name": "attrId",
                  "type": "uint32"
                },
                {
                  "internalType": "string",
                  "name": "name",
                  "type": "string"
                },
                {
                  "internalType": "string",
                  "name": "symbol",
                  "type": "string"
                },
                {
                  "internalType": "string",
                  "name": "uri",
                  "type": "string"
                },
                {
                  "internalType": "uint8",
                  "name": "level",
                  "type": "uint8"
                }
              ],
              "internalType": "struct Attribute.Attribute[]",
              "name": "attrList",
              "type": "tuple[]"
            },
            {
              "internalType": "uint8[]",
              "name": "attrStateList",
              "type": "uint8[]"
            },
            {
              "internalType": "address[]",
              "name": "deployerList",
              "type": "address[]"
            },
            {
              "internalType": "address[]",
              "name": "adminList",
              "type": "address[]"
            },
            {
              "internalType": "uint32",
              "name": "delayTimestamp",
              "type": "uint32"
            },
            {
              "internalType": "uint32",
              "name": "delayBlockNumber",
              "type": "uint32"
            },
            {
              "internalType": "uint8",
              "name": "state",
              "type": "uint8"
            },
            {
              "internalType": "string",
              "name": "description",
              "type": "string"
            }
          ],
          "internalType": "struct Cluster.Cluster",
          "name": "cluster",
          "type": "tuple"
        }
      ],
      "name": "regRule",
      "outputs": [],
      "stateMutability": "nonpayable",
      "type": "function"
    },
    {
      "inputs": [
        {
          "internalType": "uint32",
          "name": "clusterId",
          "type": "uint32"
        },
        {
          "internalType": "uint16",
          "name": "ruleSlotIndex",
          "type": "uint16"
        },
        {
          "internalType": "uint8",
          "name": "branch",
          "type": "uint8"
        },
        {
          "internalType": "bytes",
          "name": "args",
          "type": "bytes"
        }
      ],
      "name": "regRuleGroupSlotArgs",
      "outputs": [],
      "stateMutability": "nonpayable",
      "type": "function"
    },
    {
      "inputs": [],
      "name": "renounceOwnership",
      "outputs": [],
      "stateMutability": "nonpayable",
      "type": "function"
    },
    {
      "inputs": [
        {
          "internalType": "bytes32",
          "name": "",
          "type": "bytes32"
        }
      ],
      "name": "rulePerAddressTimeLimitMaxCount",
      "outputs": [
        {
          "internalType": "uint64",
          "name": "",
          "type": "uint64"
        }
      ],
      "stateMutability": "view",
      "type": "function"
    },
    {
      "inputs": [
        {
          "internalType": "address[]",
          "name": "engineAreaList",
          "type": "address[]"
        }
      ],
      "name": "setEngineAreaList",
      "outputs": [],
      "stateMutability": "nonpayable",
      "type": "function"
    },
    {
      "inputs": [
        {
          "internalType": "address",
          "name": "newOwner",
          "type": "address"
        }
      ],
      "name": "transferOwnership",
      "outputs": [],
      "stateMutability": "nonpayable",
      "type": "function"
    },
    {
      "inputs": [
        {
          "internalType": "uint32",
          "name": "clusterId",
          "type": "uint32"
        },
        {
          "internalType": "uint16",
          "name": "ruleSlotIndexInput",
          "type": "uint16"
        },
        {
          "internalType": "uint16",
          "name": "ruleSlotIndexOutput",
          "type": "uint16"
        },
        {
          "internalType": "uint8",
          "name": "cmd",
          "type": "uint8"
        },
        {
          "internalType": "bytes",
          "name": "args",
          "type": "bytes"
        }
      ],
      "name": "updateArgs",
      "outputs": [
        {
          "internalType": "bool",
          "name": "",
          "type": "bool"
        }
      ],
      "stateMutability": "nonpayable",
      "type": "function"
    },
    {
      "inputs": [],
      "name": "version",
      "outputs": [
        {
          "internalType": "uint256",
          "name": "",
          "type": "uint256"
        }
      ],
      "stateMutability": "pure",
      "type": "function"
    }
  ],
  "bytecode": "0x608060405234801561001057600080fd5b50614aed806100206000396000f3fe608060405234801561001057600080fd5b506004361061014e5760003560e01c806395edcb08116100be57806395edcb08146102af578063a903620c146102cf578063af84b51f146102e2578063b41bd78914610302578063b4b7035214610315578063c185c7cf14610328578063c3a628661461033b578063d0d35b551461034e578063ded698b014610361578063efc853e1146103a2578063f2fde38b146103cb578063f2fe4fa5146103de578063fa014a1a146103ed57600080fd5b80631cc4f041146101535780631eda6e4f1461017c578063312872f2146101be57806334c76b25146101e65780634b2dbcb8146102135780634b2e9b411461021357806354fd4d501461023a5780635790c2941461024957806362329cc51461025e5780636dabaf0414610271578063715018a6146102845780638129fc1c1461028c5780638da5cb5b14610294575b600080fd5b610167610161366004612cf2565b50600190565b60405190151581526020015b60405180910390f35b6101b161018a366004612e37565b50506040805160208082018352606091829052825190810190925281529695505050505050565b6040516101739190612ef0565b6101d16101cc366004612f40565b610400565b60405163ffffffff9091168152602001610173565b60408051808201909152600881526714995cdd1c9a58dd60c21b60208201525b6040516101739190613014565b61022d610221366004613027565b60609695505050505050565b60405161017391906130a1565b60405160018152602001610173565b61025c6102573660046130ee565b61046a565b005b61022d61026c36600461317f565b6104eb565b61016761027f36600461322f565b6105c8565b61025c610698565b61025c6106ac565b6033546040516001600160a01b039091168152602001610173565b6102c26102bd3660046134c0565b6107bd565b6040516101739190613690565b61025c6102dd366004613de9565b6108b1565b6102f56102f0366004613f9c565b61092e565b60405161017391906140b9565b61025c61031036600461411b565b610c1b565b610167610323366004612cf2565b610d29565b6101d1610336366004612f40565b610d9e565b6101d161034936600461414f565b610e43565b61020661035c3660046141a5565b610f1b565b61038a61036f3660046141e8565b6069602052600090815260409020546001600160401b031681565b6040516001600160401b039091168152602001610173565b61038a6103b03660046141e8565b6068602052600090815260409020546001600160401b031681565b61025c6103d9366004614201565b610f38565b6060604051610173919061425c565b6101d16103fb36600461414f565b610fae565b60008087878787878760405160200161041e969594939291906142e1565b60408051601f198184030181529181528151602092830120600081815260698452918220549093506001600160401b03169161045c90839083611072565b9a9950505050505050505050565b6040518060400160405280600f81526020016e436c757374657252756c654172656160881b8152506066816040516104a29190614323565b90815260405190819003602001902054336001600160a01b03909116146104e45760405162461bcd60e51b81526004016104db9061433f565b60405180910390fd5b5050505050565b6060600082516001600160401b0381111561050857610508612b59565b604051908082528060200260200182016040528015610531578160200160208202803683370190505b50905060005b81518110156105c157606684828151811061055457610554614376565b60200260200101516040516105699190614323565b9081526040519081900360200190205482516001600160a01b039091169083908390811061059957610599614376565b6001600160a01b03909216602092830291909101909101526105ba816143a2565b9050610537565b5092915050565b60006040518060400160405280601681526020017521b63ab9ba32b9293ab632a0b932b0a430b7323632b960511b8152506066816040516106099190614323565b90815260405190819003602001902054336001600160a01b03909116146106425760405162461bcd60e51b81526004016104db9061433f565b60ff84161580610655575060ff84166001145b1561068b5761067f6040518060600160405280602c81526020016148c2602c91398560ff16611091565b61068b878787866110d6565b5060019695505050505050565b6106a06112b3565b6106aa600061130d565b565b600054610100900460ff16158080156106cc5750600054600160ff909116105b806106e65750303b1580156106e6575060005460ff166001145b6107495760405162461bcd60e51b815260206004820152602e60248201527f496e697469616c697a61626c653a20636f6e747261637420697320616c72656160448201526d191e481a5b9a5d1a585b1a5e995960921b60648201526084016104db565b6000805460ff19166001179055801561076c576000805461ff0019166101001790555b61077461135f565b80156107ba576000805461ff0019169055604051600181527f7f26b83ff96e1f2b6a682f133852f6798a09c465da95921460cefb38474024989060200160405180910390a15b50565b6107c5612b19565b60405180604001604052806006815260200165456e67696e6560d01b8152506066816040516107f49190614323565b90815260405190819003602001902054336001600160a01b039091161461082d5760405162461bcd60e51b81526004016104db9061433f565b608084015160ff1661086b5761085a60405180606001604052806032815260200161494a6032913961138e565b61086484846113d1565b92506108a9565b608084015160ff16600114156108a95761089c6040518060600160405280603681526020016149146036913961138e565b6108a684846113ee565b92505b509092915050565b6040518060400160405280601681526020017521b63ab9ba32b9293ab632a0b932b0a430b7323632b960511b8152506066816040516108f09190614323565b90815260405190819003602001902054336001600160a01b03909116146109295760405162461bcd60e51b81526004016104db9061433f565b505050565b6060600061094e8360200151846040015185606001518660800151610fae565b9050600061096e8460200151856040015186606001518760800151610e43565b90506000610a0985602001516001600160a01b031663059577066040518163ffffffff1660e01b815260040160206040518083038186803b1580156109b257600080fd5b505afa1580156109c6573d6000803e3d6000fd5b505050506040513d601f19601f820116820180604052508101906109ea91906143bd565b86602001518760400151886060015189608001518a6101000151610400565b90506000610aa486602001516001600160a01b031663059577066040518163ffffffff1660e01b815260040160206040518083038186803b158015610a4d57600080fd5b505afa158015610a61573d6000803e3d6000fd5b505050506040513d601f19601f82011682018060405250810190610a8591906143bd565b8760200151886040015189606001518a608001518b6101000151610d9e565b60408051600480825260a0820190925291925060009190816020015b6060815260200190600190039081610ac0579050509050610b07604051806040016040528060088152602001671b585e10dbdd5b9d60c21b8152508663ffffffff1661159b565b81600081518110610b1a57610b1a614376565b6020026020010181905250610b56604051806040016040528060098152602001681d1a5b59531a5b5a5d60ba1b8152508563ffffffff1661159b565b81600181518110610b6957610b69614376565b6020026020010181905250610ba56040518060400160405280600981526020016818d85b1b10dbdd5b9d60ba1b8152508463ffffffff1661159b565b81600281518110610bb857610bb8614376565b6020026020010181905250610bf36040518060400160405280600881526020016763616c6c54696d6560c01b8152508363ffffffff1661159b565b81600381518110610c0657610c06614376565b60209081029190910101529695505050505050565b610c236112b3565b60005b8151811015610d2557818181518110610c4157610c41614376565b60200260200101516066838381518110610c5d57610c5d614376565b60200260200101516001600160a01b03166334c76b256040518163ffffffff1660e01b815260040160006040518083038186803b158015610c9d57600080fd5b505afa158015610cb1573d6000803e3d6000fd5b505050506040513d6000823e601f3d908101601f19168201604052610cd991908101906143da565b604051610ce69190614323565b90815260405190819003602001902080546001600160a01b03929092166001600160a01b0319909216919091179055610d1e816143a2565b9050610c26565b5050565b600060405180604001604052806006815260200165456e67696e6560d01b815250606681604051610d5a9190614323565b90815260405190819003602001902054336001600160a01b0390911614610d935760405162461bcd60e51b81526004016104db9061433f565b600191505b50919050565b60008086868686604051602001610db89493929190614447565b6040516020818303038152906040528051906020012090506000888888888888604051602001610ded969594939291906142e1565b60408051601f198184030181529181528151602092830120600081815260698452918220549093506001600160401b031691610e34908390610e2f848261447a565b611072565b9b9a5050505050505050505050565b600080856001600160a01b031663fe8c4aa36040518163ffffffff1660e01b815260040160206040518083038186803b158015610e7f57600080fd5b505afa158015610e93573d6000803e3d6000fd5b505050506040513d601f19601f82011682018060405250810190610eb791906143bd565b858585604051602001610ecd9493929190614447565b60408051601f198184030181529181528151602092830120600081815260688452918220549093506001600160401b031691610f0f908390610e2f848261447a565b98975050505050505050565b604080516000808252602082019092526060915b50949350505050565b610f406112b3565b6001600160a01b038116610fa55760405162461bcd60e51b815260206004820152602660248201527f4f776e61626c653a206e6577206f776e657220697320746865207a65726f206160448201526564647265737360d01b60648201526084016104db565b6107ba8161130d565b600080856001600160a01b031663fe8c4aa36040518163ffffffff1660e01b815260040160206040518083038186803b158015610fea57600080fd5b505afa158015610ffe573d6000803e3d6000fd5b505050506040513d601f19601f8201168201806040525081019061102291906143bd565b8585856040516020016110389493929190614447565b60408051601f198184030181529181528151602092830120600081815260688452918220549093506001600160401b031691610f0f908390835b91821c91600080611086600180861b614492565b909416949350505050565b610d2582826040516024016110a79291906144a9565b60408051601f198184030181529190526020810180516001600160e01b0316632d839cb360e21b1790526116bb565b60006110e1826116dc565b90506111066040518060600160405280603881526020016147c2603891398251611091565b805161111257506112ad565b600061111f8360006116f8565b9050600061112e8460016116f8565b9050611158604051806060016040528060328152602001614a27603291398863ffffffff16611091565b61117e6040518060600160405280603b8152602001614824603b91398761ffff16611091565b6111a46040518060600160405280603c815260200161485f603c91398661ffff16611091565b6111cc604051806060016040528060318152602001614a59603191398363ffffffff16611091565b6111f46040518060600160405280603281526020016149f5603291398263ffffffff16611091565b60003388888860405160200161120d9493929190614447565b60408051601f198184030181529181528151602092830120600081815260688452918220549093506001600160401b03169161125291839163ffffffff881691611758565b905061127a6001600160401b03821663ffffffff8516602061127560008261447a565b611758565b600092835260686020526040909220805467ffffffffffffffff19166001600160401b0390931692909217909155505050505b50505050565b6033546001600160a01b031633146106aa5760405162461bcd60e51b815260206004820181905260248201527f4f776e61626c653a2063616c6c6572206973206e6f7420746865206f776e657260448201526064016104db565b603380546001600160a01b038381166001600160a01b0319831681179093556040519116919082907f8be0079c531659141344cd1fd0a4f28419497f9722a3daafe3b4186f6b6457e090600090a35050565b600054610100900460ff166113865760405162461bcd60e51b81526004016104db906144cb565b6106aa61177d565b6107ba816040516024016113a29190613014565b60408051601f198184030181529190526020810180516001600160e01b031663104c13eb60e21b1790526116bb565b6113d9612b19565b6113e383836117ad565b508190505b92915050565b6113f6612b19565b60006114058460600151611b8f565b905061142a604051806060016040528060368152602001614914603691398251611091565b60006114398560600151611b9b565b90506114606040518060600160405280602781526020016149ce602791398260ff16611091565b60ff81811614156114755783925050506113e8565b60608501516000906114919061148c908484611ba7565b611c27565b905060ff8116600a14806114a8575060ff81166064145b806114b6575060ff81166064145b156115915760006114c787876117ad565b6060880151602081015161010082015192935060009233926114e890611c74565b6114f58c60600151611c8e565b8c5160405161150c969594939291906020016142e1565b604051602081830303815290604052805190602001209050600061153d816001600160401b03168460206000611758565b90506115606001600160401b03821663ffffffff4216602061127560008261447a565b600092835260696020526040909220805467ffffffffffffffff19166001600160401b039093169290921790915550505b5092949350505050565b606060006115a884611cb3565b905060006115b584611cbe565b90506115f86040518060400160405280600e81526020016d0b4b4b4b4b4b4b481d1bd55a5b9d60921b8152506115f3836115ee90614516565b611cd1565b611d1d565b60408051600380825260808201909252600091816020015b6060815260200190600190039081611610579050509050828160008151811061163b5761163b614376565b602002602001018190525061166b604051806040016040528060048152602001631d5a5b9d60e21b815250611cb3565b8160018151811061167e5761167e614376565b6020026020010181905250818160028151811061169d5761169d614376565b60200260200101819052506116b181611d62565b9695505050505050565b80516a636f6e736f6c652e6c6f67602083016000808483855afa5050505050565b606060006116f16116ec84611d86565b611dac565b9392505050565b6000806117076116ec85611d86565b9050611750611731828560ff168151811061172457611724614376565b6020026020010151611dac565b60028151811061174357611743614376565b6020026020010151611c27565b949350505050565b600083821b818361176c600180881b614492565b901b19969096161795945050505050565b600054610100900460ff166117a45760405162461bcd60e51b81526004016104db906144cb565b6106aa3361130d565b6000808360600151602001516001600160a01b031663fe8c4aa36040518163ffffffff1660e01b815260040160206040518083038186803b1580156117f157600080fd5b505afa158015611805573d6000803e3d6000fd5b505050506040513d601f19601f8201168201806040525081019061182991906143bd565b60608501516101008101519061183e90611c74565b61184b8760600151611c8e565b60405160200161185e9493929190614447565b60408051601f198184030181529181528151602092830120600081815260688452918220549093506001600160401b03169161189c90839083611072565b905060006118b96001600160401b0384166020610e2f848261447a565b6060880151602081015161010082015192935060009233926118da90611c74565b6118e78c60600151611c8e565b8c516040516118fe969594939291906020016142e1565b60408051601f198184030181529181528151602092830120600081815260698452918220549093506001600160401b03169161193c90839083611072565b905060006119596001600160401b0384166020610e2f848261447a565b90506119836040518060600160405280602681526020016148ee602691398763ffffffff16611091565b6119ab60405180606001604052806027815260200161489b602791398663ffffffff16611091565b6119d36040518060600160405280602b8152602001614797602b91398363ffffffff16611091565b6119fb6040518060600160405280602e8152602001614a8a602e91398263ffffffff16611091565b611a1d6040518060600160405280602d81526020016149a1602d913942611091565b8563ffffffff16611a318c60600151611eb5565b611a3e9060ff168461453a565b63ffffffff16118015611a57575060008663ffffffff16115b8015611a69575060008163ffffffff16115b15611acf576000611aaf6040518060600160405280602a81526020016147fa602a9139611a9b8563ffffffff16611ef0565b611aaa8a63ffffffff16611ef0565b611efb565b90611acd5760405162461bcd60e51b81526004016104db9190613014565b505b42611ada868361453a565b63ffffffff16118015611af3575060008563ffffffff16115b8015611b05575060008163ffffffff16115b15611b60576000611b4060405180606001604052806025815260200161497c60259139611b378463ffffffff16611ef0565b611aaa42611ef0565b90611b5e5760405162461bcd60e51b81526004016104db9190613014565b505b611b6d8b60600151611eb5565b611b7a9060ff168361453a565b63ffffffff169b9a5050505050505050505050565b60606113e88230611f2a565b60006113e88230611fdd565b611baf612b3f565b6000611bc26116ec866101600151611d86565b90506000611bde828660ff168151811061172457611724614376565b9050611c0281611bef866001614562565b60ff168151811061172457611724614376565b600281518110611c1457611c14614376565b6020026020010151925050509392505050565b805160009015801590611c3c57508151602110155b611c4557600080fd5b600080611c5184612061565b8151919350915060208210156117505760208290036101000a9004949350505050565b60006113e88260a00151601060006008610e2f919061447a565b60006113e88260a00151601060006008611ca8919061447a565b610e2f90601061447a565b60606113e8826120a8565b60606113e8611ccc836120f8565b6120a8565b6060611cdc8261222c565b611ce9608084901b61222c565b60405161060f60f31b6020820152602281019290925260428201526062016040516020818303038152906040529050919050565b610d258282604051602401611d33929190614587565b60408051601f198184030181529190526020810180516001600160e01b0316634b5c427760e01b1790526116bb565b60606000611d6f836123d6565b90506116f1611d80825160c0612507565b826126bd565b611d8e612b3f565b50604080518082019091528151815260209182019181019190915290565b6060611db78261273a565b611dc057600080fd5b6000611dcb83612773565b90506000816001600160401b03811115611de757611de7612b59565b604051908082528060200260200182016040528015611e2057816020015b611e0d612b3f565b815260200190600190039081611e055790505b5090506000611e3285602001516127f6565b8560200151611e41919061447a565b90506000805b84811015611eaa57611e5883612871565b9150604051806040016040528083815260200184815250848281518110611e8157611e81614376565b6020908102919091010152611e96828461447a565b925080611ea2816143a2565b915050611e47565b509195945050505050565b60006113e88260a00151601060006008611ecf919061447a565b611eda90601061447a565b611ee590601061447a565b610e2f90600861447a565b60606113e882612915565b6060838383604051602001611f12939291906145ac565b60405160208183030381529060405290509392505050565b60606000611f3f6116ec856101600151611d86565b905060005b8151811015611fd2576000611f86611f6784848151811061172457611724614376565b600081518110611f7957611f79614376565b60200260200101516129b1565b9050846001600160a01b0316816001600160a01b03161415611fc157611fb783838151811061172457611724614376565b93505050506113e8565b50611fcb816143a2565b9050611f44565b506060949350505050565b600080611ff16116ec856101600151611d86565b905060005b81518160ff16101561205657600061201f611f67848460ff168151811061172457611724614376565b9050846001600160a01b0316816001600160a01b03161415612045575091506113e89050565b5061204f81614606565b9050611ff6565b5060ff949350505050565b600080600061207384602001516127f6565b90506000818560200151612087919061447a565b9050600082866000015161209b9190614492565b9196919550909350505050565b606080825160011480156120d757506080836000815181106120cc576120cc614376565b016020015160f81c11155b156120e35750816113e8565b6116f16120f284516080612507565b846126bd565b6040805160208082528183019092526060916000919060208201818036833701905050905082602082015260005b602081101561216c5781818151811061214157612141614376565b01602001516001600160f81b0319161561215a5761216c565b80612164816143a2565b915050612126565b6000612179826020614492565b6001600160401b0381111561219057612190612b59565b6040519080825280601f01601f1916602001820160405280156121ba576020820181803683370190505b50905060005b8151811015610f2f5783836121d4816143a2565b9450815181106121e6576121e6614376565b602001015160f81c60f81b82828151811061220357612203614376565b60200101906001600160f81b031916908160001a90535080612224816143a2565b9150506121c0565b7aff00000000000000ff00000000000000ff00000000000000ff000063ffffffff60401b604083901c90811663ffffffff60c01b84161760201c63ffffffff60601b919091166001600160e01b031984161717601081901c91821678ff00000000000000ff00000000000000ff00000000000000ff60301b821617600890811c7bff00000000000000ff00000000000000ff00000000000000ff000000939093167fff00000000000000ff00000000000000ff00000000000000ff000000000000009290921691909117919091179081901c7e0f000f000f000f000f000f000f000f000f000f000f000f000f000f000f000f167f0f000f000f000f000f000f000f000f000f000f000f000f000f000f000f000f00600492831c161790612372827f060606060606060606060606060606060606060606060606060606060606060661447a565b901c7f0f0f0f0f0f0f0f0f0f0f0f0f0f0f0f0f0f0f0f0f0f0f0f0f0f0f0f0f0f0f0f0f1660076123a29190614626565b6123cc827f303030303030303030303030303030303030303030303030303030303030303061447a565b6113e8919061447a565b60608151600014156123f85760408051600080825260208201909252906105c1565b6000805b835181101561243f5783818151811061241757612417614376565b6020026020010151518261242b919061447a565b915080612437816143a2565b9150506123fc565b6000826001600160401b0381111561245957612459612b59565b6040519080825280601f01601f191660200182016040528015612483576020820181803683370190505b50600092509050602081015b8551831015610f2f5760008684815181106124ac576124ac614376565b6020026020010151905060006020820190506124ca838284516129cb565b8785815181106124dc576124dc614376565b602002602001015151836124f0919061447a565b9250505082806124ff906143a2565b93505061248f565b6060806038841015612571576040805160018082528183019092529060208201818036833701905050905061253c838561447a565b601f1a60f81b8160008151811061255557612555614376565b60200101906001600160f81b031916908160001a9053506116f1565b600060015b612580818761465b565b156125a6578161258f816143a2565b925061259f905061010082614626565b9050612576565b6125b182600161447a565b6001600160401b038111156125c8576125c8612b59565b6040519080825280601f01601f1916602001820160405280156125f2576020820181803683370190505b5092506125ff858361447a565b61260a90603761447a565b601f1a60f81b8360008151811061262357612623614376565b60200101906001600160f81b031916908160001a905350600190505b8181116126b4576101006126538284614492565b61265f90610100614753565b612669908861465b565b612673919061475f565b601f1a60f81b83828151811061268b5761268b614376565b60200101906001600160f81b031916908160001a905350806126ac816143a2565b91505061263f565b50509392505050565b6060806040519050835180825260208201818101602087015b818310156126ee5780518352602092830192016126d6565b50855184518101855292509050808201602086015b8183101561271b578051835260209283019201612703565b508651929092011591909101601f01601f191660405250905092915050565b805160009061274b57506000919050565b6020820151805160001a9060c0821015612769575060009392505050565b5060019392505050565b805160009061278457506000919050565b60008061279484602001516127f6565b84602001516127a3919061447a565b90506000846000015185602001516127bb919061447a565b90505b808210156127ed576127cf82612871565b6127d9908361447a565b9150826127e5816143a2565b9350506127be565b50909392505050565b8051600090811a608081101561280f5750600092915050565b60b881108061282a575060c0811080159061282a575060f881105b156128385750600192915050565b60c08110156128655761284d600160b8614773565b61285a9060ff1682614492565b6116f190600161447a565b61284d600160f8614773565b80516000908190811a608081101561288c57600191506105c1565b60b88110156128b2576128a0608082614492565b6128ab90600161447a565b91506105c1565b60c08110156128df5760b78103600185019450806020036101000a855104600182018101935050506105c1565b60f88110156128f3576128a060c082614492565b60019390930151602084900360f7016101000a900490920160f5190192915050565b6060600061292283612a43565b60010190506000816001600160401b0381111561294157612941612b59565b6040519080825280601f01601f19166020018201604052801561296b576020820181803683370190505b5090508181016020015b600019016f181899199a1a9b1b9c1cb0b131b232b360811b600a86061a8153600a85049450846129a4576129a9565b612975565b509392505050565b80516000906015146129c257600080fd5b6113e882611c27565b8282825b60208110612a0757815183526129e660208461447a565b92506129f360208361447a565b9150612a00602082614492565b90506129cf565b60006001612a16836020614492565b612a2290610100614753565b612a2c9190614492565b925184518416931916929092179092525050505050565b60008072184f03e93ff9f4daa797ed6e38ed64bf6a1f0160401b8310612a825772184f03e93ff9f4daa797ed6e38ed64bf6a1f0160401b830492506040015b6904ee2d6d415b85acef8160201b8310612aac576904ee2d6d415b85acef8160201b830492506020015b662386f26fc100008310612aca57662386f26fc10000830492506010015b6305f5e1008310612ae2576305f5e100830492506008015b6127108310612af657612710830492506004015b60648310612b08576064830492506002015b600a83106113e85760010192915050565b604080516080810182526000808252602082015260609181018290528181019190915290565b604051806040016040528060008152602001600081525090565b634e487b7160e01b600052604160045260246000fd5b60405161014081016001600160401b0381118282101715612b9257612b92612b59565b60405290565b60405160a081016001600160401b0381118282101715612b9257612b92612b59565b604080519081016001600160401b0381118282101715612b9257612b92612b59565b604051608081016001600160401b0381118282101715612b9257612b92612b59565b60405161018081016001600160401b0381118282101715612b9257612b92612b59565b604051606081016001600160401b0381118282101715612b9257612b92612b59565b60405161016081016001600160401b0381118282101715612b9257612b92612b59565b604051601f8201601f191681016001600160401b0381118282101715612c8e57612c8e612b59565b604052919050565b6001600160a01b03811681146107ba57600080fd5b8035612cb681612c96565b919050565b803563ffffffff81168114612cb657600080fd5b803560ff81168114612cb657600080fd5b803561ffff81168114612cb657600080fd5b60006101408284031215612d0557600080fd5b612d0d612b6f565b612d1683612cab565b8152612d2460208401612cab565b6020820152612d3560408401612cab565b6040820152612d4660608401612cbb565b6060820152612d5760808401612cbb565b6080820152612d6860a08401612cab565b60a0820152612d7960c08401612ccf565b60c0820152612d8a60e08401612ce0565b60e0820152610100612d9d818501612ccf565b90820152610120612daf848201612ccf565b908201529392505050565b60006001600160401b03821115612dd357612dd3612b59565b50601f01601f191660200190565b600082601f830112612df257600080fd5b8135612e05612e0082612dba565b612c66565b818152846020838601011115612e1a57600080fd5b816020850160208301376000918101602001919091529392505050565b600080600080600080600080610100898b031215612e5457600080fd5b8835612e5f81612c96565b97506020890135612e6f81612c96565b96506040890135612e7f81612c96565b9550612e8d60608a01612cbb565b94506080890135612e9d81612c96565b9350612eab60a08a01612cbb565b925060c08901356001600160401b03811115612ec657600080fd5b612ed28b828c01612de1565b925050612ee160e08a01612ce0565b90509295985092959890939650565b6020808252825182820182905280516040840181905260009291820190839060608601905b80831015612f355783518252928401926001929092019190840190612f15565b509695505050505050565b60008060008060008060c08789031215612f5957600080fd5b8635612f6481612c96565b95506020870135612f7481612c96565b9450612f8260408801612cbb565b9350612f9060608801612ce0565b9250612f9e60808801612ce0565b915060a0870135612fae81612c96565b809150509295509295509295565b60005b83811015612fd7578181015183820152602001612fbf565b838111156112ad5750506000910152565b60008151808452613000816020860160208601612fbc565b601f01601f19169290920160200192915050565b6020815260006116f16020830184612fe8565b60008060008060008060c0878903121561304057600080fd5b863561304b81612c96565b9550602087013561305b81612c96565b945061306960408801612cbb565b9350606087013561307981612c96565b925061308760808801612cbb565b915061309560a08801612ce0565b90509295509295509295565b6020808252825182820181905260009190848201906040850190845b818110156130e25783516001600160a01b0316835292840192918401916001016130bd565b50909695505050505050565b6000806000806080858703121561310457600080fd5b61310d85612cbb565b935061311b60208601612ce0565b925061312960408601612ccf565b915060608501356001600160401b0381111561314457600080fd5b61315087828801612de1565b91505092959194509250565b60006001600160401b0382111561317557613175612b59565b5060051b60200190565b6000602080838503121561319257600080fd5b82356001600160401b03808211156131a957600080fd5b818501915085601f8301126131bd57600080fd5b81356131cb612e008261315c565b81815260059190911b830184019084810190888311156131ea57600080fd5b8585015b83811015613222578035858111156132065760008081fd5b6132148b89838a0101612de1565b8452509186019186016131ee565b5098975050505050505050565b600080600080600060a0868803121561324757600080fd5b61325086612cbb565b945061325e60208701612ce0565b935061326c60408701612ce0565b925061327a60608701612ccf565b915060808601356001600160401b0381111561329557600080fd5b6132a188828901612de1565b9150509295509295909350565b600082601f8301126132bf57600080fd5b813560206132cf612e008361315c565b82815260059290921b840181019181810190868411156132ee57600080fd5b8286015b84811015612f355780356001600160401b038082111561331157600080fd5b9088019060a0828b03601f1901121561332957600080fd5b613331612b98565b61333c878401612ccf565b815260408084013561334d81612c96565b828901526060848101358284015260808501359083015260a0840135838111156133775760008081fd5b8085019450508b603f85011261338f57600092508283fd5b8784013592506133a1612e008461315c565b83815260069390931b8401810192888101908d8511156133c15760008081fd5b948201945b848610156134185782868f0312156133de5760008081fd5b6133e6612bba565b6133ef87612cbb565b81528a8701358060040b81146134055760008081fd5b818c0152825294820194908901906133c6565b60808401525050855250509183019183016132f2565b60006080828403121561344057600080fd5b613448612bdc565b9050813561345581612c96565b815261346360208301612ccf565b602082015260408201356001600160401b038082111561348257600080fd5b61348e85838601612de1565b604084015260608401359150808211156134a757600080fd5b506134b484828501612de1565b60608301525092915050565b600080604083850312156134d357600080fd5b82356001600160401b03808211156134ea57600080fd5b9084019060a082870312156134fe57600080fd5b613506612b98565b823561351181612c96565b8152602083013561352181612c96565b6020820152604083013561353481612c96565b604082015260608301358281111561354b57600080fd5b8301610180818903121561355e57600080fd5b613566612bfe565b61356f82612cab565b815261357d60208301612cab565b602082015261358e60408301612cab565b604082015261359f60608301612cab565b60608201526080820135608082015260a082013560a08201526135c460c08301612cbb565b60c08201526135d560e08301612cbb565b60e08201526101006135e8818401612cbb565b908201526101206135fa838201612ccf565b90820152610140828101358581111561361257600080fd5b61361e8b8286016132ae565b828401525050610160808301358581111561363857600080fd5b6136448b828601612de1565b828401525050806060840152505061365e60808401612ccf565b60808201529350602085013591508082111561367957600080fd5b506136868582860161342e565b9150509250929050565b6020815260018060a01b03825116602082015260ff602083015116604082015260006040830151608060608401526136cb60a0840182612fe8565b90506060840151601f198483030160808501526136e88282612fe8565b95945050505050565b600082601f83011261370257600080fd5b81356020613712612e008361315c565b82815260059290921b8401810191818101908684111561373157600080fd5b8286015b84811015612f355780358352918301918301613735565b600082601f83011261375d57600080fd5b8135602061376d612e008361315c565b82815260059290921b8401810191818101908684111561378c57600080fd5b8286015b84811015612f355780356137a381612c96565b8352918301918301613790565b600082601f8301126137c157600080fd5b813560206137d1612e008361315c565b82815260059290921b840181019181810190868411156137f057600080fd5b8286015b84811015612f355780356001600160401b038082111561381357600080fd5b90880190601f196080838c038201121561382c57600080fd5b613834612bdc565b878401358381111561384557600080fd5b84016060818e038401121561385957600080fd5b613861612c21565b925061386e898201612ccf565b835260408082013561387f81612c96565b848b015260608201358581111561389557600080fd5b6138a38f8c838601016136f1565b82860152508383526138b6818701612ccf565b8a84015260608601359350848411156138ce57600080fd5b6138dc8e8b8689010161374c565b908301525060808401359150828211156138f557600080fd5b6139038c89848701016136f1565b606082015286525050509183019183016137f4565b600082601f83011261392957600080fd5b81356020613939612e008361315c565b82815260059290921b8401810191818101908684111561395857600080fd5b8286015b84811015612f355780356001600160401b0381111561397b5760008081fd5b6139898986838b0101612de1565b84525091830191830161395c565b600082601f8301126139a857600080fd5b813560206139b8612e008361315c565b82815260059290921b840181019181810190868411156139d757600080fd5b8286015b84811015612f355780356001600160401b03808211156139fb5760008081fd5b9088019060a0828b03601f1901811315613a155760008081fd5b613a1d612b98565b8784013583811115613a2f5760008081fd5b613a3d8d8a838801016137b0565b8252506040613a4d818601612ccf565b898301526060613a5e818701612cab565b82840152608091508186013585811115613a785760008081fd5b613a868f8c838a010161374c565b82850152505082850135925083831115613aa05760008081fd5b613aae8d8a85880101613918565b9082015286525050509183019183016139db565b600082601f830112613ad357600080fd5b81356020613ae3612e008361315c565b82815260059290921b84018101918181019086841115613b0257600080fd5b8286015b84811015612f3557613b1781612ccf565b8352918301918301613b06565b80356001600160401b0381168114612cb657600080fd5b600082601f830112613b4c57600080fd5b81356020613b5c612e008361315c565b82815260059290921b84018101918181019086841115613b7b57600080fd5b8286015b84811015612f355780356001600160401b0380821115613b9f5760008081fd5b90880190610160828b03601f1901811315613bba5760008081fd5b613bc2612c43565b613bcd888501612ce0565b81526040613bdc818601612ce0565b898301526060613bed818701612ccf565b8284015260809150613c00828701612cbb565b9083015260a0613c11868201612ccf565b8284015260c09150613c24828701612cbb565b9083015260e0613c35868201612cbb565b828401526101009150613c49828701613b24565b908301526101208581013585811115613c625760008081fd5b613c708f8c838a010161374c565b838501525061014091508186013585811115613c8c5760008081fd5b613c9a8f8c838a0101613918565b828501525050613cab838601612cab565b908201528652505050918301918301613b7f565b600082601f830112613cd057600080fd5b81356020613ce0612e008361315c565b82815260059290921b84018101918181019086841115613cff57600080fd5b8286015b84811015612f355780356001600160401b0380821115613d235760008081fd5b9088019060a0828b03601f1901811315613d3d5760008081fd5b613d45612b98565b613d50888501612cbb565b815260408085013584811115613d665760008081fd5b613d748e8b83890101612de1565b8a8401525060608086013585811115613d8d5760008081fd5b613d9b8f8c838a0101612de1565b8385015250608091508186013585811115613db65760008081fd5b613dc48f8c838a0101612de1565b828501525050613dd5838601612ccf565b908201528652505050918301918301613d03565b60008060408385031215613dfc57600080fd5b613e0583612cbb565b915060208301356001600160401b0380821115613e2157600080fd5b908401906101608287031215613e3657600080fd5b613e3e612c43565b823582811115613e4d57600080fd5b613e5988828601613997565b825250602083013582811115613e6e57600080fd5b613e7a88828601613ac2565b602083015250604083013582811115613e9257600080fd5b613e9e88828601613b3b565b604083015250606083013582811115613eb657600080fd5b613ec288828601613cbf565b606083015250608083013582811115613eda57600080fd5b613ee688828601613ac2565b60808301525060a083013582811115613efe57600080fd5b613f0a8882860161374c565b60a08301525060c083013582811115613f2257600080fd5b613f2e8882860161374c565b60c083015250613f4060e08401612cbb565b60e0820152610100613f53818501612cbb565b90820152610120613f65848201612ccf565b908201526101408381013583811115613f7d57600080fd5b613f8989828701612de1565b8284015250508093505050509250929050565b600060208284031215613fae57600080fd5b81356001600160401b0380821115613fc557600080fd5b908301906101608286031215613fda57600080fd5b613fe2612c43565b613feb83612cab565b8152613ff960208401612cab565b602082015261400a60408401612cbb565b604082015261401b60608401612ce0565b606082015261402c60808401612ce0565b608082015261403d60a08401612ccf565b60a082015261404e60c08401612cab565b60c082015261405f60e08401612cbb565b60e0820152610100614072818501612cab565b90820152610120614084848201612ccf565b90820152610140838101358381111561409c57600080fd5b6140a888828701612de1565b918301919091525095945050505050565b6000602080830181845280855180835260408601915060408160051b870101925083870160005b8281101561410e57603f198886030184526140fc858351612fe8565b945092850192908501906001016140e0565b5092979650505050505050565b60006020828403121561412d57600080fd5b81356001600160401b0381111561414357600080fd5b6117508482850161374c565b6000806000806080858703121561416557600080fd5b843561417081612c96565b935061417e60208601612cbb565b925061418c60408601612ce0565b915061419a60608601612ce0565b905092959194509250565b6000806000606084860312156141ba57600080fd5b6141c384612cbb565b92506141d160208501612ce0565b91506141df60408501612ccf565b90509250925092565b6000602082840312156141fa57600080fd5b5035919050565b60006020828403121561421357600080fd5b81356116f181612c96565b600081518084526020808501945080840160005b8381101561425157815160ff1687529582019590820190600101614232565b509495945050505050565b60006020808301818452808551808352604092508286019150828160051b87010184880160005b838110156142d357888303603f19018552815180518785526142a78886018261421e565b91890151858303868b01529190506142bf818361421e565b968901969450505090860190600101614283565b509098975050505050505050565b6001600160a01b039687168152948616602086015263ffffffff93909316604085015261ffff918216606085015216608083015290911660a082015260c00190565b60008251614335818460208701612fbc565b9190910192915050565b6020808252601d908201527f73656e646572206e6f74206d6174636820617265612061646472657373000000604082015260600190565b634e487b7160e01b600052603260045260246000fd5b634e487b7160e01b600052601160045260246000fd5b60006000198214156143b6576143b661438c565b5060010190565b6000602082840312156143cf57600080fd5b81516116f181612c96565b6000602082840312156143ec57600080fd5b81516001600160401b0381111561440257600080fd5b8201601f8101841361441357600080fd5b8051614421612e0082612dba565b81815285602083850101111561443657600080fd5b6136e8826020830160208601612fbc565b6001600160a01b0394909416845263ffffffff92909216602084015261ffff908116604084015216606082015260800190565b6000821982111561448d5761448d61438c565b500190565b6000828210156144a4576144a461438c565b500390565b6040815260006144bc6040830185612fe8565b90508260208301529392505050565b6020808252602b908201527f496e697469616c697a61626c653a20636f6e7472616374206973206e6f74206960408201526a6e697469616c697a696e6760a81b606082015260800190565b80516020808301519190811015610d985760001960209190910360031b1b16919050565b600063ffffffff8083168185168083038211156145595761455961438c565b01949350505050565b600060ff821660ff84168060ff0382111561457f5761457f61438c565b019392505050565b60408152600061459a6040830185612fe8565b82810360208401526136e88185612fe8565b600084516145be818460208901612fbc565b8083019050600b60fa1b80825285516145de816001850160208a01612fbc565b600192019182015283516145f9816002840160208801612fbc565b0160020195945050505050565b600060ff821660ff81141561461d5761461d61438c565b60010192915050565b60008160001904831182151516156146405761464061438c565b500290565b634e487b7160e01b600052601260045260246000fd5b60008261466a5761466a614645565b500490565b600181815b808511156146aa5781600019048211156146905761469061438c565b8085161561469d57918102915b93841c9390800290614674565b509250929050565b6000826146c1575060016113e8565b816146ce575060006113e8565b81600181146146e457600281146146ee5761470a565b60019150506113e8565b60ff8411156146ff576146ff61438c565b50506001821b6113e8565b5060208310610133831016604e8410600b841016171561472d575081810a6113e8565b614737838361466f565b806000190482111561474b5761474b61438c565b029392505050565b60006116f183836146b2565b60008261476e5761476e614645565b500690565b600060ff821660ff84168082101561478d5761478d61438c565b9003939250505056fe2d2d2d2d2d2d2d2d2d2d2d2d2d20526573747269637448616e646c6572207573657243616c6c436f756e742d2d2d2d2d2d2d2d2d2d2d2d20526573747269637448616e646c6572205f7570646174654172677320617267734c6973742e6c656e677468526573747269637448616e646c6572207573657243616c6c436f756e7420657863656564206c696d69742d2d2d2d2d2d2d2d2d2d2d2d20526573747269637448616e646c6572205f757064617465417267732072756c65536c6f74496e646578496e7075742d2d2d2d2d2d2d2d2d2d2d2d20526573747269637448616e646c6572205f757064617465417267732072756c65536c6f74496e6465784f75747075742d2d2d2d2d2d2d2d2d2d2d2d2d20526573747269637448616e646c65722074696d654c696d69742d2d2d2d2d2d2d2d2d2d2d2d20526573747269637448616e646c6572205f7570646174654172677320636d642d2d2d2d2d2d2d2d2d2d2d2d2d20526573747269637448616e646c6572206d6178436f756e742d2d2d2d2d2d2d2d20526573747269637448616e646c65722048414e444c45525f50524f434553535f53544154455f455845435554452d2d2d2d2d2d2d2d20526573747269637448616e646c65722048414e444c45525f50524f434553535f53544154455f505245526573747269637448616e646c657220757365722063616c6c2074696d6520667265657a652d2d2d2d2d2d2d2d2d2d2d2d2d20526573747269637448616e646c657220626c6f636b2e74696d657374616d702d2d2d2d2d2d2d2d20526573747269637448616e646c65722070726f63657373457865637574652d2d2d2d2d2d2d2d2d2d2d2d20526573747269637448616e646c6572205f757064617465417267732074696d654c696d69742d2d2d2d2d2d2d2d2d2d2d2d20526573747269637448616e646c6572205f7570646174654172677320636c757374657249642d2d2d2d2d2d2d2d2d2d2d2d20526573747269637448616e646c6572205f75706461746541726773206d6178436f756e742d2d2d2d2d2d2d2d2d2d2d2d2d20526573747269637448616e646c657220757365724c61737443616c6c54696d65a2646970667358221220399204227d0f67ad31ed8abc75bbc5a0fc6da6d0458f0935c5d24fa1dee9bf1964736f6c63430008080033",
  "linkReferences": {},
  "deployedLinkReferences": {}
}