{
  "_format": "hh-sol-artifact-1",
  "contractName": "StateCounter",
  "sourceName": "contracts/V3/StateCounter.sol",
  "abi": [
    {
      "anonymous": false,
      "inputs": [
        {
          "indexed": false,
          "internalType": "uint8",
          "name": "version",
          "type": "uint8"
        }
      ],
      "name": "Initialized",
      "type": "event"
    },
    {
      "anonymous": false,
      "inputs": [
        {
          "indexed": true,
          "internalType": "address",
          "name": "previousOwner",
          "type": "address"
        },
        {
          "indexed": true,
          "internalType": "address",
          "name": "newOwner",
          "type": "address"
        }
      ],
      "name": "OwnershipTransferred",
      "type": "event"
    },
    {
      "inputs": [
        {
          "components": [
            {
              "internalType": "address",
              "name": "caller",
              "type": "address"
            },
            {
              "internalType": "address",
              "name": "clusterArea",
              "type": "address"
            },
            {
              "internalType": "address",
              "name": "lastHandler",
              "type": "address"
            },
            {
              "internalType": "address",
              "name": "snippet",
              "type": "address"
            },
            {
              "internalType": "uint256",
              "name": "valueTime",
              "type": "uint256"
            },
            {
              "internalType": "uint256",
              "name": "value",
              "type": "uint256"
            },
            {
              "internalType": "uint32",
              "name": "taskId",
              "type": "uint32"
            },
            {
              "internalType": "uint32",
              "name": "parentTaskId",
              "type": "uint32"
            },
            {
              "internalType": "uint32",
              "name": "clusterId",
              "type": "uint32"
            },
            {
              "internalType": "uint8",
              "name": "state",
              "type": "uint8"
            },
            {
              "components": [
                {
                  "internalType": "uint8",
                  "name": "erc",
                  "type": "uint8"
                },
                {
                  "internalType": "address",
                  "name": "token",
                  "type": "address"
                },
                {
                  "internalType": "uint256",
                  "name": "id",
                  "type": "uint256"
                },
                {
                  "internalType": "uint256",
                  "name": "amount",
                  "type": "uint256"
                },
                {
                  "components": [
                    {
                      "internalType": "uint32",
                      "name": "attrId",
                      "type": "uint32"
                    },
                    {
                      "internalType": "int40",
                      "name": "attrAmount",
                      "type": "int40"
                    }
                  ],
                  "internalType": "struct Attribute.AttributeIn[]",
                  "name": "attrInList",
                  "type": "tuple[]"
                }
              ],
              "internalType": "struct Token.Token[]",
              "name": "inTokenList",
              "type": "tuple[]"
            },
            {
              "internalType": "bytes",
              "name": "args",
              "type": "bytes"
            }
          ],
          "internalType": "struct Task.Task",
          "name": "task",
          "type": "tuple"
        }
      ],
      "name": "add",
      "outputs": [
        {
          "internalType": "uint32",
          "name": "",
          "type": "uint32"
        }
      ],
      "stateMutability": "nonpayable",
      "type": "function"
    },
    {
      "inputs": [],
      "name": "cname",
      "outputs": [
        {
          "internalType": "string",
          "name": "",
          "type": "string"
        }
      ],
      "stateMutability": "pure",
      "type": "function"
    },
    {
      "inputs": [
        {
          "internalType": "uint32",
          "name": "taskId",
          "type": "uint32"
        }
      ],
      "name": "get",
      "outputs": [
        {
          "components": [
            {
              "internalType": "address",
              "name": "caller",
              "type": "address"
            },
            {
              "internalType": "address",
              "name": "clusterArea",
              "type": "address"
            },
            {
              "internalType": "address",
              "name": "lastHandler",
              "type": "address"
            },
            {
              "internalType": "address",
              "name": "snippet",
              "type": "address"
            },
            {
              "internalType": "uint256",
              "name": "valueTime",
              "type": "uint256"
            },
            {
              "internalType": "uint256",
              "name": "value",
              "type": "uint256"
            },
            {
              "internalType": "uint32",
              "name": "taskId",
              "type": "uint32"
            },
            {
              "internalType": "uint32",
              "name": "parentTaskId",
              "type": "uint32"
            },
            {
              "internalType": "uint32",
              "name": "clusterId",
              "type": "uint32"
            },
            {
              "internalType": "uint8",
              "name": "state",
              "type": "uint8"
            },
            {
              "components": [
                {
                  "internalType": "uint8",
                  "name": "erc",
                  "type": "uint8"
                },
                {
                  "internalType": "address",
                  "name": "token",
                  "type": "address"
                },
                {
                  "internalType": "uint256",
                  "name": "id",
                  "type": "uint256"
                },
                {
                  "internalType": "uint256",
                  "name": "amount",
                  "type": "uint256"
                },
                {
                  "components": [
                    {
                      "internalType": "uint32",
                      "name": "attrId",
                      "type": "uint32"
                    },
                    {
                      "internalType": "int40",
                      "name": "attrAmount",
                      "type": "int40"
                    }
                  ],
                  "internalType": "struct Attribute.AttributeIn[]",
                  "name": "attrInList",
                  "type": "tuple[]"
                }
              ],
              "internalType": "struct Token.Token[]",
              "name": "inTokenList",
              "type": "tuple[]"
            },
            {
              "internalType": "bytes",
              "name": "args",
              "type": "bytes"
            }
          ],
          "internalType": "struct Task.Task",
          "name": "",
          "type": "tuple"
        }
      ],
      "stateMutability": "view",
      "type": "function"
    },
    {
      "inputs": [],
      "name": "getCurrentTaskId",
      "outputs": [
        {
          "internalType": "uint256",
          "name": "",
          "type": "uint256"
        }
      ],
      "stateMutability": "view",
      "type": "function"
    },
    {
      "inputs": [
        {
          "internalType": "address",
          "name": "engine_",
          "type": "address"
        }
      ],
      "name": "initialize",
      "outputs": [],
      "stateMutability": "nonpayable",
      "type": "function"
    },
    {
      "inputs": [],
      "name": "owner",
      "outputs": [
        {
          "internalType": "address",
          "name": "",
          "type": "address"
        }
      ],
      "stateMutability": "view",
      "type": "function"
    },
    {
      "inputs": [
        {
          "internalType": "uint32",
          "name": "taskId",
          "type": "uint32"
        },
        {
          "internalType": "address",
          "name": "lastHandler",
          "type": "address"
        },
        {
          "internalType": "uint8",
          "name": "state",
          "type": "uint8"
        }
      ],
      "name": "process",
      "outputs": [],
      "stateMutability": "nonpayable",
      "type": "function"
    },
    {
      "inputs": [],
      "name": "renounceOwnership",
      "outputs": [],
      "stateMutability": "nonpayable",
      "type": "function"
    },
    {
      "inputs": [
        {
          "internalType": "uint32",
          "name": "",
          "type": "uint32"
        }
      ],
      "name": "taskMap",
      "outputs": [
        {
          "internalType": "address",
          "name": "caller",
          "type": "address"
        },
        {
          "internalType": "address",
          "name": "clusterArea",
          "type": "address"
        },
        {
          "internalType": "address",
          "name": "lastHandler",
          "type": "address"
        },
        {
          "internalType": "address",
          "name": "snippet",
          "type": "address"
        },
        {
          "internalType": "uint256",
          "name": "valueTime",
          "type": "uint256"
        },
        {
          "internalType": "uint256",
          "name": "value",
          "type": "uint256"
        },
        {
          "internalType": "uint32",
          "name": "taskId",
          "type": "uint32"
        },
        {
          "internalType": "uint32",
          "name": "parentTaskId",
          "type": "uint32"
        },
        {
          "internalType": "uint32",
          "name": "clusterId",
          "type": "uint32"
        },
        {
          "internalType": "uint8",
          "name": "state",
          "type": "uint8"
        },
        {
          "internalType": "bytes",
          "name": "args",
          "type": "bytes"
        }
      ],
      "stateMutability": "view",
      "type": "function"
    },
    {
      "inputs": [
        {
          "internalType": "address",
          "name": "newOwner",
          "type": "address"
        }
      ],
      "name": "transferOwnership",
      "outputs": [],
      "stateMutability": "nonpayable",
      "type": "function"
    },
    {
      "inputs": [
        {
          "internalType": "uint32",
          "name": "taskId",
          "type": "uint32"
        },
        {
          "internalType": "int32",
          "name": "delayTime",
          "type": "int32"
        }
      ],
      "name": "updateExecuteDelayTime",
      "outputs": [
        {
          "internalType": "uint32",
          "name": "",
          "type": "uint32"
        }
      ],
      "stateMutability": "nonpayable",
      "type": "function"
    },
    {
      "inputs": [
        {
          "internalType": "uint32",
          "name": "taskId",
          "type": "uint32"
        },
        {
          "internalType": "uint32",
          "name": "state",
          "type": "uint32"
        },
        {
          "internalType": "uint32",
          "name": "timestamp",
          "type": "uint32"
        },
        {
          "internalType": "uint32",
          "name": "blockNumber",
          "type": "uint32"
        }
      ],
      "name": "updateTime",
      "outputs": [],
      "stateMutability": "nonpayable",
      "type": "function"
    },
    {
      "inputs": [],
      "name": "version",
      "outputs": [
        {
          "internalType": "uint256",
          "name": "",
          "type": "uint256"
        }
      ],
      "stateMutability": "pure",
      "type": "function"
    }
  ],
  "bytecode": "0x608060405234801561001057600080fd5b506148e3806100206000396000f3fe608060405234801561001057600080fd5b50600436106100af5760003560e01c806333527184146100b457806334c76b25146100e157806354fd4d501461010f5780636a264dd014610120578063715018a6146101355780638267a5141461013d5780638da5cb5b14610150578063918f9c371461016b578063c4d66de814610173578063cc44abf914610186578063d8a26e3a146101b0578063f2fde38b146101d0578063fd908410146101e3575b600080fd5b6100c76100c2366004613a04565b6101f6565b60405163ffffffff90911681526020015b60405180910390f35b604080518082018252600c81526b29ba30ba32a1b7bab73a32b960a11b602082015290516100d89190613a8e565b60015b6040519081526020016100d8565b61013361012e366004613ac9565b610fda565b005b6101336115d8565b61013361014b366004613b0c565b6115ec565b6033546040516001600160a01b0390911681526020016100d8565b61011261188d565b610133610181366004613b6d565b61189d565b610199610194366004613b88565b6119d2565b6040516100d89b9a99989796959493929190613ba3565b6101c36101be366004613b88565b611adb565b6040516100d89190613cf9565b6101336101de366004613b6d565b611dcd565b6100c76101f13660046140d3565b611e46565b600061021a6040518060600160405280603781526020016145956037913930613201565b61023c6040518060600160405280603a81526020016145fd603a913933613201565b6102696040518060600160405280603681526020016146c5603691396066546001600160a01b0316613201565b61028b6040518060600160405280603f815260200161484d603f913942613246565b6066546001600160a01b031633146102be5760405162461bcd60e51b81526004016102b590614208565b60405180910390fd5b6000606860008563ffffffff1663ffffffff16815260200190815260200160002090506105366040518060800160405280604a815260200161450f604a9139604080516101808101825284546001600160a01b0390811682526001860154811660208084019190915260028701548216838501526003870154909116606083015260048601546080830152600586015460a0830152600686015463ffffffff80821660c0850152600160201b8204811660e0850152600160401b820416610100840152600160601b900460ff1661012083015260078601805484518184028101840190955280855261052b94889361014086019391929060009084015b8282101561048c57600084815260208082206040805160a08101825260048702909201805460ff8116845261010090046001600160a01b0316838501526001810154838301526002810154606084015260038101805483518187028101870190945280845293959194608087019491929084015b82821015610475576000848152602090819020604080518082019091529084015463ffffffff81168252600160201b900460040b8183015282526001909201910161042f565b5050505081525050815260200190600101906103bb565b5050505081526020016008820180546104a490614232565b80601f01602080910402602001604051908101604052809291908181526020018280546104d090614232565b801561051d5780601f106104f25761010080835404028352916020019161051d565b820191906000526020600020905b81548152906001019060200180831161050057829003601f168201915b50505050508152505061328b565b63ffffffff16613246565b604080516101808101825282546001600160a01b0390811682526001840154811660208084019190915260028501548216838501526003850154909116606083015260048401546080830152600584015460a0830152600684015463ffffffff80821660c0850152600160201b8204811660e0850152600160401b820416610100840152600160601b900460ff166101208301526007840180548451818402810184019095528085526000948594610768949093889361014086019392889084015b828210156106c957600084815260208082206040805160a08101825260048702909201805460ff8116845261010090046001600160a01b0316838501526001810154838301526002810154606084015260038101805483518187028101870190945280845293959194608087019491929084015b828210156106b2576000848152602090819020604080518082019091529084015463ffffffff81168252600160201b900460040b8183015282526001909201910161066c565b5050505081525050815260200190600101906105f8565b5050505081526020016008820180546106e190614232565b80601f016020809104026020016040519081016040528092919081815260200182805461070d90614232565b801561075a5780601f1061072f5761010080835404028352916020019161075a565b820191906000526020600020905b81548152906001019060200180831161073d57829003601f168201915b5050505050815250506132aa565b60ff161415610b235760008460030b131561096e57604080516101808101825283546001600160a01b0390811682526001850154811660208084019190915260028601548216838501526003860154909116606083015260048501546080830152600585015460a0830152600685015463ffffffff80821660c0850152600160201b8204811660e0850152600160401b820416610100840152600160601b900460ff166101208301526007850180548451818402810184019095528085526000948994610910949093899361014086019392899084015b8282101561048c57600084815260208082206040805160a08101825260048702909201805460ff8116845261010090046001600160a01b0316838501526001810154838301526002810154606084015260038101805483518187028101870190945280845293959194608087019491929084015b828210156108f9576000848152602090819020604080518082019091529084015463ffffffff81168252600160201b900460040b818301528252600190920191016108b3565b50505050815250508152602001906001019061083f565b61091a9190614283565b90508063ffffffff16421061094a5760068301544292506109459063ffffffff1660018460006115ec565b610968565b600683015490915081906109689063ffffffff1660018360006115ec565b50610fd2565b60008460030b1215610b1e576000610985856142ab565b604080516101808101825285546001600160a01b0390811682526001870154811660208084019190915260028801548216838501526003880154909116606083015260048701546080830152600587015460a0830152600687015463ffffffff80821660c0850152600160201b8204811660e0850152600160401b820416610100840152600160601b900460ff16610120830152600787018054845181840281018401909552808552610b1494899361014086019391929060009084015b8282101561048c57600084815260208082206040805160a08101825260048702909201805460ff8116845261010090046001600160a01b0316838501526001810154838301526002810154606084015260038101805483518187028101870190945280845293959194608087019491929084015b82821015610afd576000848152602090819020604080518082019091529084015463ffffffff81168252600160201b900460040b81830152825260019092019101610ab7565b505050508152505081526020019060010190610a43565b61091a91906142cf565b610fd2565b60008460030b1315610dc357604080516101808101825283546001600160a01b0390811682526001850154811660208084019190915260028601548216838501526003860154909116606083015260048501546080830152600585015460a0830152600685015463ffffffff80821660c0850152600160201b8204811660e0850152600160401b820416610100840152600160601b900460ff166101208301526007850180548451818402810184019095528085526000948994610d61949093899361014086019392899084015b82821015610cc257600084815260208082206040805160a08101825260048702909201805460ff8116845261010090046001600160a01b0316838501526001810154838301526002810154606084015260038101805483518187028101870190945280845293959194608087019491929084015b82821015610cab576000848152602090819020604080518082019091529084015463ffffffff81168252600160201b900460040b81830152825260019092019101610c65565b505050508152505081526020019060010190610bf1565b505050508152602001600882018054610cda90614232565b80601f0160208091040260200160405190810160405280929190818152602001828054610d0690614232565b8015610d535780601f10610d2857610100808354040283529160200191610d53565b820191906000526020600020905b815481529060010190602001808311610d3657829003601f168201915b5050505050815250506132bd565b610d6b9190614283565b90508063ffffffff16610d7c613303565b10610da557610d89613303565b60068401549092506109459063ffffffff1660016000856115ec565b600683015490915081906109689063ffffffff1660016000846115ec565b60008460030b1215610fd2576000610dda856142ab565b604080516101808101825285546001600160a01b0390811682526001870154811660208084019190915260028801548216838501526003880154909116606083015260048701546080830152600587015460a0830152600687015463ffffffff80821660c0850152600160201b8204811660e0850152600160401b820416610100840152600160601b900460ff16610120830152600787018054845181840281018401909552808552610f6994899361014086019391929060009084015b82821015610cc257600084815260208082206040805160a08101825260048702909201805460ff8116845261010090046001600160a01b0316838501526001810154838301526002810154606084015260038101805483518187028101870190945280845293959194608087019491929084015b82821015610f52576000848152602090819020604080518082019091529084015463ffffffff81168252600160201b900460040b81830152825260019092019101610f0c565b505050508152505081526020019060010190610e98565b610f7391906142cf565b90508063ffffffff16610f84613303565b10610fb257610f91613303565b6006840154909250610fad9063ffffffff1660016000856115ec565b610fd0565b60068301549091508190610fd09063ffffffff1660016000846115ec565b505b949350505050565b6066546001600160a01b031633146110045760405162461bcd60e51b81526004016102b590614208565b63ffffffff83166000908152606860209081526040918290206002810180546001600160a01b0319166001600160a01b03871617905560068101805460ff60601b1916600160601b60ff87169081029190911790915583518085019094528284527f2d2d2d2d2d2d2d2d2d2d2d205374617465436f756e7465722070726f63657373928401929092529161109791613246565b60ff821660051415611330576110c56040518060600160405280602a8152602001614475602a913942613246565b6110cf814261338f565b6113196040518060600160405280602d8152602001614675602d9139604080516101808101825284546001600160a01b0390811682526001860154811660208084019190915260028701548216838501526003870154909116606083015260048601546080830152600586015460a0830152600686015463ffffffff80821660c0850152600160201b8204811660e0850152600160401b820416610100840152600160601b900460ff1661012083015260078601805484518184028101840190955280855261052b94889361014086019391929060009084015b8282101561127a57600084815260208082206040805160a08101825260048702909201805460ff8116845261010090046001600160a01b0316838501526001810154838301526002810154606084015260038101805483518187028101870190945280845293959194608087019491929084015b82821015611263576000848152602090819020604080518082019091529084015463ffffffff81168252600160201b900460040b8183015282526001909201910161121d565b5050505081525050815260200190600101906111a9565b50505050815260200160088201805461129290614232565b80601f01602080910402602001604051908101604052809291908181526020018280546112be90614232565b801561130b5780601f106112e05761010080835404028352916020019161130b565b820191906000526020600020905b8154815290600101906020018083116112ee57829003601f168201915b5050505050815250506133c2565b61132b611324613303565b82906133dc565b6115d2565b60ff8216600a1480611345575060ff82166014145b156115d25761136c6040518060600160405280603181526020016145cc6031913942613246565b611376814261341f565b6115c06040518060600160405280603481526020016146fb60349139604080516101808101825284546001600160a01b0390811682526001860154811660208084019190915260028701548216838501526003870154909116606083015260048601546080830152600586015460a0830152600686015463ffffffff80821660c0850152600160201b8204811660e0850152600160401b820416610100840152600160601b900460ff1661012083015260078601805484518184028101840190955280855261052b94889361014086019391929060009084015b8282101561152157600084815260208082206040805160a08101825260048702909201805460ff8116845261010090046001600160a01b0316838501526001810154838301526002810154606084015260038101805483518187028101870190945280845293959194608087019491929084015b8282101561150a576000848152602090819020604080518082019091529084015463ffffffff81168252600160201b900460040b818301528252600190920191016114c4565b505050508152505081526020019060010190611450565b50505050815260200160088201805461153990614232565b80601f016020809104026020016040519081016040528092919081815260200182805461156590614232565b80156115b25780601f10611587576101008083540402835291602001916115b2565b820191906000526020600020905b81548152906001019060200180831161159557829003601f168201915b505050505081525050613436565b6115d26115cb613303565b8290613450565b50505050565b6115e0613472565b6115ea60006134cc565b565b61160e6040518060600160405280602b81526020016144e4602b913930613201565b6116306040518060600160405280602e8152602001614790602e913933613201565b61165d6040518060600160405280602a8152602001614766602a91396066546001600160a01b0316613201565b6066546001600160a01b031633146116875760405162461bcd60e51b81526004016102b590614208565b63ffffffff808516600090815260686020526040902090841660011415611736576116d0604051806060016040528060358152602001614818603591398463ffffffff16613246565b63ffffffff8316156116ef576116ef8163ffffffff8086169061351e16565b6117176040518060600160405280603781526020016147be603791398363ffffffff16613246565b63ffffffff821615611736576117368163ffffffff8085169061353516565b63ffffffff8416600514156117d85761176d60405180606001604052806037815260200161472f603791398463ffffffff16613246565b63ffffffff83161561178c5761178c8163ffffffff8086169061338f16565b6117b460405180606001604052806039815260200161443c603991398363ffffffff16613246565b63ffffffff8216156117d3576117d38163ffffffff808516906133dc16565b611886565b63ffffffff8416600a14806117f3575063ffffffff84166014145b15611886576118206040518060600160405280603c8152602001614559603c91398463ffffffff16613246565b63ffffffff83161561183f5761183f8163ffffffff8086169061341f16565b6118676040518060600160405280603e8152602001614637603e91398363ffffffff16613246565b63ffffffff821615611886576118868163ffffffff8085169061345016565b5050505050565b600061189860675490565b905090565b600054610100900460ff16158080156118bd5750600054600160ff909116105b806118d75750303b1580156118d7575060005460ff166001145b61193a5760405162461bcd60e51b815260206004820152602e60248201527f496e697469616c697a61626c653a20636f6e747261637420697320616c72656160448201526d191e481a5b9a5d1a585b1a5e995960921b60648201526084016102b5565b6000805460ff19166001179055801561195d576000805461ff0019166101001790555b61196561354c565b61196d613573565b606680546001600160a01b0319166001600160a01b03841617905580156119ce576000805461ff0019169055604051600181527f7f26b83ff96e1f2b6a682f133852f6798a09c465da95921460cefb38474024989060200160405180910390a15b5050565b606860205260009081526040902080546001820154600283015460038401546004850154600586015460068701546008880180546001600160a01b0398891699978916989687169796909516959394929363ffffffff80841694600160201b8504821694600160401b810490921693600160601b90920460ff16929190611a5890614232565b80601f0160208091040260200160405190810160405280929190818152602001828054611a8490614232565b8015611ad15780601f10611aa657610100808354040283529160200191611ad1565b820191906000526020600020905b815481529060010190602001808311611ab457829003601f168201915b505050505090508b565b604080516101808101825260008082526020820181905291810182905260608082018390526080820183905260a0820183905260c0820183905260e082018390526101008201839052610120820192909252610140810182905261016081019190915263ffffffff828116600090815260686020908152604080832081516101808101835281546001600160a01b03908116825260018301548116828601526002830154811682850152600383015416606082015260048201546080820152600582015460a0820152600682015480871660c0830152600160201b8104871660e0830152600160401b8104909616610100820152600160601b90950460ff1661012086015260078101805483518186028101860190945280845294959491936101408601939290879084015b82821015611cd857600084815260208082206040805160a08101825260048702909201805460ff8116845261010090046001600160a01b0316838501526001810154838301526002810154606084015260038101805483518187028101870190945280845293959194608087019491929084015b82821015611cc1576000848152602090819020604080518082019091529084015463ffffffff81168252600160201b900460040b81830152825260019092019101611c7b565b505050508152505081526020019060010190611c07565b505050508152602001600882018054611cf090614232565b80601f0160208091040260200160405190810160405280929190818152602001828054611d1c90614232565b8015611d695780601f10611d3e57610100808354040283529160200191611d69565b820191906000526020600020905b815481529060010190602001808311611d4c57829003601f168201915b5050505050815250509050611da26040518060600160405280602281526020016144c260229139611d99836135a3565b61ffff16613246565b611dc76040518060600160405280602381526020016147f560239139611d99836135bd565b92915050565b611dd5613472565b6001600160a01b038116611e3a5760405162461bcd60e51b815260206004820152602660248201527f4f776e61626c653a206e6577206f776e657220697320746865207a65726f206160448201526564647265737360d01b60648201526084016102b5565b611e43816134cc565b50565b6000611e876040518060400160405280602081526020017f2d2d2d2d2d2d2d2d2d2d2d205374617465436f756e746572206164647265737381525030613201565b611ea96040518060600160405280602381526020016146a26023913933613201565b60408051808201909152601f81527f2d2d2d2d2d2d2d2d2d2d2d205374617465436f756e74657220656e67696e65006020820152606654611ef391906001600160a01b0316613201565b611f1860405180606001604052806022815260200161488c60229139611d99846135a3565b611f3d60405180606001604052806023815260200161449f60239139611d99846135bd565b611f7c604051806040016040528060198152602001782d2d2d2d2d2d20616464207461736b2076616c756554696d6560381b8152508360800151613246565b611fb7604051806040016040528060158152602001742d2d2d2d2d2d20616464207461736b2076616c756560581b8152508360a00151613246565b6066546001600160a01b03163314611fe15760405162461bcd60e51b81526004016102b590614208565b611fef606780546001019055565b600060686000611ffe60675490565b63ffffffff1663ffffffff168152602001908152602001600020905061202360675490565b60068201805460e0860151865185546001600160a01b039182166001600160a01b03199182161787556020808a01516001890180549190941692169190911790915560a0880151600587015561010088015161012089015160ff16600160601b0260ff60601b1963ffffffff928316600160401b021664ffffffffff60401b19948316600160201b0267ffffffffffffffff19909616979092169690961793909317919091169190911792909217905561016084015180516120eb9260088501920190613952565b5060408301516002820180546001600160a01b039283166001600160a01b0319918216179091556060850151600384018054919093169116179055612367612132846132aa565b604080516101808101825284546001600160a01b0390811682526001860154811660208084019190915260028701548216838501526003870154909116606083015260048601546080830152600586015460a0830152600686015463ffffffff80821660c0850152600160201b8204811660e0850152600160401b820416610100840152600160601b900460ff166101208301526007860180548451818402810184019095528085529293879361014086019391929160009084015b828210156122bf57600084815260208082206040805160a08101825260048702909201805460ff8116845261010090046001600160a01b0316838501526001810154838301526002810154606084015260038101805483518187028101870190945280845293959194608087019491929084015b828210156122a8576000848152602090819020604080518082019091529084015463ffffffff81168252600160201b900460040b81830152825260019092019101612262565b5050505081525050815260200190600101906121ee565b5050505081526020016008820180546122d790614232565b80601f016020809104026020016040519081016040528092919081815260200182805461230390614232565b80156123505780601f1061232557610100808354040283529160200191612350565b820191906000526020600020905b81548152906001019060200180831161233357829003601f168201915b5050505050815250506135e290919063ffffffff16565b6125a8612373846135a3565b604080516101808101825284546001600160a01b0390811682526001860154811660208084019190915260028701548216838501526003870154909116606083015260048601546080830152600586015460a0830152600686015463ffffffff80821660c0850152600160201b8204811660e0850152600160401b820416610100840152600160601b900460ff166101208301526007860180548451818402810184019095528085529293879361014086019391929160009084015b8282101561250057600084815260208082206040805160a08101825260048702909201805460ff8116845261010090046001600160a01b0316838501526001810154838301526002810154606084015260038101805483518187028101870190945280845293959194608087019491929084015b828210156124e9576000848152602090819020604080518082019091529084015463ffffffff81168252600160201b900460040b818301528252600190920191016124a3565b50505050815250508152602001906001019061242f565b50505050815260200160088201805461251890614232565b80601f016020809104026020016040519081016040528092919081815260200182805461254490614232565b80156125915780601f1061256657610100808354040283529160200191612591565b820191906000526020600020905b81548152906001019060200180831161257457829003601f168201915b50505050508152505061360390919063ffffffff16565b6127e96125b4846135bd565b604080516101808101825284546001600160a01b0390811682526001860154811660208084019190915260028701548216838501526003870154909116606083015260048601546080830152600586015460a0830152600686015463ffffffff80821660c0850152600160201b8204811660e0850152600160401b820416610100840152600160601b900460ff166101208301526007860180548451818402810184019095528085529293879361014086019391929160009084015b8282101561274157600084815260208082206040805160a08101825260048702909201805460ff8116845261010090046001600160a01b0316838501526001810154838301526002810154606084015260038101805483518187028101870190945280845293959194608087019491929084015b8282101561272a576000848152602090819020604080518082019091529084015463ffffffff81168252600160201b900460040b818301528252600190920191016126e4565b505050508152505081526020019060010190612670565b50505050815260200160088201805461275990614232565b80601f016020809104026020016040519081016040528092919081815260200182805461278590614232565b80156127d25780601f106127a7576101008083540402835291602001916127d2565b820191906000526020600020905b8154815290600101906020018083116127b557829003601f168201915b50505050508152505061361f90919063ffffffff16565b612a2a6127f584613646565b604080516101808101825284546001600160a01b0390811682526001860154811660208084019190915260028701548216838501526003870154909116606083015260048601546080830152600586015460a0830152600686015463ffffffff80821660c0850152600160201b8204811660e0850152600160401b820416610100840152600160601b900460ff166101208301526007860180548451818402810184019095528085529293879361014086019391929160009084015b8282101561298257600084815260208082206040805160a08101825260048702909201805460ff8116845261010090046001600160a01b0316838501526001810154838301526002810154606084015260038101805483518187028101870190945280845293959194608087019491929084015b8282101561296b576000848152602090819020604080518082019091529084015463ffffffff81168252600160201b900460040b81830152825260019092019101612925565b5050505081525050815260200190600101906128b1565b50505050815260200160088201805461299a90614232565b80601f01602080910402602001604051908101604052809291908181526020018280546129c690614232565b8015612a135780601f106129e857610100808354040283529160200191612a13565b820191906000526020600020905b8154815290600101906020018083116129f657829003601f168201915b50505050508152505061366b90919063ffffffff16565b612c6b612a3684613690565b604080516101808101825284546001600160a01b0390811682526001860154811660208084019190915260028701548216838501526003870154909116606083015260048601546080830152600586015460a0830152600686015463ffffffff80821660c0850152600160201b8204811660e0850152600160401b820416610100840152600160601b900460ff166101208301526007860180548451818402810184019095528085529293879361014086019391929160009084015b82821015612bc357600084815260208082206040805160a08101825260048702909201805460ff8116845261010090046001600160a01b0316838501526001810154838301526002810154606084015260038101805483518187028101870190945280845293959194608087019491929084015b82821015612bac576000848152602090819020604080518082019091529084015463ffffffff81168252600160201b900460040b81830152825260019092019101612b66565b505050508152505081526020019060010190612af2565b505050508152602001600882018054612bdb90614232565b80601f0160208091040260200160405190810160405280929190818152602001828054612c0790614232565b8015612c545780601f10612c2957610100808354040283529160200191612c54565b820191906000526020600020905b815481529060010190602001808311612c3757829003601f168201915b5050505050815250506136cb90919063ffffffff16565b612eac612c7784613707565b604080516101808101825284546001600160a01b0390811682526001860154811660208084019190915260028701548216838501526003870154909116606083015260048601546080830152600586015460a0830152600686015463ffffffff80821660c0850152600160201b8204811660e0850152600160401b820416610100840152600160601b900460ff166101208301526007860180548451818402810184019095528085529293879361014086019391929160009084015b82821015612e0457600084815260208082206040805160a08101825260048702909201805460ff8116845261010090046001600160a01b0316838501526001810154838301526002810154606084015260038101805483518187028101870190945280845293959194608087019491929084015b82821015612ded576000848152602090819020604080518082019091529084015463ffffffff81168252600160201b900460040b81830152825260019092019101612da7565b505050508152505081526020019060010190612d33565b505050508152602001600882018054612e1c90614232565b80601f0160208091040260200160405190810160405280929190818152602001828054612e4890614232565b8015612e955780601f10612e6a57610100808354040283529160200191612e95565b820191906000526020600020905b815481529060010190602001808311612e7857829003601f168201915b50505050508152505061374290919063ffffffff16565b612ecd612eb884613781565b63ffffffff168261379490919063ffffffff16565b612eee612ed9846137a6565b63ffffffff16826137c090919063ffffffff16565b612f0f612efa846132bd565b63ffffffff168261353590919063ffffffff16565b612f30612f1b8461328b565b63ffffffff168261351e90919063ffffffff16565b60005b836101400151518163ffffffff1610156131f55760008461014001518263ffffffff1681518110612f6657612f666142f4565b60200260200101519050612fb36040518060400160405280601b81526020017a05a5a5a5a5a5ae8c2e6d640d2dce0eae8a8ded6cadc40d2dcc8caf602b1b8152508363ffffffff16613246565b612ff46040518060400160405280601b81526020017a169696969696ba30b9b59034b7383aba2a37b5b2b7103a37b5b2b760291b8152508260200151613201565b61303b604051806040016040528060198152602001782d2d2d2d2d2d7461736b20696e707574546f6b656e2065726360381b81525061303683600001516137d7565b6138ac565b613079604051806040016040528060188152602001770b4b4b4b4b4b5d185cdac81a5b9c1d5d151bdad95b881a5960421b8152508260400151613246565b6130bc6040518060400160405280601c81526020017f2d2d2d2d2d2d7461736b20696e707574546f6b656e20616d6f756e74000000008152508260600151613246565b600783018054600181810183556000928352602080842085516004909402018054918601516001600160a01b0316610100026001600160a81b031990921660ff9094169390931717825560408401519082015560608301516002820155905b8260800151518163ffffffff1610156131e157600382018054600181018255600091825260209091206080850151805191909201919063ffffffff8416908110613167576131676142f4565b602090810291909101015151815463ffffffff191663ffffffff91821617825560808501518051909184169081106131a1576131a16142f4565b6020908102919091018101510151815464ffffffffff909116600160201b0268ffffffffff00000000199091161790556131da8161430a565b905061311b565b505050806131ee9061430a565b9050612f33565b506067545b9392505050565b6119ce828260405160240161321792919061432e565b60408051601f198184030181529190526020810180516001600160e01b031663319af33360e01b1790526138ed565b6119ce828260405160240161325c929190614358565b60408051601f198184030181529190526020810180516001600160e01b0316632d839cb360e21b1790526138ed565b6000611dc782608001516020600060206132a5919061437a565b61390e565b6000611dc78260a001516008600061390e565b6000611dc782608001516020600060206132d7919061437a565b6132e290602061437a565b6132ed90602061437a565b6132f890602061437a565b6132a590602061437a565b60004661a4b18114156133885760646001600160a01b031663a3b1b31d6040518163ffffffff1660e01b815260040160206040518083038186803b15801561334a57600080fd5b505afa15801561335e573d6000803e3d6000fd5b505050506040513d601f19601f820116820180604052508101906133829190614392565b91505090565b4391505090565b60048201546133b6908260206133a660008261437a565b6133b190602061437a565b61392d565b82600401819055505050565b6000611dc782608001516020600060206132f8919061437a565b60048201546133b6908260206133f360008261437a565b6133fe90602061437a565b61340990602061437a565b61341490602061437a565b6133a690602061437a565b60048201546133b69082602061341460008261437a565b6000611dc782608001516020600060206132ed919061437a565b60048201546133b69082602061346760008261437a565b6133f390602061437a565b6033546001600160a01b031633146115ea5760405162461bcd60e51b815260206004820181905260248201527f4f776e61626c653a2063616c6c6572206973206e6f7420746865206f776e657260448201526064016102b5565b603380546001600160a01b038381166001600160a01b0319831681179093556040519116919082907f8be0079c531659141344cd1fd0a4f28419497f9722a3daafe3b4186f6b6457e090600090a35050565b60048201546133b6908260206133b160008261437a565b60048201546133b6908260206133fe60008261437a565b600054610100900460ff166115ea5760405162461bcd60e51b81526004016102b5906143ab565b600054610100900460ff1661359a5760405162461bcd60e51b81526004016102b5906143ab565b6115ea336134cc565b6000611dc78260a001516010600060086132a5919061437a565b6000611dc78260a001516010600060086135d7919061437a565b6132a590601061437a565b6135f78260a001518260ff166008600061392d565b60a09092019190915250565b60a08201516135f79061ffff831660106133b16000600861437a565b60a08201516135f79061ffff8316601061363b6000600861437a565b6133b190601061437a565b6000611dc78260a00151600860006008613660919061437a565b6135d790601061437a565b60a08201516135f79060ff8316600861368560008261437a565b61363b90601061437a565b6000611dc78260a001516010600060086136aa919061437a565b6136b590601061437a565b6136c090601061437a565b6132a590600861437a565b60a08201516135f79060ff831660106136e66000600861437a565b6136f190601061437a565b6136fc90601061437a565b6133b190600861437a565b6000611dc78260a00151602060006008613721919061437a565b61372c90601061437a565b61373790601061437a565b6135d790600861437a565b60a08201516135f79063ffffffff831660206137606000600861437a565b61376b90601061437a565b61377690601061437a565b61363b90600861437a565b6000611dc782608001516020600061390e565b6133b68260040154826020600061392d565b6000611dc782608001516020600060206132e2919061437a565b60048201546133b69082602061340960008261437a565b606060ff821661380157505060408051808201909152600481526321b7b4b760e11b602082015290565b60ff82166001141561382e575050604080518082019091526005815264045524332360dc1b602082015290565b60ff82166002141561385c57505060408051808201909152600681526545524337323160d01b602082015290565b60ff82166003141561388b5750506040805180820190915260078152664552433131353560c81b602082015290565b5050604080518082019091526005815264456d70747960d81b602082015290565b6119ce82826040516024016138c29291906143f6565b60408051601f198184030181529190526020810180516001600160e01b0316634b5c427760e01b1790525b80516a636f6e736f6c652e6c6f67602083016000808483855afa5050505050565b91821c91600080613922600180861b614424565b909416949350505050565b600083821b8183613941600180881b614424565b901b19969096161795945050505050565b82805461395e90614232565b90600052602060002090601f01602090048101928261398057600085556139c6565b82601f1061399957805160ff19168380011785556139c6565b828001600101855582156139c6579182015b828111156139c65782518255916020019190600101906139ab565b506139d29291506139d6565b5090565b5b808211156139d257600081556001016139d7565b803563ffffffff811681146139ff57600080fd5b919050565b60008060408385031215613a1757600080fd5b613a20836139eb565b915060208301358060030b8114613a3657600080fd5b809150509250929050565b6000815180845260005b81811015613a6757602081850181015186830182015201613a4b565b81811115613a79576000602083870101525b50601f01601f19169290920160200192915050565b6020815260006131fa6020830184613a41565b80356001600160a01b03811681146139ff57600080fd5b803560ff811681146139ff57600080fd5b600080600060608486031215613ade57600080fd5b613ae7846139eb565b9250613af560208501613aa1565b9150613b0360408501613ab8565b90509250925092565b60008060008060808587031215613b2257600080fd5b613b2b856139eb565b9350613b39602086016139eb565b9250613b47604086016139eb565b9150613b55606086016139eb565b905092959194509250565b6001600160a01b03169052565b600060208284031215613b7f57600080fd5b6131fa82613aa1565b600060208284031215613b9a57600080fd5b6131fa826139eb565b6001600160a01b038c811682528b811660208301528a81166040830152891660608201526080810188905260a0810187905263ffffffff86811660c083015285811660e0830152841661010082015260ff83166101208201526101606101408201819052600090613c1683820185613a41565b9e9d5050505050505050505050505050565b600081518084526020808501808196508360051b810191508286016000805b86811015613ceb578385038a528251805160ff168652868101516001600160a01b031687870152604080820151818801526060808301519088015260809182015160a0928801839052805192880183905288019160c088019185915b80831015613cd5578451805163ffffffff1685528b015160040b8b850152938a01939281019260019290920191613ca3565b5050509a87019a95505091850191600101613c47565b509298975050505050505050565b60208152613d0b602082018351613b60565b60006020830151613d1f6040840182613b60565b506040830151613d326060840182613b60565b506060830151613d456080840182613b60565b50608083015160a083015260a083015160c083015260c0830151613d7160e084018263ffffffff169052565b5060e0830151610100613d8b8185018363ffffffff169052565b8401519050610120613da48482018363ffffffff169052565b8401519050610140613dba8482018360ff169052565b808501519150506101806101608181860152613dda6101a0860184613c28565b90860151858203601f190183870152909250613df68382613a41565b9695505050505050565b634e487b7160e01b600052604160045260246000fd5b60405160a081016001600160401b0381118282101715613e3857613e38613e00565b60405290565b604080519081016001600160401b0381118282101715613e3857613e38613e00565b60405161018081016001600160401b0381118282101715613e3857613e38613e00565b604051601f8201601f191681016001600160401b0381118282101715613eab57613eab613e00565b604052919050565b60006001600160401b03821115613ecc57613ecc613e00565b5060051b60200190565b600082601f830112613ee757600080fd5b81356020613efc613ef783613eb3565b613e83565b82815260059290921b84018101918181019086841115613f1b57600080fd5b8286015b848110156140595780356001600160401b0380821115613f3e57600080fd5b9088019060a0828b03601f19011215613f5657600080fd5b613f5e613e16565b613f69878401613ab8565b81526040613f78818501613aa1565b888301526060840135818301526080840135606083015260a084013583811115613fa25760008081fd5b8085019450508b603f850112613fba57600092508283fd5b878401359250613fcc613ef784613eb3565b83815260069390931b8401810192888101908d851115613fec5760008081fd5b948201945b848610156140435782868f0312156140095760008081fd5b614011613e3e565b61401a876139eb565b81528a8701358060040b81146140305760008081fd5b818c015282529482019490890190613ff1565b6080840152505085525050918301918301613f1f565b509695505050505050565b600082601f83011261407557600080fd5b81356001600160401b0381111561408e5761408e613e00565b6140a1601f8201601f1916602001613e83565b8181528460208386010111156140b657600080fd5b816020850160208301376000918101602001919091529392505050565b6000602082840312156140e557600080fd5b81356001600160401b03808211156140fc57600080fd5b90830190610180828603121561411157600080fd5b614119613e60565b61412283613aa1565b815261413060208401613aa1565b602082015261414160408401613aa1565b604082015261415260608401613aa1565b60608201526080830135608082015260a083013560a082015261417760c084016139eb565b60c082015261418860e084016139eb565b60e082015261010061419b8185016139eb565b908201526101206141ad848201613ab8565b9082015261014083810135838111156141c557600080fd5b6141d188828701613ed6565b82840152505061016080840135838111156141eb57600080fd5b6141f788828701614064565b918301919091525095945050505050565b60208082526010908201526f63616c6c657220213d20656e67696e6560801b604082015260600190565b600181811c9082168061424657607f821691505b6020821081141561426757634e487b7160e01b600052602260045260246000fd5b50919050565b634e487b7160e01b600052601160045260246000fd5b600063ffffffff8083168185168083038211156142a2576142a261426d565b01949350505050565b60008160030b637fffffff198114156142c6576142c661426d565b60000392915050565b600063ffffffff838116908316818110156142ec576142ec61426d565b039392505050565b634e487b7160e01b600052603260045260246000fd5b600063ffffffff808316818114156143245761432461426d565b6001019392505050565b6040815260006143416040830185613a41565b905060018060a01b03831660208301529392505050565b60408152600061436b6040830185613a41565b90508260208301529392505050565b6000821982111561438d5761438d61426d565b500190565b6000602082840312156143a457600080fd5b5051919050565b6020808252602b908201527f496e697469616c697a61626c653a20636f6e7472616374206973206e6f74206960408201526a6e697469616c697a696e6760a81b606082015260800190565b6040815260006144096040830185613a41565b828103602084015261441b8185613a41565b95945050505050565b6000828210156144365761443661426d565b50039056fe2d2d2d2d2d2d2d2d2d2d2d205374617465436f756e7465722075706461746554696d652070726f63657373656420626c6f636b4e756d6265722d2d2d2d2d2d2d2d2d2d2d205374617465436f756e7465722070726f636573732074696d657374616d702d2d2d2d2d2d20616464207461736b2072756c65536c6f74496e6465784f75747075742d2d2d2d2d2d20676574207461736b2072756c65536c6f74496e646578496e7075742d2d2d2d2d2d2d2d2d2d2d205374617465436f756e7465722075706461746554696d6520616464726573732d2d2d2d2d2d2d2d2d2d2d205374617465436f756e746572207570646174654578656375746544656c617954696d65207461736b2e67657454696d657374616d704578656375746528292d2d2d2d2d2d2d2d2d2d2d205374617465436f756e7465722075706461746554696d6520646f6e65206f72207265766f6b652074696d657374616d702d2d2d2d2d2d2d2d2d2d2d205374617465436f756e746572207570646174654578656375746544656c617954696d6520616464726573732d2d2d2d2d2d2d2d2d2d2d205374617465436f756e74657220646f6e65206f72207265766f6b652074696d657374616d702d2d2d2d2d2d2d2d2d2d2d205374617465436f756e746572207570646174654578656375746544656c617954696d65206d73672e73656e6465722d2d2d2d2d2d2d2d2d2d2d205374617465436f756e7465722075706461746554696d6520646f6e65206f72207265766f6b6520626c6f636b4e756d6265722d2d2d2d2d2d2d2d2d2d2d205374617465436f756e7465722070726f636573732067657454696d657374616d702d2d2d2d2d2d2d2d2d2d2d205374617465436f756e746572206d73672e73656e6465722d2d2d2d2d2d2d2d2d2d2d205374617465436f756e746572207570646174654578656375746544656c617954696d6520656e67696e652d2d2d2d2d2d2d2d2d2d2d205374617465436f756e74657220646f6e65206f72207265766f6b652067657454696d657374616d702d2d2d2d2d2d2d2d2d2d2d205374617465436f756e7465722075706461746554696d652070726f6365737365642074696d657374616d702d2d2d2d2d2d2d2d2d2d2d205374617465436f756e7465722075706461746554696d6520656e67696e652d2d2d2d2d2d2d2d2d2d2d205374617465436f756e7465722075706461746554696d65206d73672e73656e6465722d2d2d2d2d2d2d2d2d2d2d205374617465436f756e7465722075706461746554696d65206578656375746520626c6f636b4e756d6265722d2d2d2d2d2d20676574207461736b2072756c65536c6f74496e6465784f75747075742d2d2d2d2d2d2d2d2d2d2d205374617465436f756e7465722075706461746554696d6520657865637574652074696d657374616d702d2d2d2d2d2d2d2d2d2d2d205374617465436f756e746572207570646174654578656375746544656c617954696d6520626c6f636b2e74696d657374616d702d2d2d2d2d2d20616464207461736b2072756c65536c6f74496e646578496e707574a2646970667358221220d47cabf469731a62439b0eadb136cf649fb4da4187e173c51ef4e78f8e48d05e64736f6c63430008080033",
  "linkReferences": {},
  "deployedLinkReferences": {}
}