{
  "_format": "hh-sol-artifact-1",
  "contractName": "ShoeRunningSnippet",
  "sourceName": "contracts/V3/snippet/ShoeRunningSnippet.sol",
  "abi": [
    {
      "inputs": [
        {
          "internalType": "address",
          "name": "stateCounter_",
          "type": "address"
        },
        {
          "internalType": "address",
          "name": "clusterArea_",
          "type": "address"
        }
      ],
      "stateMutability": "nonpayable",
      "type": "constructor"
    },
    {
      "inputs": [
        {
          "components": [
            {
              "internalType": "address",
              "name": "caller",
              "type": "address"
            },
            {
              "internalType": "uint32",
              "name": "clusterId",
              "type": "uint32"
            },
            {
              "internalType": "uint8",
              "name": "inBranch",
              "type": "uint8"
            },
            {
              "internalType": "uint32",
              "name": "taskId",
              "type": "uint32"
            },
            {
              "internalType": "uint32",
              "name": "inTokenSlotIndex",
              "type": "uint32"
            },
            {
              "components": [
                {
                  "internalType": "uint8",
                  "name": "erc",
                  "type": "uint8"
                },
                {
                  "internalType": "address",
                  "name": "token",
                  "type": "address"
                },
                {
                  "internalType": "uint256",
                  "name": "id",
                  "type": "uint256"
                },
                {
                  "internalType": "uint256",
                  "name": "amount",
                  "type": "uint256"
                },
                {
                  "components": [
                    {
                      "internalType": "uint32",
                      "name": "attrId",
                      "type": "uint32"
                    },
                    {
                      "internalType": "int40",
                      "name": "attrAmount",
                      "type": "int40"
                    }
                  ],
                  "internalType": "struct Attribute.AttributeIn[]",
                  "name": "attrInList",
                  "type": "tuple[]"
                }
              ],
              "internalType": "struct Token.Token",
              "name": "inToken",
              "type": "tuple"
            }
          ],
          "internalType": "struct ISnippet.PreInputTokenParams",
          "name": "preInputToken",
          "type": "tuple"
        }
      ],
      "name": "preInputToken",
      "outputs": [
        {
          "components": [
            {
              "internalType": "uint8",
              "name": "erc",
              "type": "uint8"
            },
            {
              "internalType": "address",
              "name": "token",
              "type": "address"
            },
            {
              "internalType": "uint256",
              "name": "tokenId",
              "type": "uint256"
            },
            {
              "internalType": "uint256",
              "name": "amount",
              "type": "uint256"
            },
            {
              "components": [
                {
                  "internalType": "uint32",
                  "name": "attrId",
                  "type": "uint32"
                },
                {
                  "internalType": "uint8",
                  "name": "attrOpt",
                  "type": "uint8"
                },
                {
                  "internalType": "uint8",
                  "name": "attrType",
                  "type": "uint8"
                },
                {
                  "internalType": "int40",
                  "name": "attrAmount",
                  "type": "int40"
                },
                {
                  "internalType": "string",
                  "name": "attrText",
                  "type": "string"
                },
                {
                  "internalType": "uint32",
                  "name": "parentAttrId",
                  "type": "uint32"
                },
                {
                  "internalType": "uint8",
                  "name": "attrState",
                  "type": "uint8"
                },
                {
                  "internalType": "bytes4",
                  "name": "attrFormula",
                  "type": "bytes4"
                }
              ],
              "internalType": "struct Attribute.AttributeOpt[]",
              "name": "attributeOptList",
              "type": "tuple[]"
            }
          ],
          "internalType": "struct ISnippet.TokenSnippet",
          "name": "",
          "type": "tuple"
        }
      ],
      "stateMutability": "nonpayable",
      "type": "function"
    },
    {
      "inputs": [
        {
          "components": [
            {
              "internalType": "address",
              "name": "caller",
              "type": "address"
            },
            {
              "internalType": "uint32",
              "name": "clusterId",
              "type": "uint32"
            },
            {
              "internalType": "uint8",
              "name": "inBranch",
              "type": "uint8"
            },
            {
              "internalType": "uint8",
              "name": "inRound",
              "type": "uint8"
            },
            {
              "internalType": "uint32",
              "name": "taskId",
              "type": "uint32"
            }
          ],
          "internalType": "struct ISnippet.ExecuteDelayParams",
          "name": "executeDelay",
          "type": "tuple"
        }
      ],
      "name": "processExecuteDelayTime",
      "outputs": [
        {
          "internalType": "int32",
          "name": "",
          "type": "int32"
        }
      ],
      "stateMutability": "nonpayable",
      "type": "function"
    },
    {
      "inputs": [
        {
          "components": [
            {
              "internalType": "address",
              "name": "caller",
              "type": "address"
            },
            {
              "internalType": "uint32",
              "name": "clusterId",
              "type": "uint32"
            },
            {
              "internalType": "uint8",
              "name": "inBranch",
              "type": "uint8"
            },
            {
              "internalType": "uint8",
              "name": "inRound",
              "type": "uint8"
            },
            {
              "internalType": "uint8",
              "name": "ruleDurationType",
              "type": "uint8"
            },
            {
              "internalType": "uint32",
              "name": "ruleDelayTimestamp",
              "type": "uint32"
            },
            {
              "internalType": "uint32",
              "name": "ruleDelayBlockNumber",
              "type": "uint32"
            },
            {
              "internalType": "uint32",
              "name": "delayTimestamp",
              "type": "uint32"
            },
            {
              "internalType": "uint32",
              "name": "delayBlockNumber",
              "type": "uint32"
            },
            {
              "components": [
                {
                  "internalType": "uint8",
                  "name": "erc",
                  "type": "uint8"
                },
                {
                  "internalType": "address",
                  "name": "token",
                  "type": "address"
                },
                {
                  "internalType": "uint256",
                  "name": "id",
                  "type": "uint256"
                },
                {
                  "internalType": "uint256",
                  "name": "amount",
                  "type": "uint256"
                },
                {
                  "components": [
                    {
                      "internalType": "uint32",
                      "name": "attrId",
                      "type": "uint32"
                    },
                    {
                      "internalType": "int40",
                      "name": "attrAmount",
                      "type": "int40"
                    }
                  ],
                  "internalType": "struct Attribute.AttributeIn[]",
                  "name": "attrInList",
                  "type": "tuple[]"
                }
              ],
              "internalType": "struct Token.Token[]",
              "name": "inTokenList",
              "type": "tuple[]"
            }
          ],
          "internalType": "struct ISnippet.InitDelayParams",
          "name": "initDelay",
          "type": "tuple"
        }
      ],
      "name": "processInitDelayTime",
      "outputs": [
        {
          "internalType": "int32",
          "name": "",
          "type": "int32"
        }
      ],
      "stateMutability": "nonpayable",
      "type": "function"
    },
    {
      "inputs": [
        {
          "components": [
            {
              "internalType": "address",
              "name": "caller",
              "type": "address"
            },
            {
              "internalType": "uint32",
              "name": "clusterId",
              "type": "uint32"
            },
            {
              "internalType": "uint8",
              "name": "outBranch",
              "type": "uint8"
            },
            {
              "internalType": "uint32",
              "name": "taskId",
              "type": "uint32"
            },
            {
              "internalType": "uint32",
              "name": "inTokenSlotIndex",
              "type": "uint32"
            },
            {
              "components": [
                {
                  "internalType": "uint8",
                  "name": "erc",
                  "type": "uint8"
                },
                {
                  "internalType": "address",
                  "name": "token",
                  "type": "address"
                },
                {
                  "internalType": "uint256",
                  "name": "id",
                  "type": "uint256"
                },
                {
                  "internalType": "uint256",
                  "name": "amount",
                  "type": "uint256"
                },
                {
                  "components": [
                    {
                      "internalType": "uint32",
                      "name": "attrId",
                      "type": "uint32"
                    },
                    {
                      "internalType": "int40",
                      "name": "attrAmount",
                      "type": "int40"
                    }
                  ],
                  "internalType": "struct Attribute.AttributeIn[]",
                  "name": "attrInList",
                  "type": "tuple[]"
                }
              ],
              "internalType": "struct Token.Token",
              "name": "inToken",
              "type": "tuple"
            }
          ],
          "internalType": "struct ISnippet.InputTokenParams",
          "name": "inputToken",
          "type": "tuple"
        }
      ],
      "name": "processInputToken",
      "outputs": [
        {
          "components": [
            {
              "internalType": "uint8",
              "name": "erc",
              "type": "uint8"
            },
            {
              "internalType": "address",
              "name": "token",
              "type": "address"
            },
            {
              "internalType": "uint256",
              "name": "tokenId",
              "type": "uint256"
            },
            {
              "internalType": "uint256",
              "name": "amount",
              "type": "uint256"
            },
            {
              "components": [
                {
                  "internalType": "uint32",
                  "name": "attrId",
                  "type": "uint32"
                },
                {
                  "internalType": "uint8",
                  "name": "attrOpt",
                  "type": "uint8"
                },
                {
                  "internalType": "uint8",
                  "name": "attrType",
                  "type": "uint8"
                },
                {
                  "internalType": "int40",
                  "name": "attrAmount",
                  "type": "int40"
                },
                {
                  "internalType": "string",
                  "name": "attrText",
                  "type": "string"
                },
                {
                  "internalType": "uint32",
                  "name": "parentAttrId",
                  "type": "uint32"
                },
                {
                  "internalType": "uint8",
                  "name": "attrState",
                  "type": "uint8"
                },
                {
                  "internalType": "bytes4",
                  "name": "attrFormula",
                  "type": "bytes4"
                }
              ],
              "internalType": "struct Attribute.AttributeOpt[]",
              "name": "attributeOptList",
              "type": "tuple[]"
            }
          ],
          "internalType": "struct ISnippet.TokenSnippet",
          "name": "",
          "type": "tuple"
        }
      ],
      "stateMutability": "nonpayable",
      "type": "function"
    },
    {
      "inputs": [
        {
          "components": [
            {
              "internalType": "address",
              "name": "caller",
              "type": "address"
            },
            {
              "internalType": "uint32",
              "name": "clusterId",
              "type": "uint32"
            },
            {
              "internalType": "uint8",
              "name": "outBranch",
              "type": "uint8"
            },
            {
              "internalType": "uint32",
              "name": "taskId",
              "type": "uint32"
            },
            {
              "internalType": "uint256",
              "name": "random",
              "type": "uint256"
            },
            {
              "internalType": "uint8",
              "name": "tokenSlotIndex",
              "type": "uint8"
            },
            {
              "internalType": "uint8",
              "name": "erc",
              "type": "uint8"
            },
            {
              "internalType": "address",
              "name": "token",
              "type": "address"
            }
          ],
          "internalType": "struct ISnippet.TokenSlotDelayParams",
          "name": "tokenSlotDelay",
          "type": "tuple"
        }
      ],
      "name": "processInputTokenSlotDelayTime",
      "outputs": [
        {
          "internalType": "int32",
          "name": "",
          "type": "int32"
        }
      ],
      "stateMutability": "nonpayable",
      "type": "function"
    },
    {
      "inputs": [
        {
          "components": [
            {
              "internalType": "address",
              "name": "caller",
              "type": "address"
            },
            {
              "internalType": "uint32",
              "name": "clusterId",
              "type": "uint32"
            },
            {
              "internalType": "uint8",
              "name": "outBranch",
              "type": "uint8"
            },
            {
              "internalType": "uint32",
              "name": "taskId",
              "type": "uint32"
            },
            {
              "internalType": "uint256",
              "name": "random",
              "type": "uint256"
            },
            {
              "internalType": "uint32",
              "name": "outTokenSlotIndex",
              "type": "uint32"
            },
            {
              "components": [
                {
                  "internalType": "uint8",
                  "name": "erc",
                  "type": "uint8"
                },
                {
                  "internalType": "address",
                  "name": "token",
                  "type": "address"
                },
                {
                  "internalType": "uint256",
                  "name": "id",
                  "type": "uint256"
                },
                {
                  "internalType": "uint256",
                  "name": "amount",
                  "type": "uint256"
                },
                {
                  "components": [
                    {
                      "internalType": "uint32",
                      "name": "attrId",
                      "type": "uint32"
                    },
                    {
                      "internalType": "int40",
                      "name": "attrAmount",
                      "type": "int40"
                    }
                  ],
                  "internalType": "struct Attribute.AttributeIn[]",
                  "name": "attrInList",
                  "type": "tuple[]"
                }
              ],
              "internalType": "struct Token.Token",
              "name": "outToken",
              "type": "tuple"
            }
          ],
          "internalType": "struct ISnippet.OutputTokenParams",
          "name": "outputToken",
          "type": "tuple"
        }
      ],
      "name": "processOutputToken",
      "outputs": [
        {
          "components": [
            {
              "internalType": "uint8",
              "name": "erc",
              "type": "uint8"
            },
            {
              "internalType": "address",
              "name": "token",
              "type": "address"
            },
            {
              "internalType": "uint256",
              "name": "tokenId",
              "type": "uint256"
            },
            {
              "internalType": "uint256",
              "name": "amount",
              "type": "uint256"
            },
            {
              "components": [
                {
                  "internalType": "uint32",
                  "name": "attrId",
                  "type": "uint32"
                },
                {
                  "internalType": "uint8",
                  "name": "attrOpt",
                  "type": "uint8"
                },
                {
                  "internalType": "uint8",
                  "name": "attrType",
                  "type": "uint8"
                },
                {
                  "internalType": "int40",
                  "name": "attrAmount",
                  "type": "int40"
                },
                {
                  "internalType": "string",
                  "name": "attrText",
                  "type": "string"
                },
                {
                  "internalType": "uint32",
                  "name": "parentAttrId",
                  "type": "uint32"
                },
                {
                  "internalType": "uint8",
                  "name": "attrState",
                  "type": "uint8"
                },
                {
                  "internalType": "bytes4",
                  "name": "attrFormula",
                  "type": "bytes4"
                }
              ],
              "internalType": "struct Attribute.AttributeOpt[]",
              "name": "attributeOptList",
              "type": "tuple[]"
            }
          ],
          "internalType": "struct ISnippet.TokenSnippet",
          "name": "",
          "type": "tuple"
        }
      ],
      "stateMutability": "nonpayable",
      "type": "function"
    },
    {
      "inputs": [
        {
          "components": [
            {
              "internalType": "address",
              "name": "caller",
              "type": "address"
            },
            {
              "internalType": "uint32",
              "name": "clusterId",
              "type": "uint32"
            },
            {
              "internalType": "uint8",
              "name": "outBranch",
              "type": "uint8"
            },
            {
              "internalType": "uint32",
              "name": "taskId",
              "type": "uint32"
            },
            {
              "internalType": "uint256",
              "name": "random",
              "type": "uint256"
            },
            {
              "internalType": "uint8",
              "name": "tokenSlotIndex",
              "type": "uint8"
            },
            {
              "internalType": "uint8",
              "name": "erc",
              "type": "uint8"
            },
            {
              "internalType": "address",
              "name": "token",
              "type": "address"
            }
          ],
          "internalType": "struct ISnippet.TokenSlotDelayParams",
          "name": "tokenSlotDelay",
          "type": "tuple"
        }
      ],
      "name": "processOutputTokenSlotDelayTime",
      "outputs": [
        {
          "internalType": "int32",
          "name": "",
          "type": "int32"
        }
      ],
      "stateMutability": "nonpayable",
      "type": "function"
    }
  ],
  "bytecode": "0x608060405234801561001057600080fd5b5060405161167938038061167983398101604081905261002f9161007c565b600180546001600160a01b039384166001600160a01b031991821617909155600080549290931691161790556100af565b80516001600160a01b038116811461007757600080fd5b919050565b6000806040838503121561008f57600080fd5b61009883610060565b91506100a660208401610060565b90509250929050565b6115bb806100be6000396000f3fe608060405234801561001057600080fd5b506004361061006d5760003560e01c806324d56ffe146100725780635de70a0d1461009b5780636557196a146100c1578063814645dc146100d45780638cb665ff146100e75780639090fa45146100fa578063b6ee96de1461010d575b600080fd5b610085610080366004610923565b610120565b6040516100929190610a4a565b60405180910390f35b6100ae6100a9366004610b74565b61017f565b60405160039190910b8152602001610092565b6100ae6100cf366004610cc0565b6101b5565b6100ae6100e2366004610b74565b6101e3565b6100856100f5366004610e92565b610211565b610085610108366004610e92565b61052d565b6100ae61011b366004610ece565b61057b565b610128610650565b6101716040518060400160405280601f81526020017f2d2d2d2d2d2d2d2d2d2d2d2d2070726f636573734f7574707574546f6b656e00815250836020015163ffffffff166105a5565b610179610650565b92915050565b60006101ad6040518060600160405280602b8152602001611428602b9139836020015163ffffffff166105a5565b506000919050565b60006101ad6040518060600160405280602181526020016114a760219139836020015163ffffffff166105a5565b60006101ad6040518060600160405280602c815260200161155a602c9139836020015163ffffffff166105a5565b610219610650565b6102626040518060400160405280601e81526020017f2d2d2d2d2d2d2d2d2d2d2d2d2070726f63657373496e707574546f6b656e0000815250836020015163ffffffff166105a5565b61026a610650565b826080015163ffffffff1660011415610179576001546060840151604051636c51371d60e11b815263ffffffff90911660048201526000916001600160a01b03169063d8a26e3a9060240160006040518083038186803b1580156102cd57600080fd5b505afa1580156102e1573d6000803e3d6000fd5b505050506040513d6000823e601f3d908101601f191682016040526103099190810190611166565b905060008161014001516000815181106103255761032561128a565b6020026020010151905061035b604051806060016040528060238152602001611484602391398360c0015163ffffffff166105a5565b60a0850180515160ff16845280516020908101516001600160a01b03169085015251604090810151818501528051600180825281830190925290816020015b6040805161010081018252600080825260208083018290529282018190526060808301829052608083015260a0820181905260c0820181905260e0820152825260001990920191018161039a575050608084015260408051606081019091526031808252610416919061145360208301398460800151516105a5565b6000836080015160008151811061042f5761042f61128a565b6020026020010151905061046160405180606001604052806036815260200161152460369139846101400151516105a5565b6104876040518060600160405280603881526020016114c86038913983602001516105ee565b6104ae6040518060800160405280604481526020016113e4604491398360800151516105a5565b600681526001602082015260026040820152608082015180516000906104d6576104d661128a565b6020026020010151602001516104eb906112b6565b6104f69060026112db565b60040b606080830191909152604080519182019052602b80825261052491906113b9602083013960026105a5565b50505092915050565b610535610650565b6101716040518060400160405280601a81526020017916969696969696969696969690383932a4b7383aba2a37b5b2b760311b815250836020015163ffffffff166105a5565b60006101ad60405180606001604052806024815260200161150060249139836020015163ffffffff165b6105ea82826040516024016105bb92919061136c565b60408051601f198184030181529190526020810180516001600160e01b0316632d839cb360e21b17905261062f565b5050565b6105ea828260405160240161060492919061138e565b60408051601f198184030181529190526020810180516001600160e01b031663319af33360e01b1790525b80516a636f6e736f6c652e6c6f67602083016000808483855afa5050505050565b6040518060a00160405280600060ff16815260200160006001600160a01b031681526020016000815260200160008152602001606081525090565b634e487b7160e01b600052604160045260246000fd5b60405160a081016001600160401b03811182821017156106c3576106c361068b565b60405290565b604080519081016001600160401b03811182821017156106c3576106c361068b565b60405160e081016001600160401b03811182821017156106c3576106c361068b565b60405161014081016001600160401b03811182821017156106c3576106c361068b565b60405161018081016001600160401b03811182821017156106c3576106c361068b565b604051601f8201601f191681016001600160401b038111828210171561077b5761077b61068b565b604052919050565b6001600160a01b038116811461079857600080fd5b50565b80356107a681610783565b919050565b63ffffffff8116811461079857600080fd5b80356107a6816107ab565b60ff8116811461079857600080fd5b80356107a6816107c8565b60006001600160401b038211156107fb576107fb61068b565b5060051b60200190565b8060040b811461079857600080fd5b600060a0828403121561082657600080fd5b61082e6106a1565b9050813561083b816107c8565b815260208281013561084c81610783565b82820152604083810135818401526060808501359084015260808401356001600160401b0381111561087d57600080fd5b8401601f8101861361088e57600080fd5b80356108a161089c826107e2565b610753565b81815260069190911b820184019084810190888311156108c057600080fd5b928501925b828410156109125784848a0312156108dd5760008081fd5b6108e56106c9565b84356108f0816107ab565b8152848701356108ff81610805565b81880152825292840192908501906108c5565b608087015250939695505050505050565b60006020828403121561093557600080fd5b81356001600160401b038082111561094c57600080fd5b9083019060e0828603121561096057600080fd5b6109686106eb565b6109718361079b565b815261097f602084016107bd565b6020820152610990604084016107d7565b60408201526109a1606084016107bd565b6060820152608083013560808201526109bc60a084016107bd565b60a082015260c0830135828111156109d357600080fd5b6109df87828601610814565b60c08301525095945050505050565b60005b83811015610a095781810151838201526020016109f1565b83811115610a18576000848401525b50505050565b60008151808452610a368160208601602086016109ee565b601f01601f19169290920160200192915050565b6000602080835260c080840160ff808751168487015283870151604060018060a01b03821681890152808901519150606082818a0152808a01519250608083818b0152808b0151935060a080818c015286855180895260e09850888d019150888160051b8e01018b8801975060005b82811015610b61578e820360df190184528851805163ffffffff1683528d8101518b168e8401528881015160ff16898401528781015160040b888401528681015161010088850181905290610b1082860182610a1e565b91505086820151610b288886018263ffffffff169052565b508d820151610b3b8f86018260ff169052565b50908c01516001600160e01b031916928c0192909252978c0197928c0192600101610ab9565b509e9d5050505050505050505050505050565b6000610100808385031215610b8857600080fd5b604051908101906001600160401b0382118183101715610baa57610baa61068b565b8160405283359150610bbb82610783565b818152610bca602085016107bd565b6020820152610bdb604085016107d7565b6040820152610bec606085016107bd565b606082015260808401356080820152610c0760a085016107d7565b60a0820152610c1860c085016107d7565b60c0820152610c2960e0850161079b565b60e0820152949350505050565b600082601f830112610c4757600080fd5b81356020610c5761089c836107e2565b82815260059290921b84018101918181019086841115610c7657600080fd5b8286015b84811015610cb55780356001600160401b03811115610c995760008081fd5b610ca78986838b0101610814565b845250918301918301610c7a565b509695505050505050565b600060208284031215610cd257600080fd5b81356001600160401b0380821115610ce957600080fd5b908301906101408286031215610cfe57600080fd5b610d0661070d565b610d0f8361079b565b8152610d1d602084016107bd565b6020820152610d2e604084016107d7565b6040820152610d3f606084016107d7565b6060820152610d50608084016107d7565b6080820152610d6160a084016107bd565b60a0820152610d7260c084016107bd565b60c0820152610d8360e084016107bd565b60e0820152610100610d968185016107bd565b908201526101208381013583811115610dae57600080fd5b610dba88828701610c36565b918301919091525095945050505050565b600060c08284031215610ddd57600080fd5b60405160c081016001600160401b038282108183111715610e0057610e0061068b565b8160405282935084359150610e1482610783565b908252602084013590610e26826107ab565b81602084015260408501359150610e3c826107c8565b816040840152610e4e606086016107bd565b6060840152610e5f608086016107bd565b608084015260a0850135915080821115610e7857600080fd5b50610e8585828601610814565b60a0830152505092915050565b600060208284031215610ea457600080fd5b81356001600160401b03811115610eba57600080fd5b610ec684828501610dcb565b949350505050565b600060a08284031215610ee057600080fd5b60405160a081018181106001600160401b0382111715610f0257610f0261068b565b6040528235610f1081610783565b81526020830135610f20816107ab565b60208201526040830135610f33816107c8565b60408201526060830135610f46816107c8565b60608201526080830135610f59816107ab565b60808201529392505050565b80516107a681610783565b80516107a6816107ab565b80516107a6816107c8565b600082601f830112610f9757600080fd5b81516020610fa761089c836107e2565b82815260059290921b84018101918181019086841115610fc657600080fd5b8286015b84811015610cb55780516001600160401b0380821115610fe957600080fd5b9088019060a0828b03601f1901121561100157600080fd5b6110096106a1565b86830151611016816107c8565b815260408381015161102781610783565b828901526060848101518284015260808501519083015260a0840151838111156110515760008081fd5b8085019450508b603f85011261106957600092508283fd5b87840151925061107b61089c846107e2565b83815260069390931b8401810192888101908d85111561109b5760008081fd5b948201945b848610156110ed5782868f0312156110b85760008081fd5b6110c06106c9565b86516110cb816107ab565b8152868b01516110da81610805565b818c0152825294820194908901906110a0565b6080840152505085525050918301918301610fca565b600082601f83011261111457600080fd5b81516001600160401b0381111561112d5761112d61068b565b611140601f8201601f1916602001610753565b81815284602083860101111561115557600080fd5b610ec68260208301602087016109ee565b60006020828403121561117857600080fd5b81516001600160401b038082111561118f57600080fd5b9083019061018082860312156111a457600080fd5b6111ac610730565b6111b583610f65565b81526111c360208401610f65565b60208201526111d460408401610f65565b60408201526111e560608401610f65565b60608201526080830151608082015260a083015160a082015261120a60c08401610f70565b60c082015261121b60e08401610f70565b60e082015261010061122e818501610f70565b90820152610120611240848201610f7b565b90820152610140838101518381111561125857600080fd5b61126488828701610f86565b828401525050610160808401518381111561127e57600080fd5b610dba88828701611103565b634e487b7160e01b600052603260045260246000fd5b634e487b7160e01b600052601160045260246000fd5b60008160040b647fffffffff198114156112d2576112d26112a0565b60000392915050565b60008160040b8360040b647fffffffff600082136000841383830485118282161615611309576113096112a0565b647fffffffff19600085128281168783058712161561132a5761132a6112a0565b60008712925085820587128484161615611346576113466112a0565b8585058712818416161561135c5761135c6112a0565b5050509290910295945050505050565b60408152600061137f6040830185610a1e565b90508260208301529392505050565b6040815260006113a16040830185610a1e565b905060018060a01b0383166020830152939250505056fe2d2d2d2d2d2d2d2d2d2d2d2d2070726f63657373496e707574546f6b656e20746f6b656e536e69707065742d2d2d2d2d2d2d2d2d2d2d2d2070726f63657373496e707574546f6b656e207461736b2e696e546f6b656e4c6973745b305d2e61747472496e4c6973742e6c656e6774682d2d2d2d2d2d2d2d2d2d2d2d2070726f63657373496e707574546f6b656e536c6f7444656c617954696d652d2d2d2d2d2d2d2d2d2d2d2d20206174747269627574654f70744c69737420617474724f70744c6973742e6c656e6774682d2d2d2d2d2d2d2d2d2d2d2d2070726f63657373496e707574546f6b656e207461736b2d2d2d2d2d2d2d2d2d2d2d2d2070726f63657373496e697444656c617954696d652d2d2d2d2d2d2d2d2d2d2d2d2070726f63657373496e707574546f6b656e207461736b2e696e546f6b656e4c6973745b305d2e746f6b656e2d2d2d2d2d2d2d2d2d2d2d2d2070726f636573734578656375746544656c617954696d652d2d2d2d2d2d2d2d2d2d2d2d2070726f63657373496e707574546f6b656e207461736b2e696e546f6b656e4c6973742e6c656e6774682d2d2d2d2d2d2d2d2d2d2d2d2070726f636573734f7574707574546f6b656e536c6f7444656c617954696d65a2646970667358221220d60c483d6426d250cfdf427e14d6a5b2fbfe45bf4265b689edefa627f2f73f3564736f6c63430008080033",
  "linkReferences": {},
  "deployedLinkReferences": {}
}