{
  "_format": "hh-sol-artifact-1",
  "contractName": "ClusterRuleArea",
  "sourceName": "contracts/V3/ClusterRuleArea.sol",
  "abi": [
    {
      "anonymous": false,
      "inputs": [
        {
          "indexed": true,
          "internalType": "address",
          "name": "caller",
          "type": "address"
        },
        {
          "indexed": true,
          "internalType": "uint8",
          "name": "regType",
          "type": "uint8"
        },
        {
          "indexed": true,
          "internalType": "uint32",
          "name": "clusterId",
          "type": "uint32"
        },
        {
          "indexed": false,
          "internalType": "uint8",
          "name": "ruleSlotIndex1",
          "type": "uint8"
        },
        {
          "indexed": false,
          "internalType": "uint8",
          "name": "ruleSlotIndex2",
          "type": "uint8"
        }
      ],
      "name": "EventClusterRule",
      "type": "event"
    },
    {
      "anonymous": false,
      "inputs": [
        {
          "indexed": false,
          "internalType": "uint8",
          "name": "version",
          "type": "uint8"
        }
      ],
      "name": "Initialized",
      "type": "event"
    },
    {
      "anonymous": false,
      "inputs": [
        {
          "indexed": true,
          "internalType": "address",
          "name": "previousOwner",
          "type": "address"
        },
        {
          "indexed": true,
          "internalType": "address",
          "name": "newOwner",
          "type": "address"
        }
      ],
      "name": "OwnershipTransferred",
      "type": "event"
    },
    {
      "anonymous": false,
      "inputs": [
        {
          "indexed": false,
          "internalType": "uint32",
          "name": "clusterId",
          "type": "uint32"
        },
        {
          "indexed": false,
          "internalType": "uint16",
          "name": "ruleSlotIndexInput",
          "type": "uint16"
        },
        {
          "indexed": false,
          "internalType": "uint16",
          "name": "ruleSlotIndexOutput",
          "type": "uint16"
        },
        {
          "indexed": false,
          "internalType": "uint8",
          "name": "state",
          "type": "uint8"
        },
        {
          "indexed": false,
          "internalType": "uint8",
          "name": "newState",
          "type": "uint8"
        }
      ],
      "name": "SetRuleState",
      "type": "event"
    },
    {
      "inputs": [],
      "name": "clusterArea",
      "outputs": [
        {
          "internalType": "address",
          "name": "",
          "type": "address"
        }
      ],
      "stateMutability": "view",
      "type": "function"
    },
    {
      "inputs": [],
      "name": "cname",
      "outputs": [
        {
          "internalType": "string",
          "name": "",
          "type": "string"
        }
      ],
      "stateMutability": "pure",
      "type": "function"
    },
    {
      "inputs": [],
      "name": "engine",
      "outputs": [
        {
          "internalType": "address",
          "name": "",
          "type": "address"
        }
      ],
      "stateMutability": "view",
      "type": "function"
    },
    {
      "inputs": [],
      "name": "getClusterArea",
      "outputs": [
        {
          "internalType": "address",
          "name": "",
          "type": "address"
        }
      ],
      "stateMutability": "nonpayable",
      "type": "function"
    },
    {
      "inputs": [],
      "name": "getEngine",
      "outputs": [
        {
          "internalType": "address",
          "name": "",
          "type": "address"
        }
      ],
      "stateMutability": "nonpayable",
      "type": "function"
    },
    {
      "inputs": [
        {
          "internalType": "uint32",
          "name": "clusterId",
          "type": "uint32"
        },
        {
          "internalType": "uint16",
          "name": "ruleSlotIndex",
          "type": "uint16"
        },
        {
          "internalType": "uint8",
          "name": "branch",
          "type": "uint8"
        }
      ],
      "name": "getGroupSlot",
      "outputs": [
        {
          "internalType": "bool",
          "name": "found",
          "type": "bool"
        },
        {
          "components": [
            {
              "components": [
                {
                  "components": [
                    {
                      "internalType": "uint8",
                      "name": "erc",
                      "type": "uint8"
                    },
                    {
                      "internalType": "address",
                      "name": "token",
                      "type": "address"
                    },
                    {
                      "internalType": "uint256[]",
                      "name": "valueList",
                      "type": "uint256[]"
                    }
                  ],
                  "internalType": "struct Token.TokenTemplate",
                  "name": "tokenTemplate",
                  "type": "tuple"
                },
                {
                  "internalType": "uint8",
                  "name": "rule",
                  "type": "uint8"
                },
                {
                  "internalType": "address[]",
                  "name": "ioAddressList",
                  "type": "address[]"
                },
                {
                  "internalType": "uint256[]",
                  "name": "valueList",
                  "type": "uint256[]"
                }
              ],
              "internalType": "struct Rule.TokenSlot[]",
              "name": "tokenSlotList",
              "type": "tuple[]"
            },
            {
              "internalType": "uint8",
              "name": "branch",
              "type": "uint8"
            },
            {
              "internalType": "address",
              "name": "poolToken",
              "type": "address"
            },
            {
              "internalType": "address[]",
              "name": "handlerList",
              "type": "address[]"
            },
            {
              "internalType": "bytes[]",
              "name": "argsList",
              "type": "bytes[]"
            }
          ],
          "internalType": "struct Rule.GroupSlot",
          "name": "",
          "type": "tuple"
        }
      ],
      "stateMutability": "view",
      "type": "function"
    },
    {
      "inputs": [
        {
          "internalType": "uint32",
          "name": "clusterId",
          "type": "uint32"
        },
        {
          "internalType": "uint16",
          "name": "ruleSlotIndex",
          "type": "uint16"
        }
      ],
      "name": "getGroupSlotBound",
      "outputs": [
        {
          "internalType": "uint8",
          "name": "",
          "type": "uint8"
        }
      ],
      "stateMutability": "view",
      "type": "function"
    },
    {
      "inputs": [
        {
          "internalType": "uint32",
          "name": "clusterId",
          "type": "uint32"
        }
      ],
      "name": "getGroupSlotBoundList",
      "outputs": [
        {
          "internalType": "uint8[]",
          "name": "",
          "type": "uint8[]"
        }
      ],
      "stateMutability": "view",
      "type": "function"
    },
    {
      "inputs": [
        {
          "internalType": "uint32",
          "name": "clusterId",
          "type": "uint32"
        },
        {
          "internalType": "uint16",
          "name": "ruleSlotIndex",
          "type": "uint16"
        }
      ],
      "name": "getGroupSlotBranchList",
      "outputs": [
        {
          "internalType": "uint8[]",
          "name": "",
          "type": "uint8[]"
        }
      ],
      "stateMutability": "view",
      "type": "function"
    },
    {
      "inputs": [
        {
          "internalType": "uint32",
          "name": "clusterId",
          "type": "uint32"
        },
        {
          "internalType": "uint16",
          "name": "ruleSlotIndex",
          "type": "uint16"
        },
        {
          "internalType": "uint8",
          "name": "branch",
          "type": "uint8"
        },
        {
          "internalType": "address",
          "name": "handler",
          "type": "address"
        }
      ],
      "name": "getGroupSlotHandlerArgs",
      "outputs": [
        {
          "internalType": "bytes",
          "name": "",
          "type": "bytes"
        }
      ],
      "stateMutability": "view",
      "type": "function"
    },
    {
      "inputs": [
        {
          "internalType": "uint32",
          "name": "clusterId",
          "type": "uint32"
        },
        {
          "internalType": "uint16",
          "name": "ruleSlotIndex",
          "type": "uint16"
        }
      ],
      "name": "getGroupSlotLength",
      "outputs": [
        {
          "internalType": "uint8",
          "name": "",
          "type": "uint8"
        }
      ],
      "stateMutability": "view",
      "type": "function"
    },
    {
      "inputs": [],
      "name": "getPoolContract",
      "outputs": [
        {
          "internalType": "address",
          "name": "",
          "type": "address"
        }
      ],
      "stateMutability": "nonpayable",
      "type": "function"
    },
    {
      "inputs": [],
      "name": "getPoolFee",
      "outputs": [
        {
          "internalType": "address",
          "name": "",
          "type": "address"
        }
      ],
      "stateMutability": "nonpayable",
      "type": "function"
    },
    {
      "inputs": [
        {
          "internalType": "uint32",
          "name": "clusterId",
          "type": "uint32"
        },
        {
          "internalType": "uint16",
          "name": "ruleSlotIndexInput",
          "type": "uint16"
        },
        {
          "internalType": "uint16",
          "name": "ruleSlotIndexOutput",
          "type": "uint16"
        }
      ],
      "name": "getRuleDelayBlockNumber",
      "outputs": [
        {
          "internalType": "uint32",
          "name": "",
          "type": "uint32"
        }
      ],
      "stateMutability": "view",
      "type": "function"
    },
    {
      "inputs": [
        {
          "internalType": "uint32",
          "name": "clusterId",
          "type": "uint32"
        },
        {
          "internalType": "uint16",
          "name": "ruleSlotIndexInput",
          "type": "uint16"
        },
        {
          "internalType": "uint16",
          "name": "ruleSlotIndexOutput",
          "type": "uint16"
        }
      ],
      "name": "getRuleDelayTimestamp",
      "outputs": [
        {
          "internalType": "uint32",
          "name": "",
          "type": "uint32"
        }
      ],
      "stateMutability": "view",
      "type": "function"
    },
    {
      "inputs": [
        {
          "internalType": "uint32",
          "name": "clusterId",
          "type": "uint32"
        },
        {
          "internalType": "uint16",
          "name": "ruleSlotIndexInput",
          "type": "uint16"
        },
        {
          "internalType": "uint16",
          "name": "ruleSlotIndexOutput",
          "type": "uint16"
        }
      ],
      "name": "getRuleDurationType",
      "outputs": [
        {
          "internalType": "uint8",
          "name": "",
          "type": "uint8"
        }
      ],
      "stateMutability": "view",
      "type": "function"
    },
    {
      "inputs": [
        {
          "internalType": "uint32",
          "name": "clusterId",
          "type": "uint32"
        },
        {
          "internalType": "uint16",
          "name": "ruleSlotIndexInput",
          "type": "uint16"
        },
        {
          "internalType": "uint16",
          "name": "ruleSlotIndexOutput",
          "type": "uint16"
        }
      ],
      "name": "getRuleLeftCount",
      "outputs": [
        {
          "internalType": "uint32",
          "name": "",
          "type": "uint32"
        }
      ],
      "stateMutability": "view",
      "type": "function"
    },
    {
      "inputs": [
        {
          "internalType": "uint32",
          "name": "clusterId",
          "type": "uint32"
        }
      ],
      "name": "getRuleSlotIndexList",
      "outputs": [
        {
          "internalType": "uint16[]",
          "name": "",
          "type": "uint16[]"
        }
      ],
      "stateMutability": "view",
      "type": "function"
    },
    {
      "inputs": [
        {
          "internalType": "uint32",
          "name": "clusterId",
          "type": "uint32"
        },
        {
          "internalType": "uint16",
          "name": "ruleIndex",
          "type": "uint16"
        }
      ],
      "name": "getRuleSlotIndexRule",
      "outputs": [
        {
          "internalType": "uint16",
          "name": "",
          "type": "uint16"
        },
        {
          "internalType": "uint16",
          "name": "",
          "type": "uint16"
        }
      ],
      "stateMutability": "view",
      "type": "function"
    },
    {
      "inputs": [
        {
          "internalType": "uint32",
          "name": "clusterId",
          "type": "uint32"
        }
      ],
      "name": "getRuleSlotLength",
      "outputs": [
        {
          "internalType": "uint16",
          "name": "",
          "type": "uint16"
        }
      ],
      "stateMutability": "view",
      "type": "function"
    },
    {
      "inputs": [
        {
          "internalType": "uint32",
          "name": "clusterId",
          "type": "uint32"
        },
        {
          "internalType": "uint16",
          "name": "ruleSlotIndexInput",
          "type": "uint16"
        },
        {
          "internalType": "uint16",
          "name": "ruleSlotIndexOutput",
          "type": "uint16"
        }
      ],
      "name": "getRuleState",
      "outputs": [
        {
          "internalType": "uint8",
          "name": "",
          "type": "uint8"
        }
      ],
      "stateMutability": "view",
      "type": "function"
    },
    {
      "inputs": [
        {
          "internalType": "uint32",
          "name": "clusterId",
          "type": "uint32"
        },
        {
          "internalType": "uint16",
          "name": "ruleSlotIndexInput",
          "type": "uint16"
        },
        {
          "internalType": "uint16",
          "name": "ruleSlotIndexOutput",
          "type": "uint16"
        }
      ],
      "name": "getRuleTotalCount",
      "outputs": [
        {
          "internalType": "uint32",
          "name": "",
          "type": "uint32"
        }
      ],
      "stateMutability": "view",
      "type": "function"
    },
    {
      "inputs": [
        {
          "internalType": "address",
          "name": "clusterArea_",
          "type": "address"
        },
        {
          "internalType": "address",
          "name": "poolContract_",
          "type": "address"
        },
        {
          "internalType": "address",
          "name": "poolFee_",
          "type": "address"
        },
        {
          "internalType": "address",
          "name": "engine_",
          "type": "address"
        }
      ],
      "name": "initialize",
      "outputs": [],
      "stateMutability": "nonpayable",
      "type": "function"
    },
    {
      "inputs": [],
      "name": "owner",
      "outputs": [
        {
          "internalType": "address",
          "name": "",
          "type": "address"
        }
      ],
      "stateMutability": "view",
      "type": "function"
    },
    {
      "inputs": [],
      "name": "poolContract",
      "outputs": [
        {
          "internalType": "address",
          "name": "",
          "type": "address"
        }
      ],
      "stateMutability": "view",
      "type": "function"
    },
    {
      "inputs": [],
      "name": "poolFee",
      "outputs": [
        {
          "internalType": "address",
          "name": "",
          "type": "address"
        }
      ],
      "stateMutability": "view",
      "type": "function"
    },
    {
      "inputs": [
        {
          "internalType": "address",
          "name": "caller",
          "type": "address"
        },
        {
          "internalType": "uint32",
          "name": "clusterId",
          "type": "uint32"
        },
        {
          "components": [
            {
              "components": [
                {
                  "components": [
                    {
                      "components": [
                        {
                          "internalType": "uint8",
                          "name": "erc",
                          "type": "uint8"
                        },
                        {
                          "internalType": "address",
                          "name": "token",
                          "type": "address"
                        },
                        {
                          "internalType": "uint256[]",
                          "name": "valueList",
                          "type": "uint256[]"
                        }
                      ],
                      "internalType": "struct Token.TokenTemplate",
                      "name": "tokenTemplate",
                      "type": "tuple"
                    },
                    {
                      "internalType": "uint8",
                      "name": "rule",
                      "type": "uint8"
                    },
                    {
                      "internalType": "address[]",
                      "name": "ioAddressList",
                      "type": "address[]"
                    },
                    {
                      "internalType": "uint256[]",
                      "name": "valueList",
                      "type": "uint256[]"
                    }
                  ],
                  "internalType": "struct Rule.TokenSlot[]",
                  "name": "tokenSlotList",
                  "type": "tuple[]"
                },
                {
                  "internalType": "uint8",
                  "name": "branch",
                  "type": "uint8"
                },
                {
                  "internalType": "address",
                  "name": "poolToken",
                  "type": "address"
                },
                {
                  "internalType": "address[]",
                  "name": "handlerList",
                  "type": "address[]"
                },
                {
                  "internalType": "bytes[]",
                  "name": "argsList",
                  "type": "bytes[]"
                }
              ],
              "internalType": "struct Rule.GroupSlot[]",
              "name": "groupSlotList",
              "type": "tuple[]"
            },
            {
              "internalType": "uint8[]",
              "name": "ruleSlotBound",
              "type": "uint8[]"
            },
            {
              "components": [
                {
                  "internalType": "uint16",
                  "name": "ruleSlotIndexInput",
                  "type": "uint16"
                },
                {
                  "internalType": "uint16",
                  "name": "ruleSlotIndexOutput",
                  "type": "uint16"
                },
                {
                  "internalType": "uint8",
                  "name": "state",
                  "type": "uint8"
                },
                {
                  "internalType": "uint32",
                  "name": "totalCount",
                  "type": "uint32"
                },
                {
                  "internalType": "uint8",
                  "name": "durationType",
                  "type": "uint8"
                },
                {
                  "internalType": "uint32",
                  "name": "delayTimestamp",
                  "type": "uint32"
                },
                {
                  "internalType": "uint32",
                  "name": "delayBlockNumber",
                  "type": "uint32"
                },
                {
                  "internalType": "uint64",
                  "name": "handlerCount",
                  "type": "uint64"
                },
                {
                  "internalType": "address[]",
                  "name": "handlerList",
                  "type": "address[]"
                },
                {
                  "internalType": "bytes[]",
                  "name": "handlerArgsList",
                  "type": "bytes[]"
                },
                {
                  "internalType": "address",
                  "name": "snippet",
                  "type": "address"
                }
              ],
              "internalType": "struct Rule.Rule[]",
              "name": "ruleList",
              "type": "tuple[]"
            },
            {
              "components": [
                {
                  "internalType": "uint32",
                  "name": "attrId",
                  "type": "uint32"
                },
                {
                  "internalType": "string",
                  "name": "name",
                  "type": "string"
                },
                {
                  "internalType": "string",
                  "name": "symbol",
                  "type": "string"
                },
                {
                  "internalType": "string",
                  "name": "uri",
                  "type": "string"
                },
                {
                  "internalType": "uint8",
                  "name": "level",
                  "type": "uint8"
                }
              ],
              "internalType": "struct Attribute.Attribute[]",
              "name": "attrList",
              "type": "tuple[]"
            },
            {
              "internalType": "uint8[]",
              "name": "attrStateList",
              "type": "uint8[]"
            },
            {
              "internalType": "address[]",
              "name": "deployerList",
              "type": "address[]"
            },
            {
              "internalType": "address[]",
              "name": "adminList",
              "type": "address[]"
            },
            {
              "internalType": "uint32",
              "name": "delayTimestamp",
              "type": "uint32"
            },
            {
              "internalType": "uint32",
              "name": "delayBlockNumber",
              "type": "uint32"
            },
            {
              "internalType": "uint8",
              "name": "state",
              "type": "uint8"
            },
            {
              "internalType": "string",
              "name": "description",
              "type": "string"
            }
          ],
          "internalType": "struct Cluster.Cluster",
          "name": "cluster",
          "type": "tuple"
        }
      ],
      "name": "registerRule",
      "outputs": [],
      "stateMutability": "nonpayable",
      "type": "function"
    },
    {
      "inputs": [],
      "name": "renounceOwnership",
      "outputs": [],
      "stateMutability": "nonpayable",
      "type": "function"
    },
    {
      "inputs": [
        {
          "internalType": "bytes32",
          "name": "",
          "type": "bytes32"
        }
      ],
      "name": "ruleDelayBlockNumber",
      "outputs": [
        {
          "internalType": "uint32",
          "name": "",
          "type": "uint32"
        }
      ],
      "stateMutability": "view",
      "type": "function"
    },
    {
      "inputs": [
        {
          "internalType": "bytes32",
          "name": "",
          "type": "bytes32"
        }
      ],
      "name": "ruleDelayTimestamp",
      "outputs": [
        {
          "internalType": "uint32",
          "name": "",
          "type": "uint32"
        }
      ],
      "stateMutability": "view",
      "type": "function"
    },
    {
      "inputs": [
        {
          "internalType": "bytes32",
          "name": "",
          "type": "bytes32"
        }
      ],
      "name": "ruleDurationType",
      "outputs": [
        {
          "internalType": "uint8",
          "name": "",
          "type": "uint8"
        }
      ],
      "stateMutability": "view",
      "type": "function"
    },
    {
      "inputs": [
        {
          "internalType": "bytes32",
          "name": "",
          "type": "bytes32"
        }
      ],
      "name": "ruleGroupSlot",
      "outputs": [
        {
          "internalType": "uint8",
          "name": "branch",
          "type": "uint8"
        },
        {
          "internalType": "address",
          "name": "poolToken",
          "type": "address"
        }
      ],
      "stateMutability": "view",
      "type": "function"
    },
    {
      "inputs": [
        {
          "internalType": "uint32",
          "name": "",
          "type": "uint32"
        },
        {
          "internalType": "uint256",
          "name": "",
          "type": "uint256"
        }
      ],
      "name": "ruleGroupSlotBoundList",
      "outputs": [
        {
          "internalType": "uint8",
          "name": "",
          "type": "uint8"
        }
      ],
      "stateMutability": "view",
      "type": "function"
    },
    {
      "inputs": [
        {
          "internalType": "bytes32",
          "name": "",
          "type": "bytes32"
        },
        {
          "internalType": "uint256",
          "name": "",
          "type": "uint256"
        }
      ],
      "name": "ruleGroupSlotBranchList",
      "outputs": [
        {
          "internalType": "uint8",
          "name": "",
          "type": "uint8"
        }
      ],
      "stateMutability": "view",
      "type": "function"
    },
    {
      "inputs": [
        {
          "internalType": "bytes32",
          "name": "",
          "type": "bytes32"
        }
      ],
      "name": "ruleLeftCount",
      "outputs": [
        {
          "internalType": "uint32",
          "name": "",
          "type": "uint32"
        }
      ],
      "stateMutability": "view",
      "type": "function"
    },
    {
      "inputs": [
        {
          "internalType": "bytes32",
          "name": "",
          "type": "bytes32"
        }
      ],
      "name": "ruleRegBlockNumber",
      "outputs": [
        {
          "internalType": "uint32",
          "name": "",
          "type": "uint32"
        }
      ],
      "stateMutability": "view",
      "type": "function"
    },
    {
      "inputs": [
        {
          "internalType": "bytes32",
          "name": "",
          "type": "bytes32"
        }
      ],
      "name": "ruleRegTimestamp",
      "outputs": [
        {
          "internalType": "uint32",
          "name": "",
          "type": "uint32"
        }
      ],
      "stateMutability": "view",
      "type": "function"
    },
    {
      "inputs": [
        {
          "internalType": "uint32",
          "name": "",
          "type": "uint32"
        },
        {
          "internalType": "uint256",
          "name": "",
          "type": "uint256"
        }
      ],
      "name": "ruleSlotIndexList",
      "outputs": [
        {
          "internalType": "uint16",
          "name": "",
          "type": "uint16"
        }
      ],
      "stateMutability": "view",
      "type": "function"
    },
    {
      "inputs": [
        {
          "internalType": "uint32",
          "name": "",
          "type": "uint32"
        }
      ],
      "name": "ruleSlotLength",
      "outputs": [
        {
          "internalType": "uint16",
          "name": "",
          "type": "uint16"
        }
      ],
      "stateMutability": "view",
      "type": "function"
    },
    {
      "inputs": [
        {
          "internalType": "bytes32",
          "name": "",
          "type": "bytes32"
        }
      ],
      "name": "ruleState",
      "outputs": [
        {
          "internalType": "uint8",
          "name": "",
          "type": "uint8"
        }
      ],
      "stateMutability": "view",
      "type": "function"
    },
    {
      "inputs": [
        {
          "internalType": "bytes32",
          "name": "",
          "type": "bytes32"
        }
      ],
      "name": "ruleTotalCount",
      "outputs": [
        {
          "internalType": "uint32",
          "name": "",
          "type": "uint32"
        }
      ],
      "stateMutability": "view",
      "type": "function"
    },
    {
      "inputs": [
        {
          "internalType": "bytes32",
          "name": "",
          "type": "bytes32"
        }
      ],
      "name": "ruleUpdateBlockNumber",
      "outputs": [
        {
          "internalType": "uint32",
          "name": "",
          "type": "uint32"
        }
      ],
      "stateMutability": "view",
      "type": "function"
    },
    {
      "inputs": [
        {
          "internalType": "bytes32",
          "name": "",
          "type": "bytes32"
        }
      ],
      "name": "ruleUpdateTimestamp",
      "outputs": [
        {
          "internalType": "uint32",
          "name": "",
          "type": "uint32"
        }
      ],
      "stateMutability": "view",
      "type": "function"
    },
    {
      "inputs": [
        {
          "internalType": "address",
          "name": "clusterArea_",
          "type": "address"
        }
      ],
      "name": "setClusterArea",
      "outputs": [],
      "stateMutability": "nonpayable",
      "type": "function"
    },
    {
      "inputs": [
        {
          "internalType": "address",
          "name": "engine_",
          "type": "address"
        }
      ],
      "name": "setEngine",
      "outputs": [],
      "stateMutability": "nonpayable",
      "type": "function"
    },
    {
      "inputs": [
        {
          "internalType": "address",
          "name": "poolContract_",
          "type": "address"
        }
      ],
      "name": "setPoolContract",
      "outputs": [],
      "stateMutability": "nonpayable",
      "type": "function"
    },
    {
      "inputs": [
        {
          "internalType": "address",
          "name": "poolFee_",
          "type": "address"
        }
      ],
      "name": "setPoolFee",
      "outputs": [],
      "stateMutability": "nonpayable",
      "type": "function"
    },
    {
      "inputs": [
        {
          "internalType": "uint32",
          "name": "clusterId",
          "type": "uint32"
        },
        {
          "internalType": "uint16",
          "name": "ruleSlotIndexInput",
          "type": "uint16"
        },
        {
          "internalType": "uint16",
          "name": "ruleSlotIndexOutput",
          "type": "uint16"
        },
        {
          "internalType": "uint8",
          "name": "state",
          "type": "uint8"
        }
      ],
      "name": "setRuleState",
      "outputs": [],
      "stateMutability": "nonpayable",
      "type": "function"
    },
    {
      "inputs": [
        {
          "internalType": "address",
          "name": "newOwner",
          "type": "address"
        }
      ],
      "name": "transferOwnership",
      "outputs": [],
      "stateMutability": "nonpayable",
      "type": "function"
    },
    {
      "inputs": [
        {
          "internalType": "uint32",
          "name": "clusterId",
          "type": "uint32"
        },
        {
          "components": [
            {
              "internalType": "uint16",
              "name": "ruleSlotIndex",
              "type": "uint16"
            },
            {
              "components": [
                {
                  "components": [
                    {
                      "components": [
                        {
                          "internalType": "uint8",
                          "name": "erc",
                          "type": "uint8"
                        },
                        {
                          "internalType": "address",
                          "name": "token",
                          "type": "address"
                        },
                        {
                          "internalType": "uint256[]",
                          "name": "valueList",
                          "type": "uint256[]"
                        }
                      ],
                      "internalType": "struct Token.TokenTemplate",
                      "name": "tokenTemplate",
                      "type": "tuple"
                    },
                    {
                      "internalType": "uint8",
                      "name": "rule",
                      "type": "uint8"
                    },
                    {
                      "internalType": "address[]",
                      "name": "ioAddressList",
                      "type": "address[]"
                    },
                    {
                      "internalType": "uint256[]",
                      "name": "valueList",
                      "type": "uint256[]"
                    }
                  ],
                  "internalType": "struct Rule.TokenSlot[]",
                  "name": "tokenSlotList",
                  "type": "tuple[]"
                },
                {
                  "internalType": "uint8",
                  "name": "branch",
                  "type": "uint8"
                },
                {
                  "internalType": "address",
                  "name": "poolToken",
                  "type": "address"
                },
                {
                  "internalType": "address[]",
                  "name": "handlerList",
                  "type": "address[]"
                },
                {
                  "internalType": "bytes[]",
                  "name": "argsList",
                  "type": "bytes[]"
                }
              ],
              "internalType": "struct Rule.GroupSlot[]",
              "name": "groupSlotList",
              "type": "tuple[]"
            },
            {
              "internalType": "uint8[]",
              "name": "groupSlotOptList",
              "type": "uint8[]"
            }
          ],
          "internalType": "struct Rule.RuleSlot[]",
          "name": "ruleSlotList",
          "type": "tuple[]"
        }
      ],
      "name": "updateGroupSlotList",
      "outputs": [],
      "stateMutability": "nonpayable",
      "type": "function"
    },
    {
      "inputs": [
        {
          "internalType": "uint32",
          "name": "clusterId",
          "type": "uint32"
        },
        {
          "internalType": "uint16",
          "name": "ruleSlotIndex",
          "type": "uint16"
        },
        {
          "internalType": "uint8",
          "name": "branch",
          "type": "uint8"
        },
        {
          "internalType": "uint8",
          "name": "tokenSlotIndex",
          "type": "uint8"
        },
        {
          "components": [
            {
              "internalType": "uint256",
              "name": "id",
              "type": "uint256"
            },
            {
              "internalType": "uint256",
              "name": "amount",
              "type": "uint256"
            },
            {
              "internalType": "uint256",
              "name": "idIndex",
              "type": "uint256"
            }
          ],
          "internalType": "struct Token.TokenHandler",
          "name": "tokenHandler",
          "type": "tuple"
        }
      ],
      "name": "updateGroupSlotTokenHandler",
      "outputs": [
        {
          "internalType": "bool",
          "name": "",
          "type": "bool"
        }
      ],
      "stateMutability": "nonpayable",
      "type": "function"
    },
    {
      "inputs": [
        {
          "internalType": "uint32",
          "name": "clusterId",
          "type": "uint32"
        },
        {
          "internalType": "uint16",
          "name": "ruleSlotIndexInput",
          "type": "uint16"
        },
        {
          "internalType": "uint16",
          "name": "ruleSlotIndexOutput",
          "type": "uint16"
        },
        {
          "internalType": "uint32",
          "name": "decreaseCount",
          "type": "uint32"
        }
      ],
      "name": "updateRuleLeftCount",
      "outputs": [
        {
          "internalType": "bool",
          "name": "",
          "type": "bool"
        }
      ],
      "stateMutability": "nonpayable",
      "type": "function"
    },
    {
      "inputs": [
        {
          "internalType": "uint32",
          "name": "clusterId",
          "type": "uint32"
        },
        {
          "components": [
            {
              "internalType": "uint16",
              "name": "ruleSlotIndexInput",
              "type": "uint16"
            },
            {
              "internalType": "uint16",
              "name": "ruleSlotIndexOutput",
              "type": "uint16"
            },
            {
              "internalType": "uint8",
              "name": "state",
              "type": "uint8"
            },
            {
              "internalType": "uint32",
              "name": "totalCount",
              "type": "uint32"
            },
            {
              "internalType": "uint8",
              "name": "durationType",
              "type": "uint8"
            },
            {
              "internalType": "uint32",
              "name": "delayTimestamp",
              "type": "uint32"
            },
            {
              "internalType": "uint32",
              "name": "delayBlockNumber",
              "type": "uint32"
            },
            {
              "internalType": "uint64",
              "name": "handlerCount",
              "type": "uint64"
            },
            {
              "internalType": "address[]",
              "name": "handlerList",
              "type": "address[]"
            },
            {
              "internalType": "bytes[]",
              "name": "handlerArgsList",
              "type": "bytes[]"
            },
            {
              "internalType": "address",
              "name": "snippet",
              "type": "address"
            }
          ],
          "internalType": "struct Rule.Rule[]",
          "name": "ruleList",
          "type": "tuple[]"
        }
      ],
      "name": "updateRuleList",
      "outputs": [],
      "stateMutability": "nonpayable",
      "type": "function"
    },
    {
      "inputs": [],
      "name": "version",
      "outputs": [
        {
          "internalType": "uint256",
          "name": "",
          "type": "uint256"
        }
      ],
      "stateMutability": "pure",
      "type": "function"
    },
    {
      "stateMutability": "payable",
      "type": "receive"
    }
  ],
  "bytecode": "0x608060405234801561001057600080fd5b5061592280620000216000396000f3fe6080604052600436106102995760003560e01c8063676b0f291161015b578063be27d8ba116100c7578063be27d8ba14610939578063c9d4623f1461096a578063cab8fb801461098a578063cb963bba146109aa578063cd5fea6a146109ca578063ced97dd6146109f7578063d7460ff714610a2a578063e53d7f7d14610a4a578063edfc25ae14610a6a578063f180e7b114610a8a578063f2fde38b14610aaa578063f8c8765e14610aca578063fe02c91614610aea578063ff6445bd14610b0a57600080fd5b8063676b0f2914610765578063715018a6146107855780637339ad991461079a578063793b5757146107ca5780637ef78199146107e857806388d52ef7146108085780638da5cb5b146108285780638f4a264e146108465780638fae368514610876578063a2cd774414610896578063ace9e45c146108b6578063b8fe0644146108e6578063ba1687481461091957600080fd5b806333a216061161020557806333a21606146104c657806333c0a4441461052a57806334c76b25146105745780633774f34a146105ac5780633da17915146105df578063489142de1461061257806354fd4d5014610632578063571c6bf81461064e578063577ee7851461068157806357e258c8146106b457806357f5ff28146106d457806359c3f3e0146106f457806361a35241146107145780636741fad21461074757600080fd5b806305957706146102a557806305cce54f146102dc57806308536bfd14610309578063089fe6aa146103275780630c46f9c2146103475780630e830e4914610369578063188ad5dc146103895780631b606bcf146103be5780631d069157146103eb5780631f0b2c771461041d5780631f1d3981146104585780632c34025e146104785780632c5a6800146104a657600080fd5b366102a057005b600080fd5b3480156102b157600080fd5b506068546001600160a01b03165b6040516001600160a01b0390911681526020015b60405180910390f35b3480156102e857600080fd5b506102fc6102f7366004613ccf565b610b3d565b6040516102d39190613d02565b34801561031557600080fd5b506065546001600160a01b03166102bf565b34801561033357600080fd5b506067546102bf906001600160a01b031681565b34801561035357600080fd5b50610367610362366004614609565b610be8565b005b34801561037557600080fd5b506103676103843660046147cc565b611234565b34801561039557600080fd5b506103a96103a43660046147e7565b61125e565b60405163ffffffff90911681526020016102d3565b3480156103ca57600080fd5b506103de6103d936600461482a565b6112aa565b6040516102d391906148d6565b3480156103f757600080fd5b5061040b6104063660046148e9565b61133e565b60405160ff90911681526020016102d3565b34801561042957600080fd5b5061043d610438366004613ccf565b611381565b6040805161ffff9384168152929091166020830152016102d3565b34801561046457600080fd5b5061040b6104733660046147e7565b611449565b34801561048457600080fd5b5061049861049336600461490b565b611492565b6040516102d3929190614a0e565b3480156104b257600080fd5b5061040b6104c1366004613ccf565b611820565b3480156104d257600080fd5b506105096104e1366004614b5f565b60696020526000908152604090206001015460ff81169061010090046001600160a01b031682565b6040805160ff90931683526001600160a01b039091166020830152016102d3565b34801561053657600080fd5b50610561610545366004614b78565b63ffffffff166000908152606c602052604090205461ffff1690565b60405161ffff90911681526020016102d3565b34801561058057600080fd5b5060408051808201909152600f81526e436c757374657252756c654172656160881b60208201526103de565b3480156105b857600080fd5b506103a96105c7366004614b5f565b606f6020526000908152604090205463ffffffff1681565b3480156105eb57600080fd5b506103a96105fa366004614b5f565b60726020526000908152604090205463ffffffff1681565b34801561061e57600080fd5b5061036761062d366004614b93565b6119a2565b34801561063e57600080fd5b50604051600181526020016102d3565b34801561065a57600080fd5b506103a9610669366004614b5f565b60746020526000908152604090205463ffffffff1681565b34801561068d57600080fd5b506103a961069c366004614b5f565b60706020526000908152604090205463ffffffff1681565b3480156106c057600080fd5b506102fc6106cf366004614b78565b611e8c565b3480156106e057600080fd5b506103676106ef3660046147cc565b611f13565b34801561070057600080fd5b5061036761070f3660046147cc565b611f3d565b34801561072057600080fd5b506103a961072f366004614b5f565b60716020526000908152604090205463ffffffff1681565b34801561075357600080fd5b506067546001600160a01b03166102bf565b34801561077157600080fd5b506103a96107803660046147e7565b611f67565b34801561079157600080fd5b50610367611fb3565b3480156107a657600080fd5b506107ba6107b5366004614cc2565b611fc7565b60405190151581526020016102d3565b3480156107d657600080fd5b506066546001600160a01b03166102bf565b3480156107f457600080fd5b506103a96108033660046147e7565b612134565b34801561081457600080fd5b506066546102bf906001600160a01b031681565b34801561083457600080fd5b506033546001600160a01b03166102bf565b34801561085257600080fd5b5061040b610861366004614b5f565b606e6020526000908152604090205460ff1681565b34801561088257600080fd5b506065546102bf906001600160a01b031681565b3480156108a257600080fd5b5061040b6108b1366004613ccf565b612180565b3480156108c257600080fd5b5061040b6108d1366004614b5f565b60776020526000908152604090205460ff1681565b3480156108f257600080fd5b506103a9610901366004614b5f565b60736020526000908152604090205463ffffffff1681565b34801561092557600080fd5b50610367610934366004614d73565b6121d3565b34801561094557600080fd5b50610561610954366004614b78565b606c6020526000908152604090205461ffff1681565b34801561097657600080fd5b506068546102bf906001600160a01b031681565b34801561099657600080fd5b506103676109a5366004614dc0565b6123f0565b3480156109b657600080fd5b506107ba6109c5366004614e09565b6126fc565b3480156109d657600080fd5b506109ea6109e5366004614b78565b6128c5565b6040516102d39190614e52565b348015610a0357600080fd5b506103a9610a12366004614b5f565b60756020526000908152604090205463ffffffff1681565b348015610a3657600080fd5b5061040b610a45366004614e8e565b612954565b348015610a5657600080fd5b5061040b610a653660046147e7565b612970565b348015610a7657600080fd5b506103a9610a853660046147e7565b6129b9565b348015610a9657600080fd5b50610561610aa5366004614e8e565b612a05565b348015610ab657600080fd5b50610367610ac53660046147cc565b612a4c565b348015610ad657600080fd5b50610367610ae5366004614eb8565b612ac5565b348015610af657600080fd5b50610367610b053660046147cc565b612c2b565b348015610b1657600080fd5b506103a9610b25366004614b5f565b60766020526000908152604090205463ffffffff1681565b606060008383604051602001610b54929190614ef3565b60408051601f1981840301815282825280516020918201206000818152606a83528390208054808402860184019094528385529094509190830182828015610bd957602002820191906000526020600020906000905b825461010083900a900460ff16815260206001928301818104948501949093039092029101808411610baa5790505b50505050509150505b92915050565b610c2d6040518060400160405280601f81526020017f2d2d2d2d2d2d2d205f726567697374657252756c6520636c75737465724964008152508363ffffffff16612c55565b6065546001600160a01b03163314610c975760405162461bcd60e51b815260206004820152602260248201527f63616c6c20726567697374657252756c65206d75737420636c75737465724172604482015261656160f01b60648201526084015b60405180910390fd5b63ffffffff82166000908152606b60205260408120905b8260200151518161ffff161015610d2b578183602001518261ffff1681518110610cda57610cda614f0d565b6020908102919091018101518254600181018455600093845292829020918304909101805460ff928316601f9094166101000a9384029290930219909216179055610d2481614f39565b9050610cae565b5063ffffffff83166000908152606c602090815260409182902054825160608101909352602c80845261ffff90911692610d749290919061579090830139846020015151612c55565b602083015151156111f65760008360200151600081518110610d9857610d98614f0d565b602002602001015160ff1690506000808560200151600081518110610dbf57610dbf614f0d565b602002602001015160ff16905060005b8660200151518161ffff161015611057576001876020015151610df29190614f5b565b8161ffff161015610e675786602001518161ffff1681518110610e1757610e17614f0d565b60200260200101518760200151826001610e319190614f72565b61ffff1681518110610e4557610e45614f0d565b6020026020010151610e579190614f98565b610e649060ff1685614f72565b93505b6000610e738683614f72565b905060005b8860400151518160ff161015610eda57610e928784614f72565b61ffff1689604001518260ff1681518110610eaf57610eaf614f0d565b60200260200101516020015161ffff161415610eca57610eda565b610ed381614fbb565b9050610e78565b60008960400151518260ff161015610ef0575060015b610f306040518060400160405280601a81526020017905a5a5a5a5a5a5a40e4cacea4ead8ca40e6e8c2e4e892dcc8caf60331b8152508761ffff16612c55565b610f6e6040518060400160405280601881526020017705a5a5a5a5a5a5a40e4cacea4ead8ca40cadcc892dcc8caf60431b8152508661ffff16612c55565b855b8561ffff168161ffff161015610fc55760008b600001518261ffff1681518110610f9c57610f9c614f0d565b60200260200101519050610fb48e8e87858588612c9e565b50610fbe81614f39565b9050610f70565b5060208a015151610fd7856001614f72565b61ffff161415610fe957505050611057565b89602001518461ffff168151811061100357611003614f0d565b602002602001015160ff16955089602001518460016110229190614f72565b61ffff168151811061103657611036614f0d565b602002602001015160ff1694505050508061105090614f39565b9050610dcf565b506110986040518060400160405280601a8152602001790b4b4b4b4b4b4b481c9959d49d5b19481d1bdd185b109bdd5b9960321b8152508461ffff16612c55565b6110e76040518060600160405280602c8152602001615790602c9139602088015180516110c790600190614f5b565b815181106110d7576110d7614f0d565b602002602001015160ff16612c55565b602086015180516110fa90600190614f5b565b8151811061110a5761110a614f0d565b602002602001015160ff168361ffff161461117e5760405162461bcd60e51b815260206004820152602e60248201527f63616c20746f74616c426f756e6420213d20636c75737465722e72756c65536c60448201526d0dee884deeadcc85cd8cadccee8d60931b6064820152608401610c8e565b6020860151516111929061ffff8616614fdb565b63ffffffff88166000908152606c6020908152604091829020805461ffff191661ffff949094169390931790925580516060810190915260218082526111f29261580b908301396020880151516111ed9061ffff8816614fdb565b612c55565b5050505b61121e6040518060600160405280602e815260200161565f602e91398563ffffffff16612c55565b61122d85858560400151612f50565b5050505050565b61123c613292565b606880546001600160a01b0319166001600160a01b0392909216919091179055565b60008084848460405160200161127693929190614ff3565b60408051808303601f1901815291815281516020928301206000908152606f90925290205463ffffffff1695945050505050565b60606000826001600160a01b031663d0d35b558787876040518463ffffffff1660e01b81526004016112de93929190615015565b60006040518083038186803b1580156112f657600080fd5b505afa15801561130a573d6000803e3d6000fd5b505050506040513d6000823e601f3d908101601f19168201604052611332919081019061503a565b9150505b949350505050565b606a602052816000526040600020818154811061135a57600080fd5b9060005260206000209060209182820401919006915091509054906101000a900460ff1681565b63ffffffff82166000908152606d6020526040812081906113a38460026150a7565b61ffff16815481106113b7576113b7614f0d565b6000918252602080832060108304015463ffffffff88168452606d9091526040909220600f90911660029081026101000a90920461ffff16916113fb9086906150a7565b611406906001614f72565b61ffff168154811061141a5761141a614f0d565b90600052602060002090601091828204019190066002029054906101000a900461ffff16915091509250929050565b60008084848460405160200161146193929190614ff3565b60408051808303601f1901815291815281516020928301206000908152606e90925290205460ff1695945050505050565b600061149c613bb3565b60008585856040516020016114b393929190615015565b60408051601f198184030181528282528051602091820120600081815260698352838120805460c09481028701850190955260a0860185815292965090949390928492918491879085015b8282101561167a5760008481526020908190206040805160e08101825260058602909201805460ff8116608085019081526101009091046001600160a01b031660a08501526001820180548451818802810188019095528085529495929486949293869360c08701939092909183018282801561159a57602002820191906000526020600020905b815481526020019060010190808311611586575b505050919092525050508152600282015460ff16602080830191909152600383018054604080518285028101850182528281529401939283018282801561160a57602002820191906000526020600020905b81546001600160a01b031681526001909101906020018083116115ec575b505050505081526020016004820180548060200260200160405190810160405280929190818152602001828054801561166257602002820191906000526020600020905b81548152602001906001019080831161164e575b505050505081525050815260200190600101906114fe565b50505090825250600182015460ff81166020808401919091526101009091046001600160a01b0316604080840191909152600284018054825181850281018501909352808352606090940193919290919083018282801561170457602002820191906000526020600020905b81546001600160a01b031681526001909101906020018083116116e6575b5050505050815260200160038201805480602002602001604051908101604052809291908181526020016000905b828210156117de578382906000526020600020018054611751906150d1565b80601f016020809104026020016040519081016040528092919081815260200182805461177d906150d1565b80156117ca5780601f1061179f576101008083540402835291602001916117ca565b820191906000526020600020905b8154815290600101906020018083116117ad57829003601f168201915b505050505081526020019060010190611732565b505050508152505090508460ff16816020015160ff161415611807576001935091506118189050565b61180f613bb3565b60009450925050505b935093915050565b63ffffffff82166000908152606b602052604081205461ffff83161061189e5760405162461bcd60e51b815260206004820152602d60248201527f72756c65536c6f74496e646578203c2072756c6547726f7570536c6f74426f7560448201526c0dcc898d2e6e85cd8cadccee8d609b1b6064820152608401610c8e565b61ffff82166118f45763ffffffff83166000908152606b6020526040812080549091906118cd576118cd614f0d565b90600052602060002090602091828204019190069054906101000a900460ff169050610be2565b63ffffffff83166000908152606b6020526040902061191460018461510c565b61ffff168154811061192857611928614f0d565b60009182526020808320818304015463ffffffff87168452606b90915260409092208054601f9092166101000a90920460ff16919061ffff851690811061197157611971614f0d565b90600052602060002090602091828204019190069054906101000a900460ff1661199b9190614f98565b9050610be2565b60005a90506119cf60405180606001604052806024815260200161582c602491398463ffffffff16612c55565b6065546001600160a01b031663f1a12e66846002336040518463ffffffff1660e01b8152600401611a029392919061512f565b60206040518083038186803b158015611a1a57600080fd5b505afa158015611a2e573d6000803e3d6000fd5b505050506040513d601f19601f82011682018060405250810190611a529190615159565b611abd5760405162461bcd60e51b815260206004820152603660248201527f75706461746547726f7570536c6f744c697374205f6d736753656e64657228296044820152751036bab9ba1031b63ab9ba32b9103232b83637bcb2b960511b6064820152608401610c8e565b815163ffffffff84166000908152606c6020526040902054611ae3919061ffff16614fdb565b63ffffffff84166000908152606c60209081526040808320805461ffff191661ffff9590951694909417909355606d815282822080548451818402810184019095528085529293929091830182828015611b8457602002820191906000526020600020906000905b82829054906101000a900461ffff1661ffff1681526020019060020190602082600101049283019260010382029150808411611b4b5790505b50505050509050600083516001600160401b03811115611ba657611ba6613d60565b604051908082528060200260200182016040528015611bcf578160200160208202803683370190505b50905060005b8251811015611d9e576000838281518110611bf257611bf2614f0d565b60200260200101519050600084836001611c0c9190614fdb565b81518110611c1c57611c1c614f0d565b6020026020010151905060005b8751811015611d87576000888281518110611c4657611c46614f0d565b602002602001015190506000816000015190508061ffff168561ffff161480611c7657508061ffff168461ffff16145b15611d3f5760008b8686604051602001611c9293929190614ff3565b60408051601f1981840301815291815281516020928301206000818152607790935291205490915060ff16600b811480611ccf575060ff8116600a145b15611d3c5760405162461bcd60e51b815260206004820152603760248201527f6f6e65206f662072756c65536c6f74496e6465784c69737420697320656e61626044820152763632b21037b9103234b9b0b13632b2103337b932bb32b960491b6064820152608401610c8e565b50505b8061ffff168461ffff161415611d74576001878481518110611d6357611d63614f0d565b911515602092830291909101909101525b505080611d809061517b565b9050611c29565b505050600281611d979190614fdb565b9050611bd5565b50611dab338686846132ec565b63ffffffff851660053360408051600080825260208201526001600160a01b0392909216917fdd740b9ffde613349a95afc283b77365c64f3f05583d46259e0c7a65e1acbfec910160405180910390a460005a611e089085614f5b565b60675460405163163ce46160e01b815291925073__$37d1e3923919c704bdb48c10208c7fa215$__9163163ce46191611e54916001600160a01b03909116908590600590600401615196565b60006040518083038186803b158015611e6c57600080fd5b505af4158015611e80573d6000803e3d6000fd5b50505050505050505050565b63ffffffff81166000908152606b6020908152604091829020805483518184028101840190945280845260609392830182828015611f0757602002820191906000526020600020906000905b825461010083900a900460ff16815260206001928301818104948501949093039092029101808411611ed85790505b50505050509050919050565b611f1b613292565b606780546001600160a01b0319166001600160a01b0392909216919091179055565b611f45613292565b606680546001600160a01b0319166001600160a01b0392909216919091179055565b600080848484604051602001611f7f93929190614ff3565b60408051808303601f1901815291815281516020928301206000908152607690925290205463ffffffff1695945050505050565b611fbb613292565b611fc560006138bb565b565b600061200e6040518060400160405280601f81526020017f2d2d2d2d2d2d2d205f726567697374657252756c6520636c75737465724964008152508763ffffffff16612c55565b6065546001600160a01b031633146120825760405162461bcd60e51b815260206004820152603160248201527f63616c6c2075706461746547726f7570536c6f74546f6b656e48616e646c6572604482015270206d75737420636c75737465724172656160781b6064820152608401610c8e565b6120aa6040518060800160405280604e815260200161589f604e91398763ffffffff16612c55565b60008686866040516020016120c193929190615015565b60405160208183030381529060405280519060200120905060006069600083815260200190815260200160002090506121268460400151826000018760ff168154811061211057612110614f0d565b600091825260209091206005909102019061390d565b506001979650505050505050565b60008084848460405160200161214c93929190614ff3565b60408051808303601f1901815291815281516020928301206000908152607590925290205463ffffffff1695945050505050565b63ffffffff82166000908152606b60205260408120805461ffff84169081106121ab576121ab614f0d565b90600052602060002090602091828204019190069054906101000a900460ff16905092915050565b60005a905061221d6040518060400160405280601f81526020017f2d2d2d2d2d2d2075706461746552756c654c69737420636c75737465724964008152508463ffffffff16612c55565b6065546001600160a01b031663f1a12e66846002336040518463ffffffff1660e01b81526004016122509392919061512f565b60206040518083038186803b15801561226857600080fd5b505afa15801561227c573d6000803e3d6000fd5b505050506040513d601f19601f820116820180604052508101906122a09190615159565b6123065760405162461bcd60e51b815260206004820152603160248201527f75706461746552756c654c697374205f6d736753656e6465722829206d7573746044820152701031b63ab9ba32b9103232b83637bcb2b960791b6064820152608401610c8e565b612311338484612f50565b63ffffffff831660063360408051600080825260208201526001600160a01b0392909216917fdd740b9ffde613349a95afc283b77365c64f3f05583d46259e0c7a65e1acbfec910160405180910390a460005a61236e9083614f5b565b60675460405163163ce46160e01b815291925073__$37d1e3923919c704bdb48c10208c7fa215$__9163163ce461916123ba916001600160a01b03909116908590600690600401615196565b60006040518083038186803b1580156123d257600080fd5b505af41580156123e6573d6000803e3d6000fd5b5050505050505050565b6065546040516378d0973360e11b81526001600160a01b039091169063f1a12e6690612425908790600190339060040161512f565b60206040518083038186803b15801561243d57600080fd5b505afa158015612451573d6000803e3d6000fd5b505050506040513d601f19601f820116820180604052508101906124759190615159565b6124cc5760405162461bcd60e51b815260206004820152602260248201527f73657452756c6553746174653a206d73672e73656e646572206e6f742061646d60448201526134b760f11b6064820152608401610c8e565b60008484846040516020016124e393929190614ff3565b60408051601f1981840301815291815281516020928301206000818152607790935291205490915060ff16600b8114156125795760ff8316600a146125795760405162461bcd60e51b815260206004820152602660248201527f6d75737420656e61626c6520666f726576657220746f2064697361626c65206660448201526537b932bb32b960d11b6064820152608401610c8e565b60ff8116600a14156125e75760ff8316600b146125e75760405162461bcd60e51b815260206004820152602660248201527f6d7573742064697361626c6520666f726576657220746f20656e61626c65206660448201526537b932bb32b960d11b6064820152608401610c8e565b60ff8316158015906125fd575060ff8316600114155b801561260d575060ff8316600214155b801561261d575060ff8316600a14155b801561262d575060ff8316600b14155b156126785760405162461bcd60e51b815260206004820152601b60248201527a73657452756c6553746174652073746174652069732077726f6e6760281b6044820152606401610c8e565b600082815260776020908152604091829020805460ff87811660ff199092168217909255835163ffffffff8b16815261ffff8a811694820194909452928816838501529084166060830152608082015290517fefc146116a41f70c102b9678f5140a2d09e5c929f23c7030fc34bafc8a477cc39181900360a00190a1505050505050565b6068546000906001600160a01b031633146127595760405162461bcd60e51b815260206004820152601e60248201527f75706461746552756c654c656674436f756e74206e6f7420656e67696e6500006044820152606401610c8e565b600085858560405160200161277093929190614ff3565b60408051601f1981840301815282825280516020918201206000818152607683528390205460608501909352602380855290945063ffffffff909216926127c6929091615850908301398863ffffffff16612c55565b6127fc6040518060600160405280602481526020016157e76024913960008481526075602052604090205463ffffffff16612c55565b61282460405180606001604052806023815260200161573c602391398263ffffffff16612c55565b60008281526075602052604090205463ffffffff1661284857600192505050611336565b8363ffffffff168163ffffffff1610156128885761287d6040518060600160405280603d81526020016156ff603d9139613950565b600092505050611336565b61289284826151ba565b600092835260766020526040909220805463ffffffff191663ffffffff9093169290921790915550600195945050505050565b63ffffffff81166000908152606d6020908152604091829020805483518184028101840190945280845260609392830182828015611f0757602002820191906000526020600020906000905b82829054906101000a900461ffff1661ffff1681526020019060020190602082600101049283019260010382029150808411612911575094979650505050505050565b606b602052816000526040600020818154811061135a57600080fd5b60008084848460405160200161298893929190614ff3565b60408051808303601f1901815291815281516020928301206000908152607790925290205460ff1695945050505050565b6000808484846040516020016129d193929190614ff3565b60408051808303601f1901815291815281516020928301206000908152607090925290205463ffffffff1695945050505050565b606d6020528160005260406000208181548110612a2157600080fd5b9060005260206000209060109182820401919006600202915091509054906101000a900461ffff1681565b612a54613292565b6001600160a01b038116612ab95760405162461bcd60e51b815260206004820152602660248201527f4f776e61626c653a206e6577206f776e657220697320746865207a65726f206160448201526564647265737360d01b6064820152608401610c8e565b612ac2816138bb565b50565b600054610100900460ff1615808015612ae55750600054600160ff909116105b80612aff5750303b158015612aff575060005460ff166001145b612b625760405162461bcd60e51b815260206004820152602e60248201527f496e697469616c697a61626c653a20636f6e747261637420697320616c72656160448201526d191e481a5b9a5d1a585b1a5e995960921b6064820152608401610c8e565b6000805460ff191660011790558015612b85576000805461ff0019166101001790555b612b8d613993565b612b956139ba565b606580546001600160a01b038088166001600160a01b03199283161790925560668054878416908316179055606780548684169083161790556068805492851692909116919091179055801561122d576000805461ff0019169055604051600181527f7f26b83ff96e1f2b6a682f133852f6798a09c465da95921460cefb38474024989060200160405180910390a15050505050565b612c33613292565b606580546001600160a01b0319166001600160a01b0392909216919091179055565b612c9a8282604051602401612c6b9291906151d7565b60408051601f198184030181529190526020810180516001600160e01b0316632d839cb360e21b1790526139ea565b5050565b60008585604051602001612cb3929190614ef3565b60408051601f1981840301815282825280516020918201206000818152606a835283812080548085028701850190955284865291955093929091830182828015612d3a57602002820191906000526020600020906000905b825461010083900a900460ff16815260206001928301818104948501949093039092029101808411612d0b5790505b5050505050905060005b8151811015612d8d57846020015160ff16828281518110612d6757612d67614f0d565b602002602001015160ff161415612d7d57612d8d565b612d868161517b565b9050612d44565b81518110612dde576000838152606a602090815260408220878201518154600181018355918452928290209181049091018054601f9092166101000a60ff8181021990931692909316929092021790555b600088888760200151604051602001612df993929190615015565b604051602081830303815290604052805190602001209050600060696000838152602001908152602001600020905073__$2fa1c7f7a7c65017e2e4b402c0b66f2d96$__635e2f190f606560009054906101000a90046001600160a01b03168c8e8c606660009054906101000a90046001600160a01b03168d8d6040518863ffffffff1660e01b8152600401612e959796959493929190615326565b60006040518083038186803b158015612ead57600080fd5b505af4158015612ec1573d6000803e3d6000fd5b5050606554604051632754079160e21b815273__$37d1e3923919c704bdb48c10208c7fa215$__9350639d501e449250612f13916001600160a01b0316908e908e908e908e9089908f90600401615386565b60006040518083038186803b158015612f2b57600080fd5b505af4158015612f3f573d6000803e3d6000fd5b505050505050505050505050505050565b612f956040518060400160405280602081526020017f2d2d2d2d2d2d2d2075706461746552756c654c69737420636c757374657249648152508363ffffffff16612c55565b60005b815181101561328c576000828281518110612fb557612fb5614f0d565b60200260200101519050612fe76040518060600160405280603581526020016155c96035913982610100015151612c55565b6130146040518060600160405280603481526020016155fe6034913961300c83613a0b565b60ff16612c55565b63ffffffff84166000908152606d602052604080822090516330badedd60e21b815290919073__$37d1e3923919c704bdb48c10208c7fa215$__9063c2eb7b7490613067908990879087906004016153e3565b60206040518083038186803b15801561307f57600080fd5b505af4158015613093573d6000803e3d6000fd5b505050506040513d601f19601f820116820180604052508101906130b79190615159565b90508015806130cd5750604083015160ff166064145b156132785782516020808501516040516000936130ee938b93919201614ff3565b60408051808303601f19018152918152815160209283012060808701516000828152606e8552838120805460ff191660ff9093169290921790915560a0880151606f8552838220805463ffffffff1990811663ffffffff9384161790915560c08a0151607087528584208054831691841691909117905560608a018051607588528685208054841691851691909117905551607690965293909120805490931693169290921790559050816131f1576000818152607160205260409020805463ffffffff19164263ffffffff161790556131c6613a51565b6000828152607260205260409020805463ffffffff191663ffffffff92909216919091179055613241565b6000818152607360205260409020805463ffffffff19164263ffffffff1617905561321a613a51565b6000828152607460205260409020805463ffffffff191663ffffffff929092169190911790555b604084015160ff16606414613276576040848101516000838152607760205291909120805460ff191660ff9092169190911790555b505b505050806132859061517b565b9050612f98565b50505050565b6033546001600160a01b03163314611fc55760405162461bcd60e51b815260206004820181905260248201527f4f776e61626c653a2063616c6c6572206973206e6f7420746865206f776e65726044820152606401610c8e565b60005b825181101561122d57600083828151811061330c5761330c614f0d565b60200260200101519050806020015151816040015151146133a65760405162461bcd60e51b815260206004820152604860248201527f75706461746547726f7570536c6f744c697374206d7573742067726f7570536c60448201527f6f744f70744c6973742e6c656e677468203d3d2067726f7570536c6f744c69736064820152670e85cd8cadccee8d60c31b608482015260a401610c8e565b805163ffffffff86166000908152606b6020908152604091829020825160608101909352603180845290926133e69290919061575f908301398254612c55565b600087836040516020016133fb929190614ef3565b60408051601f1981840301815291815281516020928301206000818152606a909352908220909250905b8560200151518161ffff1610156138a457600086602001518261ffff168151811061345257613452614f0d565b602002602001015190506000805b8454811015613617576134bc6040518060600160405280602c8152602001615873602c913986838154811061349757613497614f0d565b60009182526020918290209181049091015460ff601f9092166101000a900416612c55565b826020015160ff168582815481106134d6576134d6614f0d565b60009182526020918290209181049091015460ff601f9092166101000a900416141561350157600191505b8180156135365750600360ff1689604001518561ffff168151811061352857613528614f0d565b602002602001015160ff1614155b1561354057613617565b8180156135745750600360ff1689604001518561ffff168151811061356757613567614f0d565b602002602001015160ff16145b1561360757845461358790600190614f5b565b811015613607578461359a826001614fdb565b815481106135aa576135aa614f0d565b90600052602060002090602091828204019190069054906101000a900460ff168582815481106135dc576135dc614f0d565b90600052602060002090602091828204019190066101000a81548160ff021916908360ff1602179055505b6136108161517b565b9050613460565b5080613659576020808901515187546001810189556000898152839020928104909201805460ff928316601f9094166101000a93840292909302199092161790555b600260ff1688604001518461ffff168151811061367857613678614f0d565b602002602001015160ff1614156136df5760008c8884602001516040516020016136a493929190615015565b60408051601f19818403018152918152815160209283012060008181526069909352908220909250906136d8908290613bee565b505061386a565b600360ff1688604001518461ffff16815181106136fe576136fe614f0d565b602002602001015160ff16141561386a576137316040518060600160405280602d8152602001615632602d913982613add565b8015613863578380548061374757613747615505565b60019003818190600052602060002090602091828204019190066101000a81549060ff0219169055905561379460405180606001604052806033815260200161568d603391398554612c55565b61ffff87165b8654811015613861576137c56040518060600160405280602b81526020016157bc602b913982612c55565b6137f76040518060600160405280603f81526020016156c0603f9139888a61ffff168154811061349757613497614f0d565b600187828154811061380b5761380b614f0d565b90600052602060002090602091828204019190068282829054906101000a900460ff166138389190614f98565b92506101000a81548160ff021916908360ff1602179055508061385a9061517b565b905061379a565b505b5050613894565b6138918d8d8986868f8f8151811061388457613884614f0d565b6020026020010151612c9e565b50505b61389d81614f39565b9050613425565b505050505050806138b49061517b565b90506132ef565b603380546001600160a01b038381166001600160a01b0319831681179093556040519116919082907f8be0079c531659141344cd1fd0a4f28419497f9722a3daafe3b4186f6b6457e090600090a35050565b815460ff16600214806139245750815460ff166003145b15612c9a57808260010160018154811061394057613940614f0d565b6000918252602090912001555050565b612ac28160405160240161396491906148d6565b60408051601f198184030181529190526020810180516001600160e01b031663104c13eb60e21b1790526139ea565b600054610100900460ff16611fc55760405162461bcd60e51b8152600401610c8e9061551b565b600054610100900460ff166139e15760405162461bcd60e51b8152600401610c8e9061551b565b611fc5336138bb565b80516a636f6e736f6c652e6c6f67602083016000808483855afa5050505050565b600080613a1783613b22565b90506000613a2484613b3e565b90506000613a3185613b66565b905080613a3e8385615566565b613a489190615566565b95945050505050565b60004661a4b1811415613ad65760646001600160a01b031663a3b1b31d6040518163ffffffff1660e01b815260040160206040518083038186803b158015613a9857600080fd5b505afa158015613aac573d6000803e3d6000fd5b505050506040513d601f19601f82011682018060405250810190613ad0919061558b565b91505090565b4391505090565b612c9a8282604051602401613af39291906155a4565b60408051601f198184030181529190526020810180516001600160e01b031663c3b5563560e01b1790526139ea565b6000610be28260e001516001600160401b031660086000613b94565b6000610be28260e001516001600160401b0316600860006008613b619190614fdb565b613b94565b6000610be28260e001516001600160401b0316600860006008613b899190614fdb565b613b61906008614fdb565b91821c91600080613ba8600180861b614f5b565b909416949350505050565b6040518060a0016040528060608152602001600060ff16815260200160006001600160a01b0316815260200160608152602001606081525090565b5080546000825560050290600052602060002090810190612ac291905b80821115613c655780546001600160a81b031916815560008181613c326001830182613c69565b505060028201805460ff19169055613c4e600383016000613c69565b613c5c600483016000613c69565b50600501613c0b565b5090565b5080546000825590600052602060002090810190612ac291905b80821115613c655760008155600101613c83565b6001600160a01b03169052565b803563ffffffff81168114613cb857600080fd5b919050565b803561ffff81168114613cb857600080fd5b60008060408385031215613ce257600080fd5b613ceb83613ca4565b9150613cf960208401613cbd565b90509250929050565b6020808252825182820181905260009190848201906040850190845b81811015613d3d57835160ff1683529284019291840191600101613d1e565b50909695505050505050565b80356001600160a01b0381168114613cb857600080fd5b634e487b7160e01b600052604160045260246000fd5b604051608081016001600160401b0381118282101715613d9857613d98613d60565b60405290565b604051606081016001600160401b0381118282101715613d9857613d98613d60565b60405160a081016001600160401b0381118282101715613d9857613d98613d60565b60405161016081016001600160401b0381118282101715613d9857613d98613d60565b604051601f8201601f191681016001600160401b0381118282101715613e2d57613e2d613d60565b604052919050565b60006001600160401b03821115613e4e57613e4e613d60565b5060051b60200190565b803560ff81168114613cb857600080fd5b600082601f830112613e7a57600080fd5b81356020613e8f613e8a83613e35565b613e05565b82815260059290921b84018101918181019086841115613eae57600080fd5b8286015b84811015613ec95780358352918301918301613eb2565b509695505050505050565b600082601f830112613ee557600080fd5b81356020613ef5613e8a83613e35565b82815260059290921b84018101918181019086841115613f1457600080fd5b8286015b84811015613ec957613f2981613d49565b8352918301918301613f18565b600082601f830112613f4757600080fd5b81356020613f57613e8a83613e35565b82815260059290921b84018101918181019086841115613f7657600080fd5b8286015b84811015613ec95780356001600160401b0380821115613f9957600080fd5b90880190601f196080838c0382011215613fb257600080fd5b613fba613d76565b8784013583811115613fcb57600080fd5b84016060818e0384011215613fdf57600080fd5b613fe7613d9e565b9250613ff4898201613e58565b83526040614003818301613d49565b8a85015260608201358581111561401957600080fd5b6140278f8c83860101613e69565b828601525083835261403a818701613e58565b8a840152606086013593508484111561405257600080fd5b6140608e8b86890101613ed4565b9083015250608084013591508282111561407957600080fd5b6140878c8984870101613e69565b60608201528652505050918301918301613f7a565b60006001600160401b038211156140b5576140b5613d60565b50601f01601f191660200190565b60006140d1613e8a8461409c565b90508281528383830111156140e557600080fd5b828260208301376000602084830101529392505050565b600082601f83011261410d57600080fd5b8135602061411d613e8a83613e35565b82815260059290921b8401810191818101908684111561413c57600080fd5b8286015b84811015613ec95780356001600160401b0381111561415f5760008081fd5b8701603f810189136141715760008081fd5b6141828986830135604084016140c3565b845250918301918301614140565b600082601f8301126141a157600080fd5b813560206141b1613e8a83613e35565b82815260059290921b840181019181810190868411156141d057600080fd5b8286015b84811015613ec95780356001600160401b03808211156141f45760008081fd5b9088019060a0828b03601f190181131561420e5760008081fd5b614216613dc0565b87840135838111156142285760008081fd5b6142368d8a83880101613f36565b8252506040614246818601613e58565b898301526060614257818701613d49565b828401526080915081860135858111156142715760008081fd5b61427f8f8c838a0101613ed4565b828501525050828501359250838311156142995760008081fd5b6142a78d8a858801016140fc565b9082015286525050509183019183016141d4565b600082601f8301126142cc57600080fd5b813560206142dc613e8a83613e35565b82815260059290921b840181019181810190868411156142fb57600080fd5b8286015b84811015613ec95761431081613e58565b83529183019183016142ff565b80356001600160401b0381168114613cb857600080fd5b600082601f83011261434557600080fd5b81356020614355613e8a83613e35565b82815260059290921b8401810191818101908684111561437457600080fd5b8286015b84811015613ec95780356001600160401b03808211156143985760008081fd5b90880190610160828b03601f19018113156143b35760008081fd5b6143bb613de2565b6143c6888501613cbd565b815260406143d5818601613cbd565b8983015260606143e6818701613e58565b82840152608091506143f9828701613ca4565b9083015260a061440a868201613e58565b8284015260c0915061441d828701613ca4565b9083015260e061442e868201613ca4565b82840152610100915061444282870161431d565b90830152610120858101358581111561445b5760008081fd5b6144698f8c838a0101613ed4565b8385015250610140915081860135858111156144855760008081fd5b6144938f8c838a01016140fc565b8285015250506144a4838601613d49565b908201528652505050918301918301614378565b600082601f8301126144c957600080fd5b6144d8838335602085016140c3565b9392505050565b600082601f8301126144f057600080fd5b81356020614500613e8a83613e35565b82815260059290921b8401810191818101908684111561451f57600080fd5b8286015b84811015613ec95780356001600160401b03808211156145435760008081fd5b9088019060a0828b03601f190181131561455d5760008081fd5b614565613dc0565b614570888501613ca4565b8152604080850135848111156145865760008081fd5b6145948e8b838901016144b8565b8a84015250606080860135858111156145ad5760008081fd5b6145bb8f8c838a01016144b8565b83850152506080915081860135858111156145d65760008081fd5b6145e48f8c838a01016144b8565b8285015250506145f5838601613e58565b908201528652505050918301918301614523565b60008060006060848603121561461e57600080fd5b61462784613d49565b925061463560208501613ca4565b915060408401356001600160401b038082111561465157600080fd5b90850190610160828803121561466657600080fd5b61466e613de2565b82358281111561467d57600080fd5b61468989828601614190565b82525060208301358281111561469e57600080fd5b6146aa898286016142bb565b6020830152506040830135828111156146c257600080fd5b6146ce89828601614334565b6040830152506060830135828111156146e657600080fd5b6146f2898286016144df565b60608301525060808301358281111561470a57600080fd5b614716898286016142bb565b60808301525060a08301358281111561472e57600080fd5b61473a89828601613ed4565b60a08301525060c08301358281111561475257600080fd5b61475e89828601613ed4565b60c08301525061477060e08401613ca4565b60e0820152610100614783818501613ca4565b90820152610120614795848201613e58565b9082015261014083810135838111156147ad57600080fd5b6147b98a8287016144b8565b8284015250508093505050509250925092565b6000602082840312156147de57600080fd5b6144d882613d49565b6000806000606084860312156147fc57600080fd5b61480584613ca4565b925061481360208501613cbd565b915061482160408501613cbd565b90509250925092565b6000806000806080858703121561484057600080fd5b61484985613ca4565b935061485760208601613cbd565b925061486560408601613e58565b915061487360608601613d49565b905092959194509250565b60005b83811015614899578181015183820152602001614881565b8381111561328c5750506000910152565b600081518084526148c281602086016020860161487e565b601f01601f19169290920160200192915050565b6020815260006144d860208301846148aa565b600080604083850312156148fc57600080fd5b50508035926020909101359150565b60008060006060848603121561492057600080fd5b61492984613ca4565b925061493760208501613cbd565b915061482160408501613e58565b600081518084526020808501945080840160005b8381101561497557815187529582019590820190600101614959565b509495945050505050565b600081518084526020808501945080840160005b838110156149755781516001600160a01b031687529582019590820190600101614994565b600081518084526020808501808196508360051b8101915082860160005b85811015614a015782840389526149ef8483516148aa565b988501989350908401906001016149d7565b5091979650505050505050565b6000604084151583526020818185015260e0808501865160a080868901528282518085526101009450848a019150848160051b8b01019450868401935060005b81811015614af3578a860360ff19018352845180516080808952815160ff1690890152898101516001600160a01b0316868901528a0151606060c08901819052614a9a8a8a0183614945565b91508a830151614aae8c8b018260ff169052565b508b8301518983038d8b0152614ac48382614980565b925050808301519250888203818a015250614adf8183614945565b975050509387019391870191600101614a4e565b5050509388015160ff81166060890152939488015194614b166080890187613c97565b60608901519550603f1994508488840301818901525050614b378185614980565b935050506080850151818584030160c0860152614b5483826149b9565b979650505050505050565b600060208284031215614b7157600080fd5b5035919050565b600060208284031215614b8a57600080fd5b6144d882613ca4565b60008060408385031215614ba657600080fd5b614baf83613ca4565b91506020808401356001600160401b0380821115614bcc57600080fd5b818601915086601f830112614be057600080fd5b8135614bee613e8a82613e35565b81815260059190911b83018401908481019089831115614c0d57600080fd5b8585015b83811015614cb157803585811115614c295760008081fd5b86016060818d03601f1901811315614c415760008081fd5b614c49613d9e565b614c548a8401613cbd565b8152604083013588811115614c695760008081fd5b614c778f8c83870101614190565b828c015250908201359087821115614c8f5760008081fd5b614c9d8e8b848601016142bb565b604082015285525050918601918601614c11565b508096505050505050509250929050565b600080600080600085870360e0811215614cdb57600080fd5b614ce487613ca4565b9550614cf260208801613cbd565b9450614d0060408801613e58565b9350614d0e60608801613e58565b92506060607f1982011215614d2257600080fd5b50604051606081018181106001600160401b0382111715614d4557614d45613d60565b80604052506080870135815260a0870135602082015260c08701356040820152809150509295509295909350565b60008060408385031215614d8657600080fd5b614d8f83613ca4565b915060208301356001600160401b03811115614daa57600080fd5b614db685828601614334565b9150509250929050565b60008060008060808587031215614dd657600080fd5b614ddf85613ca4565b9350614ded60208601613cbd565b9250614dfb60408601613cbd565b915061487360608601613e58565b60008060008060808587031215614e1f57600080fd5b614e2885613ca4565b9350614e3660208601613cbd565b9250614e4460408601613cbd565b915061487360608601613ca4565b6020808252825182820181905260009190848201906040850190845b81811015613d3d57835161ffff1683529284019291840191600101614e6e565b60008060408385031215614ea157600080fd5b614eaa83613ca4565b946020939093013593505050565b60008060008060808587031215614ece57600080fd5b614ed785613d49565b9350614ee560208601613d49565b925061486560408601613d49565b63ffffffff92909216825261ffff16602082015260400190565b634e487b7160e01b600052603260045260246000fd5b634e487b7160e01b600052601160045260246000fd5b600061ffff80831681811415614f5157614f51614f23565b6001019392505050565b600082821015614f6d57614f6d614f23565b500390565b600061ffff808316818516808303821115614f8f57614f8f614f23565b01949350505050565b600060ff821660ff841680821015614fb257614fb2614f23565b90039392505050565b600060ff821660ff811415614fd257614fd2614f23565b60010192915050565b60008219821115614fee57614fee614f23565b500190565b63ffffffff93909316835261ffff918216602084015216604082015260600190565b63ffffffff93909316835261ffff91909116602083015260ff16604082015260600190565b60006020828403121561504c57600080fd5b81516001600160401b0381111561506257600080fd5b8201601f8101841361507357600080fd5b8051615081613e8a8261409c565b81815285602083850101111561509657600080fd5b613a4882602083016020860161487e565b600061ffff808316818516818304811182151516156150c8576150c8614f23565b02949350505050565b600181811c908216806150e557607f821691505b6020821081141561510657634e487b7160e01b600052602260045260246000fd5b50919050565b600061ffff8381169083168181101561512757615127614f23565b039392505050565b63ffffffff93909316835260ff9190911660208301526001600160a01b0316604082015260600190565b60006020828403121561516b57600080fd5b815180151581146144d857600080fd5b600060001982141561518f5761518f614f23565b5060010190565b6001600160a01b03939093168352602083019190915260ff16604082015260600190565b600063ffffffff8381169083168181101561512757615127614f23565b6040815260006151ea60408301856148aa565b90508260208301529392505050565b600060a0808401835182865281815180845260c093508388019150838160051b8901016020808501945060005b838110156152cf578a830360bf19018552855180516080808652815160ff1690860152838101516001600160a01b03168a86015260409081015160608a870181905261527560e0880183614945565b9150858401516152898789018260ff169052565b50828401518783038489015261529f8382614980565b9350508084015193508683038188015250506152bb8183614945565b978401979684019694505050600101615226565b508089015160ff16908a015260408089015196506152ef908a0187613c97565b6060880151955088810360608a01526153088187614980565b9550505050505060808301518482036080860152613a4882826149b9565b6001600160a01b03888116825263ffffffff88166020830152868116604083015261ffff861660608301528416608082015260e060a08201819052600090615370908301856151f9565b905082151560c083015298975050505050505050565b6001600160a01b038816815263ffffffff8716602082015261ffff86811660408301528516606082015260e0608082018190526000906153c8908301866151f9565b60a08301949094525090151560c09091015295945050505050565b63ffffffff841681526060602082015261540460608201845161ffff169052565b6000602084015161541b608084018261ffff169052565b50604084015160ff811660a084015250606084015163ffffffff811660c084015250608084015160ff811660e08401525060a08401516101006154658185018363ffffffff169052565b60c086015191506101206154808186018463ffffffff169052565b60e0870151925061014061549e818701856001600160401b03169052565b828801519350610160925082838701526154bc6101c0870185614980565b9350818801519250605f19868503016101808701526154db84846149b9565b935080880151925050506154f36101a0850182613c97565b50604092909201929092529392505050565b634e487b7160e01b600052603160045260246000fd5b6020808252602b908201527f496e697469616c697a61626c653a20636f6e7472616374206973206e6f74206960408201526a6e697469616c697a696e6760a81b606082015260800190565b600060ff821660ff84168060ff0382111561558357615583614f23565b019392505050565b60006020828403121561559d57600080fd5b5051919050565b6040815260006155b760408301856148aa565b90508215156020830152939250505056fe2d2d2d2d2d2d2d2d2d2d2d2d2d2d2075706461746552756c654c6973742072756c652e68616e646c65724c6973742e6c656e6774682d2d2d2d2d2d2d2d2d2d2d2d2d2d2075706461746552756c654c6973742072756c652e67657448616e646c6572436f756e7428292d2d2d2d2d2d2d2d2d2d2d2d2d2075706461746547726f7570536c6f744c69737420666f756e644272616e63682d2d2d2d2d2d2d2d2d2d2d2d2d2d202072656752756c65205f70726f63657373436c75737465724f7252756c65202d2d2d2d2d2d2d2d2d2d2d2d2d2075706461746547726f7570536c6f744c697374206272616e63684c6973742e6c656e6774682d2d2d2d2d2d2d2d2d2d2d2d2075706461746547726f7570536c6f744c6973742067726f7570536c6f74426f756e644c6973745b626f756e64496e6465785d2d2d2d2d2d2d75706461746552756c654c656674436f756e742075706461746552756c654c656674436f756e742072756c654c656674436e74203c20302d2d2d2d2d2d75706461746552756c654c656674436f756e74206c656674436f756e742d2d2d2d2d2d2d2d2d2d2075706461746547726f7570536c6f744c6973742067726f7570536c6f74426f756e644c6973742d2d2d2d2d2d2d2072656752756c6520636c75737465722e72756c65536c6f74426f756e642e6c656e6774682d2d2d2d2d2d2d2d2d2d2d2d2075706461746547726f7570536c6f744c69737420626f756e64496e6465782d2d2d2d2d2d75706461746552756c654c656674436f756e7420746f74616c436f756e742d2d2d2d2d2d2d2072656752756c652072756c65536c6f744c656e2d61667465722d2d2d2d2d2d2075706461746547726f7570536c6f744c69737420636c757374657249642d2d2d2d2d2d75706461746552756c654c656674436f756e7420636c757374657249642d2d2d2d2d2d2d2d2d2d2d2d2d2075706461746547726f7570536c6f744c697374206272616e63684c6973742d2d2d2d2d2d3d3d3d3d3d3d2d2d2d2d2d2d20636c757374657252756c65417265612075706461746547726f7570536c6f74546f6b656e48616e646c6572202d2d2d2d2d20636c75737465724964a2646970667358221220808e24765e85705b6ec5725b41d063d8dcf08054f957a03c467d1d3f2a9e72bd64736f6c63430008080033",
  "linkReferences": {
    "contracts/V3/ClusterRuleAreaProcess.sol": {
      "ClusterRuleAreaProcess": [
        {
          "length": 20,
          "start": 7742
        },
        {
          "length": 20,
          "start": 9124
        },
        {
          "length": 20,
          "start": 12022
        },
        {
          "length": 20,
          "start": 12380
        }
      ]
    },
    "contracts/V3/ClusterRuleAreaUtil.sol": {
      "ClusterRuleAreaUtil": [
        {
          "length": 20,
          "start": 11851
        }
      ]
    }
  },
  "deployedLinkReferences": {
    "contracts/V3/ClusterRuleAreaProcess.sol": {
      "ClusterRuleAreaProcess": [
        {
          "length": 20,
          "start": 7709
        },
        {
          "length": 20,
          "start": 9091
        },
        {
          "length": 20,
          "start": 11989
        },
        {
          "length": 20,
          "start": 12347
        }
      ]
    },
    "contracts/V3/ClusterRuleAreaUtil.sol": {
      "ClusterRuleAreaUtil": [
        {
          "length": 20,
          "start": 11818
        }
      ]
    }
  }
}