{
  "_format": "hh-sol-artifact-1",
  "contractName": "AllocateLayerHandlerLib",
  "sourceName": "contracts/V3/handler/AllocateLayerHandlerLib.sol",
  "abi": [
    {
      "inputs": [
        {
          "components": [
            {
              "components": [
                {
                  "internalType": "uint8",
                  "name": "erc",
                  "type": "uint8"
                },
                {
                  "internalType": "address",
                  "name": "token",
                  "type": "address"
                },
                {
                  "internalType": "uint256[]",
                  "name": "valueList",
                  "type": "uint256[]"
                }
              ],
              "internalType": "struct Token.TokenTemplate",
              "name": "tokenTemplate",
              "type": "tuple"
            },
            {
              "internalType": "uint8",
              "name": "rule",
              "type": "uint8"
            },
            {
              "internalType": "address[]",
              "name": "ioAddressList",
              "type": "address[]"
            },
            {
              "internalType": "uint256[]",
              "name": "valueList",
              "type": "uint256[]"
            }
          ],
          "internalType": "struct Rule.TokenSlot[]",
          "name": "stdTokenSlotList",
          "type": "tuple[]"
        },
        {
          "components": [
            {
              "internalType": "uint8",
              "name": "erc",
              "type": "uint8"
            },
            {
              "internalType": "address",
              "name": "token",
              "type": "address"
            },
            {
              "internalType": "uint256",
              "name": "id",
              "type": "uint256"
            },
            {
              "internalType": "uint256",
              "name": "amount",
              "type": "uint256"
            },
            {
              "components": [
                {
                  "internalType": "uint32",
                  "name": "attrId",
                  "type": "uint32"
                },
                {
                  "internalType": "int40",
                  "name": "attrAmount",
                  "type": "int40"
                }
              ],
              "internalType": "struct Attribute.AttributeIn[]",
              "name": "attrInList",
              "type": "tuple[]"
            }
          ],
          "internalType": "struct Token.Token[]",
          "name": "inTokenList",
          "type": "tuple[]"
        },
        {
          "internalType": "uint16",
          "name": "roundCount",
          "type": "uint16"
        },
        {
          "internalType": "uint256",
          "name": "round",
          "type": "uint256"
        },
        {
          "internalType": "uint256",
          "name": "tokenSlotIndex",
          "type": "uint256"
        }
      ],
      "name": "calAllocateTokenId",
      "outputs": [
        {
          "internalType": "uint256",
          "name": "",
          "type": "uint256"
        },
        {
          "internalType": "uint256",
          "name": "",
          "type": "uint256"
        }
      ],
      "stateMutability": "view",
      "type": "function"
    },
    {
      "inputs": [
        {
          "components": [
            {
              "internalType": "address",
              "name": "engine",
              "type": "address"
            },
            {
              "internalType": "address",
              "name": "clusterArea",
              "type": "address"
            },
            {
              "internalType": "uint32",
              "name": "clusterId",
              "type": "uint32"
            },
            {
              "internalType": "uint16",
              "name": "ruleSlotIndexInput",
              "type": "uint16"
            },
            {
              "internalType": "uint16",
              "name": "ruleSlotIndexOutput",
              "type": "uint16"
            },
            {
              "internalType": "uint8",
              "name": "branch",
              "type": "uint8"
            },
            {
              "internalType": "address",
              "name": "stateCounter",
              "type": "address"
            },
            {
              "internalType": "uint32",
              "name": "taskId",
              "type": "uint32"
            },
            {
              "internalType": "address",
              "name": "caller",
              "type": "address"
            },
            {
              "internalType": "uint8",
              "name": "cmd",
              "type": "uint8"
            },
            {
              "internalType": "bytes",
              "name": "args",
              "type": "bytes"
            }
          ],
          "internalType": "struct Handler.StateParams",
          "name": "params",
          "type": "tuple"
        },
        {
          "internalType": "uint128",
          "name": "ruleConfig",
          "type": "uint128"
        }
      ],
      "name": "getAllocateLayerState",
      "outputs": [
        {
          "internalType": "bytes[]",
          "name": "",
          "type": "bytes[]"
        }
      ],
      "stateMutability": "view",
      "type": "function"
    }
  ],
  "bytecode": "0x61431d61003a600b82828239805160001a60731461002d57634e487b7160e01b600052600060045260246000fd5b30600052607381538281f3fe730000000000000000000000000000000000000000301460806040526004361061006c5760003560e01c80630d08d1681461007157806332bd0cd0146100a457806346fb8fe6146100c45780634b3dfd01146100fc57806355fb22161461011e57806386aa79511461013e575b600080fd5b81801561007d57600080fd5b5061009161008c366004613371565b610166565b6040519081526020015b60405180910390f35b6100b76100b2366004613472565b61020b565b60405161009b91906135fc565b8180156100d057600080fd5b506100e46100df36600461365e565b6105d1565b6040516001600160801b03909116815260200161009b565b81801561010857600080fd5b5061011c6101173660046136df565b610703565b005b81801561012a57600080fd5b5061011c610139366004613909565b610a3e565b61015161014c3660046139e7565b610bc8565b6040805192835260208301919091520161009b565b6000808361ffff16855161017a9190613a98565b905060006101888285613aac565b905060008061019a8989898987610bc8565b915091506101dd6040518060400160405280602081526020017f2d2d2d2d2d2d2d2d2d2d2d2067656e546f6b656e4964206d756c4c656e67746881525083610f44565b6101ff6040518060600160405280602281526020016142c66022913982610f44565b98975050505050505050565b606082610120015160ff1660001415610372576000610236836001600160801b031660086000610f8d565b6040805160038082526080820190925291925060009190816020015b606081526020019060019003908161025257905050905061029f6040518060400160405280600e81526020016d0626c6f636b54696d657374616d760941b8152504263ffffffff16610fae565b816000815181106102b2576102b2613acb565b60200260200101819052506102f76040518060400160405280600b81526020016a313637b1b5a73ab6b132b960a91b8152506102ec6110c4565b63ffffffff16610fae565b8160018151811061030a5761030a613acb565b602002602001018190525061034a6040518060400160405280601081526020016f0caf0cac6eae8ca626060a6eed2e8c6d60831b8152508360ff16610fae565b8160028151811061035d5761035d613acb565b602002602001018190525080925050506105cb565b600083602001516001600160a01b031663fe8c4aa36040518163ffffffff1660e01b815260040160206040518083038186803b1580156103b157600080fd5b505afa1580156103c5573d6000803e3d6000fd5b505050506040513d601f19601f820116820180604052508101906103e99190613ae1565b84604001518560600151866080015187610140015161040790613afe565b60405160200161041b959493929190613b22565b60405160208183030381529060405280519060200120905061046b6040518060600160405280602b8152602001613ed8602b913961046686610140015161046190613afe565b611150565b61119c565b610490604051806060016040528060338152602001613ea56033913961046683611150565b6040516365612ae160e11b815260048101829052600090309063cac255c29060240160206040518083038186803b1580156104ca57600080fd5b505afa1580156104de573d6000803e3d6000fd5b505050506040513d601f19601f820116820180604052508101906105029190613b5a565b90506105466040518060400160405280601c81526020017f2d2d2d2d2d2d2d676574416c6c6f636174654c617965725374617465000000008152508260ff16610f44565b604080516001808252818301909252600091816020015b606081526020019060019003908161055d5790505090506105a86040518060400160405280600f81526020016e746f6b656e4964536574537461746560881b8152508360ff16610fae565b816000815181106105bb576105bb613acb565b6020908102919091010152925050505b92915050565b60006106196040518060400160405280602081526020017f2d2d2d2d2d2d2d2d2d2d2d2d20534c205f7570646174654172677320617267738152506104668461046190613afe565b60006106268360006111e1565b905060006106358460016111e1565b9050610660604051806060016040528060408152602001613fe8604091398360ff168360ff1661126e565b6040516331048c1760e11b815263ffffffff8816600482015261ffff80881660248301528616604482015260ff821660648201526001600160a01b03891690636209182e90608401600060405180830381600087803b1580156106c257600080fd5b505af11580156106d6573d6000803e3d6000fd5b5050505060006106f6816001600160801b03168460ff16600860006112b5565b9998505050505050505050565b60008061071383606001516112da565b60ff16836060015161014001515161072b9190613a98565b905061074f6040518060600160405280602a8152602001614108602a913982610f44565b6000816001600160401b0381111561076957610769612e14565b604051908082528060200260200182016040528015610792578160200160208202803683370190505b50905060005b8460600151610140015151811080156107b15750600083115b15610a375760008560600151610140015182815181106107d3576107d3613acb565b6020026020010151905080604001518386806107ee90613b77565b97508151811061080057610800613acb565b602002602001018181525050610832604051806060016040528060228152602001613f8c602291398260400151610f44565b838510610a265760008360405160200161084c9190613b92565b6040516020818303038152906040528051906020012090506108876040518060600160405280602981526020016140df602991398551610f44565b606087015160208101516101008201516000926108a39061131a565b6108b08b60600151611334565b856040516020016108c5959493929190613b22565b60408051808303601f190181529082905280516020909101206365612ae160e11b8252600482018190529150600090309063cac255c29060240160206040518083038186803b15801561091757600080fd5b505afa15801561092b573d6000803e3d6000fd5b505050506040513d601f19601f8201168201806040525081019061094f9190613b5a565b905061097660405180606001604052806022815260200161419a602291398260ff16610f44565b600060ff168160ff16146109aa604051806060016040528060358152602001614165603591396109a588611359565b611364565b906109d15760405162461bcd60e51b81526004016109c89190613bd6565b60405180910390fd5b50866001600160401b038111156109ea576109ea612e14565b604051908082528060200260200182016040528015610a13578160200160208202803683370190505b509550610a208789613be9565b97505050505b50610a3081613b77565b9050610798565b5050505050565b602082015160018201805460408501516001600160a01b0316610100026001600160a81b031990911660ff9093169290921791909117905560005b825151811015610bc357600083600001518281518110610a9b57610a9b613acb565b60200260200101519050610adc604051806040016040528060158152602001740b4b4b4b4b4b4b481d1bdad95b94db1bdd131a5cdd605a1b81525083610f44565b82546001818101855560008581526020908190208482015160026005909502909101938401805460ff92831660ff19909116179055845180518554828501516001600160a01b0316610100026001600160a81b03199091169190931617919091178455604001518051610b56938501929190910190612d5f565b5060608201518051610b72916004840191602090910190612d5f565b5060408201518051610b8e916003840191602090910190612daa565b50610bb060405180606001604052806035815260200161425f60359139611390565b505080610bbc90613b77565b9050610a79565b505050565b60008060008561ffff168751610bde9190613a98565b90506000610bec8287613aac565b610bf69086613be9565b9050610c306040518060400160405280601681526020017505a5a5a5a5a5a5a5a40e6e8c8a8ded6cadc92dcc8caf60531b81525082610f44565b610c65604051806040016040528060138152602001720b4b4b4b4b4b4b4b481d1bdad95b90dbdd5b9d606a1b81525083610f44565b818110610c7b5760016000935093505050610f3a565b6000888681518110610c8f57610c8f613acb565b60200260200101519050600080610cc38c8581518110610cb157610cb1613acb565b602002602001015160000151846113d6565b91509150610ceb604051806040016040528060038152602001622d2d2d60e81b815250611390565b610d246040518060400160405280601781526020017605a5a5a5a5a5a5a5a40e8ded6cadca6d8dee892dcc8caf604b1b81525089610f44565b610d5b604051806040016040528060118152602001700b4b4b4b4b4b4b4b481d1bdad95b8b9a59607a1b8152508460400151610f44565b610d926040518060400160405280601581526020017405a5a5a5a5a5a5a5a40e8ded6cadc92c892dcc8caf605b1b81525083610f44565b610dca6040518060400160405280601681526020017505a5a5a5a5a5a5a5a40e8ded6cadc92c898cadccee8d60531b81525082610f44565b610dee604051806040016040528060038152602001622d2d2d60e81b815250611390565b600080610e038e8e8e8e61014c8f6001613c00565b91509150610e2a604051806040016040528060028152602001612d2d60f01b815250611390565b610e5e6040518060400160405280601281526020017105a5a5a5a5a5a5a5a40daead898cadccee8d60731b81525083610f44565b610e946040518060400160405280601481526020017305a5a5a5a5a5a5a5a40e6eada92c898cadccee8d60631b81525082610f44565b610ede6040518060400160405280602081526020017f2d2d2d2d2d2d2d2d20746f6b656e49644c656e6774682a6d756c4c656e6774688152508385610ed99190613aac565b610f44565b610f0f6040518060600160405280602d815260200161405b602d913982610f058588613aac565b610ed99190613c00565b610f198284613aac565b81610f248487613aac565b610f2e9190613c00565b98509850505050505050505b9550959350505050565b610f898282604051602401610f5a929190613c18565b60408051601f198184030181529190526020810180516001600160e01b0316632d839cb360e21b179052611790565b5050565b91821c91600080610fa1600180861b613be9565b85169150505b9392505050565b60606000610fbb846117b1565b90506000610fc8846117bc565b90506110016040518060400160405280600e81526020016d0b4b4b4b4b4b4b481d1bd55a5b9d60921b8152506104668361046190613afe565b60408051600380825260808201909252600091816020015b6060815260200190600190039081611019579050509050828160008151811061104457611044613acb565b6020026020010181905250611074604051806040016040528060048152602001631d5a5b9d60e21b8152506117b1565b8160018151811061108757611087613acb565b602002602001018190525081816002815181106110a6576110a6613acb565b60200260200101819052506110ba816117cf565b9695505050505050565b60004661a4b18114156111495760646001600160a01b031663a3b1b31d6040518163ffffffff1660e01b815260040160206040518083038186803b15801561110b57600080fd5b505afa15801561111f573d6000803e3d6000fd5b505050506040513d601f19601f820116820180604052508101906111439190613c3a565b91505090565b4391505090565b606061115b826117f3565b611168608084901b6117f3565b60405161060f60f31b6020820152602281019290925260428201526062016040516020818303038152906040529050919050565b610f8982826040516024016111b2929190613c53565b60408051601f198184030181529190526020810180516001600160e01b0316634b5c427760e01b179052611790565b60008061121d6112188560408051808201825260008082526020918201528151808301909252825182529182019181019190915290565b61199d565b9050611266611247828560ff168151811061123a5761123a613acb565b602002602001015161199d565b60028151811061125957611259613acb565b6020026020010151611ab2565b949350505050565b610bc383838360405160240161128693929190613c81565b60408051601f198184030181529190526020810180516001600160e01b031663ca47c4eb60e01b179052611790565b600083821b81836112c9600180881b613be9565b901b19969096161795945050505050565b60006105cb8260a001516010600060086112f49190613c00565b6112ff906010613c00565b61130a906010613c00565b611315906008613c00565b610f8d565b60006105cb8260a001516010600060086113159190613c00565b60006105cb8260a0015160106000600861134e9190613c00565b611315906010613c00565b60606105cb82611aff565b60608282604051602001611379929190613ca6565b604051602081830303815290604052905092915050565b6113d3816040516024016113a49190613bd6565b60408051601f198184030181529190526020810180516001600160e01b031663104c13eb60e21b179052611790565b50565b6000806000806001905084602001516001600160a01b031686602001516001600160a01b031614801561141b5750845160ff166002148061141b5750845160ff166003145b1561178357600061142b87611b9b565b9050611465604051806040016040528060138152602001720b4b4b4b4b4b4b4b481a5914995c5d5a5c9959606a1b8152508260ff16610f44565b600061147088611bda565b9050801561153457604087015161149b57600061148e826001613c00565b9550955050505050611789565b6114c1604051806060016040528060268152602001613e7f602691398860400151610f44565b60006114da88604001518a611c5c90919063ffffffff16565b905060008112156114f45750929450909250611789915050565b60ff83166001141561150b5780945081935061152e565b60ff831661152e5761151e816001613c00565b945061152b826001613c00565b93505b50611780565b600061153f896121d7565b905061157d604051806060016040528060288152602001614088602891398260008151811061157057611570613acb565b6020026020010151610f44565b6115ac604051806060016040528060288152602001613f03602891398260018151811061157057611570613acb565b806000815181106115bf576115bf613acb565b6020026020010151600010801561160a5750806001815181106115e4576115e4613acb565b6020026020010151816000815181106115ff576115ff613acb565b602002602001015111155b1561177e57604088015161166e57600094508060008151811061162f5761162f613acb565b60200260200101518160018151811061164a5761164a613acb565b602002602001015161165c9190613be9565b611667906002613c00565b935061177e565b60ff8316600114156116f1578060008151811061168d5761168d613acb565b602002602001015188604001516116a49190613be9565b9450806000815181106116b9576116b9613acb565b6020026020010151816001815181106116d4576116d4613acb565b60200260200101516116e69190613be9565b611667906001613c00565b60ff831661177e578060008151811061170c5761170c613acb565b602002602001015188604001516117239190613be9565b61172e906001613c00565b94508060008151811061174357611743613acb565b60200260200101518160018151811061175e5761175e613acb565b60200260200101516117709190613be9565b61177b906002613c00565b93505b505b50505b90925090505b9250929050565b80516a636f6e736f6c652e6c6f67602083016000808483855afa5050505050565b60606105cb82612348565b60606105cb6117ca83612398565b612348565b606060006117dc836124d5565b9050610fa76117ed825160c0612606565b826127bc565b7aff00000000000000ff00000000000000ff00000000000000ff000063ffffffff60401b604083901c90811663ffffffff60c01b84161760201c63ffffffff60601b919091166001600160e01b031984161717601081901c91821678ff00000000000000ff00000000000000ff00000000000000ff60301b821617600890811c7bff00000000000000ff00000000000000ff00000000000000ff000000939093167fff00000000000000ff00000000000000ff00000000000000ff000000000000009290921691909117919091179081901c7e0f000f000f000f000f000f000f000f000f000f000f000f000f000f000f000f167f0f000f000f000f000f000f000f000f000f000f000f000f000f000f000f000f00600492831c161790611939827f0606060606060606060606060606060606060606060606060606060606060606613c00565b901c7f0f0f0f0f0f0f0f0f0f0f0f0f0f0f0f0f0f0f0f0f0f0f0f0f0f0f0f0f0f0f0f0f1660076119699190613aac565b611993827f3030303030303030303030303030303030303030303030303030303030303030613c00565b6105cb9190613c00565b60606119a882612839565b6119b157600080fd5b60006119bc83612872565b90506000816001600160401b038111156119d8576119d8612e14565b604051908082528060200260200182016040528015611a1d57816020015b60408051808201909152600080825260208201528152602001906001900390816119f65790505b5090506000611a2f85602001516128f5565b8560200151611a3e9190613c00565b90506000805b84811015611aa757611a5583612976565b9150604051806040016040528083815260200184815250848281518110611a7e57611a7e613acb565b6020908102919091010152611a938284613c00565b925080611a9f81613b77565b915050611a44565b509195945050505050565b805160009015801590611ac757508151602110155b611ad057600080fd5b600080611adc84612a1a565b8151919350915060208210156112665760208290036101000a9004949350505050565b60606000611b0c83612a61565b60010190506000816001600160401b03811115611b2b57611b2b612e14565b6040519080825280601f01601f191660200182016040528015611b55576020820181803683370190505b5090508181016020015b600019016f181899199a1a9b1b9c1cb0b131b232b360811b600a86061a8153600a8504945084611b8e57611b93565b611b5f565b509392505050565b60006105cb8260400151600081518110611bb757611bb7613acb565b6020026020010151600460ff1660006004611bd29190613ce2565b60ff16610f8d565b805160009060ff161580611bf25750815160ff166001145b15611bff57506000919050565b815160ff1660021480611c165750815160ff166003145b15611c54576000611c2683612b37565b905060ff811660011415611c4b576000611c3f84612b6a565b61ffff16949350505050565b50600092915050565b506000919050565b815160009060ff161580611c745750825160ff166001145b15611c8257506000196105cb565b825160ff1660031415611f9a576000611c9a84612b37565b905060ff811660011415611f8f576000611cb385612b6a565b905060008560400151600081518110611cce57611cce613acb565b6020026020010151905060008660400151600181518110611cf157611cf1613acb565b6020026020010151905060008760400151600281518110611d1457611d14613acb565b6020026020010151905060008860400151600381518110611d3757611d37613acb565b6020026020010151905060008960400151600081518110611d5a57611d5a613acb565b60200260200101818152505060008960400151600181518110611d7f57611d7f613acb565b60200260200101818152505060008960400151600281518110611da457611da4613acb565b60200260200101818152505060008960400151600381518110611dc957611dc9613acb565b6020026020010181815250506000611df68a60400151876004611dec9190613d07565b61ffff168b612bc9565b9050848a60400151600081518110611e1057611e10613acb565b602002602001018181525050838a60400151600181518110611e3457611e34613acb565b602002602001018181525050828a60400151600281518110611e5857611e58613acb565b602002602001018181525050818a60400151600381518110611e7c57611e7c613acb565b60200260200101818152505060006000199050898b604001518381518110611ea657611ea6613acb565b60200260200101511415611ec257611ebf600483613be9565b90505b611ee86040518060600160405280602f81526020016140b0602f91398c60200151612c87565b611f0a604051806060016040528060338152602001613f59603391398b610f44565b611f2c6040518060600160405280603481526020016141bc6034913983610f44565b611f5e6040518060600160405280603b81526020016141f0603b91398c60400151848151811061157057611570613acb565b611f8060405180606001604052806034815260200161422b6034913982610f44565b97506105cb9650505050505050565b6000199150506105cb565b825160ff16600214156121cd576000611fb284612b37565b905060ff811660011415611f8f576000611fcb85612b6a565b905060008560400151600081518110611fe657611fe6613acb565b602002602001015190506000866040015160018151811061200957612009613acb565b602002602001015190506000876040015160008151811061202c5761202c613acb565b6020026020010181815250506000876040015160018151811061205157612051613acb565b602002602001018181525050600061207e88604001518560026120749190613d07565b61ffff1689612bc9565b905082886040015160008151811061209857612098613acb565b6020026020010181815250508188604001516001815181106120bc576120bc613acb565b6020026020010181815250506000600019905087896040015183815181106120e6576120e6613acb565b60200260200101511415612102576120ff600483613be9565b90505b6121286040518060600160405280602e8152602001613f2b602e91398a60200151612c87565b61214a6040518060600160405280603281526020016142946032913989610f44565b61216c6040518060600160405280603381526020016141326033913983610f44565b61219e6040518060600160405280603a8152602001613fae603a91398a60400151848151811061157057611570613acb565b6121c06040518060600160405280603381526020016140286033913982610f44565b95506105cb945050505050565b5060001992915050565b6040805160028082526060808301845292600092919060208301908036833701905050835190915060ff16600214156122a257600061221584612b37565b905060ff811661229c57836040015160028151811061223657612236613acb565b60200260200101518260008151811061225157612251613acb565b602002602001018181525050836040015160038151811061227457612274613acb565b60200260200101518260018151811061228f5761228f613acb565b6020026020010181815250505b506105cb565b825160ff16600314156105cb5760006122ba84612b37565b905060ff81166123415783604001516004815181106122db576122db613acb565b6020026020010151826000815181106122f6576122f6613acb565b602002602001018181525050836040015160058151811061231957612319613acb565b60200260200101518260018151811061233457612334613acb565b6020026020010181815250505b5092915050565b60608082516001148015612377575060808360008151811061236c5761236c613acb565b016020015160f81c11155b156123835750816105cb565b610fa761239284516080612606565b846127bc565b6040805160208082528183019092526060916000919060208201818036833701905050905082602082015260005b602081101561240c578181815181106123e1576123e1613acb565b01602001516001600160f81b031916156123fa5761240c565b8061240481613b77565b9150506123c6565b6000612419826020613be9565b6001600160401b0381111561243057612430612e14565b6040519080825280601f01601f19166020018201604052801561245a576020820181803683370190505b50905060005b81518110156124cc57838361247481613b77565b94508151811061248657612486613acb565b602001015160f81c60f81b8282815181106124a3576124a3613acb565b60200101906001600160f81b031916908160001a905350806124c481613b77565b915050612460565b50949350505050565b60608151600014156124f7576040805160008082526020820190925290612341565b6000805b835181101561253e5783818151811061251657612516613acb565b6020026020010151518261252a9190613c00565b91508061253681613b77565b9150506124fb565b6000826001600160401b0381111561255857612558612e14565b6040519080825280601f01601f191660200182016040528015612582576020820181803683370190505b50600092509050602081015b85518310156124cc5760008684815181106125ab576125ab613acb565b6020026020010151905060006020820190506125c983828451612ccc565b8785815181106125db576125db613acb565b602002602001015151836125ef9190613c00565b9250505082806125fe90613b77565b93505061258e565b6060806038841015612670576040805160018082528183019092529060208201818036833701905050905061263b8385613c00565b601f1a60f81b8160008151811061265457612654613acb565b60200101906001600160f81b031916908160001a905350610fa7565b600060015b61267f8187613a98565b156126a5578161268e81613b77565b925061269e905061010082613aac565b9050612675565b6126b0826001613c00565b6001600160401b038111156126c7576126c7612e14565b6040519080825280601f01601f1916602001820160405280156126f1576020820181803683370190505b5092506126fe8583613c00565b612709906037613c00565b601f1a60f81b8360008151811061272257612722613acb565b60200101906001600160f81b031916908160001a905350600190505b8181116127b3576101006127528284613be9565b61275e90610100613e11565b6127689088613a98565b6127729190613e1d565b601f1a60f81b83828151811061278a5761278a613acb565b60200101906001600160f81b031916908160001a905350806127ab81613b77565b91505061273e565b50509392505050565b6060806040519050835180825260208201818101602087015b818310156127ed5780518352602092830192016127d5565b50855184518101855292509050808201602086015b8183101561281a578051835260209283019201612802565b508651929092011591909101601f01601f191660405250905092915050565b805160009061284a57506000919050565b6020820151805160001a9060c0821015612868575060009392505050565b5060019392505050565b805160009061288357506000919050565b60008061289384602001516128f5565b84602001516128a29190613c00565b90506000846000015185602001516128ba9190613c00565b90505b808210156128ec576128ce82612976565b6128d89083613c00565b9150826128e481613b77565b9350506128bd565b50909392505050565b8051600090811a608081101561290e5750600092915050565b60b8811080612929575060c08110801590612929575060f881105b156129375750600192915050565b60c08110156129645761294c600160b8613e31565b6129599060ff1682613be9565b610fa7906001613c00565b61294c600160f8613e31565b50919050565b80516000908190811a60808110156129915760019150612341565b60b88110156129b7576129a5608082613be9565b6129b0906001613c00565b9150612341565b60c08110156129e45760b78103600185019450806020036101000a85510460018201810193505050612341565b60f88110156129f8576129a560c082613be9565b60019390930151602084900360f7016101000a900490920160f5190192915050565b6000806000612a2c84602001516128f5565b90506000818560200151612a409190613c00565b90506000828660000151612a549190613be9565b9196919550909350505050565b60008072184f03e93ff9f4daa797ed6e38ed64bf6a1f0160401b8310612aa05772184f03e93ff9f4daa797ed6e38ed64bf6a1f0160401b830492506040015b6904ee2d6d415b85acef8160201b8310612aca576904ee2d6d415b85acef8160201b830492506020015b662386f26fc100008310612ae857662386f26fc10000830492506010015b6305f5e1008310612b00576305f5e100830492506008015b6127108310612b1457612710830492506004015b60648310612b26576064830492506002015b600a83106105cb5760010192915050565b60006105cb8260400151600081518110612b5357612b53613acb565b6020026020010151600460ff16600060ff16610f8d565b805160009060ff1660021480612b845750815160ff166003145b15611c54576105cb8260400151600081518110612ba357612ba3613acb565b6020026020010151601060ff1660006004612bbe9190613ce2565b611bd2906004613ce2565b6000835160001415612bdd57506000610fa7565b6000835b80821015612c34576000612bf58383612d44565b905084878281518110612c0a57612c0a613acb565b60200260200101511115612c2057809150612c2e565b612c2b816001613c00565b92505b50612be1565b600082118015612c6657508386612c4c600185613be9565b81518110612c5c57612c5c613acb565b6020026020010151145b15612c7f57612c76600183613be9565b92505050610fa7565b509050610fa7565b610f898282604051602401612c9d929190613e54565b60408051601f198184030181529190526020810180516001600160e01b031663319af33360e01b179052611790565b8282825b60208110612d085781518352612ce7602084613c00565b9250612cf4602083613c00565b9150612d01602082613be9565b9050612cd0565b60006001612d17836020613be9565b612d2390610100613e11565b612d2d9190613be9565b925184518416931916929092179092525050505050565b6000612d536002848418613a98565b610fa790848416613c00565b828054828255906000526020600020908101928215612d9a579160200282015b82811115612d9a578251825591602001919060010190612d7f565b50612da6929150612dff565b5090565b828054828255906000526020600020908101928215612d9a579160200282015b82811115612d9a57825182546001600160a01b0319166001600160a01b03909116178255602090920191600190910190612dca565b5b80821115612da65760008155600101612e00565b634e487b7160e01b600052604160045260246000fd5b604051608081016001600160401b0381118282101715612e4c57612e4c612e14565b60405290565b604051606081016001600160401b0381118282101715612e4c57612e4c612e14565b60405160a081016001600160401b0381118282101715612e4c57612e4c612e14565b604080519081016001600160401b0381118282101715612e4c57612e4c612e14565b60405161016081016001600160401b0381118282101715612e4c57612e4c612e14565b60405161018081016001600160401b0381118282101715612e4c57612e4c612e14565b604051601f8201601f191681016001600160401b0381118282101715612f2657612f26612e14565b604052919050565b60006001600160401b03821115612f4757612f47612e14565b5060051b60200190565b60ff811681146113d357600080fd5b8035612f6b81612f51565b919050565b6001600160a01b03811681146113d357600080fd5b8035612f6b81612f70565b600082601f830112612fa157600080fd5b81356020612fb6612fb183612f2e565b612efe565b82815260059290921b84018101918181019086841115612fd557600080fd5b8286015b84811015612ff05780358352918301918301612fd9565b509695505050505050565b600082601f83011261300c57600080fd5b8135602061301c612fb183612f2e565b82815260059290921b8401810191818101908684111561303b57600080fd5b8286015b84811015612ff057803561305281612f70565b835291830191830161303f565b600082601f83011261307057600080fd5b81356020613080612fb183612f2e565b82815260059290921b8401810191818101908684111561309f57600080fd5b8286015b84811015612ff05780356001600160401b03808211156130c257600080fd5b90880190601f196080838c03820112156130db57600080fd5b6130e3612e2a565b87840135838111156130f457600080fd5b84016060818e038401121561310857600080fd5b613110612e52565b92508881013561311f81612f51565b835260408181013561313081612f70565b848b015260608201358581111561314657600080fd5b6131548f8c83860101612f90565b8286015250838352613167818701612f60565b8a840152606086013593508484111561317f57600080fd5b61318d8e8b86890101612ffb565b908301525060808401359150828211156131a657600080fd5b6131b48c8984870101612f90565b606082015286525050509183019183016130a3565b803563ffffffff81168114612f6b57600080fd5b600082601f8301126131ee57600080fd5b813560206131fe612fb183612f2e565b82815260059290921b8401810191818101908684111561321d57600080fd5b8286015b84811015612ff05780356001600160401b038082111561324057600080fd5b9088019060a0828b03601f1901121561325857600080fd5b613260612e74565b8683013561326d81612f51565b815260408381013561327e81612f70565b828901526060848101358284015260808501359083015260a0840135838111156132a85760008081fd5b8085019450508b603f8501126132c057600092508283fd5b8784013592506132d2612fb184612f2e565b83815260069390931b8401810192888101908d8511156132f25760008081fd5b948201945b848610156133495782868f03121561330f5760008081fd5b613317612e96565b613320876131c9565b81528a8701358060040b81146133365760008081fd5b818c0152825294820194908901906132f7565b6080840152505085525050918301918301613221565b803561ffff81168114612f6b57600080fd5b6000806000806080858703121561338757600080fd5b84356001600160401b038082111561339e57600080fd5b6133aa8883890161305f565b955060208701359150808211156133c057600080fd5b506133cd878288016131dd565b9350506133dc6040860161335f565b9396929550929360600135925050565b600082601f8301126133fd57600080fd5b81356001600160401b0381111561341657613416612e14565b613429601f8201601f1916602001612efe565b81815284602083860101111561343e57600080fd5b816020850160208301376000918101602001919091529392505050565b80356001600160801b0381168114612f6b57600080fd5b6000806040838503121561348557600080fd5b82356001600160401b038082111561349c57600080fd5b9084019061016082870312156134b157600080fd5b6134b9612eb8565b6134c283612f85565b81526134d060208401612f85565b60208201526134e1604084016131c9565b60408201526134f26060840161335f565b60608201526135036080840161335f565b608082015261351460a08401612f60565b60a082015261352560c08401612f85565b60c082015261353660e084016131c9565b60e0820152610100613549818501612f85565b9082015261012061355b848201612f60565b90820152610140838101358381111561357357600080fd5b61357f898287016133ec565b8284015250508094505050506135976020840161345b565b90509250929050565b60005b838110156135bb5781810151838201526020016135a3565b838111156135ca576000848401525b50505050565b600081518084526135e88160208601602086016135a0565b601f01601f19169290920160200192915050565b6000602080830181845280855180835260408601915060408160051b870101925083870160005b8281101561365157603f1988860301845261363f8583516135d0565b94509285019290850190600101613623565b5092979650505050505050565b600080600080600060a0868803121561367657600080fd5b853561368181612f70565b945061368f602087016131c9565b935061369d6040870161335f565b92506136ab6060870161335f565b915060808601356001600160401b038111156136c657600080fd5b6136d2888289016133ec565b9150509295509295909350565b6000602082840312156136f157600080fd5b81356001600160401b038082111561370857600080fd5b9083019060a0828603121561371c57600080fd5b613724612e74565b823561372f81612f70565b8152602083013561373f81612f70565b6020820152604083013561375281612f70565b604082015260608301358281111561376957600080fd5b8301610180818803121561377c57600080fd5b613784612edb565b61378d82612f85565b815261379b60208301612f85565b60208201526137ac60408301612f85565b60408201526137bd60608301612f85565b60608201526080820135608082015260a082013560a08201526137e260c083016131c9565b60c08201526137f360e083016131c9565b60e08201526101006138068184016131c9565b90820152610120613818838201612f60565b90820152610140828101358581111561383057600080fd5b61383c8a8286016131dd565b828401525050610160808301358581111561385657600080fd5b6138628a8286016133ec565b828401525050806060840152505061387c60808401612f60565b608082015295945050505050565b600082601f83011261389b57600080fd5b813560206138ab612fb183612f2e565b82815260059290921b840181019181810190868411156138ca57600080fd5b8286015b84811015612ff05780356001600160401b038111156138ed5760008081fd5b6138fb8986838b01016133ec565b8452509183019183016138ce565b6000806040838503121561391c57600080fd5b82356001600160401b038082111561393357600080fd5b9084019060a0828703121561394757600080fd5b61394f612e74565b82358281111561395e57600080fd5b61396a8882860161305f565b82525061397960208401612f60565b602082015261398a60408401612f85565b60408201526060830135828111156139a157600080fd5b6139ad88828601612ffb565b6060830152506080830135828111156139c557600080fd5b6139d18882860161388a565b6080830152509660209590950135955050505050565b600080600080600060a086880312156139ff57600080fd5b85356001600160401b0380821115613a1657600080fd5b613a2289838a0161305f565b96506020880135915080821115613a3857600080fd5b50613a45888289016131dd565b945050613a546040870161335f565b94979396509394606081013594506080013592915050565b634e487b7160e01b600052601260045260246000fd5b634e487b7160e01b600052601160045260246000fd5b600082613aa757613aa7613a6c565b500490565b6000816000190483118215151615613ac657613ac6613a82565b500290565b634e487b7160e01b600052603260045260246000fd5b600060208284031215613af357600080fd5b8151610fa781612f70565b805160208083015191908110156129705760001960209190910360031b1b16919050565b6001600160a01b0395909516855263ffffffff93909316602085015261ffff9182166040850152166060830152608082015260a00190565b600060208284031215613b6c57600080fd5b8151610fa781612f51565b6000600019821415613b8b57613b8b613a82565b5060010190565b6020808252825182820181905260009190848201906040850190845b81811015613bca57835183529284019291840191600101613bae565b50909695505050505050565b602081526000610fa760208301846135d0565b600082821015613bfb57613bfb613a82565b500390565b60008219821115613c1357613c13613a82565b500190565b604081526000613c2b60408301856135d0565b90508260208301529392505050565b600060208284031215613c4c57600080fd5b5051919050565b604081526000613c6660408301856135d0565b8281036020840152613c7881856135d0565b95945050505050565b606081526000613c9460608301866135d0565b60208301949094525060400152919050565b60008351613cb88184602088016135a0565b600b60fa1b9083019081528351613cd68160018401602088016135a0565b01600101949350505050565b600060ff821660ff84168060ff03821115613cff57613cff613a82565b019392505050565b600061ffff808316818516808303821115613d2457613d24613a82565b01949350505050565b600181815b80851115613d68578160001904821115613d4e57613d4e613a82565b80851615613d5b57918102915b93841c9390800290613d32565b509250929050565b600082613d7f575060016105cb565b81613d8c575060006105cb565b8160018114613da25760028114613dac57613dc8565b60019150506105cb565b60ff841115613dbd57613dbd613a82565b50506001821b6105cb565b5060208310610133831016604e8410600b8410161715613deb575081810a6105cb565b613df58383613d2d565b8060001904821115613e0957613e09613a82565b029392505050565b6000610fa78383613d70565b600082613e2c57613e2c613a6c565b500690565b600060ff821660ff841680821015613e4b57613e4b613a82565b90039392505050565b604081526000613e6760408301856135d0565b905060018060a01b0383166020830152939250505056fe2d2d2d2d2d2d20676574546f6b656e4964496e6465782073656172636820746f6b656e2e69642d2d2d2d2d2d20676574416c6c6f636174654c61796572537461746520636c757374657252756c65546f6b656e4964486173682d2d2d2d2d2d20676574416c6c6f636174654c61796572537461746520746f6b656e4964536574486173682d2d2d2d2d2d2d2d20676574546f6b656e496e646578206e667420737464496452616e67655b315d2d2d2d2d2d2d2d2d2d2d2d2d2d2045524337323120546f6b656e2062696e6172792073656172636820746f6b656e2d2d2d2d2d2d2d2d2d2d2d2d2d204552433131353520546f6b656e2062696e617279207365617263682066696e64696e6749642d2d2d2d2d2d20636865636b546f6b656e4964536574206d656d546f6b656e2e69642d2d2d2d2d2d2d2d2d2d2d2d2d2045524337323120546f6b656e2062696e617279207365617263682066696e642076616c75655b696e6465785d2d2d2d2d2d2d2d2d2d2d2d2d20534c205f75706461746541726773206578656375746531303053776974636820257320747269616c4d6178436f756e742054732d2d2d2d2d2d2d2d2d2d2d2d2d2045524337323120546f6b656e2062696e617279207365617263682066696e6420666f756e642d2d2d2d2d2d2d2d20746f6b656e4964496e6465782a6d756c4c656e677468202b2073756d49644c656e6774682d2d2d2d2d2d2d2d20676574546f6b656e496e646578206e667420737464496452616e67655b305d2d2d2d2d2d2d2d2d2d2d2d2d2d204552433131353520546f6b656e2062696e6172792073656172636820746f6b656e2d2d2d2d2d2d20636865636b546f6b656e496453657420746f6b656e49644c6973742e6c656e6774682d2d2d2d2d2d20636865636b546f6b656e496453657420746f6b656e536c6f744c6973744c656e6774682d2d2d2d2d2d2d2d2d2d2d2d2d2045524337323120546f6b656e2062696e617279207365617263682066696e6420696e646578616c6c6f63617465206c6179657220746f6b656e207365742064697361626c6520656e6420746f6b656e536c6f74496e64657820692d2d2d2d2d2d2d2d2d2d2d2d20636865636b546f6b656e49645365742073746174652d2d2d2d2d2d2d2d2d2d2d2d2d204552433131353520546f6b656e2062696e617279207365617263682066696e6420696e6465782d2d2d2d2d2d2d2d2d2d2d2d2d204552433131353520546f6b656e2062696e617279207365617263682066696e642076616c75655b696e6465785d2d2d2d2d2d2d2d2d2d2d2d2d2d204552433131353520546f6b656e2062696e617279207365617263682066696e6420666f756e642d2d2d2d2d2d2d2d2d2d2d2d2d2d2d2d2d20416c6c6f636174654c6179657248616e646c65722072656752756c65202d2d2d2d20312d2d2d2d2d2d2d2d2d2d2d2d2d2045524337323120546f6b656e2062696e617279207365617263682066696e64696e6749642d2d2d2d2d2d2d2d2d2d2d2067656e546f6b656e49642073756d49644c656e677468a2646970667358221220ffba623af6c041bdad783561bcade8b2f71faaa94c5e23ba74fdb6cdf11e5ce364736f6c63430008080033",
  "linkReferences": {},
  "deployedLinkReferences": {}
}