{
  "_format": "hh-sol-artifact-1",
  "contractName": "AllocateLimitHandlerLib",
  "sourceName": "contracts/V3/handler/AllocateLimitHandlerLib.sol",
  "abi": [
    {
      "inputs": [
        {
          "components": [
            {
              "internalType": "address",
              "name": "engine",
              "type": "address"
            },
            {
              "internalType": "address",
              "name": "clusterArea",
              "type": "address"
            },
            {
              "internalType": "uint32",
              "name": "clusterId",
              "type": "uint32"
            },
            {
              "internalType": "uint16",
              "name": "ruleSlotIndexInput",
              "type": "uint16"
            },
            {
              "internalType": "uint16",
              "name": "ruleSlotIndexOutput",
              "type": "uint16"
            },
            {
              "internalType": "uint8",
              "name": "branch",
              "type": "uint8"
            },
            {
              "internalType": "address",
              "name": "stateCounter",
              "type": "address"
            },
            {
              "internalType": "uint32",
              "name": "taskId",
              "type": "uint32"
            },
            {
              "internalType": "address",
              "name": "caller",
              "type": "address"
            },
            {
              "internalType": "uint8",
              "name": "cmd",
              "type": "uint8"
            },
            {
              "internalType": "bytes",
              "name": "args",
              "type": "bytes"
            }
          ],
          "internalType": "struct Handler.StateParams",
          "name": "params",
          "type": "tuple"
        },
        {
          "internalType": "uint128",
          "name": "ruleConfig",
          "type": "uint128"
        },
        {
          "internalType": "uint256",
          "name": "timesLeft",
          "type": "uint256"
        },
        {
          "internalType": "uint256",
          "name": "timesTotal",
          "type": "uint256"
        }
      ],
      "name": "getAllocateLimitState",
      "outputs": [
        {
          "internalType": "bytes[]",
          "name": "",
          "type": "bytes[]"
        }
      ],
      "stateMutability": "view",
      "type": "function"
    }
  ],
  "bytecode": "0x6111b161003a600b82828239805160001a60731461002d57634e487b7160e01b600052600060045260246000fd5b30600052607381538281f3fe73000000000000000000000000000000000000000030146080604052600436106100355760003560e01c8063206d9d401461003a575b600080fd5b61004d610048366004610d5e565b610063565b60405161005a9190610ee8565b60405180910390f35b6060600061007d856001600160801b03166008600061024c565b60408051600580825260c0820190925291925060009190816020015b60608152602001906001900390816100995790505090506100e66040518060400160405280600e81526020016d0626c6f636b54696d657374616d760941b8152504263ffffffff1661026b565b816000815181106100f9576100f9610f4a565b602002602001018190525061013e6040518060400160405280600b81526020016a313637b1b5a73ab6b132b960a91b81525061013361038d565b63ffffffff1661026b565b8160018151811061015157610151610f4a565b60200260200101819052506101916040518060400160405280601081526020016f0caf0cac6eae8ca626060a6eed2e8c6d60831b8152508360ff1661026b565b816002815181106101a4576101a4610f4a565b60200260200101819052506101da604051806040016040528060098152602001681d1a5b595cd319599d60ba1b8152508661026b565b816003815181106101ed576101ed610f4a565b60200260200101819052506102246040518060400160405280600a8152602001691d1a5b595cd51bdd185b60b21b8152508561026b565b8160048151811061023757610237610f4a565b60209081029190910101529695505050505050565b91821c91600080610260600180861b610f76565b909416949350505050565b6060600061027884610419565b9050600061028584610424565b90506102c86040518060400160405280600e81526020016d0b4b4b4b4b4b4b481d1bd55a5b9d60921b8152506102c3836102be90610f8d565b610437565b610483565b60408051600380825260808201909252600091816020015b60608152602001906001900390816102e0579050509050828160008151811061030b5761030b610f4a565b602002602001018190525061033b604051806040016040528060048152602001631d5a5b9d60e21b815250610419565b8160018151811061034e5761034e610f4a565b6020026020010181905250818160028151811061036d5761036d610f4a565b6020026020010181905250610381816104cc565b93505050505b92915050565b60004661a4b18114156104125760646001600160a01b031663a3b1b31d6040518163ffffffff1660e01b815260040160206040518083038186803b1580156103d457600080fd5b505afa1580156103e8573d6000803e3d6000fd5b505050506040513d601f19601f8201168201806040525081019061040c9190610fb4565b91505090565b4391505090565b6060610387826104f7565b606061038761043283610547565b6104f7565b606061044282610684565b61044f608084901b610684565b60405161060f60f31b6020820152602281019290925260428201526062016040516020818303038152906040529050919050565b6104c88282604051602401610499929190610fcd565b60408051601f198184030181529190526020810180516001600160e01b0316634b5c427760e01b17905261082e565b5050565b606060006104d98361084f565b90506104f06104ea825160c061097e565b82610b34565b9392505050565b60608082516001148015610526575060808360008151811061051b5761051b610f4a565b016020015160f81c11155b15610532575081610387565b6104f06105418451608061097e565b84610b34565b6040805160208082528183019092526060916000919060208201818036833701905050905082602082015260005b60208110156105bb5781818151811061059057610590610f4a565b01602001516001600160f81b031916156105a9576105bb565b806105b381610ffb565b915050610575565b60006105c8826020610f76565b6001600160401b038111156105df576105df610c29565b6040519080825280601f01601f191660200182016040528015610609576020820181803683370190505b50905060005b815181101561067b57838361062381610ffb565b94508151811061063557610635610f4a565b602001015160f81c60f81b82828151811061065257610652610f4a565b60200101906001600160f81b031916908160001a9053508061067381610ffb565b91505061060f565b50949350505050565b7aff00000000000000ff00000000000000ff00000000000000ff000063ffffffff60401b604083901c90811663ffffffff60c01b84161760201c63ffffffff60601b919091166001600160e01b031984161717601081901c91821678ff00000000000000ff00000000000000ff00000000000000ff60301b821617600890811c7bff00000000000000ff00000000000000ff00000000000000ff000000939093167fff00000000000000ff00000000000000ff00000000000000ff000000000000009290921691909117919091179081901c7e0f000f000f000f000f000f000f000f000f000f000f000f000f000f000f000f167f0f000f000f000f000f000f000f000f000f000f000f000f000f000f000f000f00600492831c1617906107ca827f0606060606060606060606060606060606060606060606060606060606060606611016565b901c7f0f0f0f0f0f0f0f0f0f0f0f0f0f0f0f0f0f0f0f0f0f0f0f0f0f0f0f0f0f0f0f0f1660076107fa919061102e565b610824827f3030303030303030303030303030303030303030303030303030303030303030611016565b6103879190611016565b80516a636f6e736f6c652e6c6f67602083016000808483855afa5050505050565b606081516000141561086f57505060408051600081526020810190915290565b6000805b83518110156108b65783818151811061088e5761088e610f4a565b602002602001015151826108a29190611016565b9150806108ae81610ffb565b915050610873565b6000826001600160401b038111156108d0576108d0610c29565b6040519080825280601f01601f1916602001820160405280156108fa576020820181803683370190505b50600092509050602081015b855183101561067b57600086848151811061092357610923610f4a565b60200260200101519050600060208201905061094183828451610bb1565b87858151811061095357610953610f4a565b602002602001015151836109679190611016565b92505050828061097690610ffb565b935050610906565b60608060388410156109e857604080516001808252818301909252906020820181803683370190505090506109b38385611016565b601f1a60f81b816000815181106109cc576109cc610f4a565b60200101906001600160f81b031916908160001a9053506104f0565b600060015b6109f78187611063565b15610a1d5781610a0681610ffb565b9250610a1690506101008261102e565b90506109ed565b610a28826001611016565b6001600160401b03811115610a3f57610a3f610c29565b6040519080825280601f01601f191660200182016040528015610a69576020820181803683370190505b509250610a768583611016565b610a81906037611016565b601f1a60f81b83600081518110610a9a57610a9a610f4a565b60200101906001600160f81b031916908160001a905350600190505b818111610b2b57610100610aca8284610f76565b610ad69061010061115b565b610ae09088611063565b610aea9190611167565b601f1a60f81b838281518110610b0257610b02610f4a565b60200101906001600160f81b031916908160001a90535080610b2381610ffb565b915050610ab6565b50509392505050565b6060806040519050835180825260208201818101602087015b81831015610b65578051835260209283019201610b4d565b50855184518101855292509050808201602086015b81831015610b92578051835260209283019201610b7a565b508651929092011591909101601f01601f191660405250905092915050565b8282825b60208110610bed5781518352610bcc602084611016565b9250610bd9602083611016565b9150610be6602082610f76565b9050610bb5565b60006001610bfc836020610f76565b610c089061010061115b565b610c129190610f76565b925184518416931916929092179092525050505050565b634e487b7160e01b600052604160045260246000fd5b60405161016081016001600160401b0381118282101715610c6257610c62610c29565b60405290565b80356001600160a01b0381168114610c7f57600080fd5b919050565b803563ffffffff81168114610c7f57600080fd5b803561ffff81168114610c7f57600080fd5b803560ff81168114610c7f57600080fd5b600082601f830112610ccc57600080fd5b81356001600160401b0380821115610ce657610ce6610c29565b604051601f8301601f19908116603f01168101908282118183101715610d0e57610d0e610c29565b81604052838152866020858801011115610d2757600080fd5b836020870160208301376000602085830101528094505050505092915050565b80356001600160801b0381168114610c7f57600080fd5b60008060008060808587031215610d7457600080fd5b84356001600160401b0380821115610d8b57600080fd5b908601906101608289031215610da057600080fd5b610da8610c3f565b610db183610c68565b8152610dbf60208401610c68565b6020820152610dd060408401610c84565b6040820152610de160608401610c98565b6060820152610df260808401610c98565b6080820152610e0360a08401610caa565b60a0820152610e1460c08401610c68565b60c0820152610e2560e08401610c84565b60e0820152610100610e38818501610c68565b90820152610120610e4a848201610caa565b908201526101408381013583811115610e6257600080fd5b610e6e8b828701610cbb565b828401525050809650505050610e8660208601610d47565b93969395505050506040820135916060013590565b6000815180845260005b81811015610ec157602081850181015186830182015201610ea5565b81811115610ed3576000602083870101525b50601f01601f19169290920160200192915050565b6000602080830181845280855180835260408601915060408160051b870101925083870160005b82811015610f3d57603f19888603018452610f2b858351610e9b565b94509285019290850190600101610f0f565b5092979650505050505050565b634e487b7160e01b600052603260045260246000fd5b634e487b7160e01b600052601160045260246000fd5b600082821015610f8857610f88610f60565b500390565b80516020808301519190811015610fae576000198160200360031b1b821691505b50919050565b600060208284031215610fc657600080fd5b5051919050565b604081526000610fe06040830185610e9b565b8281036020840152610ff28185610e9b565b95945050505050565b600060001982141561100f5761100f610f60565b5060010190565b6000821982111561102957611029610f60565b500190565b600081600019048311821515161561104857611048610f60565b500290565b634e487b7160e01b600052601260045260246000fd5b6000826110725761107261104d565b500490565b600181815b808511156110b257816000190482111561109857611098610f60565b808516156110a557918102915b93841c939080029061107c565b509250929050565b6000826110c957506001610387565b816110d657506000610387565b81600181146110ec57600281146110f657611112565b6001915050610387565b60ff84111561110757611107610f60565b50506001821b610387565b5060208310610133831016604e8410600b8410161715611135575081810a610387565b61113f8383611077565b806000190482111561115357611153610f60565b029392505050565b60006104f083836110ba565b6000826111765761117661104d565b50069056fea264697066735822122025430425c84b80646f9301507151b218f5193c66e3385730859cbdbc50bd421964736f6c63430008080033",
  "linkReferences": {},
  "deployedLinkReferences": {}
}