{
  "_format": "hh-sol-artifact-1",
  "contractName": "PoolFee",
  "sourceName": "contracts/V3/PoolFee.sol",
  "abi": [
    {
      "anonymous": false,
      "inputs": [
        {
          "indexed": true,
          "internalType": "address",
          "name": "sender",
          "type": "address"
        },
        {
          "indexed": true,
          "internalType": "address",
          "name": "handler",
          "type": "address"
        },
        {
          "indexed": true,
          "internalType": "address",
          "name": "clusterAdmin",
          "type": "address"
        },
        {
          "indexed": false,
          "internalType": "uint32",
          "name": "clusterId",
          "type": "uint32"
        },
        {
          "indexed": false,
          "internalType": "uint16",
          "name": "ruleSlotIndexInput",
          "type": "uint16"
        },
        {
          "indexed": false,
          "internalType": "uint16",
          "name": "ruleSlotIndexOutput",
          "type": "uint16"
        },
        {
          "indexed": false,
          "internalType": "uint256",
          "name": "totalCallGas",
          "type": "uint256"
        },
        {
          "indexed": false,
          "internalType": "uint256",
          "name": "weiValue",
          "type": "uint256"
        }
      ],
      "name": "Bill",
      "type": "event"
    },
    {
      "anonymous": false,
      "inputs": [
        {
          "indexed": true,
          "internalType": "address",
          "name": "sender",
          "type": "address"
        },
        {
          "indexed": false,
          "internalType": "uint32",
          "name": "clusterId",
          "type": "uint32"
        },
        {
          "indexed": false,
          "internalType": "uint256",
          "name": "weiValue",
          "type": "uint256"
        }
      ],
      "name": "Deposit",
      "type": "event"
    },
    {
      "anonymous": false,
      "inputs": [
        {
          "indexed": true,
          "internalType": "address",
          "name": "sender",
          "type": "address"
        },
        {
          "indexed": true,
          "internalType": "address",
          "name": "handler",
          "type": "address"
        },
        {
          "indexed": false,
          "internalType": "uint8",
          "name": "channel",
          "type": "uint8"
        },
        {
          "indexed": false,
          "internalType": "uint256",
          "name": "weiValue",
          "type": "uint256"
        },
        {
          "indexed": false,
          "internalType": "uint256",
          "name": "totalCallGas",
          "type": "uint256"
        }
      ],
      "name": "DepositHandler",
      "type": "event"
    },
    {
      "anonymous": false,
      "inputs": [
        {
          "indexed": false,
          "internalType": "uint8",
          "name": "version",
          "type": "uint8"
        }
      ],
      "name": "Initialized",
      "type": "event"
    },
    {
      "anonymous": false,
      "inputs": [
        {
          "indexed": true,
          "internalType": "address",
          "name": "previousOwner",
          "type": "address"
        },
        {
          "indexed": true,
          "internalType": "address",
          "name": "newOwner",
          "type": "address"
        }
      ],
      "name": "OwnershipTransferred",
      "type": "event"
    },
    {
      "anonymous": false,
      "inputs": [
        {
          "indexed": true,
          "internalType": "bytes32",
          "name": "role",
          "type": "bytes32"
        },
        {
          "indexed": true,
          "internalType": "bytes32",
          "name": "previousAdminRole",
          "type": "bytes32"
        },
        {
          "indexed": true,
          "internalType": "bytes32",
          "name": "newAdminRole",
          "type": "bytes32"
        }
      ],
      "name": "RoleAdminChanged",
      "type": "event"
    },
    {
      "anonymous": false,
      "inputs": [
        {
          "indexed": true,
          "internalType": "bytes32",
          "name": "role",
          "type": "bytes32"
        },
        {
          "indexed": true,
          "internalType": "address",
          "name": "account",
          "type": "address"
        },
        {
          "indexed": true,
          "internalType": "address",
          "name": "sender",
          "type": "address"
        }
      ],
      "name": "RoleGranted",
      "type": "event"
    },
    {
      "anonymous": false,
      "inputs": [
        {
          "indexed": true,
          "internalType": "bytes32",
          "name": "role",
          "type": "bytes32"
        },
        {
          "indexed": true,
          "internalType": "address",
          "name": "account",
          "type": "address"
        },
        {
          "indexed": true,
          "internalType": "address",
          "name": "sender",
          "type": "address"
        }
      ],
      "name": "RoleRevoked",
      "type": "event"
    },
    {
      "anonymous": false,
      "inputs": [
        {
          "indexed": true,
          "internalType": "address",
          "name": "sender",
          "type": "address"
        },
        {
          "indexed": false,
          "internalType": "uint256",
          "name": "weiValue",
          "type": "uint256"
        }
      ],
      "name": "WithdrawClusterAdminDeposit",
      "type": "event"
    },
    {
      "anonymous": false,
      "inputs": [
        {
          "indexed": true,
          "internalType": "address",
          "name": "sender",
          "type": "address"
        },
        {
          "indexed": true,
          "internalType": "address",
          "name": "handler",
          "type": "address"
        },
        {
          "indexed": false,
          "internalType": "uint256",
          "name": "weiValue",
          "type": "uint256"
        }
      ],
      "name": "WithdrawHandler",
      "type": "event"
    },
    {
      "inputs": [],
      "name": "BILL_ROLE",
      "outputs": [
        {
          "internalType": "bytes32",
          "name": "",
          "type": "bytes32"
        }
      ],
      "stateMutability": "view",
      "type": "function"
    },
    {
      "inputs": [],
      "name": "DEFAULT_ADMIN_ROLE",
      "outputs": [
        {
          "internalType": "bytes32",
          "name": "",
          "type": "bytes32"
        }
      ],
      "stateMutability": "view",
      "type": "function"
    },
    {
      "inputs": [
        {
          "internalType": "address",
          "name": "handler",
          "type": "address"
        },
        {
          "internalType": "address",
          "name": "clusterAdmin",
          "type": "address"
        },
        {
          "internalType": "uint32",
          "name": "clusterId",
          "type": "uint32"
        },
        {
          "internalType": "uint16",
          "name": "ruleSlotIndexInput",
          "type": "uint16"
        },
        {
          "internalType": "uint16",
          "name": "ruleSlotIndexOutput",
          "type": "uint16"
        },
        {
          "internalType": "uint256",
          "name": "totalCallGas",
          "type": "uint256"
        }
      ],
      "name": "bill",
      "outputs": [],
      "stateMutability": "nonpayable",
      "type": "function"
    },
    {
      "inputs": [
        {
          "internalType": "address",
          "name": "handler",
          "type": "address"
        },
        {
          "internalType": "uint256",
          "name": "totalCallGas",
          "type": "uint256"
        }
      ],
      "name": "calFee",
      "outputs": [
        {
          "internalType": "uint256",
          "name": "",
          "type": "uint256"
        }
      ],
      "stateMutability": "nonpayable",
      "type": "function"
    },
    {
      "inputs": [
        {
          "internalType": "address",
          "name": "",
          "type": "address"
        }
      ],
      "name": "clusterAdminDeposit",
      "outputs": [
        {
          "internalType": "uint256",
          "name": "",
          "type": "uint256"
        }
      ],
      "stateMutability": "view",
      "type": "function"
    },
    {
      "inputs": [],
      "name": "cname",
      "outputs": [
        {
          "internalType": "string",
          "name": "",
          "type": "string"
        }
      ],
      "stateMutability": "pure",
      "type": "function"
    },
    {
      "inputs": [
        {
          "internalType": "uint32",
          "name": "clusterId",
          "type": "uint32"
        }
      ],
      "name": "depositCluster",
      "outputs": [],
      "stateMutability": "payable",
      "type": "function"
    },
    {
      "inputs": [
        {
          "internalType": "address",
          "name": "handler",
          "type": "address"
        },
        {
          "internalType": "uint8",
          "name": "channel",
          "type": "uint8"
        },
        {
          "internalType": "uint256",
          "name": "totalCallGas",
          "type": "uint256"
        }
      ],
      "name": "depositHandler",
      "outputs": [
        {
          "internalType": "uint256",
          "name": "",
          "type": "uint256"
        }
      ],
      "stateMutability": "payable",
      "type": "function"
    },
    {
      "inputs": [
        {
          "internalType": "address",
          "name": "handler",
          "type": "address"
        }
      ],
      "name": "getHandlerFeeState",
      "outputs": [
        {
          "components": [
            {
              "internalType": "address",
              "name": "handler",
              "type": "address"
            },
            {
              "internalType": "string",
              "name": "name",
              "type": "string"
            },
            {
              "internalType": "string",
              "name": "description",
              "type": "string"
            },
            {
              "internalType": "uint8",
              "name": "state",
              "type": "uint8"
            },
            {
              "internalType": "uint256",
              "name": "callCount",
              "type": "uint256"
            },
            {
              "internalType": "address",
              "name": "deployer",
              "type": "address"
            },
            {
              "internalType": "uint256",
              "name": "minGasFee",
              "type": "uint256"
            },
            {
              "internalType": "uint256",
              "name": "gasFeeRate",
              "type": "uint256"
            },
            {
              "internalType": "uint256",
              "name": "earning",
              "type": "uint256"
            }
          ],
          "internalType": "struct PoolFee.HandlerFeeState",
          "name": "",
          "type": "tuple"
        }
      ],
      "stateMutability": "view",
      "type": "function"
    },
    {
      "inputs": [
        {
          "internalType": "bytes32",
          "name": "role",
          "type": "bytes32"
        }
      ],
      "name": "getRoleAdmin",
      "outputs": [
        {
          "internalType": "bytes32",
          "name": "",
          "type": "bytes32"
        }
      ],
      "stateMutability": "view",
      "type": "function"
    },
    {
      "inputs": [
        {
          "internalType": "bytes32",
          "name": "role",
          "type": "bytes32"
        },
        {
          "internalType": "uint256",
          "name": "index",
          "type": "uint256"
        }
      ],
      "name": "getRoleMember",
      "outputs": [
        {
          "internalType": "address",
          "name": "",
          "type": "address"
        }
      ],
      "stateMutability": "view",
      "type": "function"
    },
    {
      "inputs": [
        {
          "internalType": "bytes32",
          "name": "role",
          "type": "bytes32"
        }
      ],
      "name": "getRoleMemberCount",
      "outputs": [
        {
          "internalType": "uint256",
          "name": "",
          "type": "uint256"
        }
      ],
      "stateMutability": "view",
      "type": "function"
    },
    {
      "inputs": [
        {
          "internalType": "bytes32",
          "name": "role",
          "type": "bytes32"
        },
        {
          "internalType": "address",
          "name": "account",
          "type": "address"
        }
      ],
      "name": "grantRole",
      "outputs": [],
      "stateMutability": "nonpayable",
      "type": "function"
    },
    {
      "inputs": [
        {
          "internalType": "address",
          "name": "",
          "type": "address"
        }
      ],
      "name": "handlerDeployer",
      "outputs": [
        {
          "internalType": "address",
          "name": "",
          "type": "address"
        }
      ],
      "stateMutability": "view",
      "type": "function"
    },
    {
      "inputs": [
        {
          "internalType": "address",
          "name": "",
          "type": "address"
        }
      ],
      "name": "handlerEarning",
      "outputs": [
        {
          "internalType": "uint256",
          "name": "",
          "type": "uint256"
        }
      ],
      "stateMutability": "view",
      "type": "function"
    },
    {
      "inputs": [
        {
          "internalType": "address",
          "name": "",
          "type": "address"
        }
      ],
      "name": "handlerGasFeeRate",
      "outputs": [
        {
          "internalType": "uint256",
          "name": "",
          "type": "uint256"
        }
      ],
      "stateMutability": "view",
      "type": "function"
    },
    {
      "inputs": [
        {
          "internalType": "address",
          "name": "",
          "type": "address"
        }
      ],
      "name": "handlerMinGasFee",
      "outputs": [
        {
          "internalType": "uint256",
          "name": "",
          "type": "uint256"
        }
      ],
      "stateMutability": "view",
      "type": "function"
    },
    {
      "inputs": [
        {
          "internalType": "bytes32",
          "name": "role",
          "type": "bytes32"
        },
        {
          "internalType": "address",
          "name": "account",
          "type": "address"
        }
      ],
      "name": "hasRole",
      "outputs": [
        {
          "internalType": "bool",
          "name": "",
          "type": "bool"
        }
      ],
      "stateMutability": "view",
      "type": "function"
    },
    {
      "inputs": [
        {
          "internalType": "address",
          "name": "engine_",
          "type": "address"
        },
        {
          "internalType": "address",
          "name": "clusterHandlerArea_",
          "type": "address"
        }
      ],
      "name": "initialize",
      "outputs": [],
      "stateMutability": "nonpayable",
      "type": "function"
    },
    {
      "inputs": [],
      "name": "owner",
      "outputs": [
        {
          "internalType": "address",
          "name": "",
          "type": "address"
        }
      ],
      "stateMutability": "view",
      "type": "function"
    },
    {
      "inputs": [],
      "name": "renounceOwnership",
      "outputs": [],
      "stateMutability": "nonpayable",
      "type": "function"
    },
    {
      "inputs": [
        {
          "internalType": "bytes32",
          "name": "role",
          "type": "bytes32"
        },
        {
          "internalType": "address",
          "name": "account",
          "type": "address"
        }
      ],
      "name": "renounceRole",
      "outputs": [],
      "stateMutability": "nonpayable",
      "type": "function"
    },
    {
      "inputs": [
        {
          "internalType": "bytes32",
          "name": "role",
          "type": "bytes32"
        },
        {
          "internalType": "address",
          "name": "account",
          "type": "address"
        }
      ],
      "name": "revokeRole",
      "outputs": [],
      "stateMutability": "nonpayable",
      "type": "function"
    },
    {
      "inputs": [
        {
          "internalType": "address",
          "name": "clusterHandlerArea_",
          "type": "address"
        }
      ],
      "name": "setClusterHandlerArea",
      "outputs": [],
      "stateMutability": "nonpayable",
      "type": "function"
    },
    {
      "inputs": [
        {
          "internalType": "bytes4",
          "name": "interfaceId",
          "type": "bytes4"
        }
      ],
      "name": "supportsInterface",
      "outputs": [
        {
          "internalType": "bool",
          "name": "",
          "type": "bool"
        }
      ],
      "stateMutability": "view",
      "type": "function"
    },
    {
      "inputs": [
        {
          "internalType": "address",
          "name": "newOwner",
          "type": "address"
        }
      ],
      "name": "transferOwnership",
      "outputs": [],
      "stateMutability": "nonpayable",
      "type": "function"
    },
    {
      "inputs": [
        {
          "internalType": "address",
          "name": "handler",
          "type": "address"
        },
        {
          "internalType": "uint256",
          "name": "minGasFee",
          "type": "uint256"
        },
        {
          "internalType": "uint256",
          "name": "gasFeeRate",
          "type": "uint256"
        }
      ],
      "name": "updateHandler",
      "outputs": [],
      "stateMutability": "nonpayable",
      "type": "function"
    },
    {
      "inputs": [],
      "name": "version",
      "outputs": [
        {
          "internalType": "uint256",
          "name": "",
          "type": "uint256"
        }
      ],
      "stateMutability": "pure",
      "type": "function"
    },
    {
      "inputs": [
        {
          "internalType": "uint256",
          "name": "weiValue",
          "type": "uint256"
        }
      ],
      "name": "withdrawClusterAdminDeposit",
      "outputs": [],
      "stateMutability": "nonpayable",
      "type": "function"
    },
    {
      "inputs": [
        {
          "internalType": "address",
          "name": "handler",
          "type": "address"
        },
        {
          "internalType": "uint256",
          "name": "weiValue",
          "type": "uint256"
        }
      ],
      "name": "withdrawHandler",
      "outputs": [],
      "stateMutability": "nonpayable",
      "type": "function"
    }
  ],
  "bytecode": "0x608060405234801561001057600080fd5b50612c27806100206000396000f3fe60806040526004361061016d5760003560e01c80637e692466116100c75780637e692466146103aa5780637ea336ea146103ca5780638a90723d146103ea5780638da5cb5b146104175780639010d07c1461043557806391d148541461045557806391e45f5e14610475578063a217fddf146104a2578063a80bf443146104b7578063acdea3b6146104ca578063b24f833e146104ec578063ca15c87314610519578063d547741f14610539578063f2fde38b14610559578063fa18df1d1461057957600080fd5b806301ffc9a71461017257806304d61165146101a757806307226ad6146101c95780630c073791146101e9578063248a9ca3146102175780632f2ff15d1461024757806334c76b251461026757806336568abe1461029d578063485cc955146102bd5780634f1fe501146102dd57806350fe12e8146103205780635416bb111461033357806354fd4d50146103535780637124b99514610367578063715018a614610395575b600080fd5b34801561017e57600080fd5b5061019261018d36600461213d565b6105a6565b60405190151581526020015b60405180910390f35b3480156101b357600080fd5b506101c76101c236600461217c565b6105d1565b005b3480156101d557600080fd5b506101c76101e4366004612199565b6105fb565b3480156101f557600080fd5b50610209610204366004612199565b61075d565b60405190815260200161019e565b34801561022357600080fd5b506102096102323660046121c5565b60009081526097602052604090206001015490565b34801561025357600080fd5b506101c76102623660046121de565b6108e1565b34801561027357600080fd5b506040805180820182526007815266506f6f6c46656560c81b6020820152905161019e919061226a565b3480156102a957600080fd5b506101c76102b83660046121de565b61090b565b3480156102c957600080fd5b506101c76102d836600461227d565b610989565b3480156102e957600080fd5b506103136102f836600461217c565b60fd602052600090815260409020546001600160a01b031681565b60405161019e91906122ab565b6101c761032e3660046122d1565b610ae1565b34801561033f57600080fd5b506101c761034e366004612305565b610b4d565b34801561035f57600080fd5b506001610209565b34801561037357600080fd5b5061020961038236600461217c565b6101006020526000908152604090205481565b3480156103a157600080fd5b506101c7610feb565b3480156103b657600080fd5b506101c76103c53660046121c5565b610fff565b3480156103d657600080fd5b506101c76103e5366004612378565b6110d8565b3480156103f657600080fd5b5061020961040536600461217c565b60fe6020526000908152604090205481565b34801561042357600080fd5b506033546001600160a01b0316610313565b34801561044157600080fd5b506103136104503660046123ad565b611313565b34801561046157600080fd5b506101926104703660046121de565b611332565b34801561048157600080fd5b5061049561049036600461217c565b61135d565b60405161019e91906123cf565b3480156104ae57600080fd5b50610209600081565b6102096104c536600461249c565b6114ec565b3480156104d657600080fd5b50610209600080516020612b5d83398151915281565b3480156104f857600080fd5b5061020961050736600461217c565b60ff6020526000908152604090205481565b34801561052557600080fd5b506102096105343660046121c5565b61180e565b34801561054557600080fd5b506101c76105543660046121de565b611825565b34801561056557600080fd5b506101c761057436600461217c565b61184a565b34801561058557600080fd5b5061020961059436600461217c565b60fc6020526000908152604090205481565b60006001600160e01b03198216635a05180f60e01b14806105cb57506105cb826118c3565b92915050565b6105d96118f8565b60fb80546001600160a01b0319166001600160a01b0392909216919091179055565b6001600160a01b03821660009081526101006020526040902054818110156106765760405162461bcd60e51b815260206004820152602360248201527f776974686472617748616e646c65722062616c616e6365203e3d2077656956616044820152626c756560e81b60648201526084015b60405180910390fd5b6001600160a01b03838116600090815260fd60205260409020541633146106df5760405162461bcd60e51b815260206004820152601d60248201527f776974686472617748616e646c6572206d757374206465706c6f796572000000604482015260640161066d565b6001600160a01b03831660009081526101006020526040812080548492906107089084906124f3565b9091555061071890503383611952565b6040518281526001600160a01b0384169033907f90029a22ae729f21c8d7388fc64a31238390385e78345db17cc4b0badcd02e029060200160405180910390a3505050565b6001600160a01b038216600090815260ff602090815260408083205460fe9092528220548261271061078f848761250a565b6107999190612529565b90506107bd604051806060016040528060238152602001612a636023913986611a68565b6107df604051806060016040528060218152602001612bd16021913984611a68565b61081e6040518060400160405280602081526020017f2d2d2d2d2d2d2d20506f6f6c4665652063616c466565206d696e47617346656581525083611a68565b61085d6040518060400160405280601d81526020017f2d2d2d2d2d2d2d20506f6f6c4665652063616c4665652066656547617300000081525082611a68565b818110156108685750805b60006108743a8361250a565b9050610898604051806060016040528060228152602001612b1a602291393a611a68565b6108d76040518060400160405280601f81526020017f2d2d2d2d2d2d2d20506f6f6c4665652063616c4665652077656956616c75650081525082611a68565b9695505050505050565b6000828152609760205260409020600101546108fc81611aad565b6109068383611ab7565b505050565b6001600160a01b038116331461097b5760405162461bcd60e51b815260206004820152602f60248201527f416363657373436f6e74726f6c3a2063616e206f6e6c792072656e6f756e636560448201526e103937b632b9903337b91039b2b63360891b606482015260840161066d565b6109858282611ad9565b5050565b600054610100900460ff16158080156109a95750600054600160ff909116105b806109c35750303b1580156109c3575060005460ff166001145b610a265760405162461bcd60e51b815260206004820152602e60248201527f496e697469616c697a61626c653a20636f6e747261637420697320616c72656160448201526d191e481a5b9a5d1a585b1a5e995960921b606482015260840161066d565b6000805460ff191660011790558015610a49576000805461ff0019166101001790555b610a51611afb565b610a59611b22565b610a64600033611b52565b610a7c600080516020612b5d83398151915284611b52565b60fb80546001600160a01b0319166001600160a01b0384161790558015610906576000805461ff0019169055604051600181527f7f26b83ff96e1f2b6a682f133852f6798a09c465da95921460cefb38474024989060200160405180910390a1505050565b33600090815260fc6020526040812080543492839291610b0290849061254b565b90915550506040805163ffffffff841681526020810183905233917f9a8dfdf7d0a585fe5bd50fbea6a5802be1ecb3ca020432959fd63c41a4708f5f91015b60405180910390a25050565b600080516020612b5d833981519152610b6581611aad565b6000610b71888461075d565b905080610ba057610b9a6040518060600160405280602281526020016129736022913933611b5c565b50610fe2565b60fb546040516330af0bbf60e21b815260009182916001600160a01b039091169063c2bc2efc90610bd5908d906004016122ab565b60006040518083038186803b158015610bed57600080fd5b505afa158015610c01573d6000803e3d6000fd5b505050506040513d6000823e601f3d908101601f19168201604052610c29919081019061263f565b9150915081610c7657610c6e6040518060400160405280601a81526020017962696c6c2068616e646c6572206e6f7420617661696c61626c6560301b8152508b611b5c565b505050610fe2565b610cb56040518060400160405280601f81526020017f2d2d2d2d2d2d2d20506f6f6c4665652062696c6c206d73672e73656e6465720081525033611b5c565b610cf46040518060400160405280601c81526020017f2d2d2d2d2d2d2d20506f6f6c4665652062696c6c2068616e646c6572000000008152508b611b5c565b610d1a604051806060016040528060218152602001612aac602191398260200151611ba1565b610d40604051806060016040528060288152602001612995602891398260400151611ba1565b610d62604051806060016040528060218152602001612b3c602191398a611b5c565b610da76040518060400160405280601e81526020017f2d2d2d2d2d2d2d20506f6f6c4665652062696c6c20636c7573746572496400008152508963ffffffff16611a68565b610dcd604051806060016040528060278152602001612af3602791398861ffff16611a68565b610df36040518060600160405280602881526020016129bd602891398761ffff16611a68565b610e156040518060600160405280602181526020016129526021913986611a68565b600060fc60008b6001600160a01b03166001600160a01b03168152602001908152602001600020549050610e7e6040518060400160405280602081526020017f2d2d2d2d2d2d2d20506f6f6c4665652062696c6c206c6566744465706f73697481525082611a68565b610ebd6040518060400160405280602081526020017f2d2d2d2d2d2d2d20506f6f6c4665652062696c6c2063616c57656956616c756581525085611a68565b83811015610f175760405162461bcd60e51b815260206004820152602160248201527f62696c6c206d757374206c6566744465706f736974203e3d2077656956616c756044820152606560f81b606482015260840161066d565b6001600160a01b038a16600090815260fc602052604081208054869290610f3f9084906124f3565b90915550506001600160a01b038b166000908152610100602052604081208054869290610f6d90849061254b565b90915550506040805163ffffffff8b16815261ffff8a81166020830152891681830152606081018890526080810186905290516001600160a01b038c811692908e169133917f0db692ef6ba3074aa3286596b4b10a26749859a4cf5c2fde8e13e21d1d51a3ca919081900360a00190a4505050505b50505050505050565b610ff36118f8565b610ffd6000611be6565b565b33600090815260fc6020526040902054818110156110775760405162461bcd60e51b815260206004820152602f60248201527f7769746864726177436c757374657241646d696e4465706f7369742062616c6160448201526e6e6365203e3d2077656956616c756560881b606482015260840161066d565b33600090815260fc6020526040812080548492906110969084906124f3565b909155506110a690503383611952565b60405182815233907fc612e83c166a93d246db8ad8a4479b1df1a5029f9a8a4213bad5c27165001ccd90602001610b41565b60fb546040516330af0bbf60e21b815260009182916001600160a01b039091169063c2bc2efc9061110d9088906004016122ab565b60006040518083038186803b15801561112557600080fd5b505afa158015611139573d6000803e3d6000fd5b505050506040513d6000823e601f3d908101601f19168201604052611161919081019061263f565b915091506111a26040518060400160405280601b81526020017a0b4b4b4b4b4b4b4b5d5c19185d1952185b991b195c88199bdd5b99602a1b81525083611c38565b6111e16040518060400160405280601d81526020017f2d2d2d2d2d2d2d2d75706461746548616e646c65722068616e646c657200000081525086611b5c565b6112216040518060400160405280601a8152602001792d2d2d2d2d2d2d2d75706461746548616e646c6572206e616d6560301b8152508260200151611ba1565b6112646040518060400160405280601e81526020017f2d2d2d2d2d2d2d2d75706461746548616e646c6572206465706c6f79657200008152508260800151611b5c565b80608001516001600160a01b0316336001600160a01b0316146112c65760405162461bcd60e51b815260206004820152601a6024820152793ab83230ba32a430b7323632b91034b9903737ba1037bbb732b960311b604482015260640161066d565b811561130c576001600160a01b038516600090815260fd6020908152604080832080546001600160a01b0319163317905560fe825280832087905560ff90915290208390555b5050505050565b600082815260c96020526040812061132b9083611c7d565b9392505050565b60009182526097602090815260408084206001600160a01b0393909316845291905290205460ff1690565b6113c160405180610120016040528060006001600160a01b031681526020016060815260200160608152602001600060ff1681526020016000815260200160006001600160a01b031681526020016000815260200160008152602001600081525090565b60fb546040516330af0bbf60e21b815260009182916001600160a01b039091169063c2bc2efc906113f69087906004016122ab565b60006040518083038186803b15801561140e57600080fd5b505afa158015611422573d6000803e3d6000fd5b505050506040513d6000823e601f3d908101601f1916820160405261144a919081019061263f565b60408051610120810182526060808401516001600160a01b03908116835260208086015181850152848601518486015260a08087015160ff9081169486019490945260c09687015160808601529a8216600081815260fd8352868120549093169b85019b909b528a825260fe815284822054958401959095528981529084528281205460e0830152978852610100928390529620549086015250929392505050565b6000806114f9858461075d565b905080611536576115226040518060600160405280602c81526020016128d4602c913933611b5c565b61152c3334611952565b600091505061132b565b60fb546040516330af0bbf60e21b815260009182916001600160a01b039091169063c2bc2efc9061156b908a906004016122ab565b60006040518083038186803b15801561158357600080fd5b505afa158015611597573d6000803e3d6000fd5b505050506040513d6000823e601f3d908101601f191682016040526115bf919081019061263f565b91509150816115f6576115ea6040518060600160405280602481526020016129e56024913988611b5c565b6000935050505061132b565b611618604051806060016040528060298152602001612ba86029913933611b5c565b61163a604051806060016040528060268152602001612a866026913988611b5c565b6116606040518060600160405280602b8152602001612b7d602b91398260200151611ba1565b611686604051806060016040528060328152602001612a31603291398260400151611ba1565b6116ab604051806060016040528060268152602001612acd602691398760ff16611a68565b6116cd604051806060016040528060288152602001612a096028913934611a68565b6116ef60405180606001604052806027815260200161292b6027913984611a68565b6117116040518060600160405280602b8152602001612900602b913986611a68565b823410156117725760405162461bcd60e51b815260206004820152602860248201527f6465706f73697448616e646c6572206d73672e76616c7565203e3d2077656956604482015267616c75652046656560c01b606482015260840161066d565b6001600160a01b038716600090815261010060205260408120805485929061179b90849061254b565b90915550506040805160ff881681523460208201529081018690526001600160a01b0388169033907fae30a04b4486ebca1c16d8ca7e32dde68992c653bcc20427ff183ff98cfdd7339060600160405180910390a3611803336117fe85346124f3565b611952565b509095945050505050565b600081815260c9602052604081206105cb90611c89565b60008281526097602052604090206001015461184081611aad565b6109068383611ad9565b6118526118f8565b6001600160a01b0381166118b75760405162461bcd60e51b815260206004820152602660248201527f4f776e61626c653a206e6577206f776e657220697320746865207a65726f206160448201526564647265737360d01b606482015260840161066d565b6118c081611be6565b50565b60006001600160e01b03198216637965db0b60e01b14806105cb57506301ffc9a760e01b6001600160e01b03198316146105cb565b6033546001600160a01b03163314610ffd5760405162461bcd60e51b815260206004820181905260248201527f4f776e61626c653a2063616c6c6572206973206e6f7420746865206f776e6572604482015260640161066d565b804710156119a25760405162461bcd60e51b815260206004820152601d60248201527f416464726573733a20696e73756666696369656e742062616c616e6365000000604482015260640161066d565b6000826001600160a01b03168260405160006040518083038185875af1925050503d80600081146119ef576040519150601f19603f3d011682016040523d82523d6000602084013e6119f4565b606091505b50509050806109065760405162461bcd60e51b815260206004820152603a60248201527f416464726573733a20756e61626c6520746f2073656e642076616c75652c20726044820152791958da5c1a595b9d081b585e481a185d99481c995d995c9d195960321b606482015260840161066d565b6109858282604051602401611a7e929190612738565b60408051601f198184030181529190526020810180516001600160e01b0316632d839cb360e21b179052611c93565b6118c08133611cb4565b611ac18282611d0d565b600082815260c9602052604090206109069082611d93565b611ae38282611da8565b600082815260c9602052604090206109069082611e0f565b600054610100900460ff16610ffd5760405162461bcd60e51b815260040161066d9061275a565b600054610100900460ff16611b495760405162461bcd60e51b815260040161066d9061275a565b610ffd33611be6565b6109858282611ab7565b6109858282604051602401611b729291906127a5565b60408051601f198184030181529190526020810180516001600160e01b031663319af33360e01b179052611c93565b6109858282604051602401611bb79291906127cf565b60408051601f198184030181529190526020810180516001600160e01b0316634b5c427760e01b179052611c93565b603380546001600160a01b038381166001600160a01b0319831681179093556040519116919082907f8be0079c531659141344cd1fd0a4f28419497f9722a3daafe3b4186f6b6457e090600090a35050565b6109858282604051602401611c4e9291906127fd565b60408051601f198184030181529190526020810180516001600160e01b031663c3b5563560e01b179052611c93565b600061132b8383611e24565b60006105cb825490565b80516a636f6e736f6c652e6c6f67602083016000808483855afa5050505050565b611cbe8282611332565b61098557611ccb81611e4e565b611cd6836020611e60565b604051602001611ce7929190612821565b60408051601f198184030181529082905262461bcd60e51b825261066d9160040161226a565b611d178282611332565b6109855760008281526097602090815260408083206001600160a01b03851684529091529020805460ff19166001179055611d4f3390565b6001600160a01b0316816001600160a01b0316837f2f8788117e7eff1d82e926ec794901d17c78024a50270940304540a733656f0d60405160405180910390a45050565b600061132b836001600160a01b038416611ffb565b611db28282611332565b156109855760008281526097602090815260408083206001600160a01b0385168085529252808320805460ff1916905551339285917ff6391f5c32d9c69d2a47ea670b442974b53935d1edc7fd64eb21e047a839171b9190a45050565b600061132b836001600160a01b03841661204a565b6000826000018281548110611e3b57611e3b612890565b9060005260206000200154905092915050565b60606105cb6001600160a01b03831660145b60606000611e6f83600261250a565b611e7a90600261254b565b6001600160401b03811115611e9157611e91612563565b6040519080825280601f01601f191660200182016040528015611ebb576020820181803683370190505b509050600360fc1b81600081518110611ed657611ed6612890565b60200101906001600160f81b031916908160001a905350600f60fb1b81600181518110611f0557611f05612890565b60200101906001600160f81b031916908160001a9053506000611f2984600261250a565b611f3490600161254b565b90505b6001811115611fac576f181899199a1a9b1b9c1cb0b131b232b360811b85600f1660108110611f6857611f68612890565b1a60f81b828281518110611f7e57611f7e612890565b60200101906001600160f81b031916908160001a90535060049490941c93611fa5816128a6565b9050611f37565b50831561132b5760405162461bcd60e51b815260206004820181905260248201527f537472696e67733a20686578206c656e67746820696e73756666696369656e74604482015260640161066d565b6000818152600183016020526040812054612042575081546001818101845560008481526020808220909301849055845484825282860190935260409020919091556105cb565b5060006105cb565b6000818152600183016020526040812054801561213357600061206e6001836124f3565b8554909150600090612082906001906124f3565b90508181146120e75760008660000182815481106120a2576120a2612890565b90600052602060002001549050808760000184815481106120c5576120c5612890565b6000918252602080832090910192909255918252600188019052604090208390555b85548690806120f8576120f86128bd565b6001900381819060005260206000200160009055905585600101600086815260200190815260200160002060009055600193505050506105cb565b60009150506105cb565b60006020828403121561214f57600080fd5b81356001600160e01b03198116811461132b57600080fd5b6001600160a01b03811681146118c057600080fd5b60006020828403121561218e57600080fd5b813561132b81612167565b600080604083850312156121ac57600080fd5b82356121b781612167565b946020939093013593505050565b6000602082840312156121d757600080fd5b5035919050565b600080604083850312156121f157600080fd5b82359150602083013561220381612167565b809150509250929050565b60005b83811015612229578181015183820152602001612211565b83811115612238576000848401525b50505050565b6000815180845261225681602086016020860161220e565b601f01601f19169290920160200192915050565b60208152600061132b602083018461223e565b6000806040838503121561229057600080fd5b823561229b81612167565b9150602083013561220381612167565b6001600160a01b0391909116815260200190565b63ffffffff811681146118c057600080fd5b6000602082840312156122e357600080fd5b813561132b816122bf565b803561ffff8116811461230057600080fd5b919050565b60008060008060008060c0878903121561231e57600080fd5b863561232981612167565b9550602087013561233981612167565b94506040870135612349816122bf565b9350612357606088016122ee565b9250612365608088016122ee565b915060a087013590509295509295509295565b60008060006060848603121561238d57600080fd5b833561239881612167565b95602085013595506040909401359392505050565b600080604083850312156123c057600080fd5b50508035926020909101359150565b602081526123e96020820183516001600160a01b03169052565b6000602083015161012080604085015261240761014085018361223e565b91506040850151601f19858403016060860152612424838261223e565b925050606085015161243b608086018260ff169052565b50608085015160a085015260a085015161246060c08601826001600160a01b03169052565b5060c085015160e085015260e0850151610100818187015280870151838701525050508091505092915050565b60ff811681146118c057600080fd5b6000806000606084860312156124b157600080fd5b83356124bc81612167565b925060208401356124cc8161248d565b929592945050506040919091013590565b634e487b7160e01b600052601160045260246000fd5b600082821015612505576125056124dd565b500390565b6000816000190483118215151615612524576125246124dd565b500290565b60008261254657634e487b7160e01b600052601260045260246000fd5b500490565b6000821982111561255e5761255e6124dd565b500190565b634e487b7160e01b600052604160045260246000fd5b60405160e081016001600160401b038111828210171561259b5761259b612563565b60405290565b8051612300816122bf565b600082601f8301126125bd57600080fd5b81516001600160401b03808211156125d7576125d7612563565b604051601f8301601f19908116603f011681019082821181831017156125ff576125ff612563565b8160405283815286602085880101111561261857600080fd5b6108d784602083016020890161220e565b805161230081612167565b80516123008161248d565b6000806040838503121561265257600080fd5b8251801515811461266257600080fd5b60208401519092506001600160401b038082111561267f57600080fd5b9084019060e0828703121561269357600080fd5b61269b612579565b6126a4836125a1565b81526020830151828111156126b857600080fd5b6126c4888286016125ac565b6020830152506040830151828111156126dc57600080fd5b6126e8888286016125ac565b6040830152506126fa60608401612629565b606082015261270b60808401612629565b608082015261271c60a08401612634565b60a082015260c083015160c08201528093505050509250929050565b60408152600061274b604083018561223e565b90508260208301529392505050565b6020808252602b908201527f496e697469616c697a61626c653a20636f6e7472616374206973206e6f74206960408201526a6e697469616c697a696e6760a81b606082015260800190565b6040815260006127b8604083018561223e565b905060018060a01b03831660208301529392505050565b6040815260006127e2604083018561223e565b82810360208401526127f4818561223e565b95945050505050565b604081526000612810604083018561223e565b905082151560208301529392505050565b76020b1b1b2b9b9a1b7b73a3937b61d1030b1b1b7bab73a1604d1b81526000835161285381601785016020880161220e565b7001034b99036b4b9b9b4b733903937b6329607d1b601791840191820152835161288481602884016020880161220e565b01602801949350505050565b634e487b7160e01b600052603260045260246000fd5b6000816128b5576128b56124dd565b506000190190565b634e487b7160e01b600052603160045260246000fdfe2d2d2d2d2d2d2d20506f6f6c466565206465706f73697448616e646c65722077656956616c7565203d3d20302d2d2d2d2d2d2d20506f6f6c466565206465706f73697448616e646c657220746f74616c43616c6c4761732d2d2d2d2d2d2d20506f6f6c466565206465706f73697448616e646c65722077656956616c75652d2d2d2d2d2d2d20506f6f6c4665652062696c6c20746f74616c43616c6c4761732d2d2d2d2d2d2d20506f6f6c4665652062696c6c2077656956616c7565203d3d20302d2d2d2d2d2d2d20506f6f6c4665652062696c6c2068616e646c65722e6465736372697074696f6e2d2d2d2d2d2d2d20506f6f6c4665652062696c6c2072756c65536c6f74496e6465784f75747075746465706f73697448616e646c65722068616e646c6572206e6f7420617661696c61626c652d2d2d2d2d2d2d20506f6f6c466565206465706f73697448616e646c6572206d73672e76616c75652d2d2d2d2d2d2d20506f6f6c466565206465706f73697448616e646c65722068616e646c65722e6465736372697074696f6e2d2d2d2d2d2d2d20506f6f6c4665652063616c46656520746f74616c43616c6c4761732d2d2d2d2d2d2d20506f6f6c466565206465706f73697448616e646c65722068616e646c65722d2d2d2d2d2d2d20506f6f6c4665652062696c6c2068616e646c65722e6e616d652d2d2d2d2d2d2d20506f6f6c466565206465706f73697448616e646c6572206368616e6e656c2d2d2d2d2d2d2d20506f6f6c4665652062696c6c2072756c65536c6f74496e646578496e7075742d2d2d2d2d2d2d20506f6f6c4665652063616c4665652074782e67617370726963652d2d2d2d2d2d2d20506f6f6c4665652062696c6c20636c757374657241646d696e0c11b6502bdedf1cef84895f33be7e5ab64e8ebc42f563f38d0575ecc4f6e4282d2d2d2d2d2d2d20506f6f6c466565206465706f73697448616e646c65722068616e646c65722e6e616d652d2d2d2d2d2d2d20506f6f6c466565206465706f73697448616e646c6572206d73672e73656e6465722d2d2d2d2d2d2d20506f6f6c4665652063616c4665652067617346656552617465a26469706673582212200ddaaef43de6656ff6f48f5c8dcb748f036ddd76555dcdbe3bb3867a41786b4564736f6c63430008080033",
  "linkReferences": {},
  "deployedLinkReferences": {}
}