{
  "_format": "hh-sol-artifact-1",
  "contractName": "AllocateHandlerLib",
  "sourceName": "contracts/V3/handler/AllocateHandlerLib.sol",
  "abi": [
    {
      "inputs": [
        {
          "components": [
            {
              "internalType": "address",
              "name": "engine",
              "type": "address"
            },
            {
              "internalType": "address",
              "name": "clusterArea",
              "type": "address"
            },
            {
              "internalType": "uint32",
              "name": "clusterId",
              "type": "uint32"
            },
            {
              "internalType": "uint16",
              "name": "ruleSlotIndexInput",
              "type": "uint16"
            },
            {
              "internalType": "uint16",
              "name": "ruleSlotIndexOutput",
              "type": "uint16"
            },
            {
              "internalType": "uint8",
              "name": "branch",
              "type": "uint8"
            },
            {
              "internalType": "address",
              "name": "stateCounter",
              "type": "address"
            },
            {
              "internalType": "uint32",
              "name": "taskId",
              "type": "uint32"
            },
            {
              "internalType": "address",
              "name": "caller",
              "type": "address"
            },
            {
              "internalType": "uint8",
              "name": "cmd",
              "type": "uint8"
            },
            {
              "internalType": "bytes",
              "name": "args",
              "type": "bytes"
            }
          ],
          "internalType": "struct Handler.StateParams",
          "name": "params",
          "type": "tuple"
        },
        {
          "internalType": "uint128",
          "name": "ruleConfig",
          "type": "uint128"
        }
      ],
      "name": "getAllocateState",
      "outputs": [
        {
          "internalType": "bytes[]",
          "name": "",
          "type": "bytes[]"
        }
      ],
      "stateMutability": "view",
      "type": "function"
    }
  ],
  "bytecode": "0x61110d61003a600b82828239805160001a60731461002d57634e487b7160e01b600052600060045260246000fd5b30600052607381538281f3fe73000000000000000000000000000000000000000030146080604052600436106100355760003560e01c8063f908926e1461003a575b600080fd5b61004d610048366004610cc9565b610063565b60405161005a9190610e44565b60405180910390f35b6060600061007d836001600160801b0316600860006101b9565b6040805160038082526080820190925291925060009190816020015b60608152602001906001900390816100995790505090506100e66040518060400160405280600e81526020016d0626c6f636b54696d657374616d760941b8152504263ffffffff166101d8565b816000815181106100f9576100f9610ea6565b602002602001018190525061013e6040518060400160405280600b81526020016a313637b1b5a73ab6b132b960a91b8152506101336102f8565b63ffffffff166101d8565b8160018151811061015157610151610ea6565b60200260200101819052506101916040518060400160405280601081526020016f0caf0cac6eae8ca626060a6eed2e8c6d60831b8152508360ff166101d8565b816002815181106101a4576101a4610ea6565b60209081029190910101529150505b92915050565b91821c916000806101cd600180861b610ed2565b909416949350505050565b606060006101e584610384565b905060006101f28461038f565b90506102356040518060400160405280600e81526020016d0b4b4b4b4b4b4b481d1bd55a5b9d60921b8152506102308361022b90610ee9565b6103a2565b6103ee565b60408051600380825260808201909252600091816020015b606081526020019060019003908161024d579050509050828160008151811061027857610278610ea6565b60200260200101819052506102a8604051806040016040528060048152602001631d5a5b9d60e21b815250610384565b816001815181106102bb576102bb610ea6565b602002602001018190525081816002815181106102da576102da610ea6565b60200260200101819052506102ee81610437565b9695505050505050565b60004661a4b181141561037d5760646001600160a01b031663a3b1b31d6040518163ffffffff1660e01b815260040160206040518083038186803b15801561033f57600080fd5b505afa158015610353573d6000803e3d6000fd5b505050506040513d601f19601f820116820180604052508101906103779190610f10565b91505090565b4391505090565b60606101b382610462565b60606101b361039d836104b2565b610462565b60606103ad826105ef565b6103ba608084901b6105ef565b60405161060f60f31b6020820152602281019290925260428201526062016040516020818303038152906040529050919050565b6104338282604051602401610404929190610f29565b60408051601f198184030181529190526020810180516001600160e01b0316634b5c427760e01b179052610799565b5050565b60606000610444836107ba565b905061045b610455825160c06108e9565b82610a9f565b9392505050565b60608082516001148015610491575060808360008151811061048657610486610ea6565b016020015160f81c11155b1561049d5750816101b3565b61045b6104ac845160806108e9565b84610a9f565b6040805160208082528183019092526060916000919060208201818036833701905050905082602082015260005b6020811015610526578181815181106104fb576104fb610ea6565b01602001516001600160f81b0319161561051457610526565b8061051e81610f57565b9150506104e0565b6000610533826020610ed2565b6001600160401b0381111561054a5761054a610b94565b6040519080825280601f01601f191660200182016040528015610574576020820181803683370190505b50905060005b81518110156105e657838361058e81610f57565b9450815181106105a0576105a0610ea6565b602001015160f81c60f81b8282815181106105bd576105bd610ea6565b60200101906001600160f81b031916908160001a905350806105de81610f57565b91505061057a565b50949350505050565b7aff00000000000000ff00000000000000ff00000000000000ff000063ffffffff60401b604083901c90811663ffffffff60c01b84161760201c63ffffffff60601b919091166001600160e01b031984161717601081901c91821678ff00000000000000ff00000000000000ff00000000000000ff60301b821617600890811c7bff00000000000000ff00000000000000ff00000000000000ff000000939093167fff00000000000000ff00000000000000ff00000000000000ff000000000000009290921691909117919091179081901c7e0f000f000f000f000f000f000f000f000f000f000f000f000f000f000f000f167f0f000f000f000f000f000f000f000f000f000f000f000f000f000f000f000f00600492831c161790610735827f0606060606060606060606060606060606060606060606060606060606060606610f72565b901c7f0f0f0f0f0f0f0f0f0f0f0f0f0f0f0f0f0f0f0f0f0f0f0f0f0f0f0f0f0f0f0f0f1660076107659190610f8a565b61078f827f3030303030303030303030303030303030303030303030303030303030303030610f72565b6101b39190610f72565b80516a636f6e736f6c652e6c6f67602083016000808483855afa5050505050565b60608151600014156107da57505060408051600081526020810190915290565b6000805b8351811015610821578381815181106107f9576107f9610ea6565b6020026020010151518261080d9190610f72565b91508061081981610f57565b9150506107de565b6000826001600160401b0381111561083b5761083b610b94565b6040519080825280601f01601f191660200182016040528015610865576020820181803683370190505b50600092509050602081015b85518310156105e657600086848151811061088e5761088e610ea6565b6020026020010151905060006020820190506108ac83828451610b1c565b8785815181106108be576108be610ea6565b602002602001015151836108d29190610f72565b9250505082806108e190610f57565b935050610871565b6060806038841015610953576040805160018082528183019092529060208201818036833701905050905061091e8385610f72565b601f1a60f81b8160008151811061093757610937610ea6565b60200101906001600160f81b031916908160001a90535061045b565b600060015b6109628187610fbf565b15610988578161097181610f57565b9250610981905061010082610f8a565b9050610958565b610993826001610f72565b6001600160401b038111156109aa576109aa610b94565b6040519080825280601f01601f1916602001820160405280156109d4576020820181803683370190505b5092506109e18583610f72565b6109ec906037610f72565b601f1a60f81b83600081518110610a0557610a05610ea6565b60200101906001600160f81b031916908160001a905350600190505b818111610a9657610100610a358284610ed2565b610a41906101006110b7565b610a4b9088610fbf565b610a5591906110c3565b601f1a60f81b838281518110610a6d57610a6d610ea6565b60200101906001600160f81b031916908160001a90535080610a8e81610f57565b915050610a21565b50509392505050565b6060806040519050835180825260208201818101602087015b81831015610ad0578051835260209283019201610ab8565b50855184518101855292509050808201602086015b81831015610afd578051835260209283019201610ae5565b508651929092011591909101601f01601f191660405250905092915050565b8282825b60208110610b585781518352610b37602084610f72565b9250610b44602083610f72565b9150610b51602082610ed2565b9050610b20565b60006001610b67836020610ed2565b610b73906101006110b7565b610b7d9190610ed2565b925184518416931916929092179092525050505050565b634e487b7160e01b600052604160045260246000fd5b60405161016081016001600160401b0381118282101715610bcd57610bcd610b94565b60405290565b80356001600160a01b0381168114610bea57600080fd5b919050565b803563ffffffff81168114610bea57600080fd5b803561ffff81168114610bea57600080fd5b803560ff81168114610bea57600080fd5b600082601f830112610c3757600080fd5b81356001600160401b0380821115610c5157610c51610b94565b604051601f8301601f19908116603f01168101908282118183101715610c7957610c79610b94565b81604052838152866020858801011115610c9257600080fd5b836020870160208301376000602085830101528094505050505092915050565b80356001600160801b0381168114610bea57600080fd5b60008060408385031215610cdc57600080fd5b82356001600160401b0380821115610cf357600080fd5b908401906101608287031215610d0857600080fd5b610d10610baa565b610d1983610bd3565b8152610d2760208401610bd3565b6020820152610d3860408401610bef565b6040820152610d4960608401610c03565b6060820152610d5a60808401610c03565b6080820152610d6b60a08401610c15565b60a0820152610d7c60c08401610bd3565b60c0820152610d8d60e08401610bef565b60e0820152610100610da0818501610bd3565b90820152610120610db2848201610c15565b908201526101408381013583811115610dca57600080fd5b610dd689828701610c26565b828401525050809450505050610dee60208401610cb2565b90509250929050565b6000815180845260005b81811015610e1d57602081850181015186830182015201610e01565b81811115610e2f576000602083870101525b50601f01601f19169290920160200192915050565b6000602080830181845280855180835260408601915060408160051b870101925083870160005b82811015610e9957603f19888603018452610e87858351610df7565b94509285019290850190600101610e6b565b5092979650505050505050565b634e487b7160e01b600052603260045260246000fd5b634e487b7160e01b600052601160045260246000fd5b600082821015610ee457610ee4610ebc565b500390565b80516020808301519190811015610f0a576000198160200360031b1b821691505b50919050565b600060208284031215610f2257600080fd5b5051919050565b604081526000610f3c6040830185610df7565b8281036020840152610f4e8185610df7565b95945050505050565b6000600019821415610f6b57610f6b610ebc565b5060010190565b60008219821115610f8557610f85610ebc565b500190565b6000816000190483118215151615610fa457610fa4610ebc565b500290565b634e487b7160e01b600052601260045260246000fd5b600082610fce57610fce610fa9565b500490565b600181815b8085111561100e578160001904821115610ff457610ff4610ebc565b8085161561100157918102915b93841c9390800290610fd8565b509250929050565b600082611025575060016101b3565b81611032575060006101b3565b816001811461104857600281146110525761106e565b60019150506101b3565b60ff84111561106357611063610ebc565b50506001821b6101b3565b5060208310610133831016604e8410600b8410161715611091575081810a6101b3565b61109b8383610fd3565b80600019048211156110af576110af610ebc565b029392505050565b600061045b8383611016565b6000826110d2576110d2610fa9565b50069056fea2646970667358221220a93f4f24ec3e4f19bf615a8fa5de1d2dac58a700bf971cf366b0e653237753c664736f6c63430008080033",
  "linkReferences": {},
  "deployedLinkReferences": {}
}