{
  "_format": "hh-sol-artifact-1",
  "contractName": "MineHandlerLib",
  "sourceName": "contracts/V3/handler/MineHandlerLib.sol",
  "abi": [
    {
      "inputs": [
        {
          "components": [
            {
              "internalType": "uint32",
              "name": "roundCount",
              "type": "uint32"
            },
            {
              "internalType": "uint256",
              "name": "attCount",
              "type": "uint256"
            },
            {
              "internalType": "uint256",
              "name": "attRate",
              "type": "uint256"
            },
            {
              "internalType": "uint256",
              "name": "historyModRoundCount",
              "type": "uint256"
            },
            {
              "internalType": "uint256",
              "name": "stdAttenuationRoundCount",
              "type": "uint256"
            },
            {
              "internalType": "uint256",
              "name": "stdAttenuationRate",
              "type": "uint256"
            },
            {
              "internalType": "uint16",
              "name": "stdAttenuationRateDenominator",
              "type": "uint16"
            },
            {
              "internalType": "uint16",
              "name": "spanTimesPower",
              "type": "uint16"
            },
            {
              "internalType": "uint256",
              "name": "attRatioDenominator",
              "type": "uint256"
            },
            {
              "internalType": "uint256",
              "name": "attRatio",
              "type": "uint256"
            }
          ],
          "internalType": "struct MineHandlerLib.ParamAttenuation",
          "name": "param",
          "type": "tuple"
        }
      ],
      "name": "callLongTermRatio",
      "outputs": [
        {
          "components": [
            {
              "internalType": "uint32",
              "name": "roundCount",
              "type": "uint32"
            },
            {
              "internalType": "uint256",
              "name": "attCount",
              "type": "uint256"
            },
            {
              "internalType": "uint256",
              "name": "attRate",
              "type": "uint256"
            },
            {
              "internalType": "uint256",
              "name": "historyModRoundCount",
              "type": "uint256"
            },
            {
              "internalType": "uint256",
              "name": "stdAttenuationRoundCount",
              "type": "uint256"
            },
            {
              "internalType": "uint256",
              "name": "stdAttenuationRate",
              "type": "uint256"
            },
            {
              "internalType": "uint16",
              "name": "stdAttenuationRateDenominator",
              "type": "uint16"
            },
            {
              "internalType": "uint16",
              "name": "spanTimesPower",
              "type": "uint16"
            },
            {
              "internalType": "uint256",
              "name": "attRatioDenominator",
              "type": "uint256"
            },
            {
              "internalType": "uint256",
              "name": "attRatio",
              "type": "uint256"
            }
          ],
          "internalType": "struct MineHandlerLib.ParamAttenuation",
          "name": "",
          "type": "tuple"
        }
      ],
      "stateMutability": "view",
      "type": "function"
    },
    {
      "inputs": [
        {
          "components": [
            {
              "internalType": "address",
              "name": "engine",
              "type": "address"
            },
            {
              "internalType": "address",
              "name": "clusterArea",
              "type": "address"
            },
            {
              "internalType": "address",
              "name": "stateCounter",
              "type": "address"
            },
            {
              "internalType": "uint32",
              "name": "clusterId",
              "type": "uint32"
            },
            {
              "internalType": "uint32",
              "name": "taskId",
              "type": "uint32"
            },
            {
              "internalType": "address",
              "name": "claimer",
              "type": "address"
            },
            {
              "internalType": "uint8",
              "name": "io",
              "type": "uint8"
            },
            {
              "internalType": "uint16",
              "name": "round",
              "type": "uint16"
            },
            {
              "internalType": "uint8",
              "name": "branch",
              "type": "uint8"
            },
            {
              "internalType": "uint8",
              "name": "tokenSlotIndex",
              "type": "uint8"
            }
          ],
          "internalType": "struct IHandler.Claim",
          "name": "claim",
          "type": "tuple"
        }
      ],
      "name": "getClaimIOAddressBranchToken",
      "outputs": [
        {
          "internalType": "bool",
          "name": "",
          "type": "bool"
        }
      ],
      "stateMutability": "view",
      "type": "function"
    },
    {
      "inputs": [
        {
          "internalType": "uint32",
          "name": "roundCount",
          "type": "uint32"
        },
        {
          "internalType": "uint256",
          "name": "attenuationCountRate",
          "type": "uint256"
        },
        {
          "components": [
            {
              "internalType": "uint8",
              "name": "ruleType",
              "type": "uint8"
            },
            {
              "internalType": "uint8",
              "name": "durationType",
              "type": "uint8"
            },
            {
              "internalType": "uint32",
              "name": "intervalTime",
              "type": "uint32"
            },
            {
              "internalType": "uint32",
              "name": "stdAttenuationRoundCount",
              "type": "uint32"
            },
            {
              "internalType": "uint16",
              "name": "stdAttenuationRate",
              "type": "uint16"
            },
            {
              "internalType": "uint16",
              "name": "stdAttenuationRateDenominator",
              "type": "uint16"
            }
          ],
          "internalType": "struct MineHandlerLib.RuleAttenuation",
          "name": "ruleAtt",
          "type": "tuple"
        }
      ],
      "name": "processLongTermAttRatio",
      "outputs": [
        {
          "internalType": "uint256",
          "name": "",
          "type": "uint256"
        },
        {
          "internalType": "uint256",
          "name": "",
          "type": "uint256"
        },
        {
          "internalType": "uint256",
          "name": "",
          "type": "uint256"
        }
      ],
      "stateMutability": "view",
      "type": "function"
    },
    {
      "inputs": [
        {
          "internalType": "uint32",
          "name": "roundCount",
          "type": "uint32"
        },
        {
          "internalType": "uint256",
          "name": "attenuationCountRate",
          "type": "uint256"
        },
        {
          "components": [
            {
              "internalType": "uint8",
              "name": "ruleType",
              "type": "uint8"
            },
            {
              "internalType": "uint8",
              "name": "durationType",
              "type": "uint8"
            },
            {
              "internalType": "uint32",
              "name": "intervalTime",
              "type": "uint32"
            },
            {
              "internalType": "uint32",
              "name": "stdAttenuationRoundCount",
              "type": "uint32"
            },
            {
              "internalType": "uint16",
              "name": "stdAttenuationRate",
              "type": "uint16"
            },
            {
              "internalType": "uint16",
              "name": "stdAttenuationRateDenominator",
              "type": "uint16"
            }
          ],
          "internalType": "struct MineHandlerLib.RuleAttenuation",
          "name": "ruleAtt",
          "type": "tuple"
        }
      ],
      "name": "processTimerAttRatio",
      "outputs": [
        {
          "internalType": "uint256",
          "name": "",
          "type": "uint256"
        },
        {
          "internalType": "uint256",
          "name": "",
          "type": "uint256"
        },
        {
          "internalType": "uint256",
          "name": "",
          "type": "uint256"
        }
      ],
      "stateMutability": "view",
      "type": "function"
    }
  ],
  "bytecode": "0x6151d161003a600b82828239805160001a60731461002d57634e487b7160e01b600052600060045260246000fd5b30600052607381538281f3fe73000000000000000000000000000000000000000030146080604052600436106100985760003560e01c8063083ccac81461009d57806316405151146100d05780631f5dbd12146100e35780631feca1981461011057806346fb8fe6146101305780636d0aa59514610168578063808ca544146101965780638d5a6cd5146101b65780639ef5e7bb146101e6578063e8131059146101f9575b600080fd5b6100b06100ab366004613cb6565b610242565b604080519384526020840192909252908201526060015b60405180910390f35b6100b06100de366004613cb6565b61063a565b8180156100ef57600080fd5b506101036100fe366004614143565b61084e565b6040516100c7919061420b565b61012361011e36600461421e565b61090c565b6040516100c791906142b7565b81801561013c57600080fd5b5061015061014b366004614341565b6113bb565b6040516001600160801b0390911681526020016100c7565b81801561017457600080fd5b506101886101833660046143c2565b6114bc565b6040516100c7929190614418565b8180156101a257600080fd5b506101506101b1366004614434565b611b05565b8180156101c257600080fd5b506101d66101d1366004614531565b611dc0565b60405190151581526020016100c7565b6101d66101f436600461455e565b611f34565b81801561020557600080fd5b5061021961021436600461457b565b612126565b6040516100c79493929190938452602084019290925260ff166040830152606082015260800190565b6000806000836060015163ffffffff166000141561027b57610266866127106145de565b63ffffffff1692506127109150849050610631565b60008061028b8760c060006124d7565b905060006102a58860206102a08460c061460a565b6124d7565b905060006102c58960206102ba8460c061460a565b6102a090602061460a565b905060006040518061014001604052808c63ffffffff1681526020018463ffffffff168152602001856001600160c01b031681526020018363ffffffff1681526020018a6060015163ffffffff1681526020018a6080015161ffff1681526020018a60a0015161ffff168152602001600061ffff16815260200160008152602001600081525090506103816040518060600160405280602e8152602001615014602e913961037c8b6060015163ffffffff166124f6565b612501565b6103ae6040518060600160405280602881526020016151746028913961037c8b6080015161ffff166124f6565b6103db604051806060016040528060338152602001614cf16033913961037c8b60a0015161ffff166124f6565b6104236040518060400160405280602081526020017f2d2d2d2d2d2d2d2d204d48204c4f4e472d5445524d20726f756e64436f756e7481525061037c8d63ffffffff166124f6565b61046b6040518060400160405280601e81526020017f2d2d2d2d2d2d2d2d204d48204c4f4e472d5445524d20617474436f756e74000081525061037c8563ffffffff166124f6565b6104b66040518060400160405280601d81526020017f2d2d2d2d2d2d2d2d204d48204c4f4e472d5445524d206174745261746500000081525061037c866001600160c01b03166124f6565b6104e16040518060600160405280602a8152602001614d9a602a913961037c8463ffffffff166124f6565b6104ea8161090c565b90506105156040518060600160405280602a8152602001614d4b602a913961037c83602001516124f6565b61053e604051806060016040528060298152602001614e476029913961037c83604001516124f6565b6105676040518060600160405280603681526020016151166036913961037c83606001516124f6565b610594604051806060016040528060308152602001614e176030913961037c8360e0015161ffff166124f6565b6105be6040518060600160405280602a8152602001614ee0602a913961037c8361012001516124f6565b6105d08a826040015160c0600061254a565b99506105f08a82602001516020600060c06105eb919061460a565b61254a565b99506106168a82606001516020600060c061060b919061460a565b6105eb90602061460a565b99508061012001518161010001518b97509750975050505050505b93509350939050565b600080806c0e596b7b0c643c7196d9ccd05d602b1b808261065d8860c0836124d7565b905060006106728960206102a08460c061460a565b905060006106878a60206102ba8460c061460a565b90506106d0604051806040016040528060198152602001782d2d2d2d2d2d2d2d204d482054494d4552206174745261746560381b81525061037c856001600160c01b03166124f6565b6107156040518060400160405280601a8152602001790b4b4b4b4b4b4b4b48135208151253515488185d1d10dbdd5b9d60321b81525061037c8463ffffffff166124f6565b610740604051806060016040528060238152602001614ff16023913961037c8363ffffffff166124f6565b6000896060015163ffffffff1611801561076c575060608901516107649082614638565b63ffffffff16155b801561078157506000836001600160c01b0316115b156107ce578860a0015161ffff16896080015161ffff16846107a3919061465b565b6107ad9190614681565b6001600160c01b031694506107c36001836146a7565b9150600090506107ea565b6001600160c01b038316156107ea57826001600160c01b031694505b6107f56001826146a7565b90506108058a8660c0600061254a565b99506108208a63ffffffff841660206105eb600060c061460a565b995061083b8a63ffffffff8316602061060b600060c061460a565b949b939a50939850919650505050505050565b604080516020810190915260608152600061086761256f565b60ff8716604082015260608a0151909150610881906125b6565b60ff16815260c08101859052606089015161089b906125db565b6108a89060ff16896145de565b6108b4906127106145de565b62ffffff16608082015260608901516108cc9061260b565b63ffffffff1660a082015260e0810184905261010081018390526040805160208101909152606081526108ff8183612646565b9998505050505050505050565b610970604051806101400160405280600063ffffffff1681526020016000815260200160008152602001600081526020016000815260200160008152602001600061ffff168152602001600061ffff16815260200160008152602001600081525090565b8160c0015161ffff1661271014156109d257600f60e08301526509184e72a00061010083015260408201516109cd578160a001518260c0015161ffff168361010001516109bd91906146cf565b6109c791906146ee565b60408301525b610adb565b8160c0015161ffff166103e81415610a2157601260e0830152678ac7230489e8000061010083015260408201516109cd578160a001518260c0015161ffff168361010001516109bd91906146cf565b8160c0015161ffff1660641415610a7557601460e08301526d314dc6448d9338c15b0a0000000061010083015260408201516109cd578160a001518260c0015161ffff168361010001516109bd91906146cf565b8160c0015161ffff16600a1415610adb57601e60e08301526c0e596b7b0c643c7196d9ccd05d602b1b6101008301526040820151610adb578160a001518260c0015161ffff16836101000151610acb91906146cf565b610ad591906146ee565b60408301525b610b1e6040518060400160405280602081526020017f2d2d2d2d2d2d2d2d2d2d2d2d2d2d2d2d2d2d2d706172616d2e617474526174658152508360400151612c45565b610b48604051806060016040528060278152602001614d24602791398360e0015161ffff16612c45565b60c0820151606083015161ffff90911690610b9a57808360a001518460400151610b7291906146cf565b610b7c91906146ee565b604084015260208301805160019190610b9690839061460a565b9052505b610bc0604051806060016040528060258152602001614d75602591398460a00151612c45565b610c006040518060400160405280601a8152602001792d2d2d2d2d2d2d2d2d312d2d2d2d2d2d2d2d2d6174745261746560301b8152508460400151612c45565b60008360800151846000015163ffffffff168560600151610c21919061460a565b11610cdf5783516040850151610c3d9163ffffffff16906146cf565b8461012001818151610c4f919061460a565b90525060408051808201909152601d81527f2d2d2d2d2d2d2d2d2d322d2d2d2d2d2d2d2d2d726f756e64436f756e7400000060208201528451610c98919063ffffffff16612c45565b610cda6040518060400160405280601b81526020017a2d2d2d2d2d2d2d2d2d322d2d2d2d2d2d2d2d2d617474526174696f60281b815250856101200151612c45565b61137d565b83606001518460800151610cf39190614702565b8460400151610d0291906146cf565b8461012001818151610d14919061460a565b905250608084015184516060860151610d339163ffffffff169061460a565b610d3d9190614719565b9050600084608001518560800151866000015163ffffffff168760600151610d65919061460a565b610d6f9190614702565b610d7991906146ee565b905060018111156112635760008560e0015161ffff1682610d9a91906146ee565b905060008660e0015161ffff1682610db291906146cf565b610dbc9084614702565b9050610dfd6040518060400160405280601c81526020017f2d2d2d2d2d2d2d2d2d352d2d2d2d2d2d2d2d2d7370616e526f756e640000000081525083612c45565b610e1f604051806060016040528060258152602001614f636025913982612c45565b600080868960a001518a60400151610e3791906146cf565b610e4191906146ee565b9050610e7c604051806040016040528060178152602001762d2d2d2d2d2d2d2d2d352e312d2d2d2d2d2d2d2d2d613160481b81525082612c45565b600189602001818151610e8f919061460a565b90525060408901515b84831015610fae5760e08a01518190610eb1908a614811565b8b60e001518c60a00151610ec59190614811565b610ecf90846146cf565b610ed991906146ee565b9150610f47610f42604051806040016040528060158152602001740b4b4b4b4b4b4b4b4b4d8b4b4b4b4b4b4b4b4b585d605a1b815250610f18876124f6565b610f348f60e0015161ffff1689610f2f91906146cf565b6124f6565b610f3d876124f6565b612c8a565b612cbc565b81610f9d5760019150610f97610f426040518060400160405280601a8152602001792d2d2d2d2d2d2d2d2d362d2d2d2d2d2d2d2d2d6174207a65726f60301b815250610f92876124f6565b612d02565b50610fae565b50610fa783614821565b9250610e98565b60008a60e0015161ffff1684610fc491906146cf565b9050600086851015611078575b8b60e0015161ffff168110156110735781610feb81614821565b60a08e01519093508491508b9061100290836146cf565b61100c91906146ee565b935083611062576001935061105c610f426040518060400160405280601c81526020017f2d2d2d2d2d2d2d2d2d362e352d2d2d2d2d2d2d2d2d6174207a65726f00000000815250610f92856124f6565b5061118e565b5061106c81614821565b9050610fd1565b61118e565b61109a604051806060016040528060258152602001614df26025913987612c45565b6110c06040518060600160405280602581526020016150f1602591398d60a00151612c45565b6110f7604051806040016040528060158152602001741696969696969696969b969696969696969696b0b760591b81525084612c45565b8581101561118e578161110981614821565b60a08e01519093508491508b9061112090836146cf565b61112a91906146ee565b93508361117d57611173610f426040518060400160405280601a8152602001792d2d2d2d2d2d2d2d2d372d2d2d2d2d2d2d2d2d6174207a65726f60301b815250610f92856124f6565b600193505061118e565b5061118781614821565b90506110f7565b6111b56040518060600160405280602d8152602001614f36602d91398d6101200151612c45565b60808c015160a08d01516111c9908c614702565b60a08e01516111d890866146cf565b6111e2878e6146cf565b6111ec9190614702565b6111f691906146ee565b61120091906146cf565b8c61012001818151611212919061460a565b9052506040805160608101909152602c80825261123d9190614f0a60208301398d6101200151612c45565b818c60200181815161124f919061460a565b905250505060408a01525061131392505050565b806001141561131357828560a00151866040015161128191906146cf565b61128b91906146ee565b6040860152602085018051600191906112a590839061460a565b905250604085015160808601516112bc91906146cf565b85610120018181516112ce919061460a565b90525060408051808201909152601b81527a2d2d2d2d2d2d2d2d2d392d2d2d2d2d2d2d2d2d617474526174696f60281b60208201526101208601516113139190612c45565b811561137b57828560a00151866040015161132e91906146cf565b61133891906146ee565b60408601526020850180516001919061135290839061460a565b90525060408501516113659083906146cf565b8561012001818151611377919061460a565b9052505b505b8063ffffffff168460600181815250506113b3604051806060016040528060288152602001614fc9602891398560600151612c45565b509192915050565b6000806113cf6113ca84612d2e565b612d5b565b90506000600390506007825111156113ef576113ec846007612e70565b90505b61142d604051806040016040528060198152602001782d2d2d2d2d2d2d2d2d2d204d48205f7570646174654172677360381b8152508260ff16612c45565b6040516331048c1760e11b815263ffffffff8816600482015261ffff80881660248301528616604482015260ff821660648201526001600160a01b03891690636209182e90608401600060405180830381600087803b15801561148f57600080fd5b505af11580156114a3573d6000803e3d6000fd5b505050506114b084611b05565b98975050505050505050565b60006114d46040518060200160405280606081525090565b611512604051806040016040528060168152602001750b4b4b4b4b4b4b4b481352081c9bdd5b9910dbdd5b9d60521b8152508563ffffffff16612c45565b611546604051806040016040528060128152602001712d2d2d2d2d2d2d2d204d482072616e646f6d60701b81525084612c45565b60008560600151602001516001600160a01b0316631424e30c6040518163ffffffff1660e01b815260040160206040518083038186803b15801561158957600080fd5b505afa15801561159d573d6000803e3d6000fd5b505050506040513d601f19601f820116820180604052508101906115c1919061483c565b6001600160a01b03166305cce54f876060015161010001516115e68960600151612ec8565b6040516001600160e01b031960e085901b16815263ffffffff92909216600483015261ffff16602482015260440160006040518083038186803b15801561162c57600080fd5b505afa158015611640573d6000803e3d6000fd5b505050506040513d6000823e601f3d908101601f191682016040526116689190810190614859565b90506116aa6040518060400160405280602081526020017f2d2d2d2d2d2d2d2d204d48206f75744272616e63684c6973742e6c656e6774688152508251612c45565b60408051602081019091526060815260006116c361256f565b90506116d288606001516125b6565b60ff16815260008080805b8651811015611aea57611721604051806040016040528060198152602001780b4b4b4b4b4b4b4b481352081bdd5d109c985b98da131a5cdd603a1b81525082612c45565b611778604051806040016040528060198152602001780b4b4b4b4b4b4b4b481352081bdd5d109c985b98da131a5cdd603a1b815250888381518110611768576117686148f2565b602002602001015160ff16612c45565b86818151811061178a5761178a6148f2565b602002602001015160ff16600014156117a257611ada565b60008c60600151602001516001600160a01b0316631424e30c6040518163ffffffff1660e01b815260040160206040518083038186803b1580156117e557600080fd5b505afa1580156117f9573d6000803e3d6000fd5b505050506040513d601f19601f8201168201806040525081019061181d919061483c565b60608e01516101008101519061183290612ec8565b8a8581518110611844576118446148f2565b602002602001015160405160200161188d94939291906001600160a01b0394909416845263ffffffff92909216602084015261ffff16604083015260ff16606082015260800190565b60408051808303601f19018152908290528051602090910120630334a78160e11b825260048201819052915060009030906306694f029060240160006040518083038186803b1580156118df57600080fd5b505afa1580156118f3573d6000803e3d6000fd5b505050506040513d6000823e601f3d908101601f1916820160405261191b9190810190614938565b905061193e604051806080016040528060418152602001614f8860419139612cbc565b600061194b826000612e70565b9050611985604051806040016040528060168152602001752d2d2d2d204d482067726f7570536c6f74206172677360501b81525082612c45565b6119bd604051806040016040528060168152602001752d2d2d2d2d2d2d2d204d482072616e646f6d5261746560501b81525082612c45565b6119c781886149ae565b96506119ff6040518060400160405280601081526020016f2d2d2d2d2d2d2d2d204d48207261746560801b8152508861ffff16612c45565b8c8761ffff1610158015611a11575084155b15611ad657898481518110611a2857611a286148f2565b60200260200101519550898481518110611a4457611a446148f2565b6020026020010151886040019060ff16908160ff168152505060019450611a976040518060400160405280601081526020016f2d2d2d2d2d2d2d2d204d48207261746560801b8152508861ffff16612c45565b611ace6040518060400160405280601281526020017105a5a5a5a5a5a5a5a409a9040c4e4c2dcc6d60731b8152508760ff16612c45565b505050611aea565b5050505b611ae381614821565b90506116dd565b50611af58585612646565b5099929850919650505050505050565b600080611b13836000612e70565b90506000611b22846001612e70565b90506000611b31856002612e70565b90506000611b40866003612e70565b90506000611b4f876004612e70565b90506000611b5e886005612e70565b90506000611b6d896006612e70565b905063ffffffff841615611be4578161ffff168361ffff1610611be45760405162461bcd60e51b815260206004820152602560248201527f696620617474656e756174652c206d7573742052617465203c2044656e6f6d696044820152643730ba37b960d91b606482015260840160405180910390fd5b611c09604051806060016040528060248152602001615086602491398860ff16612c45565b611c2e60405180606001604052806028815260200161514c602891398760ff16612c45565b6000611c408160ff8a1660088261254a565b9050611c606001600160801b03821660ff891660086105eb60008261460a565b9050611c8f6001600160801b03821663ffffffff88166020611c846000600861460a565b6105eb90600861460a565b9050611cbe6001600160801b03821663ffffffff87166020611cb36000600861460a565b61060b90600861460a565b9050611cf66001600160801b03821661ffff86166010611ce06000600861460a565b611ceb90600861460a565b61060b90602061460a565b9050611d446001600160801b03821661ffff85166010611d186000600861460a565b611d2390600861460a565b611d2e90602061460a565b611d3990602061460a565b6105eb90601061460a565b9050611d666001600160801b03821661ffff85166010611d186000600861460a565b9050611db26001600160801b03821660ff84166008611d8660008261460a565b611d9190600861460a565b611d9c90602061460a565b611da790602061460a565b611d3990601061460a565b9a9950505050505050505050565b60c0820151600090819060ff16611e475761012084015160408051855460208181028301840184528201818152611e4094938892849291849190840182828015611e2957602002820191906000526020600020905b815481526020019060010190808311611e15575b505050505081525050612ee290919063ffffffff16565b9050611eb9565b61012084015160408051855460208181028301840184528201818152611eb694938892849291849190840182828015611e9f57602002820191906000526020600020905b815481526020019060010190808311611e8b575b505050505081525050612f7590919063ffffffff16565b90505b80611ef15760c084015160ff16611ee057610120840151611edb908490612fec565b611ef1565b610120840151611ef190849061309c565b611f2b604051806040016040528060188152602001770b4b4b4b4b4b5d1bdad95b90db185a5b4b58db185a5b595960421b81525082613114565b90505b92915050565b600080611fbb836000015184602001518560600151866040015187608001518860a00151604080516001600160a01b039788166020808301919091529688168183015263ffffffff958616606082015293871660808501529190931660a08301529190931660c0808501919091528151808503909101815260e09093019052815191012090565b90506120046040518060400160405280601f81526020017f2d2d2d2d2d2d2d2d204d4820676574546f6b656e436c61696d20726f756e64008152508460e0015161ffff16612c45565b6040516340477c5d60e01b81526004810182905260009030906340477c5d9060240160006040518083038186803b15801561203e57600080fd5b505afa158015612052573d6000803e3d6000fd5b505050506040513d6000823e601f3d908101601f1916820160405261207a91908101906149cb565b8460e0015161ffff1681518110612093576120936148f2565b602002602001015190506120c16040518060600160405280602a8152602001614eb6602a9139825151612c45565b60c084015160009060ff166120e8576101208501516120e1908390612ee2565b90506120fc565b6101208501516120f9908390612f75565b90505b61211e6040518060600160405280602181526020016150aa6021913982613114565b949350505050565b6000806000806000306001600160a01b03166380fed7448860600151602001516001600160a01b031663fe8c4aa36040518163ffffffff1660e01b815260040160206040518083038186803b15801561217e57600080fd5b505afa158015612192573d6000803e3d6000fd5b505050506040513d601f19601f820116820180604052508101906121b6919061483c565b60608a0151610100810151906121cb90613159565b6121d88c60600151612ec8565b604080516001600160a01b03909516602086015263ffffffff9093169284019290925261ffff908116606084015216608082015260a001604051602081830303815290604052805190602001206040518263ffffffff1660e01b815260040161224391815260200190565b60206040518083038186803b15801561225b57600080fd5b505afa15801561226f573d6000803e3d6000fd5b505050506040513d601f19601f820116820180604052508101906122939190614b08565b905060006040518060c001604052806122b8846001600160801b0316600860006124d7565b60ff1681526020016122da6001600160801b03851660086102a060008261460a565b60ff16815260200161230a846001600160801b03166020600060086122ff919061460a565b6102a090600861460a565b63ffffffff16815260200161233d846001600160801b0316602060006008612332919061460a565b6102ba90600861460a565b63ffffffff1681526020016123796001600160801b03851660106123636000600861460a565b61236e90600861460a565b6102ba90602061460a565b61ffff1681526020016123c96001600160801b038516601061239d6000600861460a565b6123a890600861460a565b6123b390602061460a565b6123be90602061460a565b6102a090601061460a565b61ffff168152509050612416604051806040016040528060188152602001772d2d2d2d2d2d2d2d204d48207374642072756c655479706560401b81525061037c836000015160ff166124f6565b612445604051806060016040528060218152602001614e956021913961037c836060015163ffffffff166124f6565b61248d6040518060400160405280601b81526020017a2d2d2d2d2d2d2d2d204d482073746420737464417474655261746560281b81525061037c836080015161ffff166124f6565b6124ba6040518060600160405280602681526020016150cb6026913961037c8360a0015161ffff166124f6565b6124c5888883613173565b929b919a509850909650945050505050565b91821c916000806124eb600180861b614702565b909416949350505050565b6060611f2e826133e1565b6125468282604051602401612517929190614b5d565b60408051601f198184030181529190526020810180516001600160e01b0316634b5c427760e01b17905261347d565b5050565b600083821b818361255e600180881b614702565b901b19969096161795945050505050565b612577613ace565b61257f613ace565b6000808252604082018190526127106080830181905260a0830181905260c083019190915260e08201819052610100820152919050565b6000611f2e8260a001516008600060086125d0919061460a565b6123be90601061460a565b6000611f2e8260a001516010600060086125f5919061460a565b61260090601061460a565b6122ff90601061460a565b6000611f2e8260a00151602060006008612625919061460a565b61263090601061460a565b61263b90601061460a565b6123be90600861460a565b60c081015160019015612661578061265d81614821565b9150505b8160e001516127101461267c578061267881614821565b9150505b81610100015161271014612698578061269481614821565b9150505b610140820151511515806126b157506101608201515115155b806126c157506101a08201515115155b1561273357600082610160015151836101400151511161270657826101a001515183610160015151116126fa57826101a001515161270e565b8261016001515161270e565b826101400151515b905061271b8160046146cf565b612725908361460a565b60ff90911661012084015290505b61275d6040518060600160405280602e8152602001614dc4602e913983610120015160ff16612c45565b806001600160401b0381111561277557612775613b70565b60405190808252806020026020018201604052801561279e578160200160208202803683370190505b50835281516127ae90849061349e565b6127bc8383602001516134f6565b6127ca83836060015161352f565b6127d883836040015161357e565b6127e7838361012001516135c2565b612808604051806060016040528060258152602001614e7060259139612cbc565b60008060019050836080015162ffffff166127101461283d5761282f858560800151613653565b61283a6001836149ae565b91505b8360a0015163ffffffff166127101461286c5761285e858560a001516136ba565b6128696002836149ae565b91505b60c0840151156128b25760c084015185518261288781614821565b935081518110612899576128996148f2565b60209081029190910101526128af6004836149ae565b91505b8360e00151612710146128fb5760e08401518551826128d081614821565b9350815181106128e2576128e26148f2565b60209081029190910101526128f86008836149ae565b91505b836101000151612710146129465761010084015185518261291b81614821565b93508151811061292d5761292d6148f2565b60209081029190910101526129436010836149ae565b91505b61012084015160ff1615612c345760005b84610120015160ff16811015612c025760008561014001515111801561298257508461014001515181105b156129d957846101400151818151811061299e5761299e6148f2565b6020026020010151866000015183806129b690614821565b9450815181106129c8576129c86148f2565b602002602001018181525050612a07565b8551600090836129e881614821565b9450815181106129fa576129fa6148f2565b6020026020010181815250505b600085610160015151118015612a2257508461016001515181105b15612a79578461016001518181518110612a3e57612a3e6148f2565b602002602001015186600001518380612a5690614821565b945081518110612a6857612a686148f2565b602002602001018181525050612aa7565b855160009083612a8881614821565b945081518110612a9a57612a9a6148f2565b6020026020010181815250505b600085610180015151118015612ac257508461018001515181105b15612b1c578461018001518181518110612ade57612ade6148f2565b602002602001015160ff1686600001518380612af990614821565b945081518110612b0b57612b0b6148f2565b602002602001018181525050612b49565b8551819083612b2a81614821565b945081518110612b3c57612b3c6148f2565b6020026020010181815250505b6000856101a0015151118015612b645750846101a001515181105b15612bc457846101a001518181518110612b8057612b806148f2565b60200260200101516001600160a01b031686600001518380612ba190614821565b945081518110612bb357612bb36148f2565b602002602001018181525050612bf2565b855160009083612bd381614821565b945081518110612be557612be56148f2565b6020026020010181815250505b612bfb81614821565b9050612957565b50612c0e6020836149ae565b9150612c3460405180608001604052806044815260200161504260449139865151612c45565b612c3e858361372d565b5050505050565b6125468282604051602401612c5b929190614b82565b60408051601f198184030181529190526020810180516001600160e01b0316632d839cb360e21b17905261347d565b606084848484604051602001612ca39493929190614ba4565b6040516020818303038152906040529050949350505050565b612cff81604051602401612cd09190614c1c565b60408051601f198184030181529190526020810180516001600160e01b031663104c13eb60e21b17905261347d565b50565b60608282604051602001612d17929190614c2f565b604051602081830303815290604052905092915050565b60408051808201825260008082526020918201528151808301909252825182529182019181019190915290565b6060612d668261377d565b612d6f57600080fd5b6000612d7a836137b6565b90506000816001600160401b03811115612d9657612d96613b70565b604051908082528060200260200182016040528015612ddb57816020015b6040805180820190915260008082526020820152815260200190600190039081612db45790505b5090506000612ded8560200151613839565b8560200151612dfc919061460a565b90506000805b84811015612e6557612e13836138bb565b9150604051806040016040528083815260200184815250848281518110612e3c57612e3c6148f2565b6020908102919091010152612e51828461460a565b925080612e5d81614821565b915050612e02565b509195945050505050565b600080612e7f6113ca85612d2e565b905061211e612ea9828560ff1681518110612e9c57612e9c6148f2565b6020026020010151612d5b565b600281518110612ebb57612ebb6148f2565b6020026020010151613964565b6000611f2e8260a001516010600060086123be919061460a565b6000612f6b8360000151600081518110612efe57612efe6148f2565b602002602001015160018460006008612f179190614c6b565b612f22906004614c6b565b612f2d906008614c6b565b612f38906004614c6b565b612f43906010614c6b565b612f4e906018614c6b565b612f59906020614c6b565b612f639190614c6b565b60ff166124d7565b6001149392505050565b6000612f6b8360000151600081518110612f9157612f916148f2565b602002602001015160018460006008612faa9190614c6b565b612fb5906004614c6b565b612fc0906008614c6b565b612fcb906004614c6b565b612fd6906010614c6b565b612fe1906018614c6b565b612f4e906020614c6b565b61307682600001600081548110613005576130056148f2565b906000526020600020015460018084600060086130229190614c6b565b61302d906004614c6b565b613038906008614c6b565b613043906004614c6b565b61304e906010614c6b565b613059906018614c6b565b613064906020614c6b565b61306e9190614c6b565b60ff1661254a565b8260000160008154811061308c5761308c6148f2565b6000918252602090912001555050565b613076826000016000815481106130b5576130b56148f2565b906000526020600020015460018084600060086130d29190614c6b565b6130dd906004614c6b565b6130e8906008614c6b565b6130f3906004614c6b565b6130fe906010614c6b565b613109906018614c6b565b613059906020614c6b565b612546828260405160240161312a929190614c90565b60408051601f198184030181529190526020810180516001600160e01b031663c3b5563560e01b17905261347d565b6000611f2e8260a001516010600060086102a0919061460a565b6000806000806001856000015160ff1614156132a65760608701516020810151610100820151600092309263f8970ff39233926131af90613159565b6131bc8e60600151612ec8565b604080516001600160a01b039687166020820152959094169385019390935263ffffffff909116606084015261ffff90811660808401521660a082015260c001604051602081830303815290604052805190602001206040518263ffffffff1660e01b815260040161323091815260200190565b60206040518083038186803b15801561324857600080fd5b505afa15801561325c573d6000803e3d6000fd5b505050506040513d601f19601f820116820180604052508101906132809190614cb4565b905060008061329089848a61063a565b8a5192995090975090955093506133d892505050565b60608701516020810151610100820151600092309263f8970ff39233926132cc90613159565b6132d98e60600151612ec8565b8e602001518f6060015160c0015160405160200161334497969594939291906001600160a01b039788168152958716602087015263ffffffff948516604087015261ffff9384166060870152919092166080850152931660a08301529190911660c082015260e00190565b604051602081830303815290604052805190602001206040518263ffffffff1660e01b815260040161337891815260200190565b60206040518083038186803b15801561339057600080fd5b505afa1580156133a4573d6000803e3d6000fd5b505050506040513d601f19601f820116820180604052508101906133c89190614cb4565b905060008061329089848a610242565b93509350935093565b606060006133ee836139b1565b60010190506000816001600160401b0381111561340d5761340d613b70565b6040519080825280601f01601f191660200182016040528015613437576020820181803683370190505b5090508181016020015b600019016f181899199a1a9b1b9c1cb0b131b232b360811b600a86061a8153600a850494508461347057613475565b613441565b509392505050565b80516a636f6e736f6c652e6c6f67602083016000808483855afa5050505050565b6134d382600001516000815181106134b8576134b86148f2565b60200260200101518260ff16600860ff16600060ff1661254a565b825180516000906134e6576134e66148f2565b6020026020010181815250505050565b6134d38260000151600081518110613510576135106148f2565b60200260200101518260ff16600460ff166000600861306e9190614c6b565b6134d38260000151600081518110613549576135496148f2565b60200260200101518260ff16600460ff16600060086135689190614c6b565b613573906004614c6b565b61306e906008614c6b565b6134d38260000151600081518110613598576135986148f2565b60200260200101518260ff16600860ff16600060086135b79190614c6b565b61306e906004614c6b565b6134d382600001516000815181106135dc576135dc6148f2565b60200260200101518260ff16600860ff16600060086135fb9190614c6b565b613606906004614c6b565b613611906008614c6b565b61361c906004614c6b565b613627906010614c6b565b613632906018614c6b565b61363d906020614c6b565b613648906020614c6b565b61306e906020614c6b565b6134d3826000015160008151811061366d5761366d6148f2565b60200260200101518262ffffff16601860ff166000600861368e9190614c6b565b613699906004614c6b565b6136a4906008614c6b565b6136af906004614c6b565b61306e906010614c6b565b6134d382600001516000815181106136d4576136d46148f2565b60200260200101518263ffffffff16602060ff16600060086136f69190614c6b565b613701906004614c6b565b61370c906008614c6b565b613717906004614c6b565b613722906010614c6b565b61306e906018614c6b565b6134d38260000151600081518110613747576137476148f2565b60200260200101518261ffff16601060ff16600060086137679190614c6b565b613772906004614c6b565b6135b7906008614c6b565b805160009061378e57506000919050565b6020820151805160001a9060c08210156137ac575060009392505050565b5060019392505050565b80516000906137c757506000919050565b6000806137d78460200151613839565b84602001516137e6919061460a565b90506000846000015185602001516137fe919061460a565b90505b8082101561383057613812826138bb565b61381c908361460a565b91508261382881614821565b935050613801565b50909392505050565b8051600090811a60808110156138525750600092915050565b60b881108061386d575060c0811080159061386d575060f881105b1561387b5750600192915050565b60c08110156138af57613890600160b8614ccd565b61389d9060ff1682614702565b6138a890600161460a565b9392505050565b613890600160f8614ccd565b80516000908190811a60808110156138d6576001915061395d565b60b88110156138fc576138ea608082614702565b6138f590600161460a565b915061395d565b60c08110156139295760b78103600185019450806020036101000a8551046001820181019350505061395d565b60f881101561393d576138ea60c082614702565b60f78103600185019450806020036101000a855104600182018101935050505b5092915050565b80516000901580159061397957508151602110155b61398257600080fd5b60008061398e84613a87565b81519193509150602082101561211e5760208290036101000a9004949350505050565b60008072184f03e93ff9f4daa797ed6e38ed64bf6a1f0160401b83106139f05772184f03e93ff9f4daa797ed6e38ed64bf6a1f0160401b830492506040015b6904ee2d6d415b85acef8160201b8310613a1a576904ee2d6d415b85acef8160201b830492506020015b662386f26fc100008310613a3857662386f26fc10000830492506010015b6305f5e1008310613a50576305f5e100830492506008015b6127108310613a6457612710830492506004015b60648310613a76576064830492506002015b600a8310611f2e5760010192915050565b6000806000613a998460200151613839565b90506000818560200151613aad919061460a565b90506000828660000151613ac19190614702565b9196919550909350505050565b604051806101c00160405280600060ff168152602001600060ff168152602001600060ff168152602001600060ff168152602001600062ffffff168152602001600063ffffffff168152602001600081526020016000815260200160008152602001600060ff168152602001606081526020016060815260200160608152602001606081525090565b803563ffffffff81168114613b6b57600080fd5b919050565b634e487b7160e01b600052604160045260246000fd5b60405160c081016001600160401b0381118282101715613ba857613ba8613b70565b60405290565b60405160a081016001600160401b0381118282101715613ba857613ba8613b70565b604080519081016001600160401b0381118282101715613ba857613ba8613b70565b60405161018081016001600160401b0381118282101715613ba857613ba8613b70565b60405161014081016001600160401b0381118282101715613ba857613ba8613b70565b604051602081016001600160401b0381118282101715613ba857613ba8613b70565b604051601f8201601f191681016001600160401b0381118282101715613c8257613c82613b70565b604052919050565b60ff81168114612cff57600080fd5b8035613b6b81613c8a565b803561ffff81168114613b6b57600080fd5b6000806000838503610100811215613ccd57600080fd5b613cd685613b57565b93506020850135925060c0603f1982011215613cf157600080fd5b50613cfa613b86565b6040850135613d0881613c8a565b81526060850135613d1881613c8a565b6020820152613d2960808601613b57565b6040820152613d3a60a08601613b57565b6060820152613d4b60c08601613ca4565b6080820152613d5c60e08601613ca4565b60a0820152809150509250925092565b6001600160a01b0381168114612cff57600080fd5b8035613b6b81613d6c565b60006001600160401b03821115613da557613da5613b70565b5060051b60200190565b600082601f830112613dc057600080fd5b81356020613dd5613dd083613d8c565b613c5a565b82815260059290921b84018101918181019086841115613df457600080fd5b8286015b84811015613f365780356001600160401b0380821115613e1757600080fd5b9088019060a0828b03601f19011215613e2f57600080fd5b613e37613bae565b86830135613e4481613c8a565b8152604083810135613e5581613d6c565b828901526060848101358284015260808501359083015260a084013583811115613e7f5760008081fd5b8085019450508b603f850112613e9757600092508283fd5b878401359250613ea9613dd084613d8c565b83815260069390931b8401810192888101908d851115613ec95760008081fd5b948201945b84861015613f205782868f031215613ee65760008081fd5b613eee613bd0565b613ef787613b57565b81528a8701358060040b8114613f0d5760008081fd5b818c015282529482019490890190613ece565b6080840152505085525050918301918301613df8565b509695505050505050565b60006001600160401b03821115613f5a57613f5a613b70565b50601f01601f191660200190565b600082601f830112613f7957600080fd5b8135613f87613dd082613f41565b818152846020838601011115613f9c57600080fd5b816020850160208301376000918101602001919091529392505050565b600060a08284031215613fcb57600080fd5b613fd3613bae565b90508135613fe081613d6c565b81526020820135613ff081613d6c565b6020820152604082013561400381613d6c565b604082015260608201356001600160401b038082111561402257600080fd5b90830190610180828603121561403757600080fd5b61403f613bf2565b61404883613d81565b815261405660208401613d81565b602082015261406760408401613d81565b604082015261407860608401613d81565b60608201526080830135608082015260a083013560a082015261409d60c08401613b57565b60c08201526140ae60e08401613b57565b60e08201526101006140c1818501613b57565b908201526101206140d3848201613c99565b9082015261014083810135838111156140eb57600080fd5b6140f788828701613daf565b828401525050610160808401358381111561411157600080fd5b61411d88828701613f68565b82840152505080606085015250505061413860808301613c99565b608082015292915050565b600080600080600080600060e0888a03121561415e57600080fd5b87356001600160401b0381111561417457600080fd5b6141808a828b01613fb9565b97505061418f60208901613b57565b955061419d60408901613ca4565b945060608801356141ad81613c8a565b9699959850939660808101359560a0820135955060c0909101359350915050565b805160208084528151848201819052600092820190839060408701905b80831015613f3657835182529284019260019290920191908401906141eb565b6020815260006138a860208301846141ce565b6000610140828403121561423157600080fd5b614239613c15565b61424283613b57565b81526020830135602082015260408301356040820152606083013560608201526080830135608082015260a083013560a082015261428260c08401613ca4565b60c082015261429360e08401613ca4565b60e08201526101008381013590820152610120928301359281019290925250919050565b815163ffffffff16815261014081016020830151602083015260408301516040830152606083015160608301526080830151608083015260a083015160a083015260c083015161430d60c084018261ffff169052565b5060e083015161432360e084018261ffff169052565b50610100838101519083015261012092830151929091019190915290565b600080600080600060a0868803121561435957600080fd5b853561436481613d6c565b945061437260208701613b57565b935061438060408701613ca4565b925061438e60608701613ca4565b915060808601356001600160401b038111156143a957600080fd5b6143b588828901613f68565b9150509295509295909350565b6000806000606084860312156143d757600080fd5b83356001600160401b038111156143ed57600080fd5b6143f986828701613fb9565b93505061440860208501613b57565b9150604084013590509250925092565b60ff8316815260406020820152600061211e60408301846141ce565b60006020828403121561444657600080fd5b81356001600160401b0381111561445c57600080fd5b61211e84828501613f68565b6000610140828403121561447b57600080fd5b614483613c15565b905061448e82613d81565b815261449c60208301613d81565b60208201526144ad60408301613d81565b60408201526144be60608301613b57565b60608201526144cf60808301613b57565b60808201526144e060a08301613d81565b60a08201526144f160c08301613c99565b60c082015261450260e08301613ca4565b60e0820152610100614515818401613c99565b90820152610120614527838201613c99565b9082015292915050565b600080610160838503121561454557600080fd5b61454f8484614468565b94610140939093013593505050565b6000610140828403121561457157600080fd5b6138a88383614468565b6000806040838503121561458e57600080fd5b82356001600160401b038111156145a457600080fd5b6145b085828601613fb9565b9250506145bf60208401613b57565b90509250929050565b634e487b7160e01b600052601160045260246000fd5b600063ffffffff80831681851681830481118215151615614601576146016145c8565b02949350505050565b6000821982111561461d5761461d6145c8565b500190565b634e487b7160e01b600052601260045260246000fd5b600063ffffffff8084168061464f5761464f614622565b92169190910692915050565b60006001600160c01b0382811684821681151582840482111615614601576146016145c8565b60006001600160c01b038381168061469b5761469b614622565b92169190910492915050565b600063ffffffff8083168185168083038211156146c6576146c66145c8565b01949350505050565b60008160001904831182151516156146e9576146e96145c8565b500290565b6000826146fd576146fd614622565b500490565b600082821015614714576147146145c8565b500390565b60008261472857614728614622565b500690565b600181815b8085111561476857816000190482111561474e5761474e6145c8565b8085161561475b57918102915b93841c9390800290614732565b509250929050565b60008261477f57506001611f2e565b8161478c57506000611f2e565b81600181146147a257600281146147ac576147c8565b6001915050611f2e565b60ff8411156147bd576147bd6145c8565b50506001821b611f2e565b5060208310610133831016604e8410600b84101617156147eb575081810a611f2e565b6147f5838361472d565b8060001904821115614809576148096145c8565b029392505050565b60006138a861ffff841683614770565b6000600019821415614835576148356145c8565b5060010190565b60006020828403121561484e57600080fd5b8151611f2b81613d6c565b6000602080838503121561486c57600080fd5b82516001600160401b0381111561488257600080fd5b8301601f8101851361489357600080fd5b80516148a1613dd082613d8c565b81815260059190911b820183019083810190878311156148c057600080fd5b928401925b828410156148e75783516148d881613c8a565b825292840192908401906148c5565b979650505050505050565b634e487b7160e01b600052603260045260246000fd5b60005b8381101561492357818101518382015260200161490b565b83811115614932576000848401525b50505050565b60006020828403121561494a57600080fd5b81516001600160401b0381111561496057600080fd5b8201601f8101841361497157600080fd5b805161497f613dd082613f41565b81815285602083850101111561499457600080fd5b6149a5826020830160208601614908565b95945050505050565b600061ffff8083168185168083038211156146c6576146c66145c8565b600060208083850312156149de57600080fd5b82516001600160401b03808211156149f557600080fd5b818501915085601f830112614a0957600080fd5b8151614a17613dd082613d8c565b81815260059190911b83018401908481019088831115614a3657600080fd5b8585015b83811015614afb57805185811115614a525760008081fd5b8601808b03601f1901881315614a685760008081fd5b614a70613c38565b8882015187811115614a825760008081fd5b8083019250508b603f830112614a985760008081fd5b888201516040614aaa613dd083613d8c565b82815260059290921b84018101918b8101908f841115614aca5760008081fd5b948201945b83861015614ae85785518252948c0194908c0190614acf565b8452505050845250918601918601614a3a565b5098975050505050505050565b600060208284031215614b1a57600080fd5b81516001600160801b0381168114611f2b57600080fd5b60008151808452614b49816020860160208601614908565b601f01601f19169290920160200192915050565b604081526000614b706040830185614b31565b82810360208401526149a58185614b31565b604081526000614b956040830185614b31565b90508260208301529392505050565b60008551614bb6818460208a01614908565b8083019050600b60fa1b8082528651614bd6816001850160208b01614908565b600192019182018190528551614bf3816002850160208a01614908565b60029201918201528351614c0e816003840160208801614908565b016003019695505050505050565b6020815260006138a86020830184614b31565b60008351614c41818460208801614908565b600b60fa1b9083019081528351614c5f816001840160208801614908565b01600101949350505050565b600060ff821660ff84168060ff03821115614c8857614c886145c8565b019392505050565b604081526000614ca36040830185614b31565b905082151560208301529392505050565b600060208284031215614cc657600080fd5b5051919050565b600060ff821660ff841680821015614ce757614ce76145c8565b9003939250505056fe2d2d2d2d2d2d2d2d204d48204c4f4e472d5445524d20737464417474656e756174696f6e5261746544656e6f6d696e61746f722d2d2d2d2d2d2d2d2d2d2d2d2d2d2d2d2d2d2d706172616d2e7370616e54696d6573506f7765722d2d2d2d2d2d2d2d204d48204c4f4e472d5445524d202d2d206166746572202d2d20617474436f756e742d2d2d2d2d2d2d2d2d302d2d2d2d2d2d2d2d2d737464417474656e756174696f6e526174652d2d2d2d2d2d2d2d204d48204c4f4e472d5445524d20686973746f72794d6f64526f756e64436f756e742d2d2d2d2d2d2d2d2d2d2d2d20746f6b656e48616e646c657220736574506172616d7320746f6b656e436f756e742d2d2d2d2d2d2d2d2d372d2d2d2d2d2d2d2d2d7370616e526f756e6454696d65734c6566742d2d2d2d2d2d2d2d204d48204c4f4e472d5445524d202d2d206166746572202d2d207370616e54696d6573506f7765722d2d2d2d2d2d2d2d204d48204c4f4e472d5445524d202d2d206166746572202d2d20617474526174652d2d2d2d2d2d2d2d2d2d2d2d20746f6b656e48616e646c657220736574506172616d7320312d2d2d2d2d2d2d2d204d48207374642073746441747465526f756e64436f756e742d2d2d2d2d2d2d2d204d4820676574546f6b656e436c61696d2076616c75654c6973742e6c656e6774682d2d2d2d2d2d2d2d204d48204c4f4e472d5445524d202d2d206166746572202d2d20617474526174696f2d2d2d2d2d2d2d2d2d382d2d2d2d2d2d2d2d616674657220617272617920706172616d2e617474526174696f2d2d2d2d2d2d2d2d2d382d2d2d2d2d2d2d2d6265666f726520617272617920706172616d2e617474526174696f2d2d2d2d2d2d2d2d2d352d2d2d2d2d2d2d2d2d7370616e526f756e6454696d65734c6566742d2d2d2d2d2d3d3d3d3d3d3d2d2d2d2d2d2d20676173202d2d2d2d2d204d696e65202d2d2d2d2d2034202d2d2070617273652067726f7570536c6f7420617267732d2d2d2d2d2d2d2d2d31322d2d2d2d2d2d2d2d2d686973746f72794d6f64526f756e64436f756e742d2d2d2d2d2d2d2d204d482054494d455220686973746f7279526f756e64436f756e742d2d2d2d2d2d2d2d204d48204c4f4e472d5445524d20737464417474656e756174696f6e526f756e64436f756e742d2d2d2d2d2d2d2d2d2d2d2d20746f6b656e48616e646c657220736574506172616d7320746f6b656e436f756e742073656c662e76616c75654c6973742e6c656e6774682d2d2d2d2d2d2d2d2d2d2d2d204d48205f757064617465417267732072756c65547970652d2d2d2d2d2d2d2d204d4820676574546f6b656e436c61696d2d636c61696d65642d2d2d2d2d2d2d2d204d482073746420737464417474655261746544656e6f6d696e61746f722d2d2d2d2d2d2d2d2d372d2d2d2d2d2d2d2d2d737464417474656e756174696f6e526174652d2d2d2d2d2d2d2d204d48204c4f4e472d5445524d202d2d206166746572202d2d20686973746f72794d6f64526f756e64436f756e742d2d2d2d2d2d2d2d2d2d2d2d204d48205f75706461746541726773206475726174696f6e547970652d2d2d2d2d2d2d2d204d48204c4f4e472d5445524d20737464417474656e756174696f6e52617465a2646970667358221220ab8c4bafa051b15757dff4c74b76373b5c9ae8d82a0c2652eceddbf24a4528b364736f6c63430008080033",
  "linkReferences": {},
  "deployedLinkReferences": {}
}