{
  "_format": "hh-sol-artifact-1",
  "contractName": "MineAlgorithm",
  "sourceName": "contracts/V3/handler/MineAlgorithm.sol",
  "abi": [
    {
      "inputs": [
        {
          "components": [
            {
              "internalType": "uint32",
              "name": "roundCount",
              "type": "uint32"
            },
            {
              "internalType": "uint256",
              "name": "attCount",
              "type": "uint256"
            },
            {
              "internalType": "uint256",
              "name": "attRate",
              "type": "uint256"
            },
            {
              "internalType": "uint256",
              "name": "attRateDenominator",
              "type": "uint256"
            },
            {
              "internalType": "uint256",
              "name": "historyModRoundCount",
              "type": "uint256"
            },
            {
              "internalType": "uint256",
              "name": "stdAttenuationRoundCount",
              "type": "uint256"
            },
            {
              "internalType": "uint256",
              "name": "stdAttenuationRate",
              "type": "uint256"
            },
            {
              "internalType": "uint16",
              "name": "stdAttenuationRateDenominator",
              "type": "uint16"
            },
            {
              "internalType": "uint16",
              "name": "spanTimesPower",
              "type": "uint16"
            },
            {
              "internalType": "uint256",
              "name": "attRatio",
              "type": "uint256"
            }
          ],
          "internalType": "struct MineAlgorithm.ParamAttenuation",
          "name": "param",
          "type": "tuple"
        }
      ],
      "name": "callLongTermRatio",
      "outputs": [
        {
          "components": [
            {
              "internalType": "uint32",
              "name": "roundCount",
              "type": "uint32"
            },
            {
              "internalType": "uint256",
              "name": "attCount",
              "type": "uint256"
            },
            {
              "internalType": "uint256",
              "name": "attRate",
              "type": "uint256"
            },
            {
              "internalType": "uint256",
              "name": "attRateDenominator",
              "type": "uint256"
            },
            {
              "internalType": "uint256",
              "name": "historyModRoundCount",
              "type": "uint256"
            },
            {
              "internalType": "uint256",
              "name": "stdAttenuationRoundCount",
              "type": "uint256"
            },
            {
              "internalType": "uint256",
              "name": "stdAttenuationRate",
              "type": "uint256"
            },
            {
              "internalType": "uint16",
              "name": "stdAttenuationRateDenominator",
              "type": "uint16"
            },
            {
              "internalType": "uint16",
              "name": "spanTimesPower",
              "type": "uint16"
            },
            {
              "internalType": "uint256",
              "name": "attRatio",
              "type": "uint256"
            }
          ],
          "internalType": "struct MineAlgorithm.ParamAttenuation",
          "name": "",
          "type": "tuple"
        }
      ],
      "stateMutability": "view",
      "type": "function"
    }
  ],
  "bytecode": "0x608060405234801561001057600080fd5b5061167b806100206000396000f3fe608060405234801561001057600080fd5b506004361061002b5760003560e01c8063653e632714610030575b600080fd5b61004361003e3660046110d0565b610059565b6040516100509190611169565b60405180910390f35b6100bd604051806101400160405280600063ffffffff168152602001600081526020016000815260200160008152602001600081526020016000815260200160008152602001600061ffff168152602001600061ffff168152602001600081525090565b8160e0015161ffff16612710141561011e57600f6101008301526509184e72a00060608301526040820151610119578160c001518260e0015161ffff1683606001516101099190611201565b6101139190611236565b60408301525b610224565b8160e0015161ffff166103e8141561016c576012610100830152678ac7230489e8000060608301526040820151610119578160c001518260e0015161ffff1683606001516101099190611201565b8160e0015161ffff16606414156101bf5760146101008301526d314dc6448d9338c15b0a0000000060608301526040820151610119578160c001518260e0015161ffff1683606001516101099190611201565b8160e0015161ffff16600a141561022457601e6101008301526c0e596b7b0c643c7196d9ccd05d602b1b60608301526040820151610224578160c001518260e0015161ffff1683606001516102149190611201565b61021e9190611236565b60408301525b6102676040518060400160405280602081526020017f2d2d2d2d2d2d2d2d2d2d2d2d2d2d2d2d2d2d2d706172616d2e617474526174658152508360400151610dc5565b6102926040518060600160405280602781526020016114e96027913983610100015161ffff16610dc5565b60e0820151608083015161ffff909116906102e457808360c0015184604001516102bc9190611201565b6102c69190611236565b6040840152602083018051600191906102e090839061124a565b9052505b61030a604051806060016040528060258152602001611510602591398460c00151610dc5565b61034a6040518060400160405280601a8152602001792d2d2d2d2d2d2d2d2d312d2d2d2d2d2d2d2d2d6174745261746560301b8152508460400151610dc5565b60008360a00151846000015163ffffffff16856080015161036b919061124a565b1161042957835160408501516103879163ffffffff1690611201565b8461012001818151610399919061124a565b90525060408051808201909152601d81527f2d2d2d2d2d2d2d2d2d322d2d2d2d2d2d2d2d2d726f756e64436f756e74000000602082015284516103e2919063ffffffff16610dc5565b6104246040518060400160405280601b81526020017a2d2d2d2d2d2d2d2d2d322d2d2d2d2d2d2d2d2d617474526174696f60281b815250856101200151610dc5565b610d8a565b83608001518460a0015161043d9190611262565b846040015161044c9190611201565b846101200181815161045e919061124a565b90525060408051808201909152601b81527a2d2d2d2d2d2d2d2d2d332d2d2d2d2d2d2d2d2d617474526174696f60281b60208201526101208501516104a39190610dc5565b60a0840151845160808601516104bf9163ffffffff169061124a565b6104c99190611279565b90506104ed60405180606001604052806021815260200161155a6021913982610dc5565b60a08401518451608086015160009291829161050f9163ffffffff169061124a565b6105199190611262565b6105239190611236565b905061055f604051806040016040528060188152602001772d2d2d2d2d2d2d2d2d332d2d2d2d2d2d2d2d2d74696d657360401b81525082610dc5565b61059f6040518060400160405280601a8152602001792d2d2d2d2d2d2d2d2d342d2d2d2d2d2d2d2d2d6174745261746560301b8152508660400151610dc5565b6105e06040518060400160405280601b81526020017a0b4b4b4b4b4b4b4b4b4d0b4b4b4b4b4b4b4b4b585d1d10dbdd5b9d602a1b8152508660200151610dc5565b6001811115610ba957600085610100015161ffff16826106009190611236565b9050600086610100015161ffff16826106199190611201565b6106239084611262565b90506106646040518060400160405280601c81526020017f2d2d2d2d2d2d2d2d2d352d2d2d2d2d2d2d2d2d7370616e526f756e640000000081525083610dc5565b6106866040518060600160405280602581526020016115d46025913982610dc5565b600080868960c001518a6040015161069e9190611201565b6106a89190611236565b90506106e3604051806040016040528060178152602001762d2d2d2d2d2d2d2d2d352e312d2d2d2d2d2d2d2d2d613160481b81525082610dc5565b6001896020018181516106f6919061124a565b90525060408901515b84831015610818576101008a01518190610719908a611371565b8b61010001518c60c0015161072e9190611371565b6107389084611201565b6107429190611236565b91506107b16107ac604051806040016040528060158152602001740b4b4b4b4b4b4b4b4b4d8b4b4b4b4b4b4b4b4b585d605a1b81525061078187610e0e565b61079e8f610100015161ffff16896107999190611201565b610e0e565b6107a787610e0e565b610e1f565b610e51565b8161080757600191506108016107ac6040518060400160405280601a8152602001792d2d2d2d2d2d2d2d2d362d2d2d2d2d2d2d2d2d6174207a65726f60301b8152506107fc87610e0e565b610e97565b50610818565b5061081183611388565b92506106ff565b60008a610100015161ffff168461082f9190611201565b90506000868510156108e4575b8b610100015161ffff168110156108df578161085781611388565b60c08e01519093508491508b9061086e9083611201565b6108789190611236565b9350836108ce57600193506108c86107ac6040518060400160405280601c81526020017f2d2d2d2d2d2d2d2d2d362e352d2d2d2d2d2d2d2d2d6174207a65726f000000008152506107fc85610e0e565b506109fa565b506108d881611388565b905061083c565b6109fa565b6109066040518060600160405280602581526020016115356025913987610dc5565b61092c604051806060016040528060258152602001611621602591398d60c00151610dc5565b610963604051806040016040528060158152602001741696969696969696969b969696969696969696b0b760591b81525084610dc5565b858110156109fa578161097581611388565b60c08e01519093508491508b9061098c9083611201565b6109969190611236565b9350836109e9576109df6107ac6040518060400160405280601a8152602001792d2d2d2d2d2d2d2d2d372d2d2d2d2d2d2d2d2d6174207a65726f60301b8152506107fc85610e0e565b60019350506109fa565b506109f381611388565b9050610963565b610a31604051806040016040528060158152602001742d2d2d2d2d2d2d2d2d382d2d2d2d2d2d2d2d20613160581b81525085610dc5565b610a68604051806040016040528060158152602001741696969696969696969c16969696969696969030b760591b81525084610dc5565b610a9e604051806040016040528060148152602001730b4b4b4b4b4b4b4b4b4e0b4b4b4b4b4b4b4b481960621b8152508b610dc5565b610ad4604051806040016040528060148152602001731696969696969696969c1696969696969696903760611b81525083610dc5565b610afb6040518060600160405280602d81526020016115a7602d91398d6101200151610dc5565b60a08c015160c08d0151610b0f908c611262565b60c08e0151610b1e9086611201565b610b28878e611201565b610b329190611262565b610b3c9190611236565b610b469190611201565b8c61012001818151610b58919061124a565b9052506040805160608101909152602c808252610b83919061157b60208301398d6101200151610dc5565b818c602001818151610b95919061124a565b905250505060408a015250610c5992505050565b8060011415610c5957828560c001518660400151610bc79190611201565b610bd19190611236565b604086015260208501805160019190610beb90839061124a565b905250604085015160a0860151610c029190611201565b8561012001818151610c14919061124a565b90525060408051808201909152601b81527a2d2d2d2d2d2d2d2d2d392d2d2d2d2d2d2d2d2d617474526174696f60281b6020820152610120860151610c599190610dc5565b8115610d8857828560c001518660400151610c749190611201565b610c7e9190611236565b604086015260208501805160019190610c9890839061124a565b9052506040850151610cab908390611201565b8561012001818151610cbd919061124a565b90525060408051808201909152601c81527f2d2d2d2d2d2d2d2d2d31312d2d2d2d2d2d2d2d2d617474526174696f000000006020820152610120860151610d049190610dc5565b610d456040518060400160405280601b81526020017a2d2d2d2d2d2d2d2d2d31312d2d2d2d2d2d2d2d2d6174745261746560281b8152508660400151610dc5565b610d886040518060400160405280601c81526020017f2d2d2d2d2d2d2d2d2d31312d2d2d2d2d2d2d2d2d617474436f756e74000000008152508660200151610dc5565b505b63ffffffff8116608085015260408051606081019091526028808252610dbd91906115f960208301398560800151610dc5565b509192915050565b610e0a8282604051602401610ddb9291906113ff565b60408051601f198184030181529190526020810180516001600160e01b0316632d839cb360e21b179052610ec3565b5050565b6060610e1982610ee4565b92915050565b606084848484604051602001610e389493929190611421565b6040516020818303038152906040529050949350505050565b610e9481604051602401610e659190611499565b60408051601f198184030181529190526020810180516001600160e01b031663104c13eb60e21b179052610ec3565b50565b60608282604051602001610eac9291906114ac565b604051602081830303815290604052905092915050565b80516a636f6e736f6c652e6c6f67602083016000808483855afa5050505050565b60606000610ef183610f81565b600101905060008167ffffffffffffffff811115610f1157610f11611057565b6040519080825280601f01601f191660200182016040528015610f3b576020820181803683370190505b5090508181016020015b600019016f181899199a1a9b1b9c1cb0b131b232b360811b600a86061a8153600a8504945084610f7457610f79565b610f45565b509392505050565b60008072184f03e93ff9f4daa797ed6e38ed64bf6a1f0160401b8310610fc05772184f03e93ff9f4daa797ed6e38ed64bf6a1f0160401b830492506040015b6904ee2d6d415b85acef8160201b8310610fea576904ee2d6d415b85acef8160201b830492506020015b662386f26fc10000831061100857662386f26fc10000830492506010015b6305f5e1008310611020576305f5e100830492506008015b612710831061103457612710830492506004015b60648310611046576064830492506002015b600a8310610e195760010192915050565b634e487b7160e01b600052604160045260246000fd5b604051610140810167ffffffffffffffff8111828210171561109f57634e487b7160e01b600052604160045260246000fd5b60405290565b803563ffffffff811681146110b957600080fd5b919050565b803561ffff811681146110b957600080fd5b600061014082840312156110e357600080fd5b6110eb61106d565b6110f4836110a5565b81526020830135602082015260408301356040820152606083013560608201526080830135608082015260a083013560a082015260c083013560c082015261113e60e084016110be565b60e08201526101006111518185016110be565b90820152610120928301359281019290925250919050565b815163ffffffff16815261014081016020830151602083015260408301516040830152606083015160608301526080830151608083015260a083015160a083015260c083015160c083015260e08301516111c960e084018261ffff169052565b506101008381015161ffff811684830152505061012092830151919092015290565b634e487b7160e01b600052601160045260246000fd5b600081600019048311821515161561121b5761121b6111eb565b500290565b634e487b7160e01b600052601260045260246000fd5b60008261124557611245611220565b500490565b6000821982111561125d5761125d6111eb565b500190565b600082821015611274576112746111eb565b500390565b60008261128857611288611220565b500690565b600181815b808511156112c85781600019048211156112ae576112ae6111eb565b808516156112bb57918102915b93841c9390800290611292565b509250929050565b6000826112df57506001610e19565b816112ec57506000610e19565b8160018114611302576002811461130c57611328565b6001915050610e19565b60ff84111561131d5761131d6111eb565b50506001821b610e19565b5060208310610133831016604e8410600b841016171561134b575081810a610e19565b611355838361128d565b8060001904821115611369576113696111eb565b029392505050565b600061138161ffff8416836112d0565b9392505050565b600060001982141561139c5761139c6111eb565b5060010190565b60005b838110156113be5781810151838201526020016113a6565b838111156113cd576000848401525b50505050565b600081518084526113eb8160208601602086016113a3565b601f01601f19169290920160200192915050565b60408152600061141260408301856113d3565b90508260208301529392505050565b60008551611433818460208a016113a3565b8083019050600b60fa1b8082528651611453816001850160208b016113a3565b600192019182018190528551611470816002850160208a016113a3565b6002920191820152835161148b8160038401602088016113a3565b016003019695505050505050565b60208152600061138160208301846113d3565b600083516114be8184602088016113a3565b600b60fa1b90830190815283516114dc8160018401602088016113a3565b0160010194935050505056fe2d2d2d2d2d2d2d2d2d2d2d2d2d2d2d2d2d2d2d706172616d2e7370616e54696d6573506f7765722d2d2d2d2d2d2d2d2d302d2d2d2d2d2d2d2d2d737464417474656e756174696f6e526174652d2d2d2d2d2d2d2d2d372d2d2d2d2d2d2d2d2d7370616e526f756e6454696d65734c6566742d2d2d2d2d2d2d2d2d332d2d2d2d2d2d2d2d2d72656172526f756e64436f756e742d2d2d2d2d2d2d2d2d382d2d2d2d2d2d2d2d616674657220617272617920706172616d2e617474526174696f2d2d2d2d2d2d2d2d2d382d2d2d2d2d2d2d2d6265666f726520617272617920706172616d2e617474526174696f2d2d2d2d2d2d2d2d2d352d2d2d2d2d2d2d2d2d7370616e526f756e6454696d65734c6566742d2d2d2d2d2d2d2d2d31322d2d2d2d2d2d2d2d2d686973746f72794d6f64526f756e64436f756e742d2d2d2d2d2d2d2d2d372d2d2d2d2d2d2d2d2d737464417474656e756174696f6e52617465a2646970667358221220e38f84e4a3bfec982574eb415da3246220109ee69b702e4e8838ccb187506eda64736f6c63430008080033",
  "linkReferences": {},
  "deployedLinkReferences": {}
}